:100000000C9459000C9476000C9476000C947600B5
:100010000C94863A0C9476000C9476000C9476003E
:100020000C9476000C9476000C94403A0C94760074
:100030000C9476000C9453380C9476000C94F83998
:100040000C941C3A0C9476000C9476000C943004BA
:100050000C947600CE06D106D106D106D106D10683
:10006000D106E206EB06F006F006F006F006F00612
:1000700001070A070D070D070D070D070D072C07D0
:100080001E071E073D072F072F072F072F074E07B5
:100090004007400740074007400740074007510717
:1000A00007070B070B000000000107070D0D0000FC
:1000B000010011241FBECFE5D8E0DEBFCDBF12E0A6
:1000C000A0E6B0E0E4E6F6E702C005900D92AE309F
:1000D000B107D9F714E0AEE0B2E001C01D92AA3832
:1000E000B107E1F70E9470380C94303B0C9400008B
:1000F000E199FECF9FBB8EBB6DBB0FB6F894E29A21
:10010000E19A0FBE0895E199FECF9FBB8EBBE09AA6
:100110008DB30895F8948093610078940895809148
:10012000600090916100891711F0909360008091B8
:100130006000813009F442C0813020F0823009F043
:1001400048C042C080910E0290910F020196909398
:100150000F0280930E022BE0893B920759F12BE0AE
:100160008A3B920798F421E08E35920729F121E02D
:100170008F35920718F4019761F51CC025E08D3D7D
:100180009207C1F08A53974021F516C021E18539C5
:10019000920781F021E18639920720F486519D4033
:1001A000C1F40AC022E1823F920731F080519742A8
:1001B00081F405C0AA9A0895AA980895AA98109261
:1001C0000F0210920E020895AA9A10920F02109236
:1001D0000E020895AA98A29A0895AE98A698089536
:1001E000FC0180911002882361F180912E028730FA
:1001F00049F480912F02909130028F7D90933002CC
:1002000080932F0280912E02808380912F02909103
:1002100030029283818380913102909132029483E3
:1002200083838091330285831092320210923102CF
:100230001092300210922F0210923302109210028C
:1002400081E00895982F60911C0270912602671733
:1002500038F180912702681718F580912C02292F18
:1002600030E04091340250913502882381F0862F8E
:1002700090E0871B910902C0220F331F8A95E2F795
:10028000422B532B509335024093340233C0440F1A
:10029000551F242B352B30933502209334022AC06E
:1002A00070912802671730F180912902681710F5C4
:1002B00080912C02292F30E0409136025091370274
:1002C000882381F0862F90E0871B910902C0220FBE
:1002D000331F8A95E2F7422B532B509337024093FA
:1002E000360208C0440F551F242B352B309337029C
:1002F000209336026F5F60931C02089593B3809140
:100300001002882309F015C2292F207480911B0246
:10031000882381F590911802222321F49F5F909306
:10032000180207C29923B9F091E090931B029093B1
:10033000190210921A02109237021092360210928D
:100340003502109234028FEF80931C0290931702B3
:1003500010921302EEC180911502909116022FEFB8
:100360008F3F920709F4E5C101969093160280939E
:100370001502DFC180911902882309F471C022237C
:1003800049F0809117028F5F809317028C3908F42F
:1003900053C1BFC020911802822F8750853018F0BA
:1003A00087508930E8F490911702892F8750853063
:1003B00018F087508930A0F460EA70E09093120240
:1003C0002C502B3018F09C509B3030F410921102BE
:1003D00080E48093130208C081E08093110204C07E
:1003E00010921B0260E070E080911B02882331F0C4
:1003F0008DE192E041E150E00E94B33A10921C027C
:1004000080912D02482F50E080FF22C080911D0274
:100410008731F1F08930E1F02091170280911F02BD
:10042000821760F430E090E0880F991F82179307DD
:100430002CF056954795842F809507C08091110226
:10044000882331F456954795842F81700E942201AC
:1004500081E0809318021092170210921902ECC0EA
:1004600080911A02882309F4DAC0222309F458C0C3
:1004700050911C0260912A025617A9F480912B0218
:10048000813089F480912D0280FD0AC0909118027C
:10049000809122029817E8F1809123028917C8F110
:1004A00010922B02C9C0409117024F5F4093170270
:1004B00080912D0280FF1AC0242F30E0809121020C
:1004C00090E0880F991F2817390784F0252F30E016
:1004D000862F90E002972817390744F080912B026D
:1004E000882321F481E080932B021AC04C3908F450
:1004F000A3C0252F30E0862F90E0019728173907F9
:1005000041F480912B02882321F45F5F50931C02F9
:1005100093C010921B0210921802109217028CC006
:1005200080912D02282F30E09091180280FF45C065
:1005300080911F028917C0F436952795822F8095E8
:1005400081700E94220180912D0290E096958795FE
:1005500081700E94220180912D0290E096958795EE
:1005600081708093110224C080911E029817E0F0E0
:100570002091120280912102821780F430E090E0F5
:10058000880F991F821793074CF090E08091110219
:10059000882309F491E09093110202C09091110216
:1005A000892F0E94220104C010921B021092170290
:1005B000809117028093120215C080911E02981735
:1005C000A0F080911F02891780F02091170280917E
:1005D0002002281750F080912102821730F081E02C
:1005E0000E94220110921A0218C0809122029817CC
:1005F00080F080912302891760F09091170280911A
:100600002402981730F080912502891710F080E0BD
:10061000E7CF10921B021092170281E005C022233F
:1006200031F4809118028F5F8093180205C081E039
:1006300080931A028093170280911B02882309F489
:1006400078C090911C0280912A02981709F071C01D
:1006500080912B02882309F06CC060916200709138
:10066000630020913602309137026217730769F4F4
:1006700080911502909116028052934030F480913F
:1006800014028F5F8093140202C01092140281E062
:100690008093100280911D0280932E0240913402BB
:1006A000509135025093300240932F02873049F425
:1006B0008091130290E0822B932B909337028093CA
:1006C0003602209136023091370230933202209365
:1006D000310280911002882311F16217730799F497
:1006E00080916400909165008417950761F4809172
:1006F0001502909116028C5D954028F4809133028A
:10070000816080933302509365004093640030937E
:10071000630020936200109216021092150210924C
:100720001B02109237021092360210921802109299
:10073000170280911002089581E08093390280E1D0
:1007400080B98FEF83B982E382B985EC86BF0895C3
:1007500016BE10923B02089580913B02089580914D
:100760003B028823E1F7809166000895FC018091A7
:100770003B028823E1F71092390260935B0280818B
:1007800080933D0280FD0DC04E2FAEE3B2E0CF015D
:10079000FC0102C080818D9331968E2F841B8617B9
:1007A000C8F310923A0288EF8093660081E080934C
:1007B0003B0285EA86BF089580913B028823E1F7DA
:1007C0001092390210923A0288EF8093660081E01D
:1007D00080933B0285EA86BF0895AC0180913B027D
:1007E0008823E1F780913A0280FF0FC020E030E0DB
:1007F0000AC0FA01E20FF31FD901A35CBD4F8C912F
:1008000080832F5F3F4F2617A0F380913A028170BB
:100810000895AC01F89480913B028823F1F4809113
:1008200039028130D1F4809138028823B1F020E080
:100830000AC0E22FF0E0DA01AE0FBF1FE75DFB4F09
:1008400080818C932F5F80913802281790F310924B
:1008500038027894822F81500895789480E008952A
:100860001F920F920FB60F9211242F933F935F9315
:100870006F937F938F939F93AF93BF93EF93FF9368
:1008800081B1883309F45DC0893370F48031E9F0B7
:10089000813120F4883009F06FC017C08831B9F079
:1008A000883209F069C013C08835C1F1893530F448
:1008B000803441F1803509F05FC019C0803609F4F9
:1008C00055C0803809F058C03EC010923C0290914B
:1008D0003C0280915B02981740F5E92FF0E0E35C61
:1008E000FD4F808183B99F5F90933C0215C080913A
:1008F0003C0293B1E82FF0E0E35CFD4F90838F5F03
:1009000080933C0220913C0230E080915B0290E0B9
:10091000019728173907C4F185E837C083B1E09102
:100920003C02F0E0E35CFD4F808380913A028160FD
:1009300080933A0210923B0281E08093390285ED68
:1009400024C085EA22C081E080933B028091380276
:1009500090E023B1FC01E75DFB4F208301966AE044
:1009600070E00E94FB3A809338020EC081E08093D1
:100970003B021092380208C081B18093660081E08A
:100980008093390210923B0285EC86BFFF91EF9174
:10099000BF91AF919F918F917F916F915F913F91A7
:1009A0002F910F900FBE0F901F90189580915C02B1
:1009B000089580915D020895EF92FF920F931F9327
:1009C00080916700882351F483B3209168003091AF
:1009D0006900881F8827881F90E00EC083B320918C
:1009E00068003091690090E08095909580789070D3
:1009F000880F892F881F990BAC01429FC001439F2C
:100A0000900D529F900D11247C0100E010E0809128
:100A10006402E114F1040105110549F4813079F40F
:100A200010926302109262021092640211C0882335
:100A300021F481E0809364020BC0813049F0809101
:100A40006202909163020196909363028093620226
:100A500060915E0270915F028091600290916102EC
:100A600027E430E040E050E00E94BC3AE60EF71E7A
:100A7000081F191FC801B70128E430E040E050E02A
:100A80000E940E3BC901DA0180935E0290935F02DF
:100A9000A0936002B0936102E091710220915E0226
:100AA00030915F0240916002509161028091680034
:100AB0009091690070E0E11171E060E09695879592
:100AC000A0E0B0E0281739074A075B0708F061E0AB
:100AD0007617C9F081E08E1B80937102882329F478
:100AE00080E090E0A0E0B0E006C0809168009091C6
:100AF0006900A0E0B0E080935E0290935F02A09353
:100B00006002B09361028091710280935D021F9137
:100B10000F91FF90EF900895282F22952F709AE063
:100B2000299F900111248F70820F0895882319F452
:100B300010926700089581E0809367000895809186
:100B400067000895A7980895AF92CF92EF920F9300
:100B50001F930E94DC0480915D0220916D02309110
:100B60006E028823F1F4232B49F010926A0210924E
:100B7000690210926E0210926D02B5C02091690256
:100B800030916A028BE0293B380708F09CC081E075
:100B900080935C022F5F3F4F30936A02209369027B
:100BA000A2C0232B09F087C08091690290916A024C
:100BB000855A96408B52914008F059C0809162024C
:100BC00090916302895E934008F451C08091650260
:100BD000833009F044C080916A0060916B002091DD
:100BE0006E0000916C0030916F0070916D00E82FE5
:100BF000E295EF709AE0E99FF00111248F70462F83
:100C000042954F70499FA00111246F70640F422FCD
:100C100042954F70499FA00111242F70240F402F3F
:100C200042954F70499FA00111240F70040F432F6C
:100C300042954F70499FA00111243F70340F472FF8
:100C400042954F70499FA00111247F70740F8E0F41
:100C500040E0E32EC72E12E0A12E0E948A081092D7
:100C600068021092670281E0809365020CC0809157
:100C700065028330A9F41092680210926702109204
:100C8000650210925C028FEF80936A0080936B0084
:100C900080936F0080936D0080936C0080936E0052
:100CA00010926C0210926B0281E090E090936E02C1
:100CB00080936D0218C020916B0230916C0281E02C
:100CC0002D32380738F01092650210925C021092B3
:100CD0006F0209C081E080935C022F5F3F4F309329
:100CE0006C0220936B0280916702909168020196DA
:100CF0009093680280936702885E934021F410927B
:100D000068021092670290916502923069F0933008
:100D100009F4B2C1913009F0B1C11092660282E0CB
:100D20008093650290935C0282E080935C028091E4
:100D3000670290916802845F914009F09FC1E09042
:100D400066028E2D8551863208F080C120916B029B
:100D500030916C02C901CC978135910510F420E0E7
:100D60000DC0205A30402135310508F06FC1809107
:100D7000700291E089278093700221E08E2D90E02F
:100D8000FC017597E632F10508F060C1E65DFF4FA2
:100D9000EE0FFF1F0590F491E02D099420936A0057
:100DA0001CC0822F90E02E2D30E02551304002C033
:100DB000880F991F2A95E2F720916A00282B20932B
:100DC0006A0044C180917002882309F43FC18FEF0B
:100DD00080936A003BC120936B002093700236C160
:100DE000822F90E02E2D30E02D51304002C0880F30
:100DF000991F2A95E2F720916B00282B20936B0016
:100E000025C180917002882309F420C18FEF80935F
:100E10006B001CC120936E00E0CF822F90E02E2D3E
:100E200030E02452304002C0880F991F2A95E2F723
:100E300020916E00282B20936E0008C1822F90E035
:100E40002E2D30E02A52304002C0880F991F2A957B
:100E5000E2F720916D00282B20936D00F7C0822FC0
:100E600090E02E2D30E02D52304002C0880F991FA7
:100E70002A95E2F720916C00282B20936C00E6C0A5
:100E8000822F90E02E2D30E02253304002C0880F98
:100E9000991F2A95E2F720916F00282B20936F006D
:100EA000D5C080917002882349F08FEF80936E0047
:100EB00080936D0080936C0080936F0050916A0066
:100EC000852F82958F703AE0839FC0011124BFE087
:100ED000CB2EC522C80E8BE38C1508F49CC0209144
:100EE0006B00822F82958F70839FC0011124F22F97
:100EF000FF70F80FF83108F08EC0A0906E008A2DB8
:100F000082958F70839FC00111249A2D9F70980F36
:100F100009F481C0903208F07EC010916C00812FDE
:100F200082958F70839FC0011124912F9F70980F1D
:100F300009F471C09D3008F06EC000916F00802FE1
:100F400082958F70839FC0011124202F2F70280F4E
:100F5000243608F060C0E0916D001E160CF05BC0F6
:100F6000E8300CF058C080917300E81709F046C0D3
:100F700080917400A81609F041C080917200181782
:100F8000E9F5809175000817C9F5409170002C2D86
:100F900030E0842F992787FD90950196281739070F
:100FA00051F42F2F30E080917100992787FD9095A3
:100FB0002817390799F05523F9F44B33E9F42F2F0B
:100FC00030E080917100992787FD9095019668E146
:100FD00070E00E94FB3A2817390771F480916F0284
:100FE0008F5F80936F02882349F081E080936F02C6
:100FF00083E08093650202C010926F02C09270007D
:10100000F0937100E0937300A0927400109372004B
:10101000009375001BC08FEF80936A0080936B0074
:1010200080936F0080936D0080936C0080936E00BE
:1010300010926F028093700080937100809375000E
:101040008093730080937200809374008E2D8F5F65
:10105000809366028C3391F4109266028FEF809336
:101060006A0080936B0080936F0080936D00809383
:101070006C0080936E0002C090935C021F910F91F0
:10108000EF90CF90AF900895833008F080E0809388
:1010900073020895809173020895E82FF0E0EE0F37
:1010A000FF1FEA58FF4F808191810895F8942091A5
:1010B0009F003091A0007894C9010895F89410928F
:1010C000A00010929F0078940895F8948FEF9FEFFE
:1010D0009093A00080939F0078940895F894809155
:1010E0009F009091A0009093A2008093A1008FEFA9
:1010F0009FEF9093A00080939F0078940895F894B8
:101100008091A1009091A2009093A00080939F00F5
:1011100078940895AF92CF92EF920F9380937502D7
:101120006093740220939800C0929A0000939900F3
:10113000E092770240937602A09278020F91EF90AE
:10114000CF90AF900895CF92DF92EF92FF920F93DE
:101150001F93FC01DB01B8018701F89480917A02AA
:101160008083809179028C9380917B02FA01808345
:1011700080919B00F901808380919C00FB0180831A
:1011800080917C02F801808380919D00F60180832C
:1011900078941F910F91FF90EF90DF90CF9008957A
:1011A00080911F04882311F00E941F3308958091BD
:1011B0009B006AE00E94DB3A805D0E948F30809144
:1011C0009B006AE00E94DB3A892F805D0E948F308D
:1011D00080919C006AE00E94DB3A805D0E948F3023
:1011E00080919C006AE00E94DB3A892F805D0E941A
:1011F0008F3080917C026AE00E94DB3A805D0E9421
:101200008F3080917C026AE00E94DB3A892F805DFA
:101210000E948F3080919D006AE00E94DB3A892F06
:10122000805D0E948F30809179026AE00E94DB3AF3
:10123000805D0E948F30809179026AE00E94DB3AE3
:10124000892F805D0E948F3080917A026AE00E942F
:10125000DB3A805D0E948F3080917A026AE00E94C2
:10126000DB3A892F805D0E948F3080917B026AE09B
:101270000E94DB3A805D0E948F3080917B026AE0A1
:101280000E94DB3A892F805D0E948F308DE20E94A0
:101290008F3080919E000E948F308DE00E948F30B1
:1012A0008AE00E948F30089580917802882309F4A3
:1012B0007CC0E0917802F0E0EE0FFF1FEA58FF4F8C
:1012C00011821082909173029130F9F480919C0008
:1012D0008A30E1F580919D008730C1F580919B00B7
:1012E0008931A0F180917A028F3180F1809174026E
:1012F000823061F580917902823041F580917802E7
:10130000813021F19093720221C09230F9F48091E2
:101310009C008B30D9F480919D008730B9F4809186
:101320009B00883098F480917A028F3178F0809118
:101330007402813059F480917902813039F48091BE
:101340007802813019F081E08093720280917602F8
:1013500080937B028091750280937A02809174025F
:101360008093790280919A0080939D0080919800EB
:1013700080939B008091990080939C0080917702DC
:1013800080937C0280911F04882331F08091780241
:10139000813011F00E9441331092780210927E0247
:1013A00010927D020E94D70809C080917D02909121
:1013B0007E02019690937E0280937D0280919F0031
:1013C0009091A00097FD09C080919F009091A0008E
:1013D00001969093A00080939F0080917D02909150
:1013E0007E028A3F910509F016C110927E0210928A
:1013F0007D0280917B028F5F80937B0280917B02D4
:101400008C3308F4FCC010927B0280917A028F5FCB
:1014100080937A0280917A0090917B002FEF8F3F2A
:10142000920729F0019690937B0080937A00809137
:101430007800909179002FEF8F3F920729F0019665
:10144000909379008093780080917C0090917D004A
:101450002FEF8F3F920729F0019690937D008093A4
:101460007C0080917A028C3308F4D3C010927A0207
:10147000809179028F5F809379028091730281302D
:1014800089F590919C00933051F480919D008730B4
:1014900031F480919B00893108F468C036C0809196
:1014A0009C008A3009F060C080919D00873009F06F
:1014B0005BC080919B00893108F458C080917A020A
:1014C000882309F053C080917902833009F04EC01F
:1014D00080917202882309F049C082E080937902EA
:1014E00081E039C0823009F041C090919C00933076
:1014F000B9F480919D00873099F480919B008830E9
:10150000A8F180919B008F3088F580917A02882322
:1015100069F580917902823049F5909379021DC076
:1015200080919C008B3001F580919D008730E1F423
:1015300080919B008830D0F480917A028823B1F4A6
:1015400080917902823091F480917202882371F443
:1015500081E0809379028093720280911F04882336
:1015600029F00E94413302C01092720280917902E8
:10157000883108F44EC01092790280919B008F5FF1
:1015800080939B0080919D008F5F80939D00809150
:101590009D00883018F081E080939D0080917C024E
:1015A00090E083709070892B39F4E0919C00F0E01A
:1015B000E158FF4FE08106C0E0919C00F0E0E05868
:1015C000FF4FE38580919B00E81718F591E0909319
:1015D0009B0080919C008F5F80939C0080919C0079
:1015E0008D30B8F090939C0080917C0290E0019641
:1015F00064E670E00E94FB3A80937C020AC080910E
:101600007B028E3131F480911F04882311F00E94F7
:101610001F330E94D708089581E080938B020895BC
:10162000823008F080E080938C02089580918C02D3
:101630000895F894823008F081E08093F000789467
:1016400008958B3F08F080E0F89480938E027894A0
:1016500008958B3F08F088E2F8948093F100789425
:10166000089580918E0208958091F10008958093ED
:1016700095020895823008F080E0809397020895E3
:101680008091F0008111609568BB08959091F00001
:10169000482F50E0992371F422B34D5F5F4F81E0F2
:1016A00090E002C0880F991F4A95E2F78095822347
:1016B00082BB089522B34D5F5F4F81E090E002C08E
:1016C000880F991F4A95E2F7282B22BB0895809135
:1016D000F000882319F482B3886702C082B3877848
:1016E00082BB0895982F81568A3110F4905203C01E
:1016F0009A3008F49A5E892F0895FC019081892F11
:1017000081568A3110F4905203C09A3008F49A5EE0
:10171000392F36513093F2009281892F81568A31C8
:1017200010F4905203C09A3008F49A5E292F265183
:101730002093F3009481892F81568A3110F49052BE
:1017400003C09A3008F49A5E492F46514093F40042
:101750009681892F81568A3110F4905203C09A30B5
:1017600008F49A5E96519093F50081818E3219F4B7
:1017700030683093F20083818E3221F42068209308
:10178000F3000DC08A3329F08C3739F42068209398
:10179000F30081E08093970204C0803211F410922C
:1017A000970285818E3219F440684093F400878156
:1017B0008E3219F490689093F500F89481E080934C
:1017C000980278940895FC019081892F81568A317E
:1017D00010F4905203C09A3008F49A5E9651909398
:1017E000F2009181892F81568A3110F4905203C002
:1017F0009A3008F49A5E96519093F3009281892F63
:1018000081568A3110F4905203C09A3008F49A5EDF
:1018100096519093F4009381892F81568A3110F468
:10182000905203C09A3008F49A5E96519093F50056
:1018300010929702F89481E080939802789408952A
:10184000DF92EF92FF920F931F93DF93CF93CDB769
:10185000DEB72A970FB6F894DEBF0FBECDBFDE010C
:101860001196E6EFF0E085E001900D928150E1F7EE
:10187000FE01369685E0DF011D928A95E9F7809199
:1018800098028823C9F0809188028823A9F4809166
:10189000F200809384028091F3008093850280910E
:1018A000F400809386028091F5008093870281E0A6
:1018B000809388021092980260918802643009F443
:1018C000CDC0653050F4623009F467C0633008F071
:1018D00099C0613009F070C10AC0663009F409C1CD
:1018E000663008F4DAC0673009F066C137C180910C
:1018F0008C02882321F080918B028823D9F4809177
:10190000F200809380028091F300809381028091A5
:10191000F400809382028091F500809383021092FC
:10192000880283E090E09093EF008093EE001092A5
:101930008B0242C14091EE005091EF00FA01EC574A
:10194000FD4FE0812E2F30E0DA01A058BD4F8C9181
:1019500090E0282739272F773070232BC1F4EC93A0
:101960004115510549F0415050405093EF004093CC
:10197000EE006093880220C110928B0210928802C0
:1019800083E090E09093EF008093EE0015C11092F9
:101990008A021092890282E00DC1A091EE00B091FE
:1019A000EF00FE01EA0FFB1F1182FD01E058FD4F21
:1019B000E081F0E0ED55FF4F8081282F30E0C90134
:1019C0009695879596958795817021FD806823FD72
:1019D000806220FD8064AC0FBD1F16968C938091B1
:1019E000890290918A02019690938A0280938902DB
:1019F0008F5E924008F4E0C010928A021092890231
:101A000083E0D8C0A091EE00B091EF00FE01EA0F94
:101A1000FB1F1182FD01E058FD4FE081F0E0ED5524
:101A2000FF4F808182FF02C080E401C080E0AC0FE4
:101A3000BD1F16968C938091890290918A0201961F
:101A400090938A02809389028F5E924008F4B4C01A
:101A500010928A021092890284E0ACC0E091EE00FC
:101A6000F091EF00DE01AE0FBF1F11961C9211978F
:101A7000FD0116828091890290918A0201969093CD
:101A80008A0280938902895B9B4008F495C010927A
:101A90008A021092890285E08DC0A091EE00B0917B
:101AA000EF00FE01EA0FFB1F1182FD01EC57FD4F15
:101AB000E081F0E0ED55FF4F808186FF02C084E0B9
:101AC00001C080E0AC0FBD1F16968C9380918902F7
:101AD00090918A02019690938A02809389028F5E88
:101AE000924008F469C010928A021092890286E03E
:101AF00061C0A091EE00B091EF00FE01EA0FFB1F64
:101B00001182FD01EC57FD4FE081F0E0ED55FF4FF4
:101B10002081422F50E0CA0136E0969587953A958C
:101B2000E1F7817027FD826045FD886040FD84609B
:101B3000AC0FBD1F16968C938091890290918A02FA
:101B4000019690938A02809389028F5E9240A0F161
:101B500010928A021092890287E02CC02091EE0038
:101B60003091EF00FE01E20FF31F80EF8183F90156
:101B7000EC57FD4F4081DE01A20FB31FE42FF0E0D0
:101B8000ED55FF4F80818F7016968C93809189025E
:101B900090918A02019690938A028093890202971B
:101BA00058F010928A021092890220583D4FF90194
:101BB000408381E080938802809195028093940213
:101BC000D0909702D0929602833009F40CC28430F0
:101BD00038F4813009F483C0823008F0FFC00AC0B5
:101BE000853009F472C1853008F409C2863009F0E5
:101BF00025C38EC26091F000662319F482B3886712
:101C000002C082B3877882BB979870917F0274304C
:101C100008F05DC0472F50E0FA01E058FD4F808189
:101C2000DE0111969E012A5F3F4FE82FF0E08A0106
:101C30000D5F1F4F87FF0FC0EF77F070ED55FF4F1F
:101C400090819061A40FB51F8C919823240F351FAC
:101C5000D9018C910DC0EF77F070ED55FF4FA40FB7
:101C6000B51F90818C919823240F351FF901808135
:101C7000982B662369F498BB22B381E090E002C000
:101C8000880F991F0A95E2F78095822382BB0CC0CA
:101C9000909598BB22B381E090E002C0880F991F15
:101CA0000A95E2F7282B22BB772321F4F1E0DF1617
:101CB00009F4979A972F9F5F90937F0280918E02ED
:101CC000882309F0BBC2943009F0B8C282C0809169
:101CD0008D028F5F80938D0290918E0277C060910C
:101CE000F000662319F482B3886702C082B3877854
:101CF00082BB979870917F02743008F060C0472FC4
:101D000050E0FA01E058FD4F8081DE0111969E01FE
:101D10002A5F3F4FE82FF0E087FF0FC0EF77F070AA
:101D2000ED55FF4F90819061A40FB51F8C919823C2
:101D3000240F351FD9018C910DC0EF77F070ED5550
:101D4000FF4FA40FB51F90818C919823240F351F4E
:101D5000F9018081982B6111909598BB3091F10029
:101D60003A3FD0F4FA013396662361F422B381E05E
:101D700090E002C0880F991FEA95E2F780958223D0
:101D800082BB0AC022B381E090E002C0880F991F95
:101D9000EA95E2F7282B22BB772331F4F1E0DF1636
:101DA00019F43A3F08F4979A872F8F5F80937F0248
:101DB000332309F043C2843009F040C20AC0809145
:101DC0008D028F5F80938D029091F100981708F03B
:101DD00037C210927F0210928D0232C280918F0220
:101DE000909190028331910508F4F7C06091F00062
:101DF000662319F482B3886702C082B3877882BBF6
:101E0000979870917F02743009F457C0472F50E0C3
:101E1000FA01E058FD4F8081DE0111969E012A5F94
:101E20003F4FE82FF0E08A010D5F1F4F87FF0FC083
:101E3000EF77F070ED55FF4F90819061A40FB51FC3
:101E40008C919823240F351FD9018C910DC0EF7709
:101E5000F070ED55FF4FA40FB51F90818C91982322
:101E6000240F351FF9018081982B662369F498BBF4
:101E700022B381E090E002C0880F991F0A95E2F733
:101E80008095822382BB0CC0909598BB22B381E0E1
:101E900090E002C0880F991F0A95E2F7282B22BB19
:101EA000772321F4F1E0DF1609F4979A972F9F5FCB
:101EB00090937F0280918E0276C080918D028F5F19
:101EC00080938D0290918E027AC080918F029091C2
:101ED00090028331910508F480C06091F000662380
:101EE00019F482B3886702C082B3877882BB97985F
:101EF00070917F02743009F45BC0472F50E0FA0103
:101F0000E058FD4F8081DE0111969E012A5F3F4F10
:101F1000E82FF0E08A010D5F1F4F87FF0FC0EF77BA
:101F2000F070ED55FF4F90819061A40FB51F8C911B
:101F30009823240F351FD9018C910DC0EF77F070D5
:101F4000ED55FF4FA40FB51F90818C919823240F5E
:101F5000351FF9018081982B662369F498BB22B361
:101F600081E090E002C0880F991F0A95E2F7809502
:101F7000822382BB0CC0909598BB22B381E090E095
:101F800002C0880F991F0A95E2F7282B22BB7723FE
:101F900021F4F1E0DF1609F4979A972F9F5F909351
:101FA0007F028091F100882391F4943081F409C07C
:101FB00080918D028F5F80938D029091F100981730
:101FC00020F410927F0210928D0281E001C080E027
:101FD0001092900210928F0234C101969093900259
:101FE00080938F022BC18091F000882319F482B373
:101FF000886702C082B3877882BB97981FC1E09040
:102000008F02F09090027091F00020EDE21627E030
:10201000F20608F065C0772319F482B3886702C01E
:1020200082B3877882BB979860917F02643009F40D
:1020300054C0462F50E0FA01E058FD4F8081DE0188
:1020400011969E012A5F3F4FE82FF0E08A010D5F55
:102050001F4F87FF0FC0EF77F070ED55FF4F908156
:102060009061A40FB51F8C919823240F351FD901BF
:102070008C910DC0EF77F070ED55FF4FA40FB51F99
:1020800090818C919823240F351FF9018081982B22
:10209000772369F498BB22B381E090E002C0880FF7
:1020A000991F0A95E2F78095822382BB0CC0909518
:1020B00098BB22B381E090E002C0880F991F0A9577
:1020C000E2F7282B22BB662321F4F1E0DF1609F4A6
:1020D000979A6F5F60937F020CC010927F0209C0D5
:1020E000772319F482B3886702C082B3877882BBF2
:1020F0009798C70101969093900280938F02895818
:10210000934108F49DC01092900210928F0298C0E3
:102110007091F000772319F482B3886702C082B30C
:10212000877882BB979860917F02643008F054C032
:10213000462F50E0FA01E058FD4F8081DE011196F4
:102140009E012A5F3F4FE82FF0E08A010D5F1F4F8D
:1021500087FF0FC0EF77F070ED55FF4F90819061D2
:10216000A40FB51F8C919823240F351FD9018C9192
:102170000DC0EF77F070ED55FF4FA40FB51F9081A4
:102180008C919823240F351FF9018081982B772398
:1021900069F498BB22B381E090E002C0880F991FD8
:1021A0000A95E2F78095822382BB0CC0909598BB7C
:1021B00022B381E090E002C0880F991F0A95E2F7F0
:1021C000282B22BB662321F4F1E0DF1609F4979A4D
:1021D0006F5F60937F0232C080918D028F5F80932A
:1021E0008D0290919102981720F410927F02109224
:1021F0008D02809193028F5F80939302823300F16E
:102200001092930280919202882319F08130C1F4D8
:102210000AC0892F8F5F80939102803588F081E01A
:10222000809392020EC0892F81508093910288235F
:1022300039F4109293021092920202C080E001C021
:1022400081E02A960FB6F894DEBF0FBECDBFCF91C6
:10225000DF911F910F91FF90EF90DF90089588E735
:1022600081BB82BB8F9A979887B38FEF87BB88BB60
:10227000089580939F020895A698AE9A0895DF93DB
:10228000CF9300D000D000D0CDB7DEB71D821C8226
:102290001E821982CE0101960E94F000882391F1DE
:1022A0008E8180FD2FC08981823031F48C819D81A7
:1022B0008231910549F41EC0873021F58C819D81C2
:1022C0008C30910529F416C08E31910529F414C083
:1022D0008032910529F410C08330910529F40EC095
:1022E0008132910521F40AC0019761F409C00D976C
:1022F00049F406C082E107C08FE105C080E203C057
:1023000081E201C08FEF26960FB6F894DEBF0FBEB4
:10231000CDBFCF91DF9108951F9310919F020E942E
:102320003F118F3161F0803218F4823171F40BC0AB
:10233000803219F0813249F404C014E00EC013E079
:102340000CC011E00AC012E008C080919F028823EF
:1023500011F410E002C010929F02812F1F91089586
:102360008091A102813019F1813020F0823009F092
:10237000CBC038C00E9465080E945E081092A2027D
:102380001092A30281E08093A1021092A502109204
:10239000A4028FEF8093FC0083E4809333048FE6E4
:1023A0008093340484E68093350485E618C00E9447
:1023B0005608880F991F880F991F815D97400CF46C
:1023C000A3C00E9465080E945E0882E08093A1027B
:1023D0008DE280933304809334048093350480939A
:1023E00036048EC00E945608880F991F880F991FC7
:1023F000835E94400CF440C00E9465080E945E0811
:102400004091A2028091FC00992787FD9095242F8E
:1024100030E08217930749F58091A3026AE00E9499
:10242000DB3A993011F51092A302842F8F5F8093CD
:10243000A202843039F41092A1022091A4023091BA
:10244000A50264C08091A4029091A5029C0173E052
:10245000220F331F7A95E1F7880F991F280F391F34
:102460003093A5022093A40207C08091A3028F5F3E
:102470008093A302883230F40E948C11813039F0AD
:10248000823049F51092A1022FEF3FEF3FC08091BB
:10249000A3026AE00E94DB3AE92FF0E08091A402F7
:1024A0009091A5026AE070E00E94E73ACB019B019F
:1024B00053E0220F331F5A95E1F7880F991F280F19
:1024C000391FE20FF31FF093A502E093A40280915D
:1024D000A2028093FC008DE2809333048093340445
:1024E0008093350480933604E091A202F0E0ED5C25
:1024F000FB4F8091A3026AE00E94DB3A905D9083DB
:1025000083E394E00E94E30B2EEF3FEFC9010895AF
:10251000CF92DF92EF92FF920F931F93CF93DF93AF
:10252000D82EC62EEA01790180919902813019F1E5
:10253000813038F0823009F449C0833009F01BC182
:1025400004C110929C0210929B0210929A028FEF8B
:102550008093FB0010929E0210929D020E946508DB
:102560000E945E0881E08093990280E00E94370B10
:10257000C7010E94E30B0E945608880F991F880F1D
:10258000991F8D5D95400CF4F6C082E0809399020E
:1025900080E28093330480933404809335048093E5
:1025A000360480E023E030E09FE507C0F901E81B36
:1025B000F109ED5CFB4F90838F5F8D15B8F310929E
:1025C0009A020E9465080E945E08BAC00E945608DE
:1025D000880F991F880F991FC817D90730F40E94D8
:1025E00065081092990282E0C7C00E948C11823067
:1025F00061F0833020F4813009F074C030C0833042
:1026000041F0843009F06EC00EC01092990280E053
:10261000B3C08091FB0087FD0AC08F5F8093FB00F1
:102620008A3084F004C08091FB0087FF03C01092C1
:10263000FB0008C081508093FB008F3F19F489E0B4
:102640008093FB00E0919A02F0E03496ED19F109D5
:10265000ED5CFB4F8091FB00805D80833FC040912B
:10266000FB0047FD3BC0E0919A028D2D90E0CC200D
:1026700041F0F0E0E81BF90BE95CFB4F8DE2808351
:1026800008C0F0E0E81BF90BE95CFB4F405D4083BC
:10269000405360919A026F5F60939A02552747FDFD
:1026A000509580919B0290919C029C0103E0220F27
:1026B000331F0A95E1F7880F991F280F391F420F22
:1026C000531F50939C0240939B028FEF8093FB001B
:1026D0006D1521F483E0809399024DC00E94650836
:1026E0000E945E080E945608880F991F880F991F44
:1026F00064EF71E00E94FB3A8B3F910554F0E0914A
:102700009A02F0E03496ED19F109ED5CFB4F80E29E
:102710000EC02091FB00E0919A028D2D90E02F3F9A
:1027200041F4F0E0E81BF90BE95CFB4F8FE5808397
:1027300007C0F0E0E81BF90BE95CFB4F205D20834C
:1027400083E394E00E94E30B16C00E945608880FB2
:10275000991F880F991F855F91406CF00E94650852
:102760001092990280919B0290919C02F8019183B2
:10277000808385E001C081E0DF91CF911F910F91AF
:10278000FF90EF90DF90CF900895EF92FF920F931C
:102790001F93CF93DF93EC01E62EF42E89018091F5
:1027A000A002882321F0813009F068C008C00E948F
:1027B00065080E945E0881E08093A00260C00E94CC
:1027C00056080817190720F41092A00283E057C09A
:1027D0000E948C11823061F0833020F4813009F046
:1027E0004DC044C0833041F0843009F047C01EC062
:1027F0001092A00280E043C00E94560828818536CE
:10280000910524F02F1580F42F5F29C02F1560F457
:10281000822F65E00E94DB3A822F8B5F9111891B2A
:1028200088838881F816E0F4E8821AC00E9456086E
:1028300028818536910524F0E21620F421500FC03E
:10284000E21610F0F8820CC0263050F0822F65E0BE
:102850000E94DB3A992311F4255001C0291B2883DB
:102860000E9465080E945E0882E009C00E94650817
:102870000E945E081092A00284E001C081E0DF9116
:10288000CF911F910F91FF90EF90089587B190E045
:10289000877090708330910589F1843091054CF4F4
:1028A0008130910511F1823091051CF5892B69F079
:1028B00036C08530910551F1853091051CF1863087
:1028C000910541F1079759F529C087B1867F81604D
:1028D00087B924B144B1942F80E030E0822B932B50
:1028E0009093A7028093A6021AC087B1857F826069
:1028F00003C087B1847F836087B911C087B1837FAC
:102900008460FACF87B1827F8560F6CF87B1817FFF
:102910008660F2CF87B1807F8760EECF3B98369A92
:10292000089580E487B98FE986B9369A089585308D
:1029300008F081E0809302010895809102010895DA
:102940008091A8020895F894883008F082E080937E
:10295000A80278940895F894883008F082E0809373
:10296000A902789408958091A90208950F931F9366
:10297000DF93CF9300D000D0CDB7DEB780E190E0F9
:102980000E948300082F8091C202813091F0813033
:1029900020F0823009F052C020C08DEF90E00E94FC
:1029A000E30B0E9465080E945E088091C2028F5F5F
:1029B00011C00E945608880F991F880F991F855CC7
:1029C0009940E4F10E9465080E945E0881E00E943F
:1029D000370B82E08093C20231C00E945608880FF4
:1029E000991F880F991F855C99404CF00E946508DB
:1029F0001092C20280E00E94370B80E074C080E237
:102A000089838A838B838C830E94AB1F97FD02C0CE
:102A100080E58B838091A902882311F480E201C0B4
:102A200086E48C830E949F05882311F48EE401C004
:102A300089E48983CE0101960E94E30B0E948C11E8
:102A40008230B9F0833020F4813009F04BC006C0E9
:102A5000833099F1843009F045C01AC010E000239A
:102A600009F411E0812F0E94190B80E190E0612FA1
:102A70001DC08091A902882321F481E08093A902DE
:102A800002C01092A90281E190E06091A9020EC0FB
:102A90000E949F05882311F481E001C080E00E941C
:102AA00096050E949F05682F82E190E00E947800C1
:102AB0000E9465080E945E0815C08FEF9FEF0E947C
:102AC000B01F0E94AB1F692F772767FD7A9589E1B8
:102AD00090E00E9478000E94AB1F682F88E190E090
:102AE0000E94780081E00F900F900F900F90CF918F
:102AF000DF911F910F910895BF92CF92DF92EF92D5
:102B0000FF920F931F93DF93CF93CDB7DEB72B9731
:102B10000FB6F894DEBF0FBECDBFB82ECE01019622
:102B2000BE016E5F7F4FAE014D5F5F4F9E012C5F18
:102B30003F4F8E010B5F1F4FF6E0EF2EF12CEC0E96
:102B4000FD1EE7E0CE2ED12CCC0EDD1E0E94A30888
:102B50008F8191E0B916D1F48430A1F0853028F44A
:102B6000823051F0833050F419C0863099F18630AC
:102B700068F18730B9F508C084E401C08DE4888726
:102B800089E62FC084E415C083E513C08430D1F0FA
:102B9000853038F4823081F0833080F4813011F553
:102BA00007C08630B9F0863088F08730D9F416C077
:102BB0008DE488878FE615C084E511C087E5888796
:102BC00085E60FC084E5888788E60BC086E48887A1
:102BD00082E707C083E5888781E603C083E58887AD
:102BE00085E789872E81822F6AE00E94DB3A805D2B
:102BF0008A87822F0E94DB3A905D9B87CE010896E0
:102C00000E94E30B2B960FB6F894DEBF0FBECDBF2C
:102C1000CF91DF911F910F91FF90EF90DF90CF90B8
:102C2000BF900895CF92DF92EF92FF920F931F9380
:102C3000DF93CF93CDB7DEB72F970FB6F894DEBFF3
:102C40000FBECDBF80E289878B878D878F87CE01AE
:102C50000196BE016E5F7F4FAE014D5F5F4F9E01DB
:102C60002C5F3F4F8E010B5F1F4FB6E0EB2EF12C18
:102C7000EC0EFD1EA7E0CA2ED12CCC0EDD1E0E944C
:102C8000A3082C81822F6AE00E94DB3A805D88874E
:102C9000822F0E94DB3A905D9A873EE23B872D812E
:102CA000822F0E94DB3A805D8C87822F0E94DB3A64
:102CB000905D9E873F87CE0108960E947D0B2F96E0
:102CC0000FB6F894DEBF0FBECDBFCF91DF911F913D
:102CD0000F91FF90EF90DF90CF9008951F93DF93B7
:102CE000CF93CDB7DEB72A970FB6F894DEBF0FBEED
:102CF000CDBF1A82198210E21C831E8318871A879F
:102D000080912004882309F45BC0CE0101960E94C3
:102D10000A33882309F45DC0E981FA81F7FD22C0F6
:102D2000CF0164E670E00E94FB3A605D6B83CF01E7
:102D300064E670E00E94FB3A6AE070E00E94FB3AB1
:102D4000605D6D838EE28E83CF016AE070E00E9449
:102D5000FB3A805D8F8383E48987E436F105ACF527
:102D60001B8333C0222733272E1B3F0B3A83298333
:102D70008DE28B83C90164E670E00E94FB3A605DDE
:102D80006D83C90164E670E00E94FB3A6AE070E07E
:102D90000E94FB3A462F405D4F83EEE2E887C9016F
:102DA0006AE070E00E94FB3A805D89872436310535
:102DB00064F44D838F8383E489871887EE8305C08D
:102DC0008DE28B838D838F838987CE0103960E944A
:102DD0007D0B2A960FB6F894DEBF0FBECDBFCF9104
:102DE000DF911F91089580911F04882331F482E0C0
:102DF0000E944D08805A954050F480911F0488230A
:102E000091F082E00E944D088056974260F00E9447
:102E1000D604882311F490E00CC00E94D9048111DB
:102E200081E0982F06C090E08091A802863009F0DA
:102E300091E0892F0895CF92DF92EF92FF920F9346
:102E40001F93DF93CF93CDB7DEB72F970FB6F894CC
:102E5000DEBF0FBECDBF81E00E94C11F8091B002D6
:102E6000882321F0823009F068C05BC0CE01019652
:102E7000BE016E5F7F4FAE014D5F5F4F9E012C5FC5
:102E80003F4F8E010B5F1F4FF6E0EF2EF12CEC0E43
:102E9000FD1EE7E0CE2ED12CCC0EDD1E0E94A30835
:102EA0002A81822F6AE00E94DB3A888730E23987E4
:102EB000822F0E94DB3A9A873B872981822F0E94CA
:102EC000DB3A8C873D87822F0E94DB3A9E873F87C3
:102ED0000E94F316882311F08EE28B878A81885036
:102EE0008E3010F081E001C080E00E94370BCE01EF
:102EF00008960E947D0B0E94F4238823F1F40E941F
:102F00008C11813019F08230C1F404C082E08093CA
:102F1000B00213C080912204882379F00E94953278
:102F20000CC00E941B2C9093B2028093B1020097B8
:102F300011F0029711F41092B0022F960FB6F89488
:102F4000DEBF0FBECDBFCF91DF911F910F91FF90DC
:102F5000EF90DF90CF900895CF92DF92EF92FF92A3
:102F60000F931F93DF93CF93CDB7DEB72F970FB695
:102F7000F894DEBF0FBECDBF80E289878B878D8737
:102F80008F87CE010196BE016E5F7F4FAE014D5F10
:102F90005F4F9E012C5F3F4F8E010B5F1F4FB6E0CE
:102FA000EB2EF12CEC0EFD1EA7E0CA2ED12CCC0E80
:102FB000DD1E0E94A3082A81822F6AE00E94DB3A6C
:102FC000805D8887822F0E94DB3A905D9A872981F5
:102FD000822F0E94DB3A805D8C87822F0E94DB3A31
:102FE000905D9E8780910201813051F0833061F0C5
:102FF0000E94F316882351F080910201823011F46F
:103000008EE203C0843011F48AE38B870E940C0B9C
:10301000CE0108960E947D0B2F960FB6F894DEBF66
:103020000FBECDBFCF91DF911F910F91FF90EF9019
:10303000DF90CF900895CF92DF92EF92FF920F939F
:103040001F93DF93CF93CDB7DEB727970FB6F894D2
:10305000DEBF0FBECDBF81E00E94C11F8091BF02C5
:10306000882321F0823009F04BC03EC0CE0101968A
:10307000BE016E5F7F4FAE014D5F5F4F9E012C5FC3
:103080003F4F8E010B5F1F4FF6E0EF2EF12CEC0E41
:10309000FD1EE7E0CE2ED12CCC0EDD1E0E94A30833
:1030A00080E00E94370B8B816AE00E94DB3A992313
:1030B00019F40E946E1602C00E94AC170E94F423FD
:1030C0008823F1F40E948C11813019F08230C1F410
:1030D00004C082E08093BF0213C080912204882341
:1030E00079F00E9495320CC00E941B2C9093C10273
:1030F0008093C002009711F0029711F41092BF0262
:1031000027960FB6F894DEBF0FBECDBFCF91DF91EB
:103110001F910F91FF90EF90DF90CF900895CF9285
:10312000DF92EF92FF920F931F93DF93CF93CDB770
:10313000DEB727970FB6F894DEBF0FBECDBF81E094
:103140000E94C11F8091BC02833309F470C0843394
:1031500048F4823009F45AC0823309F462C08823EB
:1031600059F08FC08D3309F46BC08E3309F47CC0E5
:103170008C3309F086C05EC0CE010196BE016E5F41
:103180007F4FAE014D5F5F4F9E012C5F3F4F8E0121
:103190000B5F1F4FF6E0EF2EF12CEC0EFD1EE7E06B
:1031A000CE2ED12CCC0EDD1E0E94A3088A81885021
:1031B0008E3010F081E001C080E00E94370B0E9449
:1031C000AC170E94F423882309F05BC00E948C1185
:1031D0008230A1F0833020F4813009F052C006C063
:1031E000833031F0843009F04CC006C082E001C069
:1031F00082E38093BC0245C08CE3FBCF8091220424
:10320000882309F43EC00E9495323BC00E941B2CCB
:103210009093BE028093BD02009789F1029789F5D1
:103220002EC00E945E080E946E1683E3E2CF0E94C9
:103230006E161AC00E945E080E9412168DE3D9CF46
:103240000E945608880F991F880F991F815D97402B
:10325000C4F00E9465080E945E088EE38093BC0261
:1032600080E00E947C150DC00E945608880F991FAF
:10327000880F991F815D974024F00E946508109285
:10328000BC0227960FB6F894DEBF0FBECDBFCF911C
:10329000DF911F910F91FF90EF90DF90CF900895F5
:1032A000CF92DF92EF92FF920F931F93DF93CF9312
:1032B000CDB7DEB727970FB6F894DEBF0FBECDBFF0
:1032C00080E00E94C11F8091B902882321F08230E2
:1032D00009F05BC04EC0CE010196BE016E5F7F4F0C
:1032E000AE014D5F5F4F9E012C5F3F4F8E010B5F24
:1032F0001F4FB6E0EB2EF12CEC0EFD1EA7E0CA2E00
:10330000D12CCC0EDD1E0E94A3088A8188508E30FD
:1033100010F081E001C080E00E94370B8B8164E1F6
:103320000E94DB3A9A3018F40E94AC170CC0892F27
:103330008A50853018F40E94121605C09F509630AE
:1033400010F40E946E160E94F4238823F1F40E9468
:103350008C11813019F08230C1F404C082E0809376
:10336000B90213C080912204882379F00E9495321B
:103370000CC00E941B2C9093BB028093BA02009752
:1033800011F0029711F41092B90227960FB6F89433
:10339000DEBF0FBECDBFCF91DF911F910F91FF9088
:1033A000EF90DF90CF900895CF92DF92EF92FF924F
:1033B0000F931F93DF93CF93CDB7DEB727970FB649
:1033C000F894DEBF0FBECDBF81E00E94C11F809187
:1033D000B602833309F46FC0843348F4823009F4B1
:1033E00059C0823309F461C0882359F08EC08D33EF
:1033F00009F46AC08E3309F47BC08C3309F085C0B0
:103400005DC0CE010196BE016E5F7F4FAE014D5F84
:103410005F4F9E012C5F3F4F8E010B5F1F4FF6E009
:10342000EF2EF12CEC0EFD1EE7E0CE2ED12CCC0EB3
:10343000DD1E0E94A3088F81853010F489818111DF
:1034400081E00E94370B0E94AC170E94F42388236E
:1034500009F05BC00E948C118230A1F0833020F40F
:10346000813009F052C006C0833031F0843009F059
:103470004CC006C082E001C082E38093B60245C022
:103480008CE3FBCF80912204882309F43EC00E9484
:1034900095323BC00E941B2C9093B8028093B702D8
:1034A000009789F1029789F52EC00E945E080E945C
:1034B0006E1683E3E2CF0E946E161AC00E945E0869
:1034C0000E9412168DE3D9CF0E945608880F991FCB
:1034D000880F991F815D9740C4F00E9465080E9483
:1034E0005E088EE38093B60281E00E947C150DC0D9
:1034F0000E945608880F991F880F991F815D974079
:1035000024F00E9465081092B60227960FB6F89430
:10351000DEBF0FBECDBFCF91DF911F910F91FF9006
:10352000EF90DF90CF900895CF92DF92EF92FF92CD
:103530000F931F93DF93CF93CDB7DEB72B970FB6C3
:10354000F894DEBF0FBECDBF81E00E94C11F809105
:10355000B302833309F433C1843348F4823009F46D
:103560001DC1823309F425C1882359F052C18D331E
:1035700009F42EC18E3309F43FC18C3309F049C1DF
:1035800021C1CE010196BE016E5F7F4FAE014D5F3E
:103590005F4F9E012C5F3F4F8E010B5F1F4FF6E088
:1035A000EF2EF12CEC0EFD1EE7E0CE2ED12CCC0E32
:1035B000DD1E0E94A3089A818CE3989FF0011124DC
:1035C0008981E80FF11D9F81892F8150843008F097
:1035D00057C02B81822F6FE00E94DB3A992351F074
:1035E000822F90E001966FE070E00E94FB3A892BF9
:1035F00009F095C0CF01845A91408837910508F4AD
:1036000058C0CF018C519240449708F45CC0CF0160
:1036100080539240803A910508F465C0CF01805DE7
:103620009240889708F469C0CF01885F92408C3837
:10363000910508F074C08DE2888724E833E02E1BE2
:103640003F0BC90164E670E00E94E73A605D69875C
:10365000C90164E670E00E94E73A6AE070E00E9407
:10366000E73A605D6A87C9016AE070E00E94E73A64
:10367000805D8B87CE0108960E94E30B10E050C05E
:10368000953009F04CC02B81822F6FE00E94DB3A0D
:10369000992349F0822F90E001966FE070E00E943C
:1036A000FB3A892BE1F5CF01845A91408837910587
:1036B00028F48DE288872CE132E0C1CFCF018C5114
:1036C0009240449750F480E588878DE2898720E313
:1036D00032E02E1B3F0BC901C0CFCF018053924077
:1036E000803A910528F48DE2888720ED32E0A7CF5B
:1036F000CF01805D9240889738F480E588878DE21D
:10370000898728EF32E0E5CFCF01885F924081348E
:10371000910528F48DE2888729E333E090CF11E00A
:103720008A8186508D3010F081E001C080E00E94D7
:10373000370B112371F08B8190E003966FE070E0FE
:103740000E94FB3A892B19F40E94121602C00E94B3
:10375000AC170E94F423882309F05BC00E948C11EF
:103760008230A1F0833020F4813009F052C006C0CD
:10377000833031F0843009F04CC006C082E001C0D3
:1037800082E38093B30245C08CE3FBCF8091220497
:10379000882309F43EC00E9495323BC00E941B2C36
:1037A0009093B5028093B402009789F1029789F54E
:1037B0002EC00E945E080E946E1683E3E2CF0E9434
:1037C0006E161AC00E945E080E9412168DE3D9CFB1
:1037D0000E945608880F991F880F991F815D974096
:1037E000C4F00E9465080E945E088EE38093B302D5
:1037F00081E00E947C150DC00E945608880F991F19
:10380000880F991F815D974024F00E9465081092EF
:10381000B3022B960FB6F894DEBF0FBECDBFCF918B
:10382000DF911F910F91FF90EF90DF90CF9008955F
:10383000CF92DF92EF92FF920F931F93DF93CF937C
:10384000CDB7DEB72B970FB6F894DEBF0FBECDBF56
:1038500081E00E94C11F8091AD02833309F469C1E8
:10386000843348F4823009F453C1823309F45BC1D4
:10387000882359F088C18D3309F464C18E3309F46B
:1038800075C18C3309F07FC157C1CE010196BE01CD
:103890006E5F7F4FAE014D5F5F4F9E012C5F3F4FCC
:1038A0008E010B5F1F4FF6E0EF2EF12CEC0EFD1E8C
:1038B000E7E0CE2ED12CCC0EDD1E0E94A30829817C
:1038C0003A818CE3389F80011124020F111D9F81E2
:1038D000892F8150843008F063C02B3319F43730BE
:1038E00091F40BC02C3219F4393069F406C02D3133
:1038F00051F43B3011F03D3031F486E00E94370B3B
:1039000092E0F92E01C0FF242B81822F6AE00E94F1
:10391000DB3A992351F0822F90E001966AE070E043
:103920000E94FB3A892B09F0BCC0C801805E91401F
:103930008A35910508F465C0C8018A5392400F97F3
:1039400008F46BC0C801895492408A35910508F487
:1039500071C0C801835A92400F9708F477C0C8011C
:10396000825B92408A35910508F47DC0C8018C5075
:1039700093404E9738F480E588878DE289872AE264
:1039800033E077C0C8018A5293408A35910508F028
:1039900085C083E588878DE2898724E833E069C0A4
:1039A000953019F0FF24F3947EC02B3319F437308F
:1039B00081F409C02C3219F4393059F404C02D3186
:1039C00041F43B3031F486E00E94370B82E0F82E60
:1039D00001C0FF242B81822F6AE00E94DB3A9923E9
:1039E00051F0822F90E001966AE070E00E94FB3A6D
:1039F000892B09F056C0C801805E91408A35910537
:103A000038F483E588878DE289872AE332E031C084
:103A1000C8018A5392400F9738F480E588878DE279
:103A2000898729E432E025C0C801895492408A354B
:103A3000910538F483E588878DE2898723EA32E0AF
:103A400018C0C801835A92400F9738F480E58887E0
:103A50008DE2898722EB32E00CC0C801825B924084
:103A60008A359105D8F483E588878DE289872CE033
:103A700033E0201B310BC9016AE070E00E94E73A95
:103A8000605D6A87C9016AE070E00E94E73A805D84
:103A90008B87CE0108960E94E30B05C021E0F22A35
:103AA00002C081E0F82A1F2DF1FC09C08A818750ED
:103AB0008D3010F081E001C080E00E94370B10FFD4
:103AC00002C00E94AC170E94F423882309F05BC057
:103AD0000E948C118230A1F0833020F4813009F0F3
:103AE00052C006C0833031F0843009F04CC006C0AB
:103AF00082E001C082E38093AD0245C08CE3FBCF3E
:103B000080912204882309F43EC00E9495323BC074
:103B10000E941B2C9093AF028093AE02009789F114
:103B2000029789F52EC00E945E080E946E1683E3FC
:103B3000E2CF0E946E161AC00E945E080E94121602
:103B40008DE3D9CF0E945608880F991F880F991FBF
:103B5000815D9740C4F00E9465080E945E088EE374
:103B60008093AD0281E00E947C150DC00E94560832
:103B7000880F991F880F991F815D974024F00E943C
:103B800065081092AD022B960FB6F894DEBF0FBEFB
:103B9000CDBFCF91DF911F910F91FF90EF90DF90FC
:103BA000CF900895CF92DF92EF92FF920F931F93E1
:103BB000DF93CF93CDB7DEB72B970FB6F894DEBF68
:103BC0000FBECDBF81E00E94C11F8091AA02833346
:103BD00009F488C1843348F4823009F472C1823315
:103BE00009F47AC1882359F0A7C18D3309F483C140
:103BF0008E3309F494C18C3309F09EC176C1CE0195
:103C00000196BE016E5F7F4FAE014D5F5F4F9E011B
:103C10002C5F3F4F8E010B5F1F4FF6E0EF2EF12C14
:103C2000EC0EFD1EE7E0CE2ED12CCC0EDD1E0E9448
:103C3000A30829813A818CE3389F80011124020F67
:103C4000111D9F81892F8150843008F082C02B3351
:103C500019F4373099F40CC02C3219F4393031F49E
:103C600007C02D3159F43B3049F402C03D3031F4E6
:103C700086E00E94370B92E0F92E01C0FF242B81D1
:103C8000822F6AE00E94DB3A992351F0822F90E064
:103C900001966AE070E00E94FB3A892B09F0DAC0D5
:103CA000C801805E91408A35910538F48CE488879C
:103CB0008DE289872AE332E0B5C0C8018A53924079
:103CC0000F9738F482E688878DE2898729E432E00D
:103CD000A9C0C801895492408A35910538F48CE412
:103CE00088878DE2898723EA32E09CC0C801835A25
:103CF00092400F9738F482E688878DE2898722EB1D
:103D000032E090C0C801825B92408A35910538F458
:103D10008CE488878DE289872CE033E083C0C8017A
:103D20008C5093408D9738F482E688878DE289879E
:103D300029E333E077C0C801895393408A35910560
:103D400008F085C08CE488878DE2898723E933E019
:103D500069C0953019F0FF24F3947EC02D3119F419
:103D6000373081F409C02E3019F4393059F404C0C9
:103D70002B3341F43A3031F486E00E94370B82E075
:103D8000F82E01C0FF242B81822F6AE00E94DB3ACB
:103D9000992351F0822F90E001966AE070E00E9432
:103DA000FB3A892B09F056C0C801825C91408A35E4
:103DB000910538F48CE488878DE289872CE132E024
:103DC00031C0C8018C5192400F9738F482E6888741
:103DD0008DE289872BE232E025C0C8018B529240E8
:103DE0008A35910538F48CE488878DE2898725E847
:103DF00032E018C0C801855892400F9738F482E627
:103E000088878DE2898724E932E00CC0C801845993
:103E100092408A359105D8F48CE488878DE28987B1
:103E20002EEE32E0201B310BC9016AE070E00E94E7
:103E3000E73A605D6A87C9016AE070E00E94E73A8C
:103E4000805D8B87CE0108960E94E30B05C021E0C0
:103E5000F22A02C081E0F82A1F2DF1FC09C08A81F4
:103E600087508D3010F081E001C080E00E94370B58
:103E700010FF02C00E94AC170E94F423882309F0AF
:103E80005BC00E948C118230A1F0833020F481301D
:103E900009F052C006C0833031F0843009F04CC0C4
:103EA00006C082E001C082E38093AA0245C08CE391
:103EB000FBCF80912204882309F43EC00E949532F2
:103EC0003BC00E941B2C9093AC028093AB020097E6
:103ED00089F1029789F52EC00E945E080E946E1635
:103EE00083E3E2CF0E946E161AC00E945E080E9411
:103EF00012168DE3D9CF0E945608880F991F880F9C
:103F0000991F815D9740C4F00E9465080E945E0879
:103F10008EE38093AA0280E00E947C150DC00E946F
:103F20005608880F991F880F991F815D974024F0CC
:103F30000E9465081092AA022B960FB6F894DEBF75
:103F40000FBECDBFCF91DF911F910F91FF90EF90EA
:103F5000DF90CF9008958091FE019091FF01089528
:103F6000009711F48FEF9FEF9093FF018093FE0174
:103F70000895811181E08093C30208958091C30266
:103F80000895809300020895833008F080E08093C4
:103F9000DB020895883108F080E08093DD02089507
:103FA0008C3308F080E08093DE020895843608F0B8
:103FB00080E0809301020895EF92FF920F931F9388
:103FC000CF93DF9390E0EC01CC0FDD1FCC0FDD1F12
:103FD000C80FD91F01968C01000F111F000F111F70
:103FE000080F191F83EEE82E82E0F82EEC0EFD1E5E
:103FF0000CC0F894A895CE018C599F4FF7016191A0
:104000007F010E94780078942196C017D10788F329
:10401000DF91CF911F910F91FF90EF9008958091C4
:10402000C402823009F472C0833030F4882359F01E
:10403000813009F095C01DC0833009F473C084300D
:1040400009F08EC07BC00E94B0119093C60280938D
:10405000C5022FEF8F3F920709F479C02FEF8E3FF3
:10406000920709F47DC097FD7BC081E08093C40274
:1040700077C00E94B0119093C8028093C7022FEFBF
:104080008F3F920709F463C02FEF8E3F920709F428
:1040900067C097FD65C02091C5023091C602281700
:1040A000390791F5232B31F48FEF9FEF9093C602E0
:1040B0008093C5026091C5027091C60261157105B9
:1040C00011F46FEF7FEF7093FF016093FE01672F94
:1040D000770F770B89E190E00E94780088E190E00B
:1040E0006091FE010E9478008091FE019091FF0195
:1040F00097FF02C083E001C084E08093C4020E9465
:1041000065080E945E082CC082E0F7CF0E94560826
:10411000880F991F880F991F815D9740C4F483E031
:1041200091E01CC00E945608880F991F880F991FA4
:10413000815D974064F488E091E010C00E945608C9
:10414000880F991F880F991F815D97402CF010925E
:10415000C40220E030E006C08DE091E00E94E30B55
:1041600021E030E0C90108950F931F93DF93CF93AF
:10417000CDB7DEB72A970FB6F894DEBF0FBECDBF1E
:104180008091DE03863009F4FBC1873090F48230E1
:1041900009F48FC0833030F4882309F1813009F0AD
:1041A00015C327C0843009F4C7C0853008F0A3C107
:1041B0009FC08F3109F453C2803238F48A3009F439
:1041C000FEC18E3109F002C314C2813209F4A9C2C2
:1041D000813208F47BC2883209F0F8C24AC111E08A
:1041E0001093DE030E9465080E945E08109304028B
:1041F000EDC284E092E061E042E32CE43DE10E9404
:10420000C513833021F0843039F08823E9F410920B
:10421000DE0320E030E0DCC28091040290E0FC018B
:10422000EE0FFF1FEE0FFF1FE80FF91FE052FD4FCB
:104230008081882311F08EE101C081E28093DE034A
:104240000E9465080E945E0820910402822F6AE0A5
:104250000E94DB3A805D8B83822F0E94DB3A905D67
:104260009C8380E28D8330E0F901EE0FFF1FEE0F9B
:10427000FF1FE20FF31FE052FD4FE081E23091F0AB
:10428000E33030F4EE2351F0E13009F031C108C0E1
:10429000E33051F0E43009F02BC108C08DE207C0D3
:1042A00083E505C08CE403C08DE401C082E58E8304
:1042B0001FC182E060E040E157E222E131E08E017F
:1042C0000F5F1F4F0E948812823031F18530F9F460
:1042D00089819A818831910540F48093DF03809130
:1042E000DE038F5F8093DE0371C21092DE036EC225
:1042F00082E060E040E157E227E131E08E010F5FAC
:104300001F4F0E948812823039F0853039F088239F
:1043100009F05CC28AE0FEC181E0FCC189819A811A
:104320008C33910530F48093E0038091DE038F5F3E
:10433000F1C11092DE03F0C10E945608880F991F48
:10434000880F991F815197423CF081E08093DE03F2
:104350000E9465080E945E080E948C11982F82308E
:1043600061F0833020F4813009F062C048C08330AE
:1043700031F0843009F05CC01FC08AE053C08091E6
:10438000E1038230C1F1833030F48823A1F1813020
:1043900009F04AC006C08330F9F0843009F044C007
:1043A00006C080912104882311F084E025C080910B
:1043B0002204882389F01CC08091E103823071F0CF
:1043C000833028F48823B9F0813071F505C083303B
:1043D00059F0843049F50FC082E00EC0809122046C
:1043E000882311F083E008C080912104882319F00C
:1043F0009093E10319C081E08093E10315C080919F
:10440000E103833061F488E28093DE03809122042B
:10441000882351F08091E3030E94FE3205C0809111
:10442000DE038F5F8093DE030E9465080E945E08B2
:104430008091E1038230A1F0833030F4882351F081
:10444000813009F0C3C109C0833069F0843009F0BC
:10445000BDC10CC08CE191E0B7C181E291E0B4C173
:1044600086E291E0B1C18BE291E0AEC180E391E0E0
:10447000ABC183EE93E060E043E62CE43DE10E94B3
:10448000C513823099F0833018F4882331F020C0AE
:10449000833019F08430E1F412C080912204882323
:1044A00011F00E94D9321092DE0312C080912204D2
:1044B000882371F08091E3030E94FE3209C080914D
:1044C0002204882311F00E94D93285E08093DE0314
:1044D00080E28B838C832091E303822F6AE00E9429
:1044E000DB3A805D8D83822F0E94DB3A905D9E8354
:1044F000CE01039669C10E945608880F991F880F44
:10450000991F815197423CF081E08093DE030E9425
:1045100065080E945E080E948C11823051F0833041
:1045200018F48130F9F415C0833029F08430D1F4C7
:1045300008C08AE011C08091E203882379F081509D
:1045400005C08091E203882349F481E08093E2036F
:1045500005C08091DE038F5F8093DE030E946508B3
:104560000E945E088091E203882321F0813009F0E7
:104570002DC103C085E391E027C18AE391E024C106
:1045800081E08093DE0380910402E5E08E9FF001DC
:104590001124ED51FD4F35979091DF039193909148
:1045A000E00391939091E10391939091E2039193B1
:1045B0009091E303908381500E94DC1FADC081E0A5
:1045C0008093DE038091040290E0FC01EE0FFF1F58
:1045D000EE0FFF1FE80FF91FE052FD4F10820E94FF
:1045E00065080E945E088091040281500E94DC1FD1
:1045F000EDC0E091040285E0E89FF0011124ED5147
:10460000FD4F35972191822F6AE00E94DB3A805D51
:104610008B8330E23C83822F0E94DB3A905D9D8346
:104620008CE78E832081822F0E94DB3A805D8F830E
:104630003887822F0E94DB3A905D99873A87CE01B6
:1046400003960E947D0B0E945608880F991F880FC1
:10465000991F815D97400CF4B9C08FE15BC08091D8
:10466000040290E0FC01EE0FFF1FEE0FFF1FE80FAA
:10467000F91FE052FD4FE081E23091F0E33028F481
:10468000EE2341F0E130B1F408C0E33061F0E430F2
:1046900089F40CC08CE191E00BC081E291E008C08C
:1046A00086E291E005C08BE291E002C080E391E0F8
:1046B0000E94E30B0E945608880F991F880F991FCC
:1046C000895E93400CF482C080E224C08091040291
:1046D00090E0FC01EE0FFF1FEE0FFF1FE80FF91F28
:1046E000EF51FD4FE081EE2319F0E13041F403C0BA
:1046F00085E391E002C08AE391E00E94E30B0E940F
:104700005608880F991F880F991F895E93400CF4F3
:104710005DC081E28093DE030E9465080E945E080E
:1047200055C00E945608880F991F880F991F895BF2
:104730009B401CF081E08093DE030E948C11182FB7
:10474000813031F08230F1F581E08093DE033AC0B0
:1047500082E08093DE030E9465080E945E088091DB
:10476000040290E0FC01EE0FFF1FEE0FFF1FE80FA9
:10477000F91FED51FD4F359781918093DF038191B2
:104780008093E00380818093E103882311F41093E8
:10479000E1038091040290E0FC01EE0FFF1FEE0F99
:1047A000FF1FE80FF91FED51FD4F32978191809364
:1047B000E20380818093E3038150833618F081E027
:1047C0008093E3038FE391E00E94E30B21E030E06C
:1047D000C9012A960FB6F894DEBF0FBECDBFCF91A8
:1047E000DF911F910F910895CF92DF92EF92FF9288
:1047F0000F931F93DF93CF93CDB7DEB727970FB6F5
:10480000F894DEBF0FBECDBFCE010196BE016E5F34
:104810007F4FAE014D5F5F4F9E012C5F3F4F8E017A
:104820000B5F1F4FF6E0EF2EF12CEC0EFD1EE7E0C4
:10483000CE2ED12CCC0EDD1E0E94A3088091DD036C
:10484000843109F46AC0853148F48A3009F455C0CE
:104850008B3009F457C0882359F0A6C08E3109F473
:1048600074C0843609F491C0853109F09DC060C0E0
:104870004A8129813F81E3EEF2E000E010E092817D
:104880009923A1F18081841789F58181821771F5BF
:104890008381882321F0813049F5363038F5913015
:1048A00011F48AE003C0923031F484E18093DD0397
:1048B000209303027BC09330C9F4809122048823A3
:1048C00071F00E9465080E945E088EE18093DD030E
:1048D0000D511D4FF80184810E94FE3203C08AE011
:1048E0008093DD0389818093030260C00B5F1F4FBB
:1048F00035960A3F110519F657C080E00E948A00DC
:104900008BE00FC00E945608880F991F880F991FCF
:10491000895B9B400CF44AC014C082E00E948A006C
:1049200085E18093DD030E9465080E945E083EC019
:104930000E945608880F991F880F991F895B9B401A
:10494000ACF181E00E948A001AC00E945608855D81
:1049500090435CF080912204882311F00E94D932A8
:104960000E94650884E68093DD030E948C118130EB
:10497000E9F480912204882311F00E94D9320E9428
:10498000650884E68093DD0311C0298130E08091C1
:104990000302992787FD90952817390729F010926F
:1049A000DD038FEF8093030280E001C081E0279652
:1049B0000FB6F894DEBF0FBECDBFCF91DF911F9130
:1049C0000F91FF90EF90DF90CF900895CF93DF93FA
:1049D000C4E6D0E0CE010E948300FE01E158FD4F05
:1049E0008083219681E0CE35D807A1F7E3EEF2E08F
:1049F00091E08081883148F481818C3330F4828168
:104A0000853018F48381823028F01082118212825E
:104A100013829483359683E0ED3DF80751F7DF91DB
:104A2000CF9108950F931F93DF93CF93CDB7DEB748
:104A30002A970FB6F894DEBF0FBECDBF8091DF027C
:104A4000833009F472C0843030F48130E1F1823077
:104A500008F04BC00DC0853009F436C1853008F42C
:104A6000A2C0863009F47EC1873009F0B5C18EC17D
:104A700081E08093DF020E9465080E945E08209119
:104A8000DD02822F6AE00E94DB3A805D8B8330E298
:104A90003C83822F0E94DB3A905D9D838CE78E835E
:104AA0002091DE02822F0E94DB3A805D8F8338875F
:104AB000822F0E94DB3A905D99873A87CE01039658
:104AC0000E947D0B89C10E945608880F991F880F8C
:104AD000991F895E93400CF47FC18091DF028F5F44
:104AE0008093DF020E94650877C182E060E040E1C8
:104AF00057E222E131E08E010F5F1F4F0E948812C2
:104B0000823019F0853001F508C086E08093DF021D
:104B10000E9465080E945E085FC189819A81883180
:104B20009105F0F58093E00235C082E060E040E15D
:104B300057E227E131E08E010F5F1F4F0E9488127C
:104B4000823019F3853049F0882309F045C186E0A9
:104B50008093DF021092DB02DBCF29813A812C3374
:104B60003105F0F42093E1028091E0028093DD02B0
:104B70002093DE028091010280930202882319F4BF
:104B800081E0809302028091DB02882309F481E0B6
:104B90008093E2028091DF028F5F8093DF021CC16D
:104BA0001092DF0219C10E945608880F991F880FC2
:104BB000991F815197423CF086E08093DF020E946A
:104BC00065080E945E0880912204882329F4809160
:104BD0002104882309F499CF0E948C11982F8230E8
:104BE00061F0833020F4813009F05CC04AC083302A
:104BF00051F0843009F056C022C086E08093DF0275
:104C00001092DB024BC02091E202213041F02130B2
:104C1000A0F1223091F1233009F040C00BC0809107
:104C20002104882309F5809122048823B9F4209374
:104C3000E20234C0809122048823F9F00FC09091E1
:104C4000E202913039F09130C0F0923081F093302F
:104C500029F513C080912204882311F082E00EC050
:104C600080912104882339F49093E20217C0809147
:104C70002104882311F083E001C081E08093E202E7
:104C80000DC08091E202823011F0833011F485E092
:104C900003C08093DB0286E08093DF020E946508F8
:104CA0000E945E088091E202823041F0833049F038
:104CB000813009F091C084E491E065C08BE291E01D
:104CC00062C089E491E05FC082E092E060E043E688
:104CD0002CE43DE10E94C5138230B1F0833018F41A
:104CE000882331F02CC0833019F0843041F516C090
:104CF00080912204882311F00E94D93286E08093AB
:104D0000DF021092DB021BC0809122048823B9F0DD
:104D10008091020280680E94FB3211C080912204BF
:104D2000882311F00E94D9328091020280930102FF
:104D30008091E2028093DB0286E08093DF0280E2D2
:104D40008B838C8320910202822F6AE00E94DB3ADF
:104D5000805D8D83822F0E94DB3A905D9E83CE0121
:104D6000039611C087E08093DF020E9465080E94CD
:104D70005E088091DB028150833018F48EE491E06C
:104D800002C088E091E00E94E30B26C00E94560812
:104D9000880F991F880F991F855C9940ECF08DE072
:104DA00090E06091DB020E9478008EE090E06091DC
:104DB000DD020E9478008FE090E06091DE020E94A8
:104DC000780083E190E0609101020E9478001092E7
:104DD000DF0220E030E002C021E030E0C9012A9685
:104DE0000FB6F894DEBF0FBECDBFCF91DF911F91FC
:104DF0000F910895CF92DF92EF92FF920F931F933E
:104E0000DF93CF93CDB7DEB727970FB6F894DEBF09
:104E10000FBECDBFCE010196BE016E5F7F4FAE01CA
:104E20004D5F5F4F9E012C5F3F4F8E010B5F1F4F09
:104E3000F6E0EF2EF12CEC0EFD1EE7E0CE2ED12C8D
:104E4000CC0EDD1E0E94A3082091DB022430C1F1AC
:104E5000253020F4213008F478C004C0253009F052
:104E600074C062C09091DD028A81981709F06DC00C
:104E70009091DE028981981709F067C02093DC02C7
:104E800084E08093DB0280912204882359F0223051
:104E900049F486E00E94370B8091010280680E94ED
:104EA000FB3251C080912104882319F0233009F48A
:104EB0004AC080E00E948A0086E00E94370B43C00F
:104EC00083E591E00E94E30B0E948C11882381F01E
:104ED00085E08093DB0281E00E948A0080912204B9
:104EE000882331F08091DC02823011F40E94D932A3
:104EF0009091DD028A81981729F49091DE028981D0
:104F0000981709F18091DC028093DB0281E00E9416
:104F10008A00809122048823B1F08091DC028230E3
:104F200091F40E94D9320FC09091DD028A819817C6
:104F300029F49091DE028981981739F08091DC0282
:104F40008093DB0202C081E001C080E027960FB6AB
:104F5000F894DEBF0FBECDBFCF91DF911F910F91AF
:104F6000FF90EF90DF90CF900895AF92CF92EF92A5
:104F70000F931F93DF93CF9300D0CDB7DEB7E090B0
:104F8000D40224E0E21609F491C02E1570F081E0FD
:104F9000E816C1F1E816C8F022E0E21609F44FC0A5
:104FA00083E0E81609F040C164C026E0E21609F487
:104FB000BEC0E21608F492C087E0E81609F4D0C03B
:104FC00028E0E21609F030C10EC182E060E040E165
:104FD00057E228E531E08E010F5F1F4F0E948812D3
:104FE000823009F41CC1853009F088C029813A81DA
:104FF000C90101974F9718F42093D50253C010921E
:10500000D40212C182E060E040E157E22DE531E0D8
:105010008E010F5F1F4F0E948812823009F4FFC07B
:10502000853009F06BC029813A81C90101970C973D
:1050300018F42093D60236C0E092D402F5C082E084
:1050400060E040E157E222E631E08E010F5F1F4F42
:105050000E948812823009F4E2C0853009F04EC007
:1050600089819A818436910508F05DC08093D702CA
:1050700019C081E060E040E157E227E631E08E01AF
:105080000F5F1F4F0E948812823009F4C8C085301C
:10509000A9F529813A81C9010197079708F043C012
:1050A0002093D8028091D4028F5F3EC082E060E0FE
:1050B00040E157E222E131E08E010F5F1F4F0E9475
:1050C0008812823009F4ABC08530C1F489819A819D
:1050D0008831910540F58093D902E4CF82E060E009
:1050E00040E157E227E131E08E010F5F1F4F0E9440
:1050F0008812823009F493C0853021F0882309F0AA
:1051000093C08DC089819A818C33910560F480931E
:10511000DA028091D4028F5F8093D4020E946508E6
:105120000E945E0881C081E08093D4027DC00E940D
:105130005608880F991F880F991F815D97406CF062
:105140000E9465080E945E088091D4028F5F809360
:10515000D4020E944A088093D3028CE691E040C0BA
:105160000E945608880F991F880F991F81519742F6
:105170000CF055C00E948C11823009F450C083306D
:1051800018F48130E1F412C0833041F08430B9F476
:105190008091D302823078F48F5F05C08091D30272
:1051A000882349F081508093D30205C08091D402B6
:1051B0008F5F8093D4020E9465080E945E088091F0
:1051C000D302813041F0813018F0823069F506C099
:1051D0008CE191E005C081E791E002C086E791E0B3
:1051E0000E94E30B21C08091D3020E9444080E94D8
:1051F0004A08682F85E190E00E9478008091DA02E9
:105200006091D90240E02091D5020091D602E09051
:10521000D702C090D802A3E0AA2E0E948A0810925A
:10522000D40220E030E002C021E030E0C9010F905C
:105230000F90CF91DF911F910F91EF90CF90AF9092
:1052400008958091D2028130A9F0813038F0823007
:1052500009F46CC0833009F0DDC07FC00E9465088E
:105260000E945E0881E08093D2020E94A014809385
:10527000D102D0C00E945608880F991F880F991F2D
:10528000815197420CF080C00E948C11823009F449
:105290007BC0833018F48130D1F412C0833041F0E8
:1052A0008430A9F48091D102873068F48F5F05C003
:1052B0008091D102882339F081508093D10203C0BC
:1052C00082E08093D2020E9465080E945E0880916D
:1052D000D1028330C9F0843028F4813079F08230F3
:1052E00080F409C08530B1F0853088F08630A9F0AF
:1052F0008730C9F415C08BE791E08AC080E891E05F
:1053000087C085E891E084C08AE891E081C08FE899
:1053100091E07EC084E991E07BC089E991E078C0AA
:105320008EE991E075C083EA91E072C00E94560850
:10533000880F991F880F991F815D97405CF00E942C
:1053400065080E945E0883E08093D2020E94160BDB
:105350008093D00288EA91E05BC00E945608880FD3
:10536000991F880F991F8151974274F40E948C11E4
:10537000823051F0833018F48130F1F51CC0833055
:1053800071F08430C9F505C01092D20220E030E0FF
:1053900043C08091D002882349F481E005C0809108
:1053A000D002882319F081508093D0020E946508B2
:1053B0000E945E0821C01092D2028091D1020E9408
:1053C000A3140E94A014682F8AE090E00E94780045
:1053D0008091D0020E94100B0E94160B682F86E16C
:1053E00090E00E9478001092D2020E9465080E940C
:1053F0005E0822E030E010C08091D002882319F0CE
:10540000813041F403C08CE191E002C08EEA91E06A
:105410000E94E30B21E030E0C9010895DF93CF93B0
:10542000CDB7DEB728970FB6F894DEBF0FBECDBF5D
:105430008091CD02813089F1813038F0823009F4D9
:1054400048C0833009F026C1EAC08AE58093CE02C5
:105450000E9465080E945E088DE2898320E22A830B
:105460002B832C833091CE02832F6AE00E94DB3A9B
:10547000805D8D832E83832F0E94DB3A905D9F8316
:105480002887CE0101960E947D0B8091CD028F5F0F
:105490008093CD021092CF02FDC08EEC92E061E0CD
:1054A00040EF20E335E70E94C513833021F08430BC
:1054B00029F0882331F41092CD02AEC082E08093AF
:1054C000CD023091CE02343610F48DE2BDC08DE2B3
:1054D000C3C00E948C11813031F0823079F481E0B8
:1054E0008093CF020BC08091CF02882309F08CC03B
:1054F0000E946E0883E08093CD02CCC00E945608C3
:1055000088599A434CF08091CE0281508093CE020C
:105510000E9465080E945E080E9456086AEF70E0CB
:105520000E94FB3A2091CF028E3791056CF480E205
:105530008A8320FF12C0822F8F5F8093CF02863034
:1055400060F01092CF0209C08EE28A83222329F0F4
:1055500020FD03C02F5F2093CF0280910002813095
:1055600089F48091CE028130C1F40E9456088A3FAE
:10557000910514F482E00FC00E9456088B5A97439D
:105580004CF006C0882349F48091CE02813011F49A
:1055900080E001C081E00E948A008091CE028630C6
:1055A00010F486E001C080E00E94370B3091CE02FB
:1055B000343638F48DE2898320E22B832C83832FC9
:1055C0000EC08DE28983832F64E60E94DB3A805D02
:1055D0008B8320E22C83832F0E94DB3A892F6AE0A1
:1055E0000E94DB3A805D8D832E83832F0E94DB3AFD
:1055F000905D9F8328878091CF02882311F08EE2EF
:105600008887332309F042C01092CD0280E00E94C7
:10561000370B81E00E948A0020E030E03DC00E940C
:105620008C118150823040F482E08093CD0280E082
:105630000E94370B0E947F0886E00E94370B309152
:10564000CE02343640F480E5898320E22A832B831E
:105650002C83832F0FC080E5898320E22A83832F48
:1056600064E60E94DB3A805D8B832C83832F0E944B
:10567000DB3A892F6AE00E94DB3A805D8D832E83BE
:10568000832F0E94DB3A905D9F832887CE0101968D
:105690000E947D0B21E030E0C90128960FB6F894F6
:1056A000DEBF0FBECDBFCF91DF9108951F93DF9373
:1056B000CF93CDB7DEB728970FB6F894DEBF0FBEF5
:1056C000CDBF10E21A838AE38C831E8318878091F2
:1056D000C902813009F1813020F0823009F09EC08A
:1056E00045C00E94340B8093CA020E94310B809304
:1056F000CB020E9465080E945E0881E00E94370B81
:105700000E94340B9AEF981B9093CC028091C902AF
:105710008F5F8093C90282C08CEC92E060E04AEF18
:105720002CE43DE10E94C513833071F1843019F0FF
:10573000882371F429C082E08093C9020E94310B52
:105740009AEF981B9093CC0280E00E94370B66C0C2
:105750009091CC028AEF891B0E94290B2091CC02E8
:10576000243610F084E63CC084E647C08CEC92E01E
:1057700060E04AEF2CE43DE10E94C513833021F044
:10578000843069F0882309F51092C9028091CA0219
:105790000E94290B8091CB020E94210B10C0109215
:1057A000C9020E94340B682F8BE090E00E947800C1
:1057B0000E94310B682F8CE090E00E94780080E01E
:1057C0000E94370B20E030E02BC09091CC028AEF92
:1057D000891B0E94210B2091CC02243668F082E6BE
:1057E0008983822F64E60E94DB3A805D8B83822F5F
:1057F0000E94DB3A892F04C082E689831B83822FB3
:105800006AE00E94DB3A805D8D83822F0E94DB3A42
:10581000905D9F83CE0101960E947D0B21E030E0D8
:10582000C90128960FB6F894DEBF0FBECDBFCF9149
:10583000DF911F910895DF93CF93CDB7DEB72897FF
:105840000FB6F894DEBF0FBECDBF8091E40388325F
:1058500009F461C2893270F5853009F415C18630CA
:1058600098F4823009F49EC0833038F4882309F418
:1058700052C0813009F042C462C0833009F4B6C01E
:10588000843009F03BC4D9C08F3009F48AC180311B
:1058900038F4863009F421C1873009F02FC448C19B
:1058A000813109F4D6C1813108F4A4C1823109F0F3
:1058B00025C404C28E3609F4B4C28F36B0F48634DF
:1058C00009F44EC2873438F4823309F42AC28C3387
:1058D00009F014C42DC28A3509F450C2843609F483
:1058E00054C2803509F00AC442C2833809F42AC37D
:1058F000843838F4883709F4C9C2823809F0FEC305
:1059000006C3863909F4D9C38A3F09F4DCC38C384D
:1059100009F0F4C36DC30E9465080E945E0881E02F
:105920008093E40380E00E94370B8091FE01909108
:10593000FF0197FDE8C38AEF8093E403E4C30E946C
:105940005608880F991F880F991F815197420CF0B4
:10595000D5C30E948C11823009F4D0C3833018F46F
:105960008130E9F415C0833019F08430C1F402C0ED
:1059700082E00FC00E94B314882341F0809122047A
:10598000882311F081E105C085E003C082E101C0F8
:1059900088E28093E4030E9465080E945E0883EB1E
:1059A00091E025C10E945608880F991F880F991F02
:1059B000815197420CF0A2C30E948C11823009F4ED
:1059C0009DC3833018F4813071F406C0833029F010
:1059D000843049F481E001C080E58093E4030E94B3
:1059E00065080E945E0883E591E001C10E945608A7
:1059F000880F991F880F991F815197420CF07EC321
:105A00000E948C11823009F479C3833018F48130FC
:105A100089F409C0833019F0843061F402C084E055
:105A200003C082E001C082E38093E4030E94650822
:105A30000E945E0888EB91E0DAC00E945608880F49
:105A4000991F880F991F815197420CF057C30E94EC
:105A50008C11823009F452C3833018F4813089F4F8
:105A600009C0833019F0843061F402C085E003C0BE
:105A700083E001C08AE58093E4030E9465080E94E8
:105A80005E088DEB91E0B3C00E945608880F991F05
:105A9000880F991F815197420CF030C30E948C11DE
:105AA000823009F42BC3833018F4813099F407C095
:105AB000833019F0843071F407C086E005C00E947D
:105AC0009D14809307028CE88093E4030E9465088C
:105AD0000E945E0882EC91E08AC00E945608880FFE
