:100000000C9459000C9476000C9476000C947600B5
:100010000C942C390C9476000C9476000C94760099
:100020000C9476000C9476000C94E6380C947600D0
:100030000C9476000C9409370C9476000C949E383E
:100040000C94C2380C9476000C9476000C94300416
:100050000C947600CE06D106D106D106D106D10683
:10006000D106E206EB06F006F006F006F006F00612
:1000700001070A070D070D070D070D070D072C07D0
:100080001E071E073D072F072F072F072F074E07B5
:100090004007400740074007400740074007510717
:1000A00007070B070B000000000107070D0D0000FC
:1000B000010011241FBECFE5D8E0DEBFCDBF12E0A6
:1000C000A0E6B0E0E0EBF3E702C005900D92A230AD
:1000D000B107D9F714E0A2E0B2E001C01D92A43745
:1000E000B107E1F70E9426370C94D6390C94000032
:1000F000E199FECF9FBB8EBB6DBB0FB6F894E29A21
:10010000E19A0FBE0895E199FECF9FBB8EBBE09AA6
:100110008DB30895F8948093610078940895809148
:10012000600090916100891711F0909360008091B8
:100130006000813009F442C0813020F0823009F043
:1001400048C042C0809102029091030201969093B0
:100150000302809302022BE0893B920759F12BE0C6
:100160008A3B920798F421E08E35920729F121E02D
:100170008F35920718F4019761F51CC025E08D3D7D
:100180009207C1F08A53974021F516C021E18539C5
:10019000920781F021E18639920720F486519D4033
:1001A000C1F40AC022E1823F920731F080519742A8
:1001B00081F405C0AA9A0895AA980895AA98109261
:1001C0000302109202020895AA9A1092030210925A
:1001D00002020895AA98A29A0895AE98A698089542
:1001E000FC0180910402882361F180912202873012
:1001F00049F480912302909124028F7D90932402F0
:100200008093230280912202808380912302909127
:100210002402928381838091250290912602948307
:1002200083838091270285831092260210922502F3
:1002300010922402109223021092270210920402BC
:1002400081E00895982F6091100270911A0267174B
:1002500038F180911B02681718F580912002292F30
:1002600030E04091280250912902882381F0862FA6
:1002700090E0871B910902C0220F331F8A95E2F795
:10028000422B532B509329024093280233C0440F32
:10029000551F242B352B30932902209328022AC086
:1002A00070911C02671730F180911D02681710F5DC
:1002B00080912002292F30E040912A0250912B0298
:1002C000882381F0862F90E0871B910902C0220FBE
:1002D000331F8A95E2F7422B532B50932B02409306
:1002E0002A0208C0440F551F242B352B30932B02B4
:1002F00020932A026F5F60931002089593B3809158
:100300000402882309F015C2292F207480910F025E
:10031000882381F590910C02222321F49F5F909312
:100320000C0207C29923B9F091E090930F029093C9
:100330000D0210920E0210922B0210922A021092BD
:100340002902109228028FEF8093100290930B02E3
:1003500010920702EEC18091090290910A022FEFDC
:100360008F3F920709F4E5C1019690930A028093AA
:100370000902DFC180910D02882309F471C0222394
:1003800049F080910B028F5F80930B028C3908F447
:1003900053C1BFC020910C02822F8750853018F0C6
:1003A00087508930E8F490910B02892F875085306F
:1003B00018F087508930A0F460EA70E0909306024C
:1003C0002C502B3018F09C509B3030F410920502CA
:1003D00080E48093070208C081E08093050204C096
:1003E00010920F0260E070E080910F02882331F0DC
:1003F00081E192E041E150E00E94593910921002EF
:1004000080912102482F50E080FF22C0809111028C
:100410008731F1F08930E1F020910B0280911302D5
:10042000821760F430E090E0880F991F82179307DD
:100430002CF056954795842F809507C08091050232
:10044000882331F456954795842F81700E942201AC
:1004500081E080930C0210920B0210920D02ECC00E
:1004600080910E02882309F4DAC0222309F458C0CF
:100470005091100260911E025617A9F480911F023C
:10048000813089F48091210280FD0AC090910C0294
:10049000809116029817E8F1809117028917C8F128
:1004A00010921F02C9C040910B024F5F40930B0294
:1004B0008091210280FF1AC0242F30E08091150224
:1004C00090E0880F991F2817390784F0252F30E016
:1004D000862F90E002972817390744F080911F0279
:1004E000882321F481E080931F021AC04C3908F45C
:1004F000A3C0252F30E0862F90E0019728173907F9
:1005000041F480911F02882321F45F5F5093100211
:1005100093C010920F0210920C0210920B028CC02A
:1005200080912102282F30E090910C0280FF45C07D
:10053000809113028917C0F436952795822F8095F4
:1005400081700E9422018091210290E0969587950A
:1005500081700E9422018091210290E096958795FA
:1005600081708093050224C0809112029817E0F0F8
:100570002091060280911502821780F430E090E00D
:10058000880F991F821793074CF090E08091050225
:10059000882309F491E09093050202C0909105022E
:1005A000892F0E94220104C010920F0210920B02A8
:1005B00080910B028093060215C080911202981759
:1005C000A0F080911302891780F020910B02809196
:1005D0001402281750F080911502821730F081E044
:1005E0000E94220110920E0218C0809116029817E4
:1005F00080F080911702891760F090910B02809132
:100600001802981730F080911902891710F080E0D5
:10061000E7CF10920F0210920B0281E005C0222357
:1006200031F480910C028F5F80930C0205C081E051
:1006300080930E0280930B0280910F02882309F4AD
:1006400078C09091100280911E02981709F071C035
:1006500080911F02882309F06CC060916200709144
:10066000630020912A0230912B026217730769F40C
:100670008091090290910A028052934030F4809157
:1006800008028F5F8093080202C01092080281E086
:1006900080930402809111028093220240912802EB
:1006A000509129025093240240932302873049F449
:1006B0008091070290E0822B932B90932B028093E2
:1006C0002A0220912A0230912B0230932602209395
:1006D000250280910402882311F16217730799F4AF
:1006E00080916400909165008417950761F4809172
:1006F000090290910A028C5D954028F480912702AE
:10070000816080932702509365004093640030938A
:1007100063002093620010920A0210920902109264
:100720000F0210922B0210922A0210920C021092C9
:100730000B0280910402089581E080932D0280E1F4
:1007400080B98FEF83B982E382B985EC86BF0895C3
:1007500016BE10922F02089580912F020895809165
:100760002F028823E1F7809166000895FC018091B3
:100770002F028823E1F710922D0260934F028081AF
:100780008093310280FD0DC04E2FA2E3B2E0CF0175
:10079000FC0102C080818D9331968E2F841B8617B9
:1007A000C8F310922E0288EF8093660081E0809358
:1007B0002F0285EA86BF089580912F028823E1F7F2
:1007C00010922D0210922E0288EF8093660081E035
:1007D00080932F0285EA86BF0895AC0180912F0295
:1007E0008823E1F780912E0280FF0FC020E030E0E7
:1007F0000AC0FA01E20FF31FD901AF5CBD4F8C9123
:1008000080832F5F3F4F2617A0F380912E028170C7
:100810000895AC01F89480912F028823F1F480911F
:100820002D028130D1F480912C028823B1F020E098
:100830000AC0E22FF0E0DA01AE0FBF1FED5EFB4F02
:1008400080818C932F5F80912C02281790F3109257
:100850002C027894822F81500895789480E0089536
:100860001F920F920FB60F9211242F933F935F9315
:100870006F937F938F939F93AF93BF93EF93FF9368
:1008800081B1883309F45DC0893370F48031E9F0B7
:10089000813120F4883009F06FC017C08831B9F079
:1008A000883209F069C013C08835C1F1893530F448
:1008B000803441F1803509F05FC019C0803609F4F9
:1008C00055C0803809F058C03EC010923002909157
:1008D000300280914F02981740F5E92FF0E0EF5C6D
:1008E000FD4F808183B99F5F9093300215C0809146
:1008F000300293B1E82FF0E0EF5CFD4F90838F5F03
:10090000809330022091300230E080914F0290E0DD
:10091000019728173907C4F185E837C083B1E09102
:100920003002F0E0EF5CFD4F808380912E02816009
:1009300080932E0210922F0281E080932D0285ED8C
:1009400024C085EA22C081E080932F0280912C028E
:1009500090E023B1FC01ED5EFB4F208301966AE03D
:1009600070E00E94A13980932C020EC081E0809338
:100970002F0210922C0208C081B18093660081E0A2
:1009800080932D0210922F0285EC86BFFF91EF918C
:10099000BF91AF919F918F917F916F915F913F91A7
:1009A0002F910F900FBE0F901F90189580915002BD
:1009B0000895809151020895EF92FF920F931F9333
:1009C00080916700882351F483B3209168003091AF
:1009D0006900881F8827881F90E00EC083B320918C
:1009E00068003091690090E08095909580789070D3
:1009F000880F892F881F990BAC01429FC001439F2C
:100A0000900D529F900D11247C0100E010E0809128
:100A10005802E114F1040105110549F4813079F41B
:100A200010925702109256021092580211C0882359
:100A300021F481E0809358020BC0813049F080910D
:100A40005602909157020196909357028093560256
:100A5000609152027091530280915402909155021C
:100A600027E430E040E050E00E946239E60EF71ED5
:100A7000081F191FC801B70128E430E040E050E02A
:100A80000E94B439C901DA01809352029093530253
:100A9000A0935402B0935502E09165022091520256
:100AA0003091530240915402509155028091680058
:100AB0009091690070E0E11171E060E09695879592
:100AC000A0E0B0E0281739074A075B0708F061E0AB
:100AD0007617C9F081E08E1B80936502882329F484
:100AE00080E090E0A0E0B0E006C0809168009091C6
:100AF0006900A0E0B0E08093520290935302A0936B
:100B00005402B093550280916502809351021F9167
:100B10000F91FF90EF900895282F22952F709AE063
:100B2000299F900111248F70820F0895882319F452
:100B300010926700089581E0809367000895809186
:100B400067000895A7980895AF92CF92EF920F9300
:100B50001F930E94DC048091510220916102309128
:100B600062028823F1F4232B49F010925E02109266
:100B70005D021092620210926102B5C020915D0286
:100B800030915E028BE0293B380708F09CC081E081
:100B9000809350022F5F3F4F30935E0220935D029F
:100BA000A2C0232B09F087C080915D0290915E0264
:100BB000855A96408B52914008F059C08091560258
:100BC00090915702895E934008F451C08091590278
:100BD000833009F044C080916A0060916B002091DD
:100BE0006E0000916C0030916F0070916D00E82FE5
:100BF000E295EF709AE0E99FF00111248F70462F83
:100C000042954F70499FA00111246F70640F422FCD
:100C100042954F70499FA00111242F70240F402F3F
:100C200042954F70499FA00111240F70040F432F6C
:100C300042954F70499FA00111243F70340F472FF8
:100C400042954F70499FA00111247F70740F8E0F41
:100C500040E0E32EC72E12E0A12E0E948A081092D7
:100C60005C0210925B0281E0809359020CC080917B
:100C700059028330A9F410925C0210925B02109228
:100C80005902109250028FEF80936A0080936B009C
:100C900080936F0080936D0080936C0080936E0052
:100CA0001092600210925F0281E090E090936202E5
:100CB0008093610218C020915F023091600281E050
:100CC0002D32380738F010925902109250021092CB
:100CD000630209C081E0809350022F5F3F4F309341
:100CE000600220935F0280915B0290915C0201960A
:100CF00090935C0280935B02885E934021F4109293
:100D00005C0210925B0290915902923069F093302C
:100D100009F4B2C1913009F0B1C110925A0282E0D7
:100D2000809359029093500282E080935002809108
:100D30005B0290915C02845F914009F09FC1E0905A
:100D40005A028E2D8551863208F080C120915F02B3
:100D500030916002C901CC978135910510F420E0F3
:100D60000DC0205A30402135310508F06FC1809107
:100D7000640291E089278093640221E08E2D90E047
:100D8000FC017597E632F10508F060C1E65DFF4FA2
:100D9000EE0FFF1F0590F491E02D099420936A0057
:100DA0001CC0822F90E02E2D30E02551304002C033
:100DB000880F991F2A95E2F720916A00282B20932B
:100DC0006A0044C180916402882309F43FC18FEF17
:100DD00080936A003BC120936B002093640236C16C
:100DE000822F90E02E2D30E02D51304002C0880F30
:100DF000991F2A95E2F720916B00282B20936B0016
:100E000025C180916402882309F420C18FEF80936B
:100E10006B001CC120936E00E0CF822F90E02E2D3E
:100E200030E02452304002C0880F991F2A95E2F723
:100E300020916E00282B20936E0008C1822F90E035
:100E40002E2D30E02A52304002C0880F991F2A957B
:100E5000E2F720916D00282B20936D00F7C0822FC0
:100E600090E02E2D30E02D52304002C0880F991FA7
:100E70002A95E2F720916C00282B20936C00E6C0A5
:100E8000822F90E02E2D30E02253304002C0880F98
:100E9000991F2A95E2F720916F00282B20936F006D
:100EA000D5C080916402882349F08FEF80936E0053
:100EB00080936D0080936C0080936F0050916A0066
:100EC000852F82958F703AE0839FC0011124BFE087
:100ED000CB2EC522C80E8BE38C1508F49CC0209144
:100EE0006B00822F82958F70839FC0011124F22F97
:100EF000FF70F80FF83108F08EC0A0906E008A2DB8
:100F000082958F70839FC00111249A2D9F70980F36
:100F100009F481C0903208F07EC010916C00812FDE
:100F200082958F70839FC0011124912F9F70980F1D
:100F300009F471C09D3008F06EC000916F00802FE1
:100F400082958F70839FC0011124202F2F70280F4E
:100F5000243608F060C0E0916D001E160CF05BC0F6
:100F6000E8300CF058C080917300E81709F046C0D3
:100F700080917400A81609F041C080917200181782
:100F8000E9F5809175000817C9F5409170002C2D86
:100F900030E0842F992787FD90950196281739070F
:100FA00051F42F2F30E080917100992787FD9095A3
:100FB0002817390799F05523F9F44B33E9F42F2F0B
:100FC00030E080917100992787FD9095019668E146
:100FD00070E00E94A1392817390771F480916302EB
:100FE0008F5F80936302882349F081E080936302DE
:100FF00083E08093590202C010926302C092700095
:10100000F0937100E0937300A0927400109372004B
:10101000009375001BC08FEF80936A0080936B0074
:1010200080936F0080936D0080936C0080936E00BE
:10103000109263028093700080937100809375001A
:101040008093730080937200809374008E2D8F5F65
:1010500080935A028C3391F410925A028FEF80934E
:101060006A0080936B0080936F0080936D00809383
:101070006C0080936E0002C0909350021F910F91FC
:10108000EF90CF90AF900895833008F080E0809388
:1010900067020895809167020895E82FF0E0EE0F4F
:1010A000FF1FEA58FF4F808191810895F8942091A5
:1010B0009F003091A0007894C9010895F89410928F
:1010C000A00010929F0078940895F8948FEF9FEFFE
:1010D0009093A00080939F0078940895F894809155
:1010E0009F009091A0009093A2008093A1008FEFA9
:1010F0009FEF9093A00080939F0078940895F894B8
:101100008091A1009091A2009093A00080939F00F5
:1011100078940895AF92CF92EF920F9380936902E3
:101120006093680220939800C0929A0000939900FF
:10113000E0926B0240936A02A0926C020F91EF90D2
:10114000CF90AF900895CF92DF92EF92FF920F93DE
:101150001F93FC01DB01B8018701F89480916E02B6
:10116000808380916D028C9380916F02FA0180835D
:1011700080919B00F901808380919C00FB0180831A
:1011800080917002F801808380919D00F601808338
:1011900078941F910F91FF90EF90DF90CF9008957A
:1011A00080910904882311F00E94D531089580911F
:1011B0009B006AE00E948139805D0E94452F8091EA
:1011C0009B006AE00E948139892F805D0E94452F33
:1011D00080919C006AE00E948139805D0E94452FC9
:1011E00080919C006AE00E948139892F805D0E9475
:1011F000452F809170026AE00E948139805D0E94D3
:10120000452F809170026AE00E948139892F805DAC
:101210000E94452F80919D006AE00E948139892FAC
:10122000805D0E94452F80916D026AE00E948139A5
:10123000805D0E94452F80916D026AE00E94813995
:10124000892F805D0E94452F80916E026AE00E9486
:101250008139805D0E94452F80916E026AE00E9474
:101260008139892F805D0E94452F80916F026AE04D
:101270000E948139805D0E94452F80916F026AE053
:101280000E948139892F805D0E94452F8DE20E9446
:10129000452F80919E000E94452F8DE00E94452F92
:1012A0008AE00E94452F089580916C02882309F4FA
:1012B0007CC0E0916C02F0E0EE0FFF1FEA58FF4F98
:1012C00011821082909167029130F9F480919C0014
:1012D0008A30E1F580919D008730C1F580919B00B7
:1012E0008931A0F180916E028F3180F18091680286
:1012F000823061F580916D02823041F580916C02FF
:10130000813021F19093660221C09230F9F48091EE
:101310009C008B30D9F480919D008730B9F4809186
:101320009B00883098F480916E028F3178F0809124
:101330006802813059F480916D02813039F48091D6
:101340006C02813019F081E08093660280916A021C
:1013500080936F028091690280936E02809168028F
:1013600080936D0280919A0080939D0080919800F7
:1013700080939B008091990080939C0080916B02E8
:101380008093700280910904882331F080916C026F
:10139000813011F00E94F73110926C0210927202AB
:1013A000109271020E94D70809C080917102909139
:1013B00072020196909372028093710280919F0055
:1013C0009091A00097FD09C080919F009091A0008E
:1013D00001969093A00080939F008091710290915C
:1013E00072028A3F910509F016C1109272021092A2
:1013F000710280916F028F5F80936F0280916F0204
:101400008C3308F4FCC010926F0280916E028F5FE3
:1014100080936E0280917A0090917B002FEF8F3F36
:10142000920729F0019690937B0080937A00809137
:101430007800909179002FEF8F3F920729F0019665
:10144000909379008093780080917C0090917D004A
:101450002FEF8F3F920729F0019690937D008093A4
:101460007C0080916E028C3308F4D3C010926E021F
:1014700080916D028F5F80936D0280916702813051
:1014800089F590919C00933051F480919D008730B4
:1014900031F480919B00893108F468C036C0809196
:1014A0009C008A3009F060C080919D00873009F06F
:1014B0005BC080919B00893108F458C080916E0216
:1014C000882309F053C080916D02833009F04EC02B
:1014D00080916602882309F049C082E080936D0202
:1014E00081E039C0823009F041C090919C00933076
:1014F000B9F480919D00873099F480919B008830E9
:10150000A8F180919B008F3088F580916E0288232E
:1015100069F580916D02823049F590936D021DC08E
:1015200080919C008B3001F580919D008730E1F423
:1015300080919B008830D0F480916E028823B1F4B2
:1015400080916D02823091F480916602882371F45B
:1015500081E080936D028093660280910904882364
:1015600029F00E94F73102C01092660280916D024C
:10157000883108F44EC010926D0280919B008F5FFD
:1015800080939B0080919D008F5F80939D00809150
:101590009D00883018F081E080939D00809170025A
:1015A00090E083709070892B39F4E0919C00F0E01A
:1015B000E158FF4FE08106C0E0919C00F0E0E05868
:1015C000FF4FE38580919B00E81718F591E0909319
:1015D0009B0080919C008F5F80939C0080919C0079
:1015E0008D30B8F090939C008091700290E001964D
:1015F00064E670E00E94A139809370020AC0809175
:101600006F028E3131F480910904882311F00E9419
:10161000D5310E94D708089581E080937F02089514
:10162000823008F080E080938002089580918002EB
:101630000895F894823008F081E08093F000789467
:1016400008958B3F08F080E0F894809382027894AC
:1016500008958B3F08F088E2F8948093F100789425
:1016600008958091820208958091F10008958093F9
:1016700089020895823008F080E080938B020895FB
:101680008091F0008111609568BB08959091F00001
:10169000482F50E0992371F422B34D5F5F4F81E0F2
:1016A00090E002C0880F991F4A95E2F78095822347
:1016B00082BB089522B34D5F5F4F81E090E002C08E
:1016C000880F991F4A95E2F7282B22BB0895809135
:1016D000F000882319F482B3886702C082B3877848
:1016E00082BB0895982F81568A3110F4905203C01E
:1016F0009A3008F49A5E892F0895FC019081892F11
:1017000081568A3110F4905203C09A3008F49A5EE0
:10171000392F36513093F2009281892F81568A31C8
:1017200010F4905203C09A3008F49A5E292F265183
:101730002093F3009481892F81568A3110F49052BE
:1017400003C09A3008F49A5E492F46514093F40042
:101750009681892F81568A3110F4905203C09A30B5
:1017600008F49A5E96519093F50081818E3219F4B7
:1017700030683093F20083818E3221F42068209308
:10178000F3000DC08A3329F08C3739F42068209398
:10179000F30081E080938B0204C0803211F4109238
:1017A0008B0285818E3219F440684093F400878162
:1017B0008E3219F490689093F500F89481E080934C
:1017C0008C0278940895FC019081892F81568A318A
:1017D00010F4905203C09A3008F49A5E9651909398
:1017E000F2009181892F81568A3110F4905203C002
:1017F0009A3008F49A5E96519093F3009281892F63
:1018000081568A3110F4905203C09A3008F49A5EDF
:1018100096519093F4009381892F81568A3110F468
:10182000905203C09A3008F49A5E96519093F50056
:1018300010928B02F89481E080938C027894089542
:10184000DF92EF92FF920F931F93DF93CF93CDB769
:10185000DEB72A970FB6F894DEBF0FBECDBFDE010C
:101860001196E6EFF0E085E001900D928150E1F7EE
:10187000FE01369685E0DF011D928A95E9F7809199
:101880008C028823C9F080917C028823A9F480917E
:10189000F200809378028091F30080937902809126
:1018A000F40080937A028091F50080937B0281E0BE
:1018B00080937C0210928C0260917C02643009F467
:1018C000CDC0653050F4623009F467C0633008F071
:1018D00099C0613009F070C10AC0663009F409C1CD
:1018E000663008F4DAC0673009F066C137C180910C
:1018F0008002882321F080917F028823D9F480918F
:10190000F200809374028091F300809375028091BD
:10191000F400809376028091F50080937702109214
:101920007C0283E090E09093EF008093EE001092B1
:101930007F0242C14091EE005091EF00FA01E85859
:10194000FD4FE0812E2F30E0DA01AC58BD4F8C9175
:1019500090E0282739272F773070232BC1F4EC93A0
:101960004115510549F0415050405093EF004093CC
:10197000EE0060937C0220C110927F0210927C02E4
:1019800083E090E09093EF008093EE0015C11092F9
:101990007E0210927D0282E00DC1A091EE00B09116
:1019A000EF00FE01EA0FFB1F1182FD01EC58FD4F15
:1019B000E081F0E0ED55FF4F8081282F30E0C90134
:1019C0009695879596958795817021FD806823FD72
:1019D000806220FD8064AC0FBD1F16968C938091B1
:1019E0007D0290917E02019690937E0280937D020B
:1019F0008F5E924008F4E0C010927E0210927D0249
:101A000083E0D8C0A091EE00B091EF00FE01EA0F94
:101A1000FB1F1182FD01EC58FD4FE081F0E0ED5518
:101A2000FF4F808182FF02C080E401C080E0AC0FE4
:101A3000BD1F16968C9380917D0290917E02019637
:101A400090937E0280937D028F5E924008F4B4C032
:101A500010927E0210927D0284E0ACC0E091EE0014
:101A6000F091EF00DE01AE0FBF1F11961C9211978F
:101A7000FD01168280917D0290917E0201969093E5
:101A80007E0280937D02895B9B4008F495C0109292
:101A90007E0210927D0285E08DC0A091EE00B09193
:101AA000EF00FE01EA0FFB1F1182FD01E858FD4F18
:101AB000E081F0E0ED55FF4F808186FF02C084E0B9
:101AC00001C080E0AC0FBD1F16968C9380917D0203
:101AD00090917E02019690937E0280937D028F5EAC
:101AE000924008F469C010927E0210927D0286E056
:101AF00061C0A091EE00B091EF00FE01EA0FFB1F64
:101B00001182FD01E858FD4FE081F0E0ED55FF4FF7
:101B10002081422F50E0CA0136E0969587953A958C
:101B2000E1F7817027FD826045FD886040FD84609B
:101B3000AC0FBD1F16968C9380917D0290917E0212
:101B4000019690937E0280937D028F5E9240A0F179
:101B500010927E0210927D0287E02CC02091EE0050
:101B60003091EF00FE01E20FF31F80EF8183F90156
:101B7000E858FD4F4081DE01A20FB31FE42FF0E0D3
:101B8000ED55FF4F80818F7016968C9380917D026A
:101B900090917E02019690937E0280937D0202973F
:101BA00058F010927E0210927D022C583D4FF901A0
:101BB000408381E080937C02809189028093880237
:101BC000D0908B02D0928A02833009F40CC2843008
:101BD00038F4813009F483C0823008F0FFC00AC0B5
:101BE000853009F472C1853008F409C2863009F0E5
:101BF00025C38EC26091F000662319F482B3886712
:101C000002C082B3877882BB979870917302743058
:101C100008F05DC0472F50E0FA01EC58FD4F80817D
:101C2000DE0111969E012A5F3F4FE82FF0E08A0106
:101C30000D5F1F4F87FF0FC0EF77F070ED55FF4F1F
:101C400090819061A40FB51F8C919823240F351FAC
:101C5000D9018C910DC0EF77F070ED55FF4FA40FB7
:101C6000B51F90818C919823240F351FF901808135
:101C7000982B662369F498BB22B381E090E002C000
:101C8000880F991F0A95E2F78095822382BB0CC0CA
:101C9000909598BB22B381E090E002C0880F991F15
:101CA0000A95E2F7282B22BB772321F4F1E0DF1617
:101CB00009F4979A972F9F5F909373028091820205
:101CC000882309F0BBC2943009F0B8C282C0809169
:101CD00081028F5F809381029091820277C0609130
:101CE000F000662319F482B3886702C082B3877854
:101CF00082BB979870917302743008F060C0472FD0
:101D000050E0FA01EC58FD4F8081DE0111969E01F2
:101D10002A5F3F4FE82FF0E087FF0FC0EF77F070AA
:101D2000ED55FF4F90819061A40FB51F8C919823C2
:101D3000240F351FD9018C910DC0EF77F070ED5550
:101D4000FF4FA40FB51F90818C919823240F351F4E
:101D5000F9018081982B6111909598BB3091F10029
:101D60003A3FD0F4FA013396662361F422B381E05E
:101D700090E002C0880F991FEA95E2F780958223D0
:101D800082BB0AC022B381E090E002C0880F991F95
:101D9000EA95E2F7282B22BB772331F4F1E0DF1636
:101DA00019F43A3F08F4979A872F8F5F8093730254
:101DB000332309F043C2843009F040C20AC0809145
:101DC00081028F5F809381029091F100981708F053
:101DD00037C2109273021092810232C28091830244
:101DE000909184028331910508F4F7C06091F0006E
:101DF000662319F482B3886702C082B3877882BBF6
:101E0000979870917302743009F457C0472F50E0CF
:101E1000FA01EC58FD4F8081DE0111969E012A5F88
:101E20003F4FE82FF0E08A010D5F1F4F87FF0FC083
:101E3000EF77F070ED55FF4F90819061A40FB51FC3
:101E40008C919823240F351FD9018C910DC0EF7709
:101E5000F070ED55FF4FA40FB51F90818C91982322
:101E6000240F351FF9018081982B662369F498BBF4
:101E700022B381E090E002C0880F991F0A95E2F733
:101E80008095822382BB0CC0909598BB22B381E0E1
:101E900090E002C0880F991F0A95E2F7282B22BB19
:101EA000772321F4F1E0DF1609F4979A972F9F5FCB
:101EB000909373028091820276C0809181028F5F3D
:101EC00080938102909182027AC0809183029091E6
:101ED00084028331910508F480C06091F00066238C
:101EE00019F482B3886702C082B3877882BB97985F
:101EF00070917302743009F45BC0472F50E0FA010F
:101F0000EC58FD4F8081DE0111969E012A5F3F4F04
:101F1000E82FF0E08A010D5F1F4F87FF0FC0EF77BA
:101F2000F070ED55FF4F90819061A40FB51F8C911B
:101F30009823240F351FD9018C910DC0EF77F070D5
:101F4000ED55FF4FA40FB51F90818C919823240F5E
:101F5000351FF9018081982B662369F498BB22B361
:101F600081E090E002C0880F991F0A95E2F7809502
:101F7000822382BB0CC0909598BB22B381E090E095
:101F800002C0880F991F0A95E2F7282B22BB7723FE
:101F900021F4F1E0DF1609F4979A972F9F5F909351
:101FA00073028091F100882391F4943081F409C088
:101FB000809181028F5F809381029091F100981748
:101FC00020F4109273021092810281E001C080E03F
:101FD000109284021092830234C10196909384027D
:101FE000809383022BC18091F000882319F482B37F
:101FF000886702C082B3877882BB97981FC1E09040
:102000008302F09084027091F00020EDE21627E048
:10201000F20608F065C0772319F482B3886702C01E
:1020200082B3877882BB979860917302643009F419
:1020300054C0462F50E0FA01EC58FD4F8081DE017C
:1020400011969E012A5F3F4FE82FF0E08A010D5F55
:102050001F4F87FF0FC0EF77F070ED55FF4F908156
:102060009061A40FB51F8C919823240F351FD901BF
:102070008C910DC0EF77F070ED55FF4FA40FB51F99
:1020800090818C919823240F351FF9018081982B22
:10209000772369F498BB22B381E090E002C0880FF7
:1020A000991F0A95E2F78095822382BB0CC0909518
:1020B00098BB22B381E090E002C0880F991F0A9577
:1020C000E2F7282B22BB662321F4F1E0DF1609F4A6
:1020D000979A6F5F609373020CC01092730209C0ED
:1020E000772319F482B3886702C082B3877882BBF2
:1020F0009798C70101969093840280938302895830
:10210000934108F49DC0109284021092830298C0FB
:102110007091F000772319F482B3886702C082B30C
:10212000877882BB979860917302643008F054C03E
:10213000462F50E0FA01EC58FD4F8081DE011196E8
:102140009E012A5F3F4FE82FF0E08A010D5F1F4F8D
:1021500087FF0FC0EF77F070ED55FF4F90819061D2
:10216000A40FB51F8C919823240F351FD9018C9192
:102170000DC0EF77F070ED55FF4FA40FB51F9081A4
:102180008C919823240F351FF9018081982B772398
:1021900069F498BB22B381E090E002C0880F991FD8
:1021A0000A95E2F78095822382BB0CC0909598BB7C
:1021B00022B381E090E002C0880F991F0A95E2F7F0
:1021C000282B22BB662321F4F1E0DF1609F4979A4D
:1021D0006F5F6093730232C0809181028F5F809342
:1021E000810290918502981720F410927302109248
:1021F0008102809187028F5F80938702823300F192
:102200001092870280918602882319F08130C1F4F0
:102210000AC0892F8F5F80938502803588F081E026
:10222000809386020EC0892F815080938502882377
:1022300039F4109287021092860202C080E001C039
:1022400081E02A960FB6F894DEBF0FBECDBFCF91C6
:10225000DF911F910F91FF90EF90DF90089588E735
:1022600081BB82BB8F9A979887B38FEF87BB88BB60
:102270000895809393020895A698AE9A0895DF93E7
:10228000CF9300D000D000D0CDB7DEB71D821C8226
:102290001E821982CE0101960E94F000882391F1DE
:1022A0008E8180FD2FC08981823031F48C819D81A7
:1022B0008231910549F41EC0873021F58C819D81C2
:1022C0008C30910529F416C08E31910529F414C083
:1022D0008032910529F410C08330910529F40EC095
:1022E0008132910521F40AC0019761F409C00D976C
:1022F00049F406C082E107C08FE105C080E203C057
:1023000081E201C08FEF26960FB6F894DEBF0FBEB4
:10231000CDBFCF91DF9108951F93109193020E943A
:102320003F118F3161F0803218F4823171F40BC0AB
:10233000803219F0813249F404C014E00EC013E079
:102340000CC011E00AC012E008C0809193028823FB
:1023500011F410E002C010929302812F1F91089592
:10236000CF92DF92EF92FF920F931F93CF93DF9361
:10237000D82EC62EEA01790180918D02813019F1A3
:10238000813038F0823009F449C0833009F01BC134
:1023900004C11092900210928F0210928E028FEF61
:1023A0008093000110929202109291020E9465089F
:1023B0000E945E0881E080938D0280E00E94370BCE
:1023C000C7010E94E30B0E945608880F991F880FCF
:1023D000991F8D5D95400CF4F6C082E080938D02CC
:1023E00080E280931D0480931E0480931F048093D9
:1023F000200480E023E030E09FE507C0F901E81BFE
:10240000F109E35EFB4F90838F5F8D15B8F3109257
:102410008E020E9465080E945E08BAC00E9456089B
:10242000880F991F880F991FC817D90730F40E9489
:10243000650810928D0282E0C7C00E948C11823024
:1024400061F0833020F4813009F074C030C08330F3
:1024500041F0843009F06EC00EC010928D0280E011
:10246000B3C08091000187FD0AC08F5F8093000197
:102470008A3084F004C08091000187FF03C010926D
:10248000000108C08150809300018F3F19F489E05A
:1024900080930001E0918E02F0E03496ED19F1098D
:1024A000E35EFB4F80910001805D80833FC04091DF
:1024B000000147FD3BC0E0918E028D2D90E0CC20C5
:1024C00041F0F0E0E81BF90BEF5DFB4F8DE28083FC
:1024D00008C0F0E0E81BF90BEF5DFB4F405D408367
:1024E000405360918E026F5F60938E02552747FDC7
:1024F000509580918F02909190029C01E3E0220F11
:10250000331FEA95E1F7880F991F280F391F420FF3
:10251000531F5093900240938F028FEF80930001DE
:102520006D1521F483E080938D024DC00E946508F3
:102530000E945E080E945608880F991F880F991FF5
:1025400064EF71E00E94A1398B3F910554F0E09156
:102550008E02F0E03496ED19F109E35EFB4F80E264
:102560000EC020910001E0918E028D2D90E02F3F52
:1025700041F4F0E0E81BF90BEF5DFB4F8FE5808342
:1025800007C0F0E0E81BF90BEF5DFB4F205D2083F7
:102590008DE194E00E94E30B16C00E945608880F5C
:1025A000991F880F991F855F91406CF00E94650804
:1025B00010928D0280918F0290919002F801918388
:1025C000808385E001C081E0DF91CF911F910F9161
:1025D000FF90EF90DF90CF9008950F931F93DF93BC
:1025E000CF9300D0CDB7DEB71A82198284E061E0C4
:1025F00048E95AE32BEF30E08E010F5F1F4F0E9436
:10260000B011823021F0853029F0882331F420E0A8
:1026100030E008C029813A8105C080E00E94370B74
:1026200021E030E0C9010F900F90CF91DF911F9111
:102630000F910895EF92FF920F931F93CF93DF9323
:10264000EC01E62EF42E890180919402882321F07A
:10265000813009F068C008C00E9465080E945E08C9
:1026600081E08093940260C00E9456080817190701
:1026700020F41092940283E057C00E948C118230A3
:1026800061F0833020F4813009F04DC044C08330C4
:1026900041F0843009F047C01EC01092940280E0DF
:1026A00043C00E94560828818536910524F02F15D5
:1026B00080F42F5F29C02F1560F4822F65E00E94FF
:1026C0008139822F8B5F9111891B88838881F8164D
:1026D000E0F4E8821AC00E945608288185369105E8
:1026E00024F0E21620F421500FC0E21610F0F88218
:1026F0000CC0263050F0822F65E00E94813999236A
:1027000011F4255001C0291B28830E9465080E94EE
:102710005E0882E009C00E9465080E945E0810926F
:10272000940284E001C081E0DF91CF911F910F916D
:10273000FF90EF90089587B190E08770907083309C
:10274000910589F1843091054CF48130910511F1A6
:10275000823091051CF5892B69F036C085309105D2
:1027600051F1853091051CF18630910541F10797B3
:1027700059F529C087B1867F816087B924B144B1FA
:10278000942F80E030E0822B932B909396028093DD
:1027900095021AC087B1857F826003C087B1847FAC
:1027A000836087B911C087B1837F8460FACF87B116
:1027B000827F8560F6CF87B1817F8660F2CF87B157
:1027C000807F8760EECF3B98369A089580E487B982
:1027D0008FE986B9369A0895853008F081E08093B4
:1027E0000601089580910601089580919702089549
:1027F000F894883008F082E08093970278940895E6
:10280000F894883008F082E08093980278940895D4
:102810008091980208950F931F93DF93CF9300D078
:1028200000D0CDB7DEB780E190E00E948300082F92
:102830008091B102813091F0813020F0823009F036
:102840004BC020C081E091E00E94E30B0E9465082C
:102850000E945E088091B1028F5F11C00E945608ED
:10286000880F991F880F991F855C9940ACF10E94D1
:1028700065080E945E0881E00E94370B82E0809329
:10288000B1022AC00E945608880F991F880F991F0D
:10289000855C99404CF00E9465081092B10280E07E
:1028A0000E94370B80E04FC080919802882311F47A
:1028B00080E201C086E48C8380E28B838A838983F3
:1028C0000E949F05882311F48EE401C089E4898366
:1028D000CE0101960E94E30B0E948C11823079F0A8
:1028E0008430E1F0813071F510E0002309F411E04B
:1028F000812F0E94190B80E190E0612F1DC0809113
:102900009802882321F481E08093980202C01092FB
:10291000980281E190E0609198020EC00E949F05AC
:10292000882311F481E001C080E00E9496050E9496
:102930009F05682F82E190E00E9478000E94650860
:102940000E945E0881E00F900F900F900F90CF9142
:10295000DF911F910F910895BF92CF92DF92EF9276
:10296000FF920F931F93DF93CF93CDB7DEB72B97D3
:102970000FB6F894DEBF0FBECDBFB82ECE010196C4
:10298000BE016E5F7F4FAE014D5F5F4F9E012C5FBA
:102990003F4F8E010B5F1F4FF6E0EF2EF12CEC0E38
:1029A000FD1EE7E0CE2ED12CCC0EDD1E0E94A3082A
:1029B0008F8191E0B916D1F48430A1F0853028F4EC
:1029C000823051F0833050F419C0863099F186304E
:1029D00068F18730B9F508C084E401C08DE48887C8
:1029E00089E62FC084E415C083E513C08430D1F09C
:1029F000853038F4823081F0833080F4813011F5F5
:102A000007C08630B9F0863088F08730D9F416C018
:102A10008DE488878FE615C084E511C087E5888737
:102A200085E60FC084E5888788E60BC086E4888742
:102A300082E707C083E5888781E603C083E588874E
:102A400085E789872E81822F6AE00E948139805D27
:102A50008A87822F0E948139905D9B87CE010896DC
:102A60000E94E30B2B960FB6F894DEBF0FBECDBFCE
:102A7000CF91DF911F910F91FF90EF90DF90CF905A
:102A8000BF900895CF92DF92EF92FF920F931F9322
:102A9000DF93CF93CDB7DEB72F970FB6F894DEBF95
:102AA0000FBECDBF80E289878B878D878F87CE0150
:102AB0000196BE016E5F7F4FAE014D5F5F4F9E017D
:102AC0002C5F3F4F8E010B5F1F4FB6E0EB2EF12CBA
:102AD000EC0EFD1EA7E0CA2ED12CCC0EDD1E0E94EE
:102AE000A3082C81822F6AE00E948139805D88874B
:102AF000822F0E948139905D9A873EE23B872D812B
:102B0000822F0E948139805D8C87822F0E948139BB
:102B1000905D9E873F87CE0108960E947D0B2F9681
:102B20000FB6F894DEBF0FBECDBFCF91DF911F91DE
:102B30000F91FF90EF90DF90CF9008951F93DF9358
:102B4000CF93CDB7DEB72A970FB6F894DEBF0FBE8E
:102B5000CDBF1A82198210E21C831E8318871A8740
:102B600080910A04882309F45BC0CE0101960E947B
:102B7000C031882309F45DC0E981FA81F7FD22C0E4
:102B8000CF0164E670E00E94A139605D6B83CF01E4
:102B900064E670E00E94A1396AE070E00E94A13909
:102BA000605D6D838EE28E83CF016AE070E00E94EB
:102BB000A139805D8F8383E48987E436F105ACF524
:102BC0001B8333C0222733272E1B3F0B3A832983D5
:102BD0008DE28B83C90164E670E00E94A139605DDB
:102BE0006D83C90164E670E00E94A1396AE070E07B
:102BF0000E94A139462F405D4F83EEE2E887C9016C
:102C00006AE070E00E94A139805D89872436310531
:102C100064F44D838F8383E489871887EE8305C02E
:102C20008DE28B838D838F838987CE0103960E94EB
:102C30007D0B2A960FB6F894DEBF0FBECDBFCF91A5
:102C4000DF911F91089580910904882331F482E077
:102C50000E944D08805A954050F4809109048823C1
:102C600091F082E00E944D088056974260F00E94E9
:102C7000D604882311F490E00CC00E94D90481117D
:102C800081E0982F06C090E080919702863009F08D
:102C900091E0892F0895CF92DF92EF92FF920F93E8
:102CA0001F93DF93CF93CDB7DEB72F970FB6F8946E
:102CB000DEBF0FBECDBF81E00E94861F80919F02C4
:102CC000813009F45CC0813020F0823009F075C099
:102CD00068C0CE010196BE016E5F7F4FAE014D5FB1
:102CE0005F4F9E012C5F3F4F8E010B5F1F4FF6E041
:102CF000EF2EF12CEC0EFD1EE7E0CE2ED12CCC0EEB
:102D0000DD1E0E94A3082A81822F6AE00E94813979
:102D1000888730E23987822F0E9481399A873B87E2
:102D20002981822F0E9481398C873D87822F0E94C2
:102D300081399E873F870E942316882311F08EE2F7
:102D40008B878A8188508E3010F081E001C080E04E
:102D50000E94370BCE0108960E947D0B0E9414231F
:102D6000882359F50E948C118130C1F0823029F5F9
:102D700080910C04882309F10E944B311EC00E94EF
:102D8000ED129093A1028093A0020097A1F08130F0
:102D9000910599F08A51954081F482E080939F02D9
:102DA0000CC00E942E2B9093A1028093A00200974A
:102DB00011F0029711F410929F022F960FB6F8941B
:102DC000DEBF0FBECDBFCF91DF911F910F91FF905E
:102DD000EF90DF90CF900895CF92DF92EF92FF9225
:102DE0000F931F93DF93CF93CDB7DEB72F970FB617
:102DF000F894DEBF0FBECDBF80E289878B878D87B9
:102E00008F87CE010196BE016E5F7F4FAE014D5F91
:102E10005F4F9E012C5F3F4F8E010B5F1F4FB6E04F
:102E2000EB2EF12CEC0EFD1EA7E0CA2ED12CCC0E01
:102E3000DD1E0E94A3082A81822F6AE00E94813948
:102E4000805D8887822F0E948139905D9A872981D1
:102E5000822F0E948139805D8C87822F0E94813968
:102E6000905D9E8780910601813051F0833061F042
:102E70000E942316882351F080910601823011F4BC
:102E80008EE203C0843011F48AE38B870E940C0B1E
:102E9000CE0108960E947D0B2F960FB6F894DEBFE8
:102EA0000FBECDBFCF91DF911F910F91FF90EF909B
:102EB000DF90CF900895CF92DF92EF92FF920F9321
:102EC0001F93DF93CF93CDB7DEB727970FB6F89454
:102ED000DEBF0FBECDBF81E00E94861F8091AE0293
:102EE000813009F43FC0813020F0823009F058C0B1
:102EF0004BC0CE010196BE016E5F7F4FAE014D5FAC
:102F00005F4F9E012C5F3F4F8E010B5F1F4FF6E01E
:102F1000EF2EF12CEC0EFD1EE7E0CE2ED12CCC0EC8
:102F2000DD1E0E94A30880E00E94370B8B816AE0BF
:102F30000E948139992319F40E949E1502C00E94B3
:102F4000EC160E941423882359F50E948C118130BD
:102F5000C1F0823029F580910C04882309F10E9488
:102F60004B311EC00E94ED129093B0028093AF02CD
:102F70000097A1F08130910599F08A51954081F434
:102F800082E08093AE020CC00E942E2B9093B00280
:102F90008093AF02009711F0029711F41092AE02E5
:102FA00027960FB6F894DEBF0FBECDBFCF91DF914D
:102FB0001F910F91FF90EF90DF90CF900895CF92E7
:102FC000DF92EF92FF920F931F93DF93CF93CDB7D2
:102FD000DEB727970FB6F894DEBF0FBECDBF81E0F6
:102FE0000E94861F8091AB02823309F481C0833333
:102FF00048F4813009F45EC08130A0F0823009F0DD
:10300000A7C06BC08C3309F47CC08D3320F48333AC
:1030100009F09EC073C08D3309F479C08E3309F076
:1030200097C089C0CE010196BE016E5F7F4FAE0191
:103030004D5F5F4F9E012C5F3F4F8E010B5F1F4F17
:10304000F6E0EF2EF12CEC0EFD1EE7E0CE2ED12C9B
:10305000CC0EDD1E0E94A3088A8188508E3010F0AD
:1030600081E001C080E00E94370B0E94EC160E94B4
:103070001423882309F06CC00E948C11823091F0D7
:10308000833020F4813009F063C025C0833021F003
:10309000843009F05DC004C082E38093AB0258C065
:1030A0008CE3FBCF80910C04882309F451C00E946B
:1030B0004B314EC00E94ED129093AD028093AC0252
:1030C000009709F443C08130910509F441C08A5149
:1030D000954009F03DC082E0E0CF0E942E2B9093F6
:1030E000AD028093AC02009789F1029789F52EC05A
:1030F0000E945E080E949E1583E3CFCF0E949E151A
:103100001AC00E945E080E9442158DE3C6CF0E943D
:103110005608880F991F880F991F815D9740C4F04A
:103120000E9465080E945E088EE38093AB0280E0F7
:103130000E94AC140DC00E945608880F991F880F7A
:10314000991F815D974024F00E9465081092AB02A0
:1031500027960FB6F894DEBF0FBECDBFCF91DF919B
:103160001F910F91FF90EF90DF90CF900895CF9235
:10317000DF92EF92FF920F931F93DF93CF93CDB720
:10318000DEB727970FB6F894DEBF0FBECDBF80E045
:103190000E94861F8091A802813009F44FC08130BF
:1031A00020F0823009F068C05BC0CE010196BE01FC
:1031B0006E5F7F4FAE014D5F5F4F9E012C5F3F4FB3
:1031C0008E010B5F1F4FB6E0EB2EF12CEC0EFD1EB7
:1031D000A7E0CA2ED12CCC0EDD1E0E94A3088A8146
:1031E00088508E3010F081E001C080E00E94370BE3
:1031F0008B8164E10E9481399A3018F40E94EC16A8
:103200000CC0892F8A50853018F40E94421505C0E1
:103210009F50963010F40E949E150E94142388231C
:1032200059F50E948C118130C1F0823029F58091CE
:103230000C04882309F10E944B311EC00E94ED123C
:103240009093AA028093A9020097A1F08130910582
:1032500099F08A51954081F482E08093A8020CC0D5
:103260000E942E2B9093AA028093A902009711F03E
:10327000029711F41092A80227960FB6F894DEBFB9
:103280000FBECDBFCF91DF911F910F91FF90EF90B7
:10329000DF90CF900895CF92DF92EF92FF920F933D
:1032A0001F93DF93CF93CDB7DEB727970FB6F89470
:1032B000DEBF0FBECDBF81E00E94861F8091A502B8
:1032C000823309F480C0833348F4813009F45DC04F
:1032D0008130A0F0823009F0A6C06AC08C3309F4B6
:1032E0007BC08D3320F4833309F09DC072C08D33D1
:1032F00009F478C08E3309F096C088C0CE010196DB
:10330000BE016E5F7F4FAE014D5F5F4F9E012C5F30
:103310003F4F8E010B5F1F4FF6E0EF2EF12CEC0EAE
:10332000FD1EE7E0CE2ED12CCC0EDD1E0E94A308A0
:103330008F81853010F48981811181E00E94370BE3
:103340000E94EC160E941423882309F06CC00E948E
:103350008C11823091F0833020F4813009F063C009
:1033600007C0833021F0843009F05DC004C082E3DF
:103370008093A50258C08CE3FBCF80910C04882376
:1033800009F451C00E944B314EC00E94ED1290933F
:10339000A7028093A602009709F443C081309105EB
:1033A00009F441C08A51954009F03DC082E0E0CF68
:1033B0000E942E2B9093A7028093A602009789F17A
:1033C000029789F52EC00E945E080E949E1583E335
:1033D000CFCF0E949E151AC00E945E080E9442151F
:1033E0008DE3C6CF0E945608880F991F880F991F3A
:1033F000815D9740C4F00E9465080E945E088EE3DC
:103400008093A50281E00E94AC140DC00E94560872
:10341000880F991F880F991F815D974024F00E94A3
:1034200065081092A50227960FB6F894DEBF0FBE6E
:10343000CDBFCF91DF911F910F91FF90EF90DF9063
:10344000CF900895CF92DF92EF92FF920F931F9348
:10345000DF93CF93CDB7DEB72B970FB6F894DEBFCF
:103460000FBECDBF81E00E94861F8091A2028233F1
:1034700009F444C1833348F4813009F421C1813017
:10348000A0F0823009F06AC12EC18C3309F43FC12B
:103490008D3320F4833309F061C136C18D3309F4D3
:1034A0003CC18E3309F05AC14CC1CE010196BE0118
:1034B0006E5F7F4FAE014D5F5F4F9E012C5F3F4FB0
:1034C0008E010B5F1F4FF6E0EF2EF12CEC0EFD1E70
:1034D000E7E0CE2ED12CCC0EDD1E0E94A3089A81EF
:1034E0008CE3989FF00111248981E80FF11D9F81E1
:1034F000892F8150843008F057C02B81822F6FE0D4
:103500000E948139992351F0822F90E001966FE05B
:1035100070E00E94A139892B09F095C0CF01845A2F
:1035200091408837910508F458C0CF018C519240E2
:10353000449708F45CC0CF0180539240803A9105D3
:1035400008F465C0CF01805D9240889708F469C097
:10355000CF01885F92408C38910508F074C08DE2ED
:10356000888724E833E02E1B3F0BC90164E670E036
:103570000E948D39605D6987C90164E670E00E9430
:103580008D396AE070E00E948D39605D6A87C901FB
:103590006AE070E00E948D39805D8B87CE010896CD
:1035A0000E94E30B10E050C0953009F04CC02B8115
:1035B000822F6FE00E948139992349F0822F90E099
:1035C00001966FE070E00E94A139892BE1F5CF01EF
:1035D000845A91408837910528F48DE288872CE140
:1035E00032E0C1CFCF018C519240449750F480E536
:1035F00088878DE2898720E332E02E1B3F0BC901CB
:10360000C0CFCF0180539240803A910528F48DE2DB
:10361000888720ED32E0A7CFCF01805D9240889768
:1036200038F480E588878DE2898728EF32E0E5CF9E
:10363000CF01885F92408134910528F48DE288871C
:1036400029E333E090CF11E08A8186508D3010F06D
:1036500081E001C080E00E94370B112371F08B8163
:1036600090E003966FE070E00E94A139892B19F475
:103670000E94421502C00E94EC160E941423882367
:1036800009F06CC00E948C11823091F0833020F4DC
:10369000813009F063C007C0833021F0843009F025
:1036A0005DC004C082E38093A20258C08CE3FBCFCC
:1036B00080910C04882309F451C00E944B314EC004
:1036C0000E94ED129093A4028093A302009709F444
:1036D00043C08130910509F441C08A51954009F0F9
:1036E0003DC082E0E0CF0E942E2B9093A4028093F5
:1036F000A302009789F1029789F52EC00E945E0807
:103700000E949E1583E3CFCF0E949E151AC00E948F
:103710005E080E9442158DE3C6CF0E945608880FAE
:10372000991F880F991F815D9740C4F00E9465081A
:103730000E945E088EE38093A20281E00E94AC1496
:103740000DC00E945608880F991F880F991F815D30
:10375000974024F00E9465081092A2022B960FB6A3
:10376000F894DEBF0FBECDBFCF91DF911F910F91B7
:10377000FF90EF90DF90CF900895CF92DF92EF927D
:10378000FF920F931F93DF93CF93CDB7DEB72B97A5
:103790000FB6F894DEBF0FBECDBF81E00E94861F3A
:1037A00080919C02823309F47AC1833348F48130DA
:1037B00009F457C18130A0F0823009F0A0C164C182
:1037C0008C3309F475C18D3320F4833309F097C12C
:1037D0006CC18D3309F472C18E3309F090C182C17E
:1037E000CE010196BE016E5F7F4FAE014D5F5F4F10
:1037F0009E012C5F3F4F8E010B5F1F4FF6E0EF2EB7
:10380000F12CEC0EFD1EE7E0CE2ED12CCC0EDD1EF1
:103810000E94A30829813A818CE3389F80011124FA
:10382000020F111D9F81892F8150843008F063C0E1
:103830002B3319F4373091F40BC02C3219F4393092
:1038400069F406C02D3151F43B3011F03D3031F4B4
:1038500086E00E94370B92E0F92E01C0FF242B81F5
:10386000822F6AE00E948139992351F0822F90E0E3
:1038700001966AE070E00E94A139892B09F0BCC072
:10388000C801805E91408A35910508F465C0C80181
:103890008A5392400F9708F46BC0C8018954924034
:1038A0008A35910508F471C0C801835A92400F9778
:1038B00008F477C0C801825B92408A35910508F40C
:1038C0007DC0C8018C5093404E9738F480E58887BE
:1038D0008DE289872AE233E077C0C8018A5293409B
:1038E0008A35910508F085C083E588878DE2898750
:1038F00024E833E069C0953019F0FF24F3947EC0CA
:103900002B3319F4373081F409C02C3219F43930D3
:1039100059F404C02D3141F43B3031F486E00E946B
:10392000370B82E0F82E01C0FF242B81822F6AE042
:103930000E948139992351F0822F90E001966AE02C
:1039400070E00E94A139892B09F056C0C801805E41
:1039500091408A35910538F483E588878DE289871F
:103960002AE332E031C0C8018A5392400F9738F4FD
:1039700080E588878DE2898729E432E025C0C80187
:10398000895492408A35910538F483E588878DE221
:10399000898723EA32E018C0C801835A92400F9702
:1039A00038F480E588878DE2898722EB32E00CC00D
:1039B000C801825B92408A359105D8F483E58887F7
:1039C0008DE289872CE033E0201B310BC9016AE0CE
:1039D00070E00E948D39605D6A87C9016AE070E01D
:1039E0000E948D39805D8B87CE0108960E94E30B83
:1039F00005C021E0F22A02C081E0F82A1F2DF1FC67
:103A000009C08A8187508D3010F081E001C080E0CC
:103A10000E94370B10FF02C00E94EC160E94142374
:103A2000882309F06CC00E948C11823091F08330A1
:103A300020F4813009F063C007C0833021F0843066
:103A400009F05DC004C082E380939C0258C08CE3FF
:103A5000FBCF80910C04882309F451C00E944B31A4
:103A60004EC00E94ED1290939E0280939D0200979B
:103A700009F443C08130910509F441C08A51954051
:103A800009F03DC082E0E0CF0E942E2B90939E0271
:103A900080939D02009789F1029789F52EC00E94BC
:103AA0005E080E949E1583E3CFCF0E949E151AC028
:103AB0000E945E080E9442158DE3C6CF0E94560800
:103AC000880F991F880F991F815D9740C4F00E944D
:103AD00065080E945E088EE380939C0281E00E944C
:103AE000AC140DC00E945608880F991F880F991FAB
:103AF000815D974024F00E94650810929C022B96ED
:103B00000FB6F894DEBF0FBECDBFCF91DF911F91EE
:103B10000F91FF90EF90DF90CF900895CF92DF92BA
:103B2000EF92FF920F931F93DF93CF93CDB7DEB742
:103B30002B970FB6F894DEBF0FBECDBF81E00E9479
:103B4000861F80919902823309F499C1833348F426
:103B5000813009F476C18130A0F0823009F0BFC114
:103B600083C18C3309F494C18D3320F4833309F07D
:103B7000B6C18BC18D3309F491C18E3309F0AFC149
:103B8000A1C1CE010196BE016E5F7F4FAE014D5FB8
:103B90005F4F9E012C5F3F4F8E010B5F1F4FF6E082
:103BA000EF2EF12CEC0EFD1EE7E0CE2ED12CCC0E2C
:103BB000DD1E0E94A30829813A818CE3389F800191
:103BC0001124020F111D9F81892F8150843008F02C
:103BD00082C02B3319F4373099F40CC02C3219F40D
:103BE000393031F407C02D3159F43B3049F402C06B
:103BF0003D3031F486E00E94370B92E0F92E01C08F
:103C0000FF242B81822F6AE00E948139992351F091
:103C1000822F90E001966AE070E00E94A139892B22
:103C200009F0DAC0C801805E91408A35910538F408
:103C30008CE488878DE289872AE332E0B5C0C80129
:103C40008A5392400F9738F482E688878DE28987FD
:103C500029E432E0A9C0C801895492408A3591050F
:103C600038F48CE488878DE2898723EA32E09CC0AF
:103C7000C801835A92400F9738F482E688878DE214
:103C8000898722EB32E090C0C801825B92408A357E
:103C9000910538F48CE488878DE289872CE033E045
:103CA00083C0C8018C5093408D9738F482E6888792
:103CB0008DE2898729E333E077C0C80189539340B7
:103CC0008A35910508F085C08CE488878DE2898764
:103CD00023E933E069C0953019F0FF24F3947EC0E6
:103CE0002D3119F4373081F409C02E3019F43930F0
:103CF00059F404C02B3341F43A3031F486E00E9489
:103D0000370B82E0F82E01C0FF242B81822F6AE05E
:103D10000E948139992351F0822F90E001966AE048
:103D200070E00E94A139892B09F056C0C801825C5D
:103D300091408A35910538F48CE488878DE2898733
:103D40002CE132E031C0C8018C5192400F9738F419
:103D500082E688878DE289872BE232E025C0C801A0
:103D60008B5292408A35910538F48CE488878DE235
:103D7000898725E832E018C0C801855892400F971E
:103D800038F482E688878DE2898724E932E00CC026
:103D9000C801845992408A359105D8F48CE488870B
:103DA0008DE289872EEE32E0201B310BC9016AE0DB
:103DB00070E00E948D39605D6A87C9016AE070E039
:103DC0000E948D39805D8B87CE0108960E94E30B9F
:103DD00005C021E0F22A02C081E0F82A1F2DF1FC83
:103DE00009C08A8187508D3010F081E001C080E0E9
:103DF0000E94370B10FF02C00E94EC160E94142391
:103E0000882309F06CC00E948C11823091F08330BD
:103E100020F4813009F063C007C0833021F0843082
:103E200009F05DC004C082E38093990258C08CE31E
:103E3000FBCF80910C04882309F451C00E944B31C0
:103E40004EC00E94ED1290939B0280939A020097BD
:103E500009F443C08130910509F441C08A5195406D
:103E600009F03DC082E0E0CF0E942E2B90939B0290
:103E700080939A02009789F1029789F52EC00E94DB
:103E80005E080E949E1583E3CFCF0E949E151AC044
:103E90000E945E080E9442158DE3C6CF0E9456081C
:103EA000880F991F880F991F815D9740C4F00E9469
:103EB00065080E945E088EE38093990280E00E946C
:103EC000AC140DC00E945608880F991F880F991FC7
:103ED000815D974024F00E946508109299022B960C
:103EE0000FB6F894DEBF0FBECDBFCF91DF911F910B
:103EF0000F91FF90EF90DF90CF900895811181E0B6
:103F00008093B20208958091B20208958093F301E4
:103F10000895833008F080E08093C50208958831C9
:103F200008F080E08093C70208958C3308F080E0A9
:103F30008093C8020895843608F080E08093F401ED
:103F40000895EF92FF920F931F93CF93DF9390E02A
:103F5000EC01CC0FDD1FCC0FDD1FC80FD91F019660
:103F60008C01000F111F000F111F080F191F8DEC7E
:103F7000E82E82E0F82EEC0EFD1E0CC0F894A895F9
:103F8000CE018C599F4FF70161917F010E9478000B
:103F900078942196C017D10788F3DF91CF911F91B4
:103FA0000F91FF90EF9008950F931F93DF93CF939E
:103FB000CDB7DEB72A970FB6F894DEBF0FBECDBFE0
:103FC0008091C803863009F4FBC1873090F48230B9
:103FD00009F48FC0833030F4882309F1813009F06F
:103FE00015C327C0843009F4C7C0853008F0A3C1C9
:103FF0009FC08F3109F453C2803238F48A3009F4FB
:10400000FEC18E3109F002C314C2813209F4A9C283
:10401000813208F47BC2883209F0F8C24AC111E04B
:104020001093C8030E9465080E945E081093F70170
:10403000EDC287EF91E061E042E32CE43DE10E94B4
:104040001A13833021F0843039F08823E9F4109278
:10405000C80320E030E0DCC28091F70190E0FC0171
:10406000EE0FFF1FEE0FFF1FE80FF91FE653FD4F86
:104070008081882311F08EE101C081E28093C80322
:104080000E9465080E945E082091F701822F6AE075
:104090000E948139805D8B83822F0E948139905DDF
:1040A0009C8380E28D8330E0F901EE0FFF1FEE0F5D
:1040B000FF1FE20FF31FE653FD4FE081E23091F066
:1040C000E33030F4EE2351F0E13009F031C108C0A3
:1040D000E33051F0E43009F02BC108C08DE207C095
:1040E00083E505C08CE403C08DE401C082E58E83C6
:1040F0001FC182E060E040E157E227E031E08E013D
:104100000F5F1F4F0E94B011823031F18530F9F4FA
:1041100089819A818831910540F48093C903809107
:10412000C8038F5F8093C80371C21092C8036EC228
:1041300082E060E040E157E22CE031E08E010F5F69
:104140001F4F0E94B011823039F0853039F088233A
:1041500009F05CC28AE0FEC181E0FCC189819A81DC
:104160008C33910530F48093CA038091C8038F5F2C
:10417000F1C11092C803F0C10E945608880F991F20
:10418000880F991F815197423CF081E08093C803CA
:104190000E9465080E945E080E948C11982F823050
:1041A00061F0833020F4813009F062C048C0833070
:1041B00031F0843009F05CC01FC08AE053C08091A8
:1041C000CB038230C1F1833030F48823A1F18130F8
:1041D00009F04AC006C08330F9F0843009F044C0C9
:1041E00006C080910B04882311F084E025C08091E3
:1041F0000C04882389F01CC08091CB03823071F0BD
:10420000833028F48823B9F0813071F505C08330FC
:1042100059F0843049F50FC082E00EC080910C0443
:10422000882311F083E008C080910B04882319F0E3
:104230009093CB0319C081E08093CB0315C080918C
:10424000CB03833061F488E28093C80380910C042F
:10425000882351F08091CD030E94B43105C0809134
:10426000C8038F5F8093C8030E9465080E945E08A0
:104270008091CB038230A1F0833030F4882351F059
:10428000813009F0C3C109C0833069F0843009F07E
:10429000BDC10CC081E191E0B7C186E191E0B4C13C
:1042A0008BE191E0B1C180E291E0AEC185E291E0A5
:1042B000ABC18DEC93E060E043E62CE43DE10E946D
:1042C0001A13823099F0833018F4882331F020C01B
:1042D000833019F08430E1F412C080910C048823FB
:1042E00011F00E948F311092C80312C080910C040B
:1042F000882371F08091CD030E94B43109C0809170
:104300000C04882311F00E948F3185E08093C8034C
:1043100080E28B838C832091CD03822F6AE00E9400
:104320008139805D8D83822F0E948139905D9E83CB
:10433000CE01039669C10E945608880F991F880F05
:10434000991F815197423CF081E08093C8030E94FD
:1043500065080E945E080E948C11823051F0833003
:1043600018F48130F9F415C0833029F08430D1F489
:1043700008C08AE011C08091CC03882379F0815075
:1043800005C08091CC03882349F481E08093CC035D
:1043900005C08091C8038F5F8093C8030E946508A1
:1043A0000E945E088091CC03882321F0813009F0BF
:1043B0002DC103C08AE291E027C18FE291E024C1C0
:1043C00081E08093C8038091F701E5E08E9FF001C2
:1043D0001124E353FD4F35979091C9039193909128
:1043E000CA0391939091CB0391939091CC039193B5
:1043F0009091CD03908381500E94A11FADC081E0B8
:104400008093C8038091F70190E0FC01EE0FFF1F3D
:10441000EE0FFF1FE80FF91FE653FD4F10820E94B9
:1044200065080E945E088091F70181500E94A11FDB
:10443000EDC0E091F70185E0E89FF0011124E3531E
:10444000FD4F35972191822F6AE00E948139805D6E
:104450008B8330E23C83822F0E948139905D9D8363
:104460008CE78E832081822F0E948139805D8F832B
:104470003887822F0E948139905D99873A87CE01D3
:1044800003960E947D0B0E945608880F991F880F83
:10449000991F815D97400CF4B9C08FE15BC080919A
:1044A000F70190E0FC01EE0FFF1FEE0FFF1FE80F7A
:1044B000F91FE653FD4FE081E23091F0E33028F43C
:1044C000EE2341F0E130B1F408C0E33061F0E430B4
:1044D00089F40CC081E191E00BC086E191E008C055
:1044E0008BE191E005C080E291E002C085E291E0BD
:1044F0000E94E30B0E945608880F991F880F991F8E
:10450000895E93400CF482C080E224C08091F70160
:1045100090E0FC01EE0FFF1FEE0FFF1FE80FF91FE9
:10452000E553FD4FE081EE2319F0E13041F403C083
:104530008AE291E002C08FE291E00E94E30B0E94C8
:104540005608880F991F880F991F895E93400CF4B5
:104550005DC081E28093C8030E9465080E945E08E6
:1045600055C00E945608880F991F880F991F895BB4
:104570009B401CF081E08093C8030E948C11182F8F
:10458000813031F08230F1F581E08093C8033AC088
:1045900082E08093C8030E9465080E945E088091B3
:1045A000F70190E0FC01EE0FFF1FEE0FFF1FE80F79
:1045B000F91FE353FD4F359781918093C903819192
:1045C0008093CA0380818093CB03882311F41093D6
:1045D000CB038091F70190E0FC01EE0FFF1FEE0F7F
:1045E000FF1FE80FF91FE353FD4F3297819180932E
:1045F000CC0380818093CD038150833618F081E015
:104600008093CD0384E391E00E94E30B21E030E04E
:10461000C9012A960FB6F894DEBF0FBECDBFCF9169
:10462000DF911F910F910895CF92DF92EF92FF9249
:104630000F931F93DF93CF93CDB7DEB727970FB6B6
:10464000F894DEBF0FBECDBFCE010196BE016E5FF6
:104650007F4FAE014D5F5F4F9E012C5F3F4F8E013C
:104660000B5F1F4FA6E0EA2EF12CEC0EFD1EF7E0CB
:10467000CF2ED12CCC0EDD1E0E94A3088091C70343
:10468000843109F46AC0853148F48A3009F455C090
:104690008B3009F457C0882359F0A6C08E3109F435
:1046A00074C0843609F491C0853109F09DC060C0A2
:1046B0004A8129813F81EDECF2E000E010E0928137
:1046C0009923A1F18081841789F58181821771F581
:1046D0008381882321F0813049F5363038F59130D7
:1046E00011F48AE003C0923031F484E18093C7036F
:1046F0002093F6017BC09330C9F480910C04882389
:1047000071F00E9465080E945E088EE18093C703E5
:1047100003531D4FF80184810E94B43103C08AE025
:104720008093C70389818093F60160C00B5F1F4FA0
:1047300035960A3F110519F657C080E00E948A009D
:104740008BE00FC00E945608880F991F880F991F91
:10475000895B9B400CF44AC014C082E00E948A002E
:1047600085E18093C7030E9465080E945E083EC0F1
:104770000E945608880F991F880F991F895B9B40DC
:10478000ACF181E00E948A001AC00E945608855D43
:1047900090435CF080910C04882311F00E948F31CB
:1047A0000E94650884E68093C7030E948C118130C3
:1047B000E9F480910C04882311F00E948F310E944B
:1047C000650884E68093C70311C0298130E0809199
:1047D000F601992787FD90952817390729F010923F
:1047E000C7038FEF8093F60180E001C081E0279638
:1047F0000FB6F894DEBF0FBECDBFCF91DF911F91F2
:104800000F91FF90EF90DF90CF900895CF93DF93BB
:10481000C4E6D0E0CE010E948300FE01E759FD4FBF
:104820008083219681E0CE35D807A1F7EDECF2E048
:1048300091E08081883148F481818C3330F4828129
:10484000853018F48381823028F010821182128220
:1048500013829483359683E0E73CF80751F7DF91A4
:10486000CF9108950F931F93DF93CF93CDB7DEB70A
:104870002A970FB6F894DEBF0FBECDBF8091C90254
:10488000833009F472C0843030F48130E1F1823039
:1048900008F04BC00DC0853009F436C1853008F4EE
:1048A000A2C0863009F47EC1873009F0B5C18EC13F
:1048B00081E08093C9020E9465080E945E082091F1
:1048C000C702822F6AE00E948139805D8B8330E2CB
:1048D0003C83822F0E948139905D9D838CE78E837B
:1048E0002091C802822F0E948139805D8F83388792
:1048F000822F0E948139905D99873A87CE01039675
:104900000E947D0B89C10E945608880F991F880F4D
:10491000991F895E93400CF47FC18091C9028F5F1B
:104920008093C9020E94650877C182E060E040E19F
:1049300057E227E031E08E010F5F1F4F0E94B01158
:10494000823019F0853001F508C086E08093C902F5
:104950000E9465080E945E085FC189819A81883142
:104960009105F0F58093CA0235C082E060E040E135
:1049700057E22CE031E08E010F5F1F4F0E94B01113
:10498000823019F3853049F0882309F045C186E06B
:104990008093C9021092C502DBCF29813A812C3362
:1049A0003105F0F42093CB028091CA028093C702B4
:1049B0002093C8028091F4018093F501882319F4B3
:1049C00081E08093F5018091C502882309F481E09C
:1049D0008093CC028091C9028F5F8093C9021CC171
:1049E0001092C90219C10E945608880F991F880F9A
:1049F000991F815197423CF086E08093C9020E9442
:104A000065080E945E0880910C04882329F4809137
:104A10000B04882309F499CF0E948C11982F8230BF
:104A200061F0833020F4813009F05CC04AC08330EB
:104A300051F0843009F056C022C086E08093C9024C
:104A40001092C5024BC02091CC02213041F02130A0
:104A5000A0F1223091F1233009F040C00BC08091C9
:104A60000B04882309F580910C048823B9F4209362
:104A7000CC0234C080910C048823F9F00FC09091CF
:104A8000CC02913039F09130C0F0923081F0933007
:104A900029F513C080910C04882311F082E00EC028
:104AA00080910B04882339F49093CC0217C0809135
:104AB0000B04882311F083E001C081E08093CC02D5
:104AC0000DC08091CC02823011F0833011F485E06A
:104AD00003C08093C50286E08093C9020E946508E6
:104AE0000E945E088091CC02823041F0833049F010
:104AF000813009F091C089E391E065C080E291E0E6
:104B000062C08EE391E05FC085EF91E060E043E634
:104B10002CE43DE10E941A138230B1F0833018F486
:104B2000882331F02CC0833019F0843041F516C051
:104B300080910C04882311F00E948F3186E08093CD
:104B4000C9021092C5021BC080910C048823B9F0E1
:104B50008091F50180680E94B13111C080910C04F0
:104B6000882311F00E948F318091F5018093F40128
:104B70008091CC028093C50286E08093C90280E2D6
:104B80008B838C832091F501822F6AE00E9481390A
:104B9000805D8D83822F0E948139905D9E83CE013E
:104BA000039611C087E08093C9020E9465080E94A5
:104BB0005E088091C5028150833018F483E491E04F
:104BC00002C088E491E00E94E30B26C00E945608D0
:104BD000880F991F880F991F855C9940ECF08DE034
:104BE00090E06091C5020E9478008EE090E06091B4
:104BF000C7020E9478008FE090E06091C8020E9496
:104C0000780083E190E06091F4010E9478001092B6
:104C1000C90220E030E002C021E030E0C9012A965C
:104C20000FB6F894DEBF0FBECDBFCF91DF911F91BD
:104C30000F910895CF92DF92EF92FF920F931F93FF
:104C4000DF93CF93CDB7DEB727970FB6F894DEBFCB
:104C50000FBECDBFCE010196BE016E5F7F4FAE018C
:104C60004D5F5F4F9E012C5F3F4F8E010B5F1F4FCB
:104C7000F6E0EF2EF12CEC0EFD1EE7E0CE2ED12C4F
:104C8000CC0EDD1E0E94A3082091C5022430C1F184
:104C9000253020F4213008F478C004C0253009F014
:104CA00074C062C09091C7028A81981709F06DC0E4
:104CB0009091C8028981981709F067C02093C602B5
:104CC00084E08093C50280910C04882359F022303F
:104CD00049F486E00E94370B8091F40180680E94BD
:104CE000B13151C080910B04882319F0233009F4AD
:104CF0004AC080E00E948A0086E00E94370B43C0D1
:104D00008DE491E00E94E30B0E948C11882381F0D6
:104D100085E08093C50281E00E948A0080910C04A6
:104D2000882331F08091C602823011F40E948F31C5
:104D30009091C7028A81981729F49091C8028981BD
:104D4000981709F18091C6028093C50281E00E9404
:104D50008A0080910C048823B1F08091C6028230D1
:104D600091F40E948F310FC09091C7028A819817E9
:104D700029F49091C8028981981739F08091C60270
:104D80008093C50202C081E001C080E027960FB683
:104D9000F894DEBF0FBECDBFCF91DF911F910F9171
:104DA000FF90EF90DF90CF900895AF92CF92EF9267
:104DB0000F931F93DF93CF9300D0CDB7DEB7E09072
:104DC000BE0224E0E21609F491C02E1570F081E0D5
:104DD000E816C1F1E816C8F022E0E21609F44FC067
:104DE00083E0E81609F040C164C026E0E21609F449
:104DF000BEC0E21608F492C087E0E81609F4D0C0FD
:104E000028E0E21609F030C10EC182E060E040E126
:104E100057E222E531E08E010F5F1F4F0E94B01173
:104E2000823009F41CC1853009F088C029813A819B
:104E3000C90101974F9718F42093BF0253C01092F5
:104E4000BE0212C182E060E040E157E227E531E0B6
:104E50008E010F5F1F4F0E94B011823009F4FFC016
:104E6000853009F06BC029813A81C90101970C97FF
:104E700018F42093C00236C0E092BE02F5C082E072
:104E800060E040E157E22CE531E08E010F5F1F4FFB
:104E90000E94B011823009F4E2C0853009F04EC0A2
:104EA00089819A818436910508F05DC08093C102A2
:104EB00019C081E060E040E157E221E631E08E0177
:104EC0000F5F1F4F0E94B011823009F4C8C08530B7
:104ED000A9F529813A81C9010197079708F043C0D4
:104EE0002093C2028091BE028F5F3EC082E060E0EC
:104EF00040E157E227E031E08E010F5F1F4F0E9433
:104F0000B011823009F4ABC08530C1F489819A8137
:104F10008831910540F58093C302E4CF82E060E0E0
:104F200040E157E22CE031E08E010F5F1F4F0E94FD
:104F3000B011823009F493C0853021F0882309F044
:104F400093C08DC089819A818C33910560F48093E0
:104F5000C4028091BE028F5F8093BE020E946508EA
:104F60000E945E0881C081E08093BE027DC00E94E5
:104F70005608880F991F880F991F815D97406CF024
:104F80000E9465080E945E088091BE028F5F809338
:104F9000BE020E944A088093BD0286E691E040C0AE
:104FA0000E945608880F991F880F991F81519742B8
:104FB0000CF055C00E948C11823009F450C083302F
:104FC00018F48130E1F412C0833041F08430B9F438
:104FD0008091BD02823078F48F5F05C08091BD0260
:104FE000882349F081508093BD0205C08091BE02A4
:104FF0008F5F8093BE020E9465080E945E088091C8
:10500000BD02813041F0813018F0823069F506C070
:1050100081E191E005C08BE691E002C080E791E07C
:105020000E94E30B21C08091BD020E9444080E94AF
:105030004A08682F85E190E00E9478008091C402C0
:105040006091C30240E02091BF020091C002E09055
:10505000C102C090C202A3E0AA2E0E948A08109248
:10506000BE0220E030E002C021E030E0C9010F9034
:105070000F90CF91DF911F910F91EF90CF90AF9054
:1050800008958091BC028130A9F0813038F08230DF
:1050900009F46CC0833009F0DDC07FC00E94650850
:1050A0000E945E0881E08093BC020E94F513809309
:1050B000BB02D0C00E945608880F991F880F991F05
:1050C000815197420CF080C00E948C11823009F40B
:1050D0007BC0833018F48130D1F412C0833041F0AA
:1050E0008430A9F48091BB02873068F48F5F05C0DB
:1050F0008091BB02882339F081508093BB0203C0AA
:1051000082E08093BC020E9465080E945E08809144
:10511000BB028330C9F0843028F4813079F08230CA
:1051200080F409C08530B1F0853088F08630A9F070
:105130008730C9F415C085E791E08AC08AE791E01D
:1051400087C08FE791E084C084E891E081C089E85E
:1051500091E07EC08EE891E07BC083E991E078C069
:1051600088E991E075C08DE991E072C00E9456080F
:10517000880F991F880F991F815D97405CF00E94EE
:1051800065080E945E0883E08093BC020E94160BB3
:105190008093BA0282EA91E05BC00E945608880FB1
:1051A000991F880F991F8151974274F40E948C11A6
:1051B000823051F0833018F48130F1F51CC0833017
:1051C00071F08430C9F505C01092BC0220E030E0D7
:1051D00043C08091BA02882349F481E005C08091E0
:1051E000BA02882319F081508093BA020E946508A0
:1051F0000E945E0821C01092BC028091BB020E94F6
:10520000F8130E94F513682F8AE090E00E9478005E
:105210008091BA020E94100B0E94160B682F86E143
:1052200090E00E9478001092BC020E9465080E94E3
:105230005E0822E030E010C08091BA02882319F0A5
:10524000813041F403C081E191E002C088EA91E03D
:105250000E94E30B21E030E0C9010895DF93CF9372
:10526000CDB7DEB728970FB6F894DEBF0FBECDBF1F
:105270008091B702813089F1813038F0823009F4B1
:1052800048C0833009F026C1EAC08AE58093B8029D
:105290000E9465080E945E088DE2898320E22A83CD
:1052A0002B832C833091B802832F6AE00E948139CE
:1052B000805D8D832E83832F0E948139905D9F8333
:1052C0002887CE0101960E947D0B8091B7028F5FE7
:1052D0008093B7021092B902FDC088EB92E061E0C2
:1052E00040EF20E335E70E941A13833021F0843029
:1052F00029F0882331F41092B702AEC082E0809387
:10530000B7023091B802343610F48DE2BDC08DE2A0
:10531000C3C00E948C11813031F0823079F481E079
:105320008093B9020BC08091B902882309F08CC028
:105330000E946E0883E08093B702CCC00E9456089A
:1053400088599A434CF08091B80281508093B802FA
:105350000E9465080E945E080E9456086AEF70E08D
:105360000E94A1392091B9028E3791056CF480E238
:105370008A8320FF12C0822F8F5F8093B90286300C
:1053800060F01092B90209C08EE28A83222329F0CC
:1053900020FD03C02F5F2093B9028091F30181307B
:1053A00089F48091B8028130C1F40E9456088A3F86
:1053B000910514F482E00FC00E9456088B5A97435F
:1053C0004CF006C0882349F48091B802813011F472
:1053D00080E001C081E00E948A008091B80286309E
:1053E00010F486E001C080E00E94370B3091B802D3
:1053F000343638F48DE2898320E22B832C83832F8B
:105400000EC08DE28983832F64E60E948139805D1E
:105410008B8320E22C83832F0E948139892F6AE0BD
:105420000E948139805D8D832E83832F0E94813974
:10543000905D9F8328878091B902882311F08EE2C6
:105440008887332309F042C01092B70280E00E949F
:10545000370B81E00E948A0020E030E03DC00E94CE
:105460008C118150823040F482E08093B70280E05A
:105470000E94370B0E947F0886E00E94370B309114
:10548000B802343640F480E5898320E22A832B83F6
:105490002C83832F0FC080E5898320E22A83832F0A
:1054A00064E60E948139805D8B832C83832F0E9468
:1054B0008139892F6AE00E948139805D8D832E8336
:1054C000832F0E948139905D9F832887CE010196AA
:1054D0000E947D0B21E030E0C90128960FB6F894B8
:1054E000DEBF0FBECDBFCF91DF910895DF93CF9385
:1054F00000D000D0CDB7DEB78091B302813009F182
:10550000813020F0823009F09FC045C00E94340BEA
:105510008093B4020E94310B8093B5020E9465080B
:105520000E945E0881E00E94370B0E94340B9AEFC4
:10553000981B9093B6028091B3028F5F8093B30261
:1055400083C086EB92E060E04AEF2CE43DE10E94EC
:105550001A13833071F1843019F0882371F429C053
:1055600082E08093B3020E94310B9AEF981B9093D4
:10557000B60280E00E94370B67C09091B6028AEFB6
:10558000891B0E94290B2091B602243610F084E674
:105590003CC084E647C086EB92E060E04AEF2CE432
:1055A0003DE10E941A13833021F0843069F0882392
:1055B00009F51092B3028091B4020E94290B8091E8
:1055C000B5020E94210B10C01092B3020E94340B4E
:1055D000682F8BE090E00E9478000E94310B682FCA
:1055E0008CE090E00E94780080E00E94370B20E081
:1055F00030E02CC09091B6028AEF891B0E94210BEB
:105600002091B602243668F082E68983822F64E610
:105610000E948139805D8A83822F0E948139892F7F
:1056200005C082E6898380E28A83822F6AE00E9435
:105630008139805D8B83822F0E948139905D9C83AC
:10564000CE0101960E94E30B21E030E0C9010F90EA
:105650000F900F900F90CF91DF910895DF93CF932C
:10566000CDB7DEB728970FB6F894DEBF0FBECDBF1B
:105670008091CE03883209F424C2893258F58530EE
:1056800009F403C1863098F4823009F48CC0833069
:1056900038F4882309F449C0813009F0E5C350C0CB
:1056A000833009F4A4C0843009F0DEC3C7C0803160
:1056B00009F476C1813138F4863009F40FC18F3096
:1056C00009F0D2C346C1813109F499C1823109F090
:1056D000CBC3CAC1843609F42FC2853698F4863408
:1056E00009F415C2873438F4823309F4F1C18C33DC
:1056F00009F0BAC3F4C1803509F410C28A3509F043
:10570000B3C313C2823809F4D9C2833838F48E3651
:1057100009F45EC2883709F0A7C38FC2833809F441
:10572000E8C28C3809F0A0C33AC30E9465080E9401
:105730005E0881E08093CE0380E00E94370B99C31E
:105740000E945608880F991F880F991F8151974210
:105750000CF08AC30E948C11823009F485C3833017
:1057600018F48130E9F415C0833019F08430C1F4A5
:1057700002C082E00FC00E940814882341F080918B
:105780000C04882311F081E105C085E003C082E1AB
:1057900001C088E28093CE030E9465080E945E08E3
:1057A0008DEA91E0D3C00E945608880F991F880F98
:1057B000991F815197420CF057C30E948C1182307F
:1057C00009F452C3833018F4813071F406C0833079
:1057D00029F0843049F481E001C080E58093CE0354
:1057E0000E9465080E945E088DE491E0AFC00E94AF
:1057F0005608880F991F880F991F815197420CF006
:1058000033C30E948C11823009F42EC3833018F404
:10581000813089F409C0833019F0843061F402C00A
:1058200084E003C082E001C082E38093CE030E9443
:1058300065080E945E0882EB91E088C00E945608CD
:10584000880F991F880F991F815197420CF00CC344
:105850000E948C11823009F407C3833018F4813020
:1058600089F409C0833019F0843061F402C085E006
:1058700003C083E001C08AE58093CE030E946508DF
:105880000E945E0887EB91E061C00E945608880F75
:10589000991F880F991F815197420CF0E5C20E9411
:1058A0008C11823009F4E0C2833018F4813099F40D
:1058B00007C0833019F0843071F407C086E005C05A
:1058C0000E94F2138093FA018CE88093CE030E9429
:1058D00065080E945E088CEB91E038C00E94560873
:1058E000880F991F880F991F815197420CF0BCC2F5
:1058F0000E948C11823009F4B7C2833018F48130D1
:1059000019F51BC0833019F08430F1F414C00E94E3
:1059100065080E945E0880910C04882311F08FE0D6
:1059200007C00E940814882311F081E001C082E1C1
:105930008093CE0309C085E001C086E48093CE0346
:105940000E9465080E945E0881EC91E00E94E30BD2
:1059500090C20E945608880F991F880F991F815185
:1059600097420CF081C20E948C11823009F47CC2F3
:10597000833018F4813089F409C0833019F0843001
:1059800061F402C080E103C086E001C084E6809338
:10599000CE030E9465080E945E0886EC91E0D6CF97
:1059A0000E945608880F991F880F991F81519742AE
:1059B0000CF05AC20E948C11823009F455C2833017
:1059C00018F48130C9F409C0833019F08430A1F48F
:1059D00002C081E10BC08FE009C080910C048823D4
:1059E00021F08091FB010E94BD318EE68093CE03B1
:1059F0000E9465080E945E088BEC91E0A7CF0E9490
:105A00005608880F991F880F991F815197420CF0F3
:105A10002BC20E948C11823009F426C2833018F404
:105A20008130F9F40FC0833019F08430D1F408C00C
:105A30000E940814882311F081E00DC082E10BC0A0
:105A400080E109C080910C04882321F08091FB0142
:105A50000E94BD3188E78093CE030E9465080E94B2
:105A60005E0880ED91E072CF0E945608880F991F62
:105A7000880F991F815197420CF0F6C10E948C113A
:105A8000823009F4F1C1833018F48130B9F40FC0C9
:105A9000833019F0843091F402C081E009C0809114
:105AA0000C04882311F081E103C086E001C08CE37F
:105AB0008093CE030E9465080E945E0885ED91E008
:105AC00045CF0E942E29892B09F0D3C181E00CC05B
:105AD0000E94D526892B09F0CCC183E005C00E9425
