:100000000C9459000C9476000C9476000C947600B5
:100010000C9476000C9476000C9476000C94DF29F6
:100020000C9476000C9476000C94D3090C94760012
:100030000C9476000C94AE290C9476000C948A29CA
:100040000C9470100C9476000C9476000C947F0342
:100050000C94760099059C059C059C059C059C05C7
:100060009C05AD05B605BB05BB05BB05BB05BB05C2
:10007000CC05D505D805D805D805D805D805F70588
:10008000E905E9050806FA05FA05FA05FA0519066B
:100090000B060B060B060B060B060B060B061C06C7
:1000A000070B100B10000000000107070D0D0000EA
:1000B000010011241FBECFE5D8E0DEBFCDBF10E0A8
:1000C000A0E6B0E0E0E3F5E502C005900D92A03EA9
:1000D000B107D9F713E0A0EEB0E001C01D92A13145
:1000E000B107E1F70E9441280C94962A0C94000075
:1000F000AE98A6980895FC018091E000882361F1F4
:100100008091FE00873049F48091FF0090910001BA
:100110008F7D909300018093FF008091FE0080838B
:100120008091FF0090910001928381838091010171
:1001300090910201948383838091030185831092BF
:10014000020110920101109200011092FF00109222
:1001500003011092E00081E00895982F6091EC0077
:100160007091F600671738F18091F700681718F55D
:100170008091FC00292F30E040910401509105014D
:10018000882381F0862F90E0871B910902C0220FFF
:10019000331F8A95E2F7422B532B5093050140936E
:1001A000040133C0440F551F242B352B3093050118
:1001B000209304012AC07091F800671730F18091F4
:1001C000F900681710F58091FC00292F30E040916C
:1001D000060150910701882381F0862F90E0871B4C
:1001E000910902C0220F331F8A95E2F7422B532B4D
:1001F000509307014093060108C0440F551F242B5C
:10020000352B30930701209306016F5F6093EC005C
:10021000089593B38091E000882309F015C2292F37
:1002200020748091EB00882381F59091E8002223CF
:1002300021F49F5F9093E80007C29923B9F091E001
:100240009093EB009093E9001092EA00109207015E
:100250001092060110920501109204018FEF809315
:10026000EC009093E7001092E300EEC18091E5006E
:100270009091E6002FEF8F3F920709F4E5C10196B8
:100280009093E6008093E500DFC18091E900882328
:1002900009F471C0222349F08091E7008F5F8093B9
:1002A000E7008A3E08F453C1BFC02091E800822FC6
:1002B0008B50863018F08B508B30E8F49091E7002B
:1002C000892F8B50863018F08B508B30A0F460EA69
:1002D00070E09093E2002151203118F0915190315B
:1002E00030F41092E10080E48093E30008C081E0E4
:1002F0008093E10004C01092EB0060E070E0809118
:10030000EB00882331F08DEE90E041E150E00E9457
:100310000C2A1092EC008091FD00482F50E080FFE5
:1003200022C08091ED008731F1F08930E1F0209119
:10033000E7008091EF00821760F430E090E0880FD2
:10034000991F821793072CF056954795842F809517
:1003500007C08091E100882331F456954795842F9A
:1003600081700E94AD0081E08093E8001092E70068
:100370001092E900ECC08091EA00882309F4DAC009
:10038000222309F458C05091EC006091FA005617EE
:10039000A9F48091FB00813089F48091FD0080FDFB
:1003A0000AC09091E8008091F2009817E8F18091DE
:1003B000F3008917C8F11092FB00C9C04091E70013
:1003C0004F5F4093E7008091FD0080FF1AC0242F0B
:1003D00030E08091F10090E0880F991F28173907CD
:1003E00084F0252F30E0862F90E0029728173907F8
:1003F00044F08091FB00882321F481E08093FB008E
:100400001AC04A3E08F4A3C0252F30E0862F90E0A2
:1004100001972817390741F48091FB00882321F4C4
:100420005F5F5093EC0093C01092EB001092E800D5
:100430001092E7008CC08091FD00282F30E0909151
:10044000E80080FF45C08091EF008917C0F4369521
:100450002795822F809581700E94AD008091FD00CC
:1004600090E09695879581700E94AD008091FD0087
:1004700090E09695879581708093E10024C08091EB
:10048000EE009817E0F02091E2008091F1008217D1
:1004900080F430E090E0880F991F821793074CF0AA
:1004A00090E08091E100882309F491E09093E100CD
:1004B00002C09091E100892F0E94AD0004C010920B
:1004C000EB001092E7008091E7008093E20015C0F6
:1004D0008091EE009817A0F08091EF00891780F0CE
:1004E0002091E7008091F000281750F08091F100F2
:1004F000821730F081E00E94AD001092EA0018C02F
:100500008091F200981780F08091F300891760F0D5
:100510009091E7008091F400981730F08091F500F9
:10052000891710F080E0E7CF1092EB001092E700FF
:1005300081E005C0222331F48091E8008F5F809331
:10054000E80005C081E08093EA008093E700809195
:10055000EB00882309F478C09091EC008091FA00B8
:10056000981709F071C08091FB00882309F06CC0D6
:100570006091600070916100209106013091070147
:100580006217730769F48091E5009091E600805B43
:10059000944030F48091E4008F5F8093E40002C0C7
:1005A0001092E40081E08093E0008091ED00809360
:1005B000FE004091040150910501509300014093C9
:1005C000FF00873049F48091E30090E0822B932B69
:1005D0009093070180930601209106013091070155
:1005E00030930201209301018091E000882311F1F2
:1005F0006217730799F480916200909163008417E9
:10060000950761F48091E5009091E6008A5C98403E
:1006100028F480910301816080930301509363006B
:100620004093620030936100209360001092E600D6
:100630001092E5001092EB00109207011092060153
:100640001092E8001092E7008091E000089580E1A8
:1006500080B98FEF83B984E086BF089516BE0895F0
:1006600086B78170089506B600FCFDCF80916400C6
:100670000895FC0106B600FCFDCF6093280180813F
:1006800080930A0180FD0DC04E2FABE0B1E0CF0199
:10069000FC0102C080818D9331968E2F841B8617BA
:1006A000C8F31092080188EF8093640085EA86BF42
:1006B000089506B600FCFDCF1092080188EF8093E4
:1006C000640085EA86BF0895AC0106B600FCFDCF44
:1006D0008091080180FF0FC020E030E00AC0FA01DD
:1006E000E20FF31FD901A65FBE4F8C9180832F5F6D
:1006F0003F4F2617A0F380910801817008951F9243
:100700000F920FB60F9211242F933F938F939F93C5
:10071000EF93FF9381B18832C9F0893240F4803180
:1007200099F0883199F0883009F049C00DC08034C3
:1007300041F1813420F4883309F041C03EC0803556
:10074000A9F08835E1F52BC01092090190910901BB
:1007500080912801981750F5E92FF0E0E65FFE4FF1
:10076000808183B99F5F9093090117C0809109012F
:1007700093B1E82FF0E0E65FFE4F90838F5F8093A8
:1007800009012091090130E08091280190E0019752
:100790002817390714F485EC16C085E814C083B116
:1007A000E0910901F0E0E65FFE4F8083809108014F
:1007B00081608093080184E906C085EA04C081B1A4
:1007C0008093640084E086BFFF91EF919F918F91A9
:1007D0003F912F910F900FBE0F901F901895EF92A1
:1007E000FF920F931F9383B320913A0140918D00A4
:1007F00050918E0090E030E082279327880F892F58
:10080000881F990B91959C01249FC001259F900DF5
:10081000349F900D11247C0100E010E08091440190
:10082000E114F1040105110549F4813079F41092C5
:100830004301109242011092440111C0882321F417
:1008400081E0809344010BC0813049F080914201E6
:1008500090914301019690934301809342016091EE
:100860003C0170913D0180913E0190913F0127E450
:1008700030E040E050E00E94152AE60EF71E081F07
:10088000191FC801B70128E430E040E050E00E94A1
:10089000742AC901DA0180933C0190933D01A09331
:1008A0003E01B0933F01E091510120913C01309114
:1008B0003D0140913E0150913F0180918D0090910A
:1008C0008E0070E0E11171E060E096958795A0E000
:1008D000B0E0281739074A075B0708F061E0761790
:1008E000C9F081E08E1B80935101882329F480E0B8
:1008F00090E0A0E0B0E006C080918D0090918E0065
:10090000A0E0B0E080933C0190933D01A0933E01B4
:10091000B0933F018091510180933B011F910F9152
:10092000FF90EF900895AF92BF92CF92DF92FF9227
:100930000F931F93CF93DF93182F809139018F5F0F
:1009400080933901809139018F3009F06CC21130E8
:1009500009F069C2109239010E94EF0380913B01B6
:1009600020914D0130914E018823E1F4232B49F071
:1009700010924A011092490110924E0110924D01BD
:100980007DC08091490190914A012BE0893B9207FB
:1009900008F066C010933801019690934A01809345
:1009A00049016CC0232B09F053C0809149019091FB
:1009B0004A01855A96408B52914008F03EC0809182
:1009C000420190914301895E9340B8F180914501C5
:1009D0008330F9F480918F008093300180919000F2
:1009E00080932F01809193008093810080919200E9
:1009F0008093830080919100809382008091940085
:100A00008093320110923101809133018160809393
:100A10003301109248011092470181E08093450113
:100A20008FEF80938F008093900080939400809349
:100A30009200809391008093930010924C01109249
:100A40004B0181E090E090934E0180934D0116C0E0
:100A500080914B0190914C0121E08D32920738F04A
:100A6000109245011092380110924F0107C0109367
:100A70003801019690934C0180934B01809147017E
:100A80009091480101969093480180934701885EB8
:100A9000934021F410924801109247019091450132
:100AA000923069F0933009F4BBC1913009F0C4C1B0
:100AB0001092460182E0809345019093380182E0D4
:100AC000809338018091470190914801845F914063
:100AD00009F0B2C100914601802F8551863208F09D
:100AE00089C120914B0130914C01C901CC978135CE
:100AF000910510F420E00DC0205A30402135310519
:100B000008F078C18091500191E0892780935001CD
:100B100021E0802F90E0FC017597E632F10508F0A6
:100B200069C1E65DFF4FEE0FFF1F0590F491E02DC8
:100B3000099420938F001CC0822F90E0202F30E07A
:100B40002551304002C0880F991F2A95E2F7209165
:100B50008F00282B20938F004DC180915001882356
:100B600009F448C18FEF80938F0044C12093900017
:100B7000209350013FC1822F90E0202F30E02D5173
:100B8000304002C0880F991F2A95E2F7209190000B
:100B9000282B209390002EC180915001882309F4C6
:100BA00029C18FEF8093900025C120939300E0CF5F
:100BB000822F90E0202F30E02452304002C0880F76
:100BC000991F2A95E2F720919300282B20939300F8
:100BD00011C1822F90E0202F30E02A52304002C015
:100BE000880F991F2A95E2F720919200282B2093D5
:100BF000920000C1822F90E0202F30E02D52304033
:100C000002C0880F991F2A95E2F720919100282BA6
:100C100020939100EFC0822F90E0202F30E02253EC
:100C2000304002C0880F991F2A95E2F72091940066
:100C3000282B20939400DEC080915001882349F036
:100C40008FEF809393008093920080939100809324
:100C5000940040918F00842F82958F709AE08902D2
:100C600050011124842F8F70B501680F711D6C33F2
:100C7000710508F0A4C0E09190008E2F82958F70CE
:100C80008902600111248E2F8F70E601C80FD11DDB
:100C9000C831D1050CF093C0F09093008F2D829550
:100CA0008F708902900111248F2D8F70280F311DB4
:100CB0002115310509F483C0203231050CF07FC0C5
:100CC00010919100812F82958F70890290011124DB
:100CD000812F8F70280F311D2115310509F46FC048
:100CE0002D3031050CF06BC0F09194008F2F829560
:100CF0008F708902C00111242F2F2F70820F911D38
:100D0000843691050CF05BC03091920013160CF004
:100D100056C038300CF053C0809198003817F1F568
:100D200080919900F816D1F5809197001817B1F5C8
:100D300080919A00F81791F520919500822F9927BC
:100D400087FD909501966817790741F48091960088
:100D5000992787FD9095C817D90789F04423E1F4B6
:100D60002B33D1F480919600992787FD90950196B9
:100D700068E170E00E94612AC817D90769F4809180
:100D80004F018F5F80934F01833040F010924F01ED
:100D900083E08093450102C010924F014F704A0DCD
:100DA00040939500EF70EC0DE0939600309398001F
:100DB000F092990010939700F0939A001BC08FEF68
:100DC00080938F0080939000809394008093920092
:100DD000809391008093930010924F01809395002F
:100DE0008093960080939A00809398008093970058
:100DF00080939900802F8F5F809346018C33E1F4BC
:100E0000109246018FEF80938F0080939000809323
:100E100094008093920080939100809393000CC083
:100E20009093380109C0809139018F3029F4809165
:100E30003901815080933901DF91CF911F910F913A
:100E4000FF90DF90CF90BF90AF900895F8942091DD
:100E50008700309188007894C9010895F894109221
:100E600088001092870078940895F8948FEF9FEF90
:100E7000909388008093870078940895F8948091E7
:100E800087009091880090938A00809389008FEF6B
:100E90009FEF909388008093870078940895F8944A
:100EA0008091890090918A009093880080938700B8
:100EB00078940895809136018093F30280913501F2
:100EC0008093F002809134018093F202809184003B
:100ED0008093F102809185008093EF028091370129
:100EE00080938B008091860080938C0008951F93DF
:100EF000DF93CF93CDB7DEB769970FB6F894DEBF17
:100F00000FBECDBFA79889EF8CBF8CE083BF89B798
:100F1000826089BF80ED89838FE08A831B82CE0146
:100F2000019663E00E94390310E085B7806885BFB1
:100F3000889585B78F7785BF1F5F21F00E943003AA
:100F4000882399F78091080180FF02C0112319F4CA
:100F50000E942E0309C0F89481E0809329018093B8
:100F60002A0180936D01789469960FB6F894DEBFDC
:100F70000FBECDBFCF91DF911F91089580912901C0
:100F8000882309F48CC180916601882309F094C1FB
:100F900080912B01843109F4A8C0853118F488238D
:100FA00041F00895853109F4B7C0883209F084C151
:100FB0007BC180912A01813061F480ED8093D6025B
:100FC0001092D70286ED92E062E00E94390384E13C
:100FD000A0C080912A01823009F06EC180ED80931B
:100FE000D6021092D702F8948091360140913601D2
:100FF0006AE00E94342A282F30E0E4E0220F331FF9
:10100000EA95E1F7842F0E94342A922B9093D8021C
:1010100080913501409135010E94342A282F30E01B
:1010200074E0220F331F7A95E1F7842F0E94342A4F
:10103000922B9093D90280913401409134010E9407
:10104000342A282F30E054E0220F331F5A95E1F75D
:10105000842F0E94342A922B9093DA02809186008A
:101060000E94342A9093DB02809184004091840096
:101070000E94342A282F30E094E0220F331F9A95E3
:10108000E1F7842F0E94342A922B9093DC02809106
:101090008500409185000E94342A282F30E084E0AA
:1010A000220F331F8A95E1F7842F0E94342A922B56
:1010B0009093DD0280913701409137010E94342ADC
:1010C000282F30E0B4E0220F331FBA95E1F7842FC8
:1010D0000E94342A922B9093DE02789486ED92E05F
:1010E00069E00E94390388E214C00E94300388231B
:1010F00009F0E2C08091080180FFD1C081ED8093AA
:10110000D60286ED92E064E10E94390380912B01C2
:101110008F5F80932B0108950E943003882309F08C
:10112000CBC08091080180FFBAC086ED92E064E1F7
:101130000E94640320919B0027FF0EC08091D7027C
:10114000282F22952F709AE0299F900111248F70EB
:10115000820F80939B00A5C04091D702942F929557
:101160009F708AE0989FB0011124332727FD3095A6
:10117000842F8F70FB01E80FF11D2E173F0709F434
:1011800090C0F89410924101109240014F70460FA8
:10119000409336012091D802822F82958F703AE0D9
:1011A000839FC00111242F70280F20933501809157
:1011B000D902582F982F92959F70482F4F7086FF15
:1011C00019C0892F90E0817090709C01A3E0220FDC
:1011D000331FAA95E1F7880F991F280F391F420F77
:1011E0004093340155FF17C080913401845F809390
:1011F000340111C0892F90E0837090709C01E3E06E
:10120000220F331FEA95E1F7880F991F280F391F26
:10121000420F409334018091DA028F7080938600F0
:101220002091DB02822F82958F705AE0859FC0014A
:1012300011242F70280F209384004091DC02842F0A
:1012400082958F7090E0817090709C0163E0220F16
:10125000331F6A95E1F7880F991F280F391F4F70C8
:10126000420F409385002091DD02822F82958F707E
:10127000859FC00111242F70280F20933701809182
:10128000E802809367018091E902829586958695B0
:101290008370809368018FEF80939B007894109205
:1012A0002A0110922B0108950E943003882321F413
:1012B00010922A0110922B010895809184006AE017
:1012C0000E94342A805D0E940528809184006AE093
:1012D0000E94342A892F805D0E9405288091850014
:1012E0006AE00E94342A805D0E9405288091850072
:1012F0006AE00E94342A892F805D0E94052880912F
:1013000037016AE00E94342A805D0E94052880919E
:1013100037016AE00E94342A892F805D0E940528E7
:10132000809186006AE00E94342A892F805D0E94A5
:101330000528809134016AE00E94342A805D0E9471
:101340000528809134016AE00E94342A892F805D4B
:101350000E940528809135016AE00E94342A805D50
:101360000E940528809135016AE00E94342A892F65
:10137000805D0E940528809136016AE00E94342A2F
:10138000805D0E940528809136016AE00E94342A1F
:10139000892F805D0E9405288DE00E9405288AE043
:1013A0000E94052808951F920F920FB60F921124E4
:1013B0002F933F934F935F936F937F938F939F935D
:1013C000AF93BF93EF93FF938091330180FF79C078
:1013D00010923301109268001092670080914001D2
:1013E0009091410190932E0180932D012091310124
:1013F0008091310182958F703AE0839FC001112462
:101400002F70280F209336012091300180913001F8
:1014100082958F70839FC00111242F70280F209315
:10142000350120912F0180912F0182958F70839F2C
:10143000C00111242F70280F2093340120918300C4
:101440008091830082958F70839FC00111242F703B
:10145000280F209386002091810080918100829541
:101460008F70839FC00111242F70280F2093840058
:10147000209182008091820082958F70839FC001AD
:1014800011242F70280F2093850020913201809124
:10149000320182958F70839FC00111242F70280F15
:1014A0002093370180916D01816080936D0182E00E
:1014B00080932A0110924101109240010E945D091F
:1014C00009C08091400190914101019690934101A2
:1014D00080934001809187009091880097FD09C01A
:1014E0008091870090918800019690938800809366
:1014F000870080914001909141018A3F910509F058
:10150000B6C0109241011092400180916700909105
:101510006800805C984AA8F4809167009091680008
:101520000196909368008093670080916700909186
:101530006800805C984A29F480916D0181608093F5
:101540006D0180912C018F5F80932C0190912C0173
:1015500080916500981789F410922C012091400128
:101560003091410180916600992787FD9095820F07
:10157000931F9093410180934001809136018F5FCA
:1015800080933601809136018C3308F45CC0109250
:101590003601809135018F5F80933501809135014F
:1015A0008C3308F45BC010923501809134018F5F59
:1015B0008093340180913401883108F44FC0109237
:1015C0003401809184008F5F809384008091860035
:1015D0008F5F8093860080918600883018F081E0CC
:1015E000809386008091370190E083709070892B02
:1015F00039F4E0918500F0E0E859FF4FE08106C042
:10160000E0918500F0E0E759FF4FE3858091840089
:10161000E81720F591E090938400809185008F5F1A
:1016200080938500809185008D30C0F09093850077
:101630008091370190E0019664E670E00E94612A93
:10164000809337010BC0809136018E3139F480913F
:101650002A01882319F481E080932A018091650191
:10166000882319F481E0809365010E945D09FF9150
:10167000EF91BF91AF919F918F917F916F915F910A
:101680004F913F912F910F900FBE0F901F90189583
:101690008091CD008111609568BB08959091CD0037
:1016A000482F50E0992371F422B34D5F5F4F81E0E2
:1016B00090E002C0880F991F4A95E2F78095822337
:1016C00082BB089522B34D5F5F4F81E090E002C07E
:1016D000880F991F4A95E2F7282B22BB0895809125
:1016E000CD00882319F482B3886702C082B387785B
:1016F00082BB08958091D600813009F442C08130C8
:1017000020F0823009F044C03EC080915C0190918D
:101710005D01019690935D0180935C012FE0813A19
:10172000920759F12FE0823A920798F421E0843F22
:10173000920729F121E0853F920718F4019741F5BE
:101740001CC027E0813D9207C1F0845C994001F5FF
:1017500016C027E18137920781F027E1823792078F
:1017600020F484599141A1F40AC029E184369207FA
:1017700031F088599A4361F407C0AA9A09C0AA981F
:1017800007C0AA9801C0AA9A10925D0110925C014C
:1017900080915501833009F457C1843030F4813091
:1017A00041F1823008F0A3C00AC0853009F4C0C0FE
:1017B000853008F455C1863009F045C2DDC19091ED
:1017C000CD00992319F482B3886702C082B3877869
:1017D00082BB979880915201843008F4DDC18091DA
:1017E00053018F5F80935301909153018091540175
:1017F00076C09091CD00992319F482B3886702C016
:1018000082B3877882BB979880915201843008F028
:101810005DC0E0915201F0E0E753FF4F808187FF08
:1018200010C080915201E0915201F0E0E753FF4F68
:10183000E081F0E0EF73F070E456FF4FE081E0618B
:101840000EC080915201E0915201F0E0E753FF4F4A
:10185000E081F0E0EF73F070E456FF4FE08191110A
:10186000E095E8BB8091CE008A3F00F5809152015F
:10187000482F50E0992371F422B34D5F5F4F81E010
:1018800090E002C0880F991F4A95E2F78095822365
:1018900082BB0CC022B34D5F5F4F81E090E002C07D
:1018A000880F991F4A95E2F7282B22BB809152019D
:1018B000882309F0C3C18091D500882309F0BEC1F7
:1018C0008091CE008A3F08F4B8C1B8C1809153011D
:1018D0008F5F80935301909153018091CE008917BF
:1018E00008F0E8C11092520110925301E1C18091B9
:1018F0005601909157018331910508F49FC0909152
:10190000CD00992319F482B3886702C082B3877827
:1019100082BB979880915201843011F580915301D8
:101920008F5F8093530190915301809154017AC04D
:1019300080915601909157018331910508F47EC042
:101940009091CD00992319F482B3886702C082B3C5
:10195000877882BB979880915201843009F459C0EE
:10196000E0915201F0E0E753FF4F808187FF10C004
:1019700080915201E0915201F0E0E753FF4FE08186
:10198000F0E0EF73F070E456FF4FE081E0610EC0CD
:1019900080915201E0915201F0E0E753FF4FE08166
:1019A000F0E0EF73F070E456FF4FE0819111E095A5
:1019B000E8BB80915201482F50E0992371F422B383
:1019C0004D5F5F4F81E090E002C0880F991F4A95FC
:1019D000E2F78095822382BB0CC022B34D5F5F4F3C
:1019E00081E090E002C0880F991F4A95E2F7282B0A
:1019F00022BB80915201882329F48091D50088234D
:101A000009F4979A809152018F5F8093520180E090
:101A100010C0809153018F5F8093530190915301C7
:101A20008091CE00891720F4109252011092530138
:101A300081E01092570110925601089501969093FB
:101A4000570180935601FFC08091CD00882319F47F
:101A500082B3886702C082B3877882BB9798F3C04D
:101A600060915601709157019091CD0087E0603DE3
:101A7000780708F069C0992319F482B3886702C017
:101A800082B3877882BB979880915201843009F4A1
:101A900058C0E0915201F0E0E753FF4F808187FF8B
:101AA00010C080915201E0915201F0E0E753FF4FE6
:101AB000E081F0E0EF73F070E456FF4FE081E06109
:101AC0000EC080915201E0915201F0E0E753FF4FC8
:101AD000E081F0E0EF73F070E456FF4FE081911188
:101AE000E095E8BB80915201482F50E0992371F4B2
:101AF00022B34D5F5F4F81E090E002C0880F991FD5
:101B00004A95E2F78095822382BB0CC022B34D5FD9
:101B10005F4F81E090E002C0880F991F4A95E2F77D
:101B2000282B22BB80915201882329F48091D50073
:101B3000882309F4979A809152018F5F8093520114
:101B40000CC01092520109C0992319F482B388671E
:101B500002C082B3877882BB9798CB01019690939D
:101B60005701809356018958934108F4A3C01092FD
:101B70005701109256019CC09091CD00992319F401
:101B800082B3886702C082B3877882BB97988091BE
:101B90005201843008F059C0E0915201F0E0E7535F
:101BA000FF4F808187FF10C080915201E091520168
:101BB000F0E0E753FF4FE081F0E0EF73F070E456A0
:101BC000FF4FE081E0610EC080915201E09152012F
:101BD000F0E0E753FF4FE081F0E0EF73F070E45680
:101BE000FF4FE0819111E095E8BB80915201482FB1
:101BF00050E0992371F422B34D5F5F4F81E090E094
:101C000002C0880F991F4A95E2F78095822382BB14
:101C10000CC022B34D5F5F4F81E090E002C0880F9F
:101C2000991F4A95E2F7282B22BB80915201882305
:101C300029F48091D500882309F4979A8091520164
:101C40008F5F8093520180E00895809153018F5FF0
:101C5000809353018091530190915801981720F47B
:101C6000109252011092530180915A018F5F80931C
:101C70005A018233F8F010925A0180915901882359
:101C800019F08130B9F40AC0892F8F5F8093580111
:101C9000803580F081E0809359010895892F81502B
:101CA00080935801882331F410925A0110925901FF
:101CB00081E0089581E008958091D1008093C9006A
:101CC0008091D2008093CA008091D3008093CB0092
:101CD0008091D4008093CC0080915B01809355016A
:101CE0008091CF008093D5008091D0008093D60062
:101CF000089588E781BB82BB8F9A9798AA98A29A89
:101D000087B38FEF87BB88BB0895A698AE9A0895D6
:101D1000DF93CF9300D000D000D0CDB7DEB71D82C7
:101D20001C821E821982CE0101960E947B008823AC
:101D300009F4AAC08E8180FDA7C08981823031F468
:101D40008C819D818231910551F47EC0873009F0EC
:101D50009BC08C819D818C30910529F475C08A319E
:101D6000910529F473C08031910529F46FC0823048
:101D7000910529F46DC08131910529F469C08D3038
:101D8000910521F467C0009729F464C0843091055F
:101D900029F462C08130910529F45EC08530910537
:101DA00029F45CC08230910529F458C08630910531
:101DB00029F456C08330910529F452C0873091052B
:101DC00029F450C08430910529F44CC08830910525
:101DD00029F44AC08530910529F446C0893091051F
:101DE00029F444C08630910529F440C08A30910519
:101DF00029F43EC08730910529F43AC08B31910512
:101E000029F438C08830910529F434C08F31910508
:101E100029F432C08930910529F42EC08E31910504
:101E200029F42CC08032910529F428C08330910513
:101E300029F426C08132910521F422C0019721F5B1
:101E400021C00D9709F51EC082E11FC083E11DC0AE
:101E500084E11BC085E119C086E117C087E115C088
:101E600088E113C089E111C08AE10FC08BE10DC088
:101E70008CE10BC08DE109C08EE107C08FE105C088
:101E800080E203C081E201C08FEF26960FB6F8947E
:101E9000DEBF0FBECDBFCF91DF910895CF92DF920D
:101EA000EF92FF920F931F93CF93DF93F82ED62ECE
:101EB000EA01122F80915E01813021F1813038F0EA
:101EC000823009F446C0833009F0D4C0C3C01092F8
:101ED00061011092600110925F01109263011092F3
:101EE00062010E9435070E942E0781E080935E0107
:101EF0001093D1000093D200E092D300C092D4009E
:101F000010925B010E942607880F991F880F991F66
:101F10008D5D95400CF4AEC082E080935E018AE056
:101F20008093D1008093D2008093D3008093D4001B
:101F300080E023E030E092E107C0F901E81BF109FD
:101F4000EF52FF4F90838F5F8F15B8F310925F01B0
:101F50007CC00E942607880F991F880F991FC817F9
:101F6000D90738F40E94350710925E0122E030E074
:101F700083C00E94880E893151F18A3180F4863104
:101F800061F1873130F4823151F1853109F072C04D
:101F90007DC0873101F1883109F06CC01AC08C31E5
:101FA00081F08D3130F48A3181F08B3109F062C0DB
:101FB0000AC08D3121F08E3109F05CC015C048E0B7
:101FC00014C047E012C046E010C045E00EC044E037
:101FD0000CC043E00AC042E008C041E006C01092D5
:101FE0005E0120E030E048C049E0809160019091BE
:101FF00061019C0163E0220F331F6A95E1F7880FAE
:10200000991F280F391F240F311D30936101209330
:10201000600120915F012F5F20935F01E22FF0E0CC
:102020008F2D90E0DD2039F0E81BF90BEC52FF4FCB
:102030008CE0808305C0E81BF90BEC52FF4F408316
:102040002F1519F483E080935E010E9435070E94EA
:102050002E0710C00E942607880F991F880F991F0E
:10206000855F91403CF00E94350710925E0125E0AB
:1020700030E002C021E030E0C901DF91CF911F9133
:102080000F91FF90EF90DF90CF90089540E0ADCF9B
:10209000CF92EF920F9384E061E048E95AE32BE09E
:1020A00000E1AFE0EA2EF1E1CF2E0E944E0F823028
:1020B000910529F08530910529F0892B41F420E024
:1020C00030E009C0209160013091610104C010929C
:1020D0005B0121E030E0C9010F91EF90CF900895AE
:1020E0001F920F920FB60F9211242F933F934F938D
:1020F0008F939F9387B190E08770907083309105A4
:1021000089F1843091054CF48130910511F18230D0
:1021100091051CF5892B69F036C08530910551F188
:10212000853091051CF18630910541F1079759F5ED
:1021300029C087B1867F816087B924B144B1942FCB
:1021400080E030E0822B932B90936A0180936901A9
:102150001AC087B1857F826003C087B1847F8360A6
:1021600087B911C087B1837F8460FACF87B1827F3E
:102170008560F6CF87B1817F8660F2CF87B1807F9F
:102180008760EECF3B98369A9F918F914F913F9108
:102190002F910F900FBE0F901F9018951F93DF93F4
:1021A000CF93CDB7DEB769970FB6F894DEBF0FBEF9
:1021B000CDBF80E487B98FE986B9369A80E98983F3
:1021C00081E08A831B82CE01019663E00E9439037D
:1021D00010E085B7806885BF889585B78F7785BF04
:1021E0001F5F21F00E943003882399F78091080136
:1021F00080FF02C0112319F40E942E0309C0F89435
:1022000081E0809364018093650180936D017894EF
:1022100069960FB6F894DEBF0FBECDBFCF91DF91A8
:102220001F910895809164018823B1F180912B0161
:10223000882309F071C0809166018431B1F0853145
:1022400081F1882309F068C080916501813009F02F
:1022500063C080E98093F4021092F50284EF92E06B
:1022600062E00E94390384E114C00E943003882395
:1022700009F052C08091080180FF0EC081E980936F
:10228000F40284EF92E063E00E94390380916601DA
:102290008F5F809366010895109265011092660128
:1022A00008950E9430038823B9F58091080180FFCA
:1022B0002FC084EF92E063E00E946403F894909151
:1022C000F50280E02091F60230E0822B932B33E080
:1022D000959587953A95E1F79093D8008093D7002C
:1022E0008091D7009091D8008F7190709093DA0010
:1022F0008093D9008091D7009091D80025E09595E2
:1023000087952A95E1F79093D8008093D700789429
:10231000109265011092660108958091DB00882378
:1023200089F180912901882339F480916700909187
:10233000680080519E4058F480912901882399F0CB
:102340008091670090916800805C984A60F080916D
:102350003801882361F080913B01882341F080910E
:10236000D200806807C080916B01863031F4809183
:10237000D2008F778093D20008958091D200806838
:102380008093D200089581E08093CF002091F102E4
:10239000822F6AE00E94342A8093D100822F0E940B
:1023A000342A90689093D2002091EF02822F0E94ED
:1023B000342A8093D300822F0E94342A906890930D
:1023C000D4001092DB00089591E09093CF0090919B
:1023D0008C008823E1F09430B1F0953028F49230ED
:1023E00059F0933058F41BC09630C9F1963090F1F3
:1023F000973009F03FC009C08FE001C088E18093A9
:10240000D10085E135C08FE015C085E013C0943060
:10241000E1F0953038F4923089F0933088F49130BF
:1024200049F507C09630D9F09630A0F0973011F5F5
:102430001BC088E18093D10080E11AC086E115C0FD
:102440008CE18093D10081E113C086E18093D100BB
:102450008DE10EC083E18093D1008BE109C085E05E
:102460008093D10084E104C085E08093D1008EE1A7
:102470008093D20020918B00822F6AE00E94342A40
:102480008093D300822F0E94342A9093D40010921C
:10249000DB0008951092CF002091F202822F6AE0B3
:1024A0000E94342A8093D100822F0E94342A909374
:1024B000D2002091F002822F0E94342A8093D30010
:1024C000822F0E94342A9093D40081E08093DB0015
:1024D0000895982F80916401882309F473C099238B
:1024E00009F070C08091D7009091D80097FD31C05D
:1024F0008091D7009091D8006AE070E00E94612A34
:10250000462F6093D1008091D7009091D8006AE067
:1025100070E00E94612A80688093D2002091D900E7
:102520003091DA0089E391E0BC01269FC001279F2A
:10253000900D369F900D112468EE73E00E94612A81
:102540006093D3008BE08093D400442309F0BBC098
:10255000ADC08CE08093D1008091D7009091D800DD
:1025600066EF7FEF0E94612A462F6093D200809130
:10257000D7009091D800909581959F4F6AE070E0C8
:102580000E94612AE82FE068E093D3002091D900EF
:102590003091DA0089E391E0BC01269FC001279FBA
:1025A000900D369F900D112468EE73E00E94612A11
:1025B0006093D400442309F086C0E093D200609376
:1025C000D30046C080912901882309F473C080910B
:1025D000670187FF41C08CE08093D1008091670143
:1025E000992787FD909566EF7FEF0E94612A262F3D
:1025F0006093D20080916701992787FD909590950F
:1026000081959F4F6AE070E00E94612A982F906840
:102610009093D30080916801813051F0813028F08F
:10262000823041F0833059F407C01092D40007C0C3
:1026300083E003C085E001C088E08093D4002223BA
:1026400009F041C09093D2008091D4008093D300D0
:102650008BE08093D4000895809167016AE00E9426
:10266000402A282F8093D100809167016AE00E9460
:10267000402A90689093D20080916801813051F097
:10268000813028F0823041F0833059F407C0109235
:10269000D30007C083E003C085E001C088E08093D9
:1026A000D3008BE08093D400222369F48AE08093E6
:1026B000D10008958AE08093D1008093D200809366
:1026C000D3008093D40008951F9310918B01113093
:1026D000B9F0113018F01230E1F527C08FE1809386
:1026E000D1001092D20081E08093D3001092D400E8
:1026F0000E9435070E942E0780918B018F5F12C0C8
:102700000E942607880F991F880F991F855C9940A2
:1027100004F10E9435070E942E0710936D0110935B
:102720005B0182E080938B0114C00E942607880F12
:10273000991F880F991F855C99405CF00E943507AE
:1027400081E080936D0110928B0110925B0180E01B
:102750005EC00E94880E803239F18132A1F0823150
:1027600009F03AC08091CD00882321F481E0809364
:10277000CD0002C01092CD002091CD00E199FECF96
:1027800080E190E021C080916E01882321F481E0F6
:1027900080936E0102C010926E0120916E01E1994A
:1027A000FECF81E190E010C080913A01882321F4AE
:1027B00080E880933A0102C010923A0120913A01D8
:1027C000E199FECF82E190E09FBB8EBB2DBB0FB69F
:1027D000F894E29AE19A0FBE80916E01882321F469
:1027E0008091D4008F7703C08091D400806880935B
:1027F000D40080913A01882321F48091D1008F7711
:1028000003C08091D10080688093D10081E01F9146
:1028100008950F931F9301E00093DC00109188014D
:102820001130D9F1113020F0123009F05BC04CC0EA
:102830009091F30280916C01891721F480916D01D0
:102840008823C9F010926D0181E08093CF00892F19
:102850006AE00E94342A992331F481E00E946912CF
:102860001092DB0002C00E944A1210925B0180911C
:10287000F30280936C010E948D110E948D1C8823AD
:1028800089F50E94880E823169F581E08093880184
:102890008093CF001092DB0025C00E9448109093D7
:1028A0008A0180938901009729F41092880110937E
:1028B0006D0118C081309105A9F08A51954091F4BD
:1028C00082E0809388010EC00E945B2690938A016B
:1028D00080938901009711F0029721F410928801EA
:1028E00000936D011F910F9108950F931F9301E0C5
:1028F0000093DC0010918101123309F485C0133379
:1029000048F4113009F45EC01130A0F0123009F023
:10291000B1C06FC01C3309F480C01D3320F41333E1
:1029200009F0A8C096C01D3309F47DC01E3309F01C
:10293000A1C08FC090916C018091F302981721F48F
:1029400080916D018823D1F0F8948091F202885033
:102950008E3020F081E080935B0102C010925B0119
:102960000E944A1281E08093CF00789410926D010A
:102970008093DB008091F30280936C010E948D11A3
:102980000E948D1C882309F075C00E94880E8F312B
:1029900071F0803271F0823109F06CC082E0809376
:1029A00081011092DB0081E08093CF0063C082E35D
:1029B00001C08CE38093810181E08093CF0010926D
:1029C000DB0058C00E9448109093830180938201DD
:1029D000009729F41092810110936D014BC0813052
:1029E000910509F447C08A51954009F043C082E03F
:1029F00011C00E945B26909383018093820100970F
:102A0000A9F10297B9F532C00E942E0780E00E941A
:102A1000691283E3809381012DC00E942E070E94DA
:102A2000C3118DE3F7CF0E942607880F991F880FE7
:102A3000991F815D9740F4F00E9435070E942E0790
:102A400000936D018EE38093810180E00E94E41188
:102A500011C00E942607880F991F880F991F815D5A
:102A6000974044F00E94350700936D011092810158
:102A700000936D011F910F9108951F931092DC0038
:102A800010917E01113009F44FC0113020F0123046
:102A900009F070C060C02091F30280916C01821730
:102AA00021F480916D01882369F1F89491E090936D
:102AB000CF008091F20288508E3018F090935B0125
:102AC00002C010925B01822F64E10E94342A9A3086
:102AD00018F40E944A120FC0892F8A50853018F4CA
:102AE0000E94C31108C09F50963028F480E00E94D5
:102AF00069121092DB00789410926D018091F302BC
:102B000080936C010E948D110E948D1C882391F589
:102B10000E94880E823171F581E080937E011092CF
:102B2000DB008093CF0026C00E9448109093800164
:102B300080937F01009729F410927E0110936D011C
:102B400019C081309105B1F08A51954099F482E025
:102B500080937E010FC00E945B269093800180933A
:102B60007F01009711F0029729F410927E0181E015
:102B700080936D011F9108950F931F9301E00093BF
:102B8000DC0010917B01123309F47CC0133348F44C
:102B9000113009F455C01130A0F0123009F0A8C06E
:102BA00066C01C3309F475C01D3320F4133309F0DB
:102BB0009FC08DC01D3309F474C01E3309F098C046
:102BC00086C090916C018091F302981721F4809156
:102BD0006D018823C1F00E944A1291E090935B013D
:102BE00080918C00863048F48091F002882319F49B
:102BF00010925B0102C090935B0110926D01809175
:102C0000F30280936C010E948D1C882309F070C030
:102C10000E94880E8F3149F0803281F0823109F0B4
:102C200067C081E080937B0104C082E380937B01D5
:102C300081E08093CF001092DB005AC08CE3F6CF86
:102C40000E94481090937D0180937C01009729F4A5
:102C500010927B0110936D014BC08130910509F4F6
:102C600047C08A51954009F043C082E017C00E94D6
:102C70005B2690937D0180937C010097A9F10297D8
:102C8000B9F532C00E942E0780E00E94691283E3EA
:102C900005C00E942E070E94C3118DE380937B0123
:102CA00027C00E942607880F991F880F991F815DF2
:102CB0009740F4F00E9435070E942E0700936D01A3
:102CC0008EE380937B0181E00E94E41111C00E9499
:102CD0002607880F991F880F991F815D974044F040
:102CE0000E94350700936D0110927B0100936D01E6
:102CF0001F910F9108950F931F9301E00093DC0043
:102D000010917801123309F44CC1133348F4113097
:102D100009F425C11130A0F0123009F078C136C194
:102D20001C3309F445C11D3320F4133309F06FC17E
:102D30005DC11D3309F444C11E3309F068C156C199
:102D400090916C018091F302981729F480916D01A4
:102D5000882309F4DDC010925B0181E08093CF00ED
:102D60009091F2028CE3989FA00111248091F002CF
:102D7000480F511D90918C00892F8150843060F54F
:102D8000CA01845A91408837910578F1CA018C5163
:102D90009240449748F487E18093D1008CE080937F
:102DA000D20020E332E04EC0CA0180539240803A04
:102DB0009105A8F1CA01805D92408897D8F1CA01B7
:102DC000885F92408C38910508F071C08CE0809348
:102DD000D10024E833E04CC0953009F068C0CA0146
:102DE000845A91408837910530F48CE08093D1006B
:102DF0002CE132E03DC0CA018C519240449748F426
:102E000087E18093D1008CE08093D20029E432E006
:102E100019C0CA0180539240803A910530F48CE089
:102E20008093D10020ED32E023C0CA01805D924042
:102E3000889798F487E18093D1008CE08093D2004A
:102E400028EF32E0241B350BC9016AE070E00E94D4
:102E50004D2A6093D300C90121C0CA01885F924006
:102E60008134910520F58CE08093D10029E333E093
:102E7000241B350BC90164E670E00E944D2A609363
:102E8000D200C90164E670E00E944D2A9C016AE00C
:102E900070E00E944D2A6093D300C9016AE070E09F
:102EA0000E944D2A8093D4001092DB0004C00E943F
:102EB0004A1210925B0110926D012091F302822F51
:102EC0006FE00E94342A9923D1F030E0C9010196C5
:102ED0006FE070E00E94612A892B89F0C901029697
:102EE0006FE070E00E94612A892B71F0C90103969E
:102EF0006FE070E00E94612A892B31F003C00E94CC
:102F0000C31102C00E944A128091F30280936C01A7
:102F10000E948D118091F20286508D3018F081E070
:102F200080935B010E948D1C882309F070C00E9471
:102F3000880E8F3149F0803281F0823109F067C00C
:102F400081E08093780104C082E38093780181E07E
:102F50008093CF001092DB005AC08CE3F6CF0E9422
:102F6000481090937A0180937901009729F4109288
:102F7000780110936D014BC08130910509F447C071
:102F80008A51954009F043C082E017C00E945B2639
:102F900090937A01809379010097A9F10297B9F58E
:102FA00032C00E942E0780E00E94691283E305C0B0
:102FB0000E942E070E94C3118DE38093780127C0E1
:102FC0000E942607880F991F880F991F815D9740DF
:102FD000F4F00E9435070E942E0700936D018EE3E6
:102FE0008093780181E00E94E41111C00E942607BD
:102FF000880F991F880F991F815D974044F00E94A8
:10300000350700936D011092780100936D011F91B7
:103010000F9108950F931F9301E00093DC0010912E
:103020007501113009F450C0113020F0123009F050
:1030300070C061C03091F30280916C01831721F45C
:1030400080916D01882331F110925B0181E08093C2
:10305000CF0010926D012091F202822F6AE00E944F
:10306000342A805E8093D100822F0E94342A905EA1
:103070009093D2002091F002822F0E94342A805E29
:103080008093D300822F0E94342A905E9093D400C4
:1030900030936C0111E01093DB000E948D11809140
:1030A000F20287508D3010F010935B010E948D1C4E
:1030B000882379F50E94880E823159F581E080934A
:1030C00075011092DB0025C00E9448109093770193
:1030D00080937601009729F41092750110936D0189
:1030E00018C081309105A9F08A51954091F482E091
:1030F000809375010EC00E945B26909377018093A8
:103100007601009711F0029721F410927501009357
:103110006D011F910F9108950F931F93CF93DF932C
:1031200001E00093DC0010917201123309F47BC1BD
:10313000133348F4113009F454C11130A0F01230A7
:1031400009F0A7C165C11C3309F474C11D3320F413
:10315000133309F09EC18CC11D3309F473C11E33B2
:1031600009F097C185C190916C018091F302981785
:1031700029F480916D01882309F40CC19091F20229
:103180008CE3989FE00111248091F002C80FD11DBB
:1031900081E08093CF0090918C00892F8150843002
:1031A00008F05FC00E944A128091F0028B3329F42C
:1031B0008091F2028730A1F40FC08C3229F4809103
:1031C000F202893069F408C08D3151F48091F20225
:1031D0008B3011F08D3021F486E080935B0102C0CA
:1031E00010925B01CE01805E91408A35910508F412
:1031F0005FC0CE018A5392400F9708F467C0CE019A
:10320000895492408A35910508F46FC0CE01835AE3
:1032100092400F9708F477C0CE01825B92408A35C6
:10322000910508F47FC0CE018C5093404E9748F42E
:1032300087E18093D1008CE08093D2002AE233E0D2
:1032400079C0CE018A5293408A35910508F089C031
:1032500085E08093D1008CE08093D20024E833E0B5
:1032600069C0953009F079C00E944A128091F0023D
:103270008B3329F48091F202873091F40DC08C32A7
:1032800029F48091F202893059F406C08D3141F45D
:103290008091F2028B3021F486E080935B0102C0C2
:1032A00010925B01CE01805E91408A35910548F411
:1032B00085E08093D1008CE08093D2002AE332E055
:1032C00039C0CE018A5392400F9748F487E180932A
:1032D000D1008CE08093D20029E432E02BC0CE01F3
:1032E000895492408A35910548F485E08093D10055
:1032F0008CE08093D20023EA32E01CC0CE01835AD6
:1033000092400F9748F487E18093D1008CE080933E
:10331000D20022EB32E00EC0CE01825B92408A35B1
:103320009105F8F485E08093D1008CE08093D20081
:103330002CE033E02C1B3D0BC9016AE070E00E94D9
:103340004D2A6093D300C9016AE070E00E944D2AC3
:103350008093D4001092DB0004C00E944A121092A5
:103360005B0110926D012091F302822F6AE00E94AE
:10337000342A992359F0822F90E001966AE070E098
:103380000E94612A892B11F00E944A128091F30257
:1033900080936C010E948D118091F20287508D30D4
:1033A00018F081E080935B010E948D1C882309F056
:1033B00070C00E94880E8F3149F0803281F08231D6
:1033C00009F067C081E08093720104C082E38093BA
:1033D000720181E08093CF001092DB005AC08CE331
:1033E000F6CF0E9448109093740180937301009768
:1033F00029F41092720110936D014BC08130910538
:1034000009F447C08A51954009F043C082E017C0D3
:103410000E945B2690937401809373010097A9F139
:103420000297B9F532C00E942E0780E00E9469120F
:1034300083E305C00E942E070E94C3118DE3809391
:10344000720127C00E942607880F991F880F991FB5
:10345000815D9740F4F00E9435070E942E0700938B
:103460006D018EE38093720181E00E94E41111C02E
:103470000E942607880F991F880F991F815D97402A
:1034800044F00E94350700936D0110927201009381
:103490006D01DF91CF911F910F9108950F931F93AD
:1034A000CF93DF9301E00093DC0010916F011233A2
:1034B00009F4A4C1133348F4113009F47DC111306B
:1034C000A0F0123009F0D0C18EC11C3309F49DC1A7
:1034D0001D3320F4133309F0C7C1B5C11D3309F4FE
:1034E0009CC11E3309F0C0C1AEC190916C018091A6
:1034F000F302981729F480916D01882309F435C1EE
:1035000081E08093CF009091F2028CE3989FE001DC
:1035100011248091F002C80FD11D90918C00892F49
:103520008150843008F088C00E944A128091F002D5
:103530008B3329F48091F2028730A9F410C08C32C9
:1035400029F48091F202893041F409C08D3159F497
:103550008091F2028B3039F402C08D3021F486E084
:1035600080935B0102C010925B01CE01805E9140AE
:103570008A35910548F48DE08093D1008CE08093EA
:10358000D2002AE332E087C0CE018A5392400F97DF
:1035900048F48EE08093D1008CE08093D20029E43F
:1035A00032E079C0CE01895492408A35910548F4C1
:1035B0008DE08093D1008CE08093D20023EA32E04A
:1035C0006AC0CE01835A92400F9748F48EE08093F0
:1035D000D1008CE08093D20022EB32E05CC0CE01BF
:1035E000825B92408A35910548F48DE08093D1004A
:1035F0008CE08093D2002CE033E04DC0CE018C50A3
:1036000093408D9748F48EE08093D1008CE08093B6
:10361000D20029E333E03FC0CE01895393408A357D
:10362000910508F089C08DE08093D1008CE08093F3
:10363000D20023E933E02FC0953009F079C00E9411
:103640004A128091F0028D3129F48091F202873084
:1036500091F40DC08E3029F48091F202893059F432
:1036600006C08B3341F48091F2028A3021F486E067
:1036700080935B0102C010925B01CE01825C91409D
:103680008A359105D8F48DE08093D1008CE0809349
:10369000D2002CE132E02C1B3D0BC9016AE070E046
:1036A0000E944D2A6093D300C9016AE070E00E9435
:1036B0004D2A8093D4001092DB003EC0CE018C5185
:1036C00092400F9748F48EE08093D1008CE0809375
:1036D000D2002BE232E0DFCFCE018B5292408A350E
:1036E000910548F48DE08093D1008CE08093D20066
:1036F00025E832E0D0CFCE01855892400F9748F4AC
:103700008EE08093D1008CE08093D20024E932E0F7
:10371000C2CFCE01845992408A35910568F48DE07C
:103720008093D1008CE08093D2002EEE32E0B3CFB4
:103730000E944A1210925B0110926D012091F302D7
:10374000822F6AE00E94342A992359F0822F90E058
:1037500001966AE070E00E94612A892B11F00E94B4
:103760004A128091F30280936C010E948D11809126
:10377000F20287508D3018F081E080935B010E9447
:103780008D1C882309F070C00E94880E8F3149F08B
:10379000803281F0823109F067C081E080936F014F
:1037A00004C082E380936F0181E08093CF00109288
:1037B000DB005AC08CE3F6CF0E9448109093710151
:1037C00080937001009729F410926F0110936D019E
:1037D0004BC08130910509F447C08A51954009F0EA
:1037E00043C082E017C00E945B26909371018093D2
:1037F00070010097A9F10297B9F532C00E942E0717
:1038000080E00E94691283E305C00E942E070E9497
:10381000C3118DE380936F0127C00E942607880F94
:10382000991F880F991F815D9740F4F00E9435071A
:103830000E942E0700936D018EE380936F0180E05C
:103840000E94E41111C00E942607880F991F880F5B
:10385000991F815D974044F00E94350700936D01E8
:1038600010926F0100936D01DF91CF911F910F9125
:10387000089524E630E0E199FECF3FBB2EBBE09AED
:103880008DB3F901E35CFE4F80832F5F3F4F283CEF
:10389000310589F7E1EAF1E08081883148F48181DE
:1038A0008C3330F48281843018F48381823028F0A4
:1038B00010821182128213821482359682E0E530E2
:1038C000F80751F7089590E09C01220F331F220F53
:1038D000331F280F391F0196AC01440F551F440FA9
:1038E000551F480F591FF901EF55FE4F12C0F894AC
:1038F0008081E199FECF2C593F4F3FBB2EBB8DBB42
:103900000FB6F894E29AE19A0FBE789423563040AD
:1039100031962417350758F30895809105028B30AE
:1039200009F44BC08C3030F4882371F08A3009F0F0
:1039300067C034C0853109F440C08E3109F450C0ED
:10394000843109F05DC02EC04091F2022091F00256
:1039500030918C00E1EAF1E092819923C9F08081F5
:103960008417B1F48181821799F48381882321F02F
:10397000813071F4363060F4913011F48AE003C084
:10398000923031F484E1809305022093DD0026C05B
:10399000359682E0E530F807F9F632C01092D00093
:1039A0008BE004C082E08093D00085E18093050223
:1039B0000E9435070E942E0711C00E942607880F1B
:1039C000991F880F991F895B9B40E4F081E08093E9
:1039D000D0000E9435078EE18093050281E00895B2
:1039E0002091F00230E08091DD00992787FD9095CD
:1039F0002817390729F0109205028FEF8093DD0018
:103A000080E0089581E0089580919B01823041F12A
:103A1000833009F473C0813009F081C090919C011A
:103A20008091F202981709F07AC090919D018091DF
:103A3000F002981709F073C082E080939B01809197
:103A4000D10080930D038091D20080930E0380916A
:103A5000D30080930F038091D400809310035DC046
:103A60001092D00086E080935B0184E18093D100C6
:103A70008DE08093D20088E18093D3008AE0809328
:103A8000D4000E94880E8F3FB1F083E080939B01A9
:103A900081E08093D00080910D038093D1008091CC
:103AA0000E038093D20080910F038093D300809106
:103AB00010038093D40090919C018091F20298179A
:103AC00031F490919D018091F0029817A9F081E066
:103AD00080939B018093D00080910D038093D1004F
:103AE00080910E038093D20080910F038093D300C6
:103AF000809110038093D40081E0089590919C01FF
:103B00008091F202981731F490919D018091F0021A
:103B1000981729F081E080939B0180E0089580E070
:103B2000089580919301882321F0813009F0C6C067
:103B30000CC00E9435070E942E0781E080939301FC
:103B400080916B0180939201B9C00E942607880F73
:103B5000991F880F991F815197427CF40E94880E0B
:103B60008F31B1F0803220F4823109F038C005C0C5
:103B7000803241F0813299F517C01092930120E014
:103B800030E09EC080919201873048F48F5F05C07D
:103B900080919201882319F08150809392010E94B4
:103BA00035070E942E071BC010929301809192014D
:103BB00080936B010E9435070E942E0720916B01B4
:103BC000E199FECF8AE090E09FBB8EBB2DBB0FB684
:103BD000F894E29AE19A0FBE22E030E071C0809141
:103BE0009201833071F1843028F48130C1F0823049
:103BF000F0F40BC08530D1F1853070F1863009F4D6
:103C000040C0873009F051C046C08AE08093D1009F
:103C10008093D2008BE08093D30081E04DC08AE096
:103C20008093D10085E08093D20086E106C08AE0CF
:103C30008093D1008093D20087E18093D30084E108
:103C40003BC08AE08093D1008CE18093D2008EE06B
:103C50008093D30085E030C08AE08093D1008093C8
:103C6000D20086E18093D30081E126C08AE0809370
:103C7000D1008EE08093D20085E18093D3008AE169
:103C80001BC08AE08093D1008093D2008BE08093A8
:103C9000D30082E011C08AE08093D1008093D200EB
:103CA0008BE08093D30083E007C082E18093D10052
:103CB0008093D2008093D3008093D40021E030E041
:103CC000C90108951F9310918C01113009F443C06C
:103CD000113020F0123009F051C1C2C08091CE00E5
:103CE00080938D018091540180938E010E9435074D
:103CF0000E942E0781E080935B011092CF008FE03D
:103D00008093D1008AE08093D2008091CE006AE057
:103D10000E94342A29E130E0A901481B5109CA0157
:103D20006AE070E00E94612A6093D3008091CE0027
:103D30006AE00E94342AA901481B5109CA016AE0BD
:103D400070E00E94612A8093D40080918C018F5F83
:103D500080938C0113C10E942607815395470CF074
:103D600084C00E94880E8F3119F1803220F4823194
:103D700009F05CC006C0803299F0813209F056C06B
:103D800025C010928C0180918D018093CE0080918E
:103D90008E018093540110925B011093CF00C5C037
:103DA0008091CE00813F68F48091CE00865F07C08D
:103DB0008091CE008A3028F08091CE008A50809386
:103DC000CE000E9435070E942E0730C082E080930B
:103DD0008C018EE08093D1008AE08093D2008091A4
:103DE00054016AE00E94342A29E130E0A901481B0D
:103DF0005109CA016AE070E00E94612A6093D30011
:103E0000809154016AE00E94342AA901481B51099B
:103E1000CA016AE070E00E94612A8093D400109287
:103E20005B010E9435070E942E07A8C08FE0809397
:103E3000D1008AE08093D2008091CE006AE00E9497
:103E4000342A29E130E0A901481B5109CA016AE07E
:103E500070E00E94612A6093D3008091CE0081C0FF
:103E60000E942607815395471CF010928C015DC07B
:103E70000E94880E8F3121F1803220F4823109F0C6
:103E800057C006C08032A1F0813209F051C026C06F
:103E900010928C0180918D018093CE0080918E01D3
:103EA0008093540110925B0181E08093CF003DC06C
:103EB00080915401813F68F480915401865F07C06E
:103EC000809154018A3028F0809154018A50809367
:103ED00054010E9435070E942E072AC010928C01BF
:103EE0002091CE00E199FECF8BE090E09FBB8EBB8E
:103EF0002DBB0FB6F894E29AE19A0FBE20915401BF
:103F0000E199FECF8CE090E09FBB8EBB2DBB0FB63E
:103F1000F894E29AE19A0FBE10925B0181E08093DF
:103F2000CF000E9435070E942E0720E030E028C015
:103F30008EE08093D1008AE08093D200809154017A
:103F40006AE00E94342A29E130E0A901481B5109A6
:103F5000CA016AE070E00E94612A6093D3008091F8
:103F600054016AE00E94342AA901481B5109CA0180
:103F70006AE070E00E94612A8093D40021E030E082
:103F8000C9011F910895CF92EF920F931F93109143
:103F90000602153009F485C1163090F4123009F488
:103FA000CBC0133030F41123F1F0113009F0B4C25A
:103FB00026C0133009F4E5C0143009F0ADC209C1C0
:103FC0001E3109F4F8C11F3138F4163009F4BDC1AF
:103FD0001A3009F0A1C2D5C11F3109F41AC210323A
:103FE00009F09AC261C211E0109306020E943507DF
:103FF0000E942E071093DE001093CF008DC20E9406
:104000002607880F991F880F991F815197422CF01E
:104010001092060210936D0117C00E94880E8F3116
:1040200049F1803230F4823151F0833109F059C0C6
:104030000EC0803229F1813209F053C02DC0109298
:10404000060281E080936D0120E030E067C280913C
:10405000DE0090E0FC01EE0FFF1FEE0FFF1FE80FE8
:10406000F91FE256FE4F8081882389F08EE180930C
:1040700006020DC08091DE00823048F0815005C0FC
:104080008091DE00843118F48F5F8093DE000E94FF
:1040900035070E942E0725C082E0809306020E9409
:1040A00035070E942E079091DE0085E0989F9001D1
:1040B0001124F901EF55FE4F359781918093070246
:1040C000819180930802808180930902882319F4EA
:1040D00081E080930902F901E156FE4F80818093CF
:1040E0000A022091DE00822F6AE00E94342A809327
:1040F000D100822F0E94342A9093D2008AE08093CC
:10410000D30030E0F901EE0FFF1FEE0FFF1FE20FAB
:10411000F31FE256FE4FE081E13009F414C1E130B3
:1041200038F0E23009F4B1C0E33009F0F5C102C063
:104130008CE09BC088E199C082E060E040E157E2FA
:104140002DE100E1AEE1EA2EFBE1CF2E0E944E0F01
:104150008230910509F4D9C18530910529F5809106
:104160006001909161018831910540F480930702CC
:10417000809106028F5F80930602CEC110920602E4
:10418000CBC182E060E040E157E228E105E1EAE1ED
:10419000EE2E7AE0C72E0E944E0F8230910509F470
:1041A000B4C18530910529F0892B09F0B5C18AE0A9
:1041B000ADC180916001909161018C33910530F423
:1041C00080930802809106028F5FA0C110920602C0
:1041D0009FC10E942607880F991F880F991F815140
:1041E00097423CF081E0809306020E9435070E94CE
:1041F0002E070E94880E8F3161F0803218F48231D0
:10420000F9F405C0803259F08132D1F410C08AE04F
:1042100011C080910902823078F0815005C08091F0
:104220000902823048F48F5F8093090205C08091B3
:1042300006028F5F809306020E9435070E942E07B8
:10424000909109029130A1F0913030F09230B1F0AC
:10425000933009F061C11BC08AE08093D10080E1F6
:104260008093D20083E18093D3008093D40054C123
:104270008AE08093D1008093D20063C08AE080936B
:10428000D1008093D2008093D3008DE0EECF88E1FF
:104290008093D10087E18093D2009093D3008AE08D
:1042A000E4CF0E942607880F991F880F991F81511C
:1042B00097423CF081E0809306020E9435070E94FD
:1042C0002E070E94880E8F3161F0803218F48231FF
:1042D000F9F405C0803259F08132D1F410C08AE07F
:1042E00011C080910A02882379F0815005C0809125
:1042F0000A02882349F481E080930A0205C0809174
:1043000006028F5F809306020E9435070E942E07E7
:1043100090910A02992321F0913009F0FDC00BC061
:104320008AE08093D10081E08093D2008CE080937A
:10433000D30087E09ACF8AE08093D1009093D20097
:104340008CE08093D30085E090CF81E080930602DB
:104350008091DE00E5E08E9FF0011124EF55FE4FC5
:1043600035979091070291939091080291939091C3
:104370000902919390910A02908381500E94631CDC
:10438000C7C081E0809306028091DE0090E0FC01CE
:10439000EE0FFF1FEE0FFF1FE80FF91FE256FE4F53
:1043A00010820E9435070E942E078091DE00815006
:1043B0000E94631CB1C01092CF00E091DE0085E046
:1043C000E89FF0011124EF55FE4F35972191822F80
:1043D0006AE00E94342A8093D100822F0E94342AFE
:1043E0009093D2002081822F0E94342A8093D300A0
:1043F000822F0E94342A9093D4000E942607880FAF
:10440000991F880F991F815D97400CF485C08FE13B
:104410007DC081E08093CF008091DE0090E0FC01C0
:10442000EE0FFF1FEE0FFF1FE80FF91FE256FE4FC2
:10443000E081E13089F0E13028F0E230B1F0E330A2
:1044400041F51CC08AE08093D10080E18093D200C6
:1044500083E18093D3001BC08AE08093D1008093D6
:10446000D2008093D30085E012C08AE08093D1000F
:104470008093D2008093D3008DE009C088E18093BF
:10448000D10087E18093D200E093D3008AE080934B
:10449000D4000E942607880F991F880F991F895EF4
:1044A0009340D4F180E232C08091DE0090E0FC01C4
:1044B000EE0FFF1FEE0FFF1FE80FF91FE156FE4F33
:1044C000E081EE2319F0E130B9F40BC08AE080936B
:1044D000D10081E08093D2008CE08093D30087E00C
:1044E00009C08AE08093D100E093D2008CE08093F1
:1044F000D30085E08093D4000E942607880F991F7F
:10450000880F991F895E93403CF081E080930602FA
:104510000E9435070E942E0721E030E0C9011F915B
:104520000F91EF90CF900895CF92EF920F9300915B
:104530009E01023009F44AC0033030F4002371F0C8
:10454000013009F0F7C02EC0043009F499C00430DE
:1045500008F458C0053009F0EDC0B3C081E0809385
:104560009E010E9435070E942E0720919C01822FF8
:104570006AE00E94342A8093D100822F0E94342A5C
:1045800090689093D20020919D01822F0E94342A3E
:104590008093D300822F0E94342A9093D4001092EB
:1045A000CF00C8C00E942607880F991F880F991F47
:1045B000895E93400CF4BEC080919E018F5F809312
:1045C0009E010E9435070093CF00B4C082E060E0F6
:1045D00040E157E22DE100E1FEE1EF2EEBE1CE2ECE
:1045E0000E944E0F8230910541F185309105E1F432
:1045F000809160019091610188319105F0F580937F
:104600009F0135C082E060E040E157E228E105E12A
:104610007AE1E72E3AE0C32E0E944E0F82309105D8
:1046200061F08530910589F0892B09F083C084E021
:1046300080939E0110929B0103C084E080939E01B1
:104640000E9435070E942E0775C0209160013091AD
:1046500061012C33310588F42093A00180919F01E2
:1046600080939C0120939D0181E080939B01809128
:104670009E018F5F80939E015DC010929E015AC083
:1046800085E080939E010E9435070E942E0780914D
:104690009B01813051F480E18093D1008AE18093C5
:1046A000D2008AE08093D30009C080E18093D100DA
:1046B00083E18093D2008093D3008AE08093D4007A
:1046C00039C00E942607880F991F880F991F855CA3
:1046D00099400CF42FC020919B01E199FECF8DE011
:1046E00090E09FBB8EBB2DBB0FB6F894E29AE19A87
:1046F0000FBE20919C01E199FECF8EE090E09FBB20
:104700008EBB2DBB0FB6F894E29AE19A0FBE2091B2
:104710009D01E199FECF8FE090E09FBB8EBB2DBB4A
:104720000FB6F894E29AE19A0FBE10929E0120E033
:1047300030E002C021E030E0C9010F91EF90CF904E
:104740000895CF92EF920F931F931091940113301D
:1047500009F472C0143030F4113071F1123008F0E5
:104760004DC00AC0153009F4AAC0153008F48AC03B
:10477000163009F030C1C4C082E060E040E157E289
:104780002FE004E1F9E1EF2EEAE0CE2E0E944E0F79
:104790008230910509F41AC18530910509F0A2C053
:1047A0002091600130916101C90101974F9708F094
:1047B00065C0209395015EC082E060E040E157E271
:1047C00028E100E17AE1E72E3AE0C32E0E944E0F85
:1047D0008230910509F4FAC08530910509F082C054
:1047E0002091600130916101C90101970C9718F483
:1047F000209396013FC010939401EDC082E060E0E9
:1048000040E157E229E101E194E1E92E1BE1C12EEB
:104810000E944E0F8230910509F4D8C08530910571
:1048200009F060C08091600190916101843691052A
:1048300028F5809397011EC081E060E040E157E2D7
:104840002FE000E1BCE1EB2EAAE0CA2E0E944E0F41
:104850008230910509F4BAC08530910509F042C053
:104860002091600130916101C9010197079730F4EF
:1048700020939801809194018F5F01C081E0809323
:104880009401A9C082E060E040E157E22DE100E13F
:10489000FEE1EF2EEBE1CE2E0E944E0F823091050D
:1048A00009F494C085309105E9F4809160019091FC
:1048B00061018831910510F780939901DBCF82E087
:1048C00060E040E157E228E105E17AE1E72E3AE0D5
:1048D000C32E0E944E0F8230910509F477C08530B7
:1048E000910521F0892B09F076C070C0809160019C
:1048F000909161018C33910508F680939A01BACFAB
:10490000F89481E080933301109231014091990134
:10491000842F6AE00E94342A282F30E094E0220F8E
:10492000331F9A95E1F7842F0E94342A922B90939B
:104930002F0140919A01842F0E94342A282F30E0C1
:1049400084E0220F331F8A95E1F7842F0E94342AD6
:10495000922B9093300140919501842F0E94342A2C
:10496000282F30E004E0220F331F0A95E1F7842F4F
:104970000E94342A922B9093810040919601842FBB
:104980000E94342A282F30E014E0220F331F1A959A
:10499000E1F7842F0E94342A922B90938200409159
:1049A0009701842F0E94342A282F30E0B4E0220F90
:1049B000331FBA95E1F7842F0E94342A922B9093EB
:1049C0003201809198018093830078941092940131
:1049D00020E030E002C021E030E0C9011F910F91DA
:1049E000EF90CF9008951F9380918F01813059F1FE
:1049F000813038F0823009F485C0833009F056C127
:104A000025C18AE5809390010E9435070E942E07F8
:104A10008CE08093D1008AE08093D20020919001B5
:104A2000822F6AE00E94342A8093D300822F0E9452
:104A3000342A9093D40080918F018F5F80938F01EF
:104A40001092910133C10E9426078153954794F437
:104A50000E94880E8431A9F0853128F4823151F00A
:104A60008331B1F50AC08032E1F0813251F18F31EA
:104A700079F50DC010928F01E6C0809190018F5F93
:104A800003C0809190018150809390011DC02091BE
:104A90009001822F65E00E94342A2B5F992369F4EC
:104AA0000DC020919001263078F0822F65E00E94A1
:104AB000342A992311F4255001C0291B2093900119
:104AC00003C082E080938F010E9435070E942E0769
:104AD00080919001813F18F080EF80939001809148
:104AE0009001882319F481E0809390012091900136
:104AF000243620F48CE08093D100BFC08CE08093FA
:104B0000D100C0C00E94880E823119F0813281F438
:104B100004C081E0809391010BC0809191018823B2
:104B200009F08AC00E943E0783E080938F01BEC0D7
:104B30000E94260788599A434CF080919001815039
:104B4000809390010E9435070E942E070E9426073D
:104B50006AEF70E00E94612A209191018E379105E1
:104B600074F48CE08093D10020FF13C0822F8F5FFC
:104B700080939101863068F0109291010AC08CE810
:104B80008093D100222329F020FD03C02F5F2093C2
:104B900091018091DC00813099F4109190011130E5
:104BA000D9F40E9426078A3F910514F482E012C0CE
:104BB0000E9426078B5A97434CF41093D0000CC0E8
:104BC000882351F480919001813019F41092D00023
:104BD00003C081E08093D00020919001263020F422
:104BE00086E080935B0102C010925B01243628F4BA
:104BF0008AE08093D200822F0AC0822F64E60E944E
:104C0000342A8093D200822F0E94342A892F6AE0AE
:104C10000E94342A8093D300822F0E94342A9093DA
:104C2000D40080919101882329F08091D40080687C
:104C30008093D4002223D1F510928F0110925B0152
:104C400081E08093D00020E030E032C00E94880EE6
:104C5000823111F0813239F482E080938F01109219
:104C60005B010E944F0786E080935B0187E18093A0
:104C7000D10020919001243628F48AE08093D2005C
:104C8000822F0AC0822F64E60E94342A8093D200C9
:104C9000822F0E94342A892F6AE00E94342A80934E
:104CA000D300822F0E94342A9093D40021E030E078
:104CB000C9011F9108951F9310910B021A3009F436
:104CC00031C11B30A8F4123009F46AC0133030F43B
:104CD000112321F1113009F08BC12AC0143009F4DD
:104CE000B8C0143008F48AC0153009F081C1DFC0A3
:104CF0001C3309F451C11D3338F4183209F440C192
:104D0000123309F075C142C1103509F465C11A3575
:104D100009F468C1163409F06BC158C10E94350707
:104D20000E942E0781E080930B0210925B0168C104
:104D30000E942607880F991F880F991F815197425B
:104D40002CF010920B0210936D0157C10E94880E37
:104D50008F3151F0803218F48231B9F449C1803278
:104D600029F0813291F40AC082E009C080916E017D
:104D7000882311F085E003C08AE001C088E28093B7
:104D80000B020E9435070E942E0785E08093D10018
:104D900086E18093D20080E18093D30087E1BFC099
:104DA0000E942607880F991F880F991F81519742EB
:104DB0000CF01EC10E94880E8F3151F0803218F421
:104DC000823189F415C1803229F0813261F404C046
:104DD00083E003C081E001C080E580930B020E9464
:104DE00035070E942E0784E18093D1008DE08093E7
:104DF000D20088E18093D3008AE091C00E94260708
:104E0000880F991F880F991F815197420CF0F0C0AD
:104E10000E94880E8F3151F0803218F4823189F46B
:104E2000E7C0803229F0813261F404C084E003C01D
:104E300082E001C082E380930B020E9435070E944A
:104E40002E0786E18093D10085E18093D20088E12E
:104E500093C00E942607880F991F880F991F8151C0
:104E600097420CF0C5C00E94880E8F3151F08032FD
:104E700018F4823189F4BCC0803229F0813261F4A7
:104E800004C085E003C083E001C08AE580930B0283
:104E90000E9435070E942E0785E08093D1008BE0A9
:104EA0008093D2008DE18093D3008FE038C00E94C0
:104EB0002607880F991F880F991F815197420CF080
:104EC00097C00E94880E8F3151F0803218F48231E1
:104ED000E9F48EC0803289F08132C1F410C00E94A2
:104EE00035070E942E0780916E01882311F081E022
:104EF00001C08AE080930B0209C084E001C086E40F
:104F000080930B020E9435070E942E0785E1809353
:104F1000D1008DE08093D2008093D3008EE1809306
:104F2000D4006EC00E942607880F991F880F991F12
:104F3000815197420CF05CC00E94880E8F3151F075
:104F4000803218F4823189F453C0803229F08132E2
:104F500061F404C081E003C085E001C08CE380936C
:104F60000B020E9435070E942E0788E18093D10032
:104F700080E18093D2008FE08093D30081E1CFCF96
:104F80000E94F324892BE1F581E00BC00E94A1234C
:104F9000892BB1F583E005C00E94911D882341F45F
:104FA0008AE080930B020E9435070E942E0728C0DA
:104FB000823031F510920B020E9435070E942E07B5
:104FC00081E080936D0122E030E01CC00E94621EEF
:104FD000892BB1F485E0E5CF0E949422892B81F4DE
:104FE00082E0DFCF0E94C31F892B51F484E0D9CF28
:104FF00010920B0281E080936D0120E030E002C04E
:1050000021E030E0C9011F91089590910C02983C75
:1050100010F080E00895E92FF0E0E25FFD4F80831B
:10502000E92FEF5FE0930C025D9B0DC090910D02A4
:10503000E91759F0E92FF0E0E25FFD4F80818CB96C
:105040009F5F90930D0281E0089510920D021092DF
:105050000C0281E0089590910D0280910C02891755
:1050600051F0E92FF0E0E25FFD4F80818CB99F5F46
:1050700090930D02089510920D0210920C02089563
:105080000895EF92FF920F931F9388E028E130E09C
:105090000FB6F894A89521BD0FBE81BD8BB78F7157
:1050A0008BBFE199FECF8AE090E09FBB8EBBE09A78
:1050B0008DB380936B0180916B01883018F082E092
:1050C00080936B01E199FECF8BE090E09FBB8EBB9C
:1050D000E09A8DB38093CE008091CE008B3F18F084
:1050E00088E28093CE00E199FECF8CE090E09FBBF8
:1050F0008EBBE09A8DB380935401809154018B3F15
:1051000010F010925401E199FECF8DE090E09FBB2A
:105110008EBBE09A8DB380939B01823010F0109289
:105120009B01E199FECF8EE090E09FBB8EBBE09AA1
:105130008DB380939C01883110F010929C01E1990D
:10514000FECF8FE090E09FBB8EBBE09A8DB3809343
:105150009D018C3310F010929D01E199FECF80E10A
:1051600090E09FBB8EBBE09A8DB38093CD008230E0
:1051700018F081E08093CD00E199FECF81E190E0CD
:105180009FBB8EBBE09A8DB380936E01823010F08E
:1051900010926E01E199FECF82E190E09FBB8EBB41
:1051A000E09A8DB380933A0180913A01882331F0DF
:1051B00080913A01803811F010923A010E94391C16
:1051C000789485B78F7885BF0E9427030E94790E57
:1051D0000E9477070E94850E0E94CE108BE294E019
:1051E0009BBD8ABD89B7806189BF1FBC89E08EBD28
:1051F00080E189B910BC82E08BB988ED8AB986E874
:1052000080BD10E0EE24E3940AE08AE8F82E01C0A5
:1052100011E0F8940E945C0E789485B7806885BF91
:10522000889585B78F7785BFF8940E945A07789440
:105230000E94BE070E941211113079F0113018F04F
:10524000123039F735C00E946413882311F780911A
:1052500029018823E9F212E0DCCF83B320913A01DF
:1052600090E08078907030E08217930719F40093F3
:10527000D10002C0F092D1000093D2000093D3007D
:10528000809138016AE00E94342A9093D400809182
:105290003B01882319F0F092D20002C00093D200A3
:1052A00080913801833009F412E0E0925B01B1CFC4
:1052B0000E94041D882309F0ACCF80916B018330DC
:1052C000D1F0843028F4813081F0823088F40AC033
:1052D0008530B9F0853090F08630B1F0873009F034
:1052E00098CF15C00E94BC1594CF0E944E1A91CF42
:1052F0000E9409148ECF0E948C188BCF0E947B16BF
:1053000088CF0E940A1885CF0E943D1582CF0E9447
:1053100075147FCF1F920F920FB60F9211242F9307
:105320003F934F935F936F937F938F939F93AF932D
:10533000BF93EF93FF930E942B28FF91EF91BF91B2
:10534000AF919F918F917F916F915F914F913F911D
:105350002F910F900FBE0F901F9018951F920F92D4
:105360000FB60F9211242F933F934F935F936F9338
:105370007F938F939F93AF93BF93EF93FF938CB1E2
:10538000853551F428E088E190E00FB6F894A895AF
:1053900081BD0FBE21BDFFCF0E944028FF91EF913C
:1053A000BF91AF919F918F917F916F915F914F913D
:1053B0003F912F910F900FBE0F901F9018951F9245
:1053C0000F920FB60F9211241F932F933F934F9379
:1053D0005F936F937F938F939F93AF93BF93EF935D
:1053E000FF930E947A0B182FA8950E940901812F24
:1053F0000E949304FF91EF91BF91AF919F918F9184
:105400007F916F915F914F913F912F911F910F90DD
:105410000FBE0F901F901895FB01DC0102C0059094
:105420000D9241505040D8F70895629FD001739F6C
:10543000F001829FE00DF11D649FE00DF11D929F30
:10544000F00D839FF00D749FF00D659FF00D99276F
:10545000729FB00DE11DF91F639FB00DE11DF91F93
:10546000BD01CF0111240895991B79E004C0991F53
:10547000961708F0961B881F7A95C9F780950895AE
:1054800087FB082E062687FD819567FD6195ECDF79
:105490000EF4919507FC81950895AA1BBB1B51E161
:1054A00007C0AA1FBB1FA617B70710F0A61BB70B94
:1054B000881F991F5A95A9F780959095BC01CD0139
:1054C000089597FB092E07260AD077FD04D0E5DF63
:1054D00006D000201AF4709561957F4F0895F6F775
:1054E000909581959F4F0895A1E21A2EAA1BBB1B90
:1054F000FD010DC0AA1FBB1FEE1FFF1FA217B307A0
:10550000E407F50720F0A21BB30BE40BF50B661FB5
:10551000771F881F991F1A9469F760957095809579
:1055200090959B01AC01BD01CF010895F894FFCF88
:10553000FFFFFFFFF80BFFC0A81F1D1F1E1F1E1F30
:105540001F1E1F1E1F1F1C1F1E1F1E1F1F1E1F1E74
:105550001F010101010106FFFFFFFF0E011027FFE0
:10556000FFFFFFFFFFFFFFFFFFFFFFFFEE28CD6DF7
:105570002B67E72CEF6F00C601C2E3E9E1C7408764
:10558000AF82C38FA46BA1814AABEAE000402060E8
:105590000848286804440101011F00010001280196
:1055A00001888888880101630063000101FF010010
:00000001FF
