:100000000C9459000C9476000C9476000C947600B5
:100010000C9476000C9476000C9476000C942032AC
:100020000C9476000C9476000C9411080C947600D5
:100030000C9476000C94EF310C9476000C94CB3138
:100040000C94BA0F0C9476000C9476000C947F03F9
:100050000C947600A505A805A805A805A805A8057F
:10006000A805B905C205C705C705C705C705C70562
:10007000D805E105E405E405E405E405E405030627
:10008000F505F50514060606060606060606250607
:100090001706170617061706170617061706280667
:1000A000070B100B10000000000107070D0D0000EA
:1000B000010011241FBECFE5D8E0DEBFCDBF10E0A8
:1000C000A0E6B0E0E8E9F5E602C005900D92A43E96
:1000D000B107D9F713E0A4EEB0E001C01D92A13D35
:1000E000B107E1F70E9448300C94CA320C9400002A
:1000F000AE98A6980895FC018091E400882361F1F0
:1001000080910201873049F48091030190910401AC
:100110008F7D90930401809303018091020180837D
:100120008091030190910401928381838091050164
:1001300090910601948383838091070185831092B7
:100140000601109205011092040110920301109211
:1001500007011092E40081E00895982F6091F0006B
:100160007091FA00671738F18091FB00681718F555
:1001700080910001292F30E0409108015091090140
:10018000882381F0862F90E0871B910902C0220FFF
:10019000331F8A95E2F7422B532B5093090140936A
:1001A000080133C0440F551F242B352B3093090110
:1001B000209308012AC07091FC00671730F18091EC
:1001C000FD00681710F580910001292F30E0409163
:1001D0000A0150910B01882381F0862F90E0871B44
:1001E000910902C0220F331F8A95E2F7422B532B4D
:1001F00050930B0140930A0108C0440F551F242B54
:10020000352B30930B0120930A016F5F6093F00050
:10021000089593B38091E400882309F015C2292F33
:1002200020748091EF00882381F59091EC002223C7
:1002300021F49F5F9093EC0007C29923B9F091E0FD
:100240009093EF009093ED001092EE0010920B014E
:1002500010920A0110920901109208018FEF809309
:10026000F0009093EB001092E700EEC18091E9005E
:100270009091EA002FEF8F3F920709F4E5C10196B4
:100280009093EA008093E900DFC18091ED0088231C
:1002900009F471C0222349F08091EB008F5F8093B5
:1002A000EB008A3E08F453C1BFC02091EC00822FBE
:1002B0008B50863018F08B508B30E8F49091EB0027
:1002C000892F8B50863018F08B508B30A0F460EA69
:1002D00070E09093E6002151203118F09151903157
:1002E00030F41092E50080E48093E70008C081E0DC
:1002F0008093E50004C01092EF0060E070E0809110
:10030000EF00882331F081EF90E041E150E00E945E
:100310004D321092F00080910101482F50E080FF93
:1003200022C08091F1008731F1F08930E1F0209115
:10033000EB008091F300821760F430E090E0880FCA
:10034000991F821793072CF056954795842F809517
:1003500007C08091E500882331F456954795842F96
:1003600081700E94AD0081E08093EC001092EB0060
:100370001092ED00ECC08091EE00882309F4DAC001
:10038000222309F458C05091F0006091FE005617E6
:10039000A9F48091FF00813089F48091010180FDF2
:1003A0000AC09091EC008091F6009817E8F18091D6
:1003B000F7008917C8F11092FF00C9C04091EB0007
:1003C0004F5F4093EB008091010180FF1AC0242F02
:1003D00030E08091F50090E0880F991F28173907C9
:1003E00084F0252F30E0862F90E0029728173907F8
:1003F00044F08091FF00882321F481E08093FF0086
:100400001AC04A3E08F4A3C0252F30E0862F90E0A2
:1004100001972817390741F48091FF00882321F4C0
:100420005F5F5093F00093C01092EF001092EC00C9
:100430001092EB008CC080910101282F30E0909148
:10044000EC0080FF45C08091F3008917C0F4369519
:100450002795822F809581700E94AD0080910101C7
:1004600090E09695879581700E94AD008091010182
:1004700090E09695879581708093E50024C08091E7
:10048000F2009817E0F02091E6008091F5008217C5
:1004900080F430E090E0880F991F821793074CF0AA
:1004A00090E08091E500882309F491E09093E500C5
:1004B00002C09091E500892F0E94AD0004C0109207
:1004C000EF001092EB008091EB008093E60015C0E6
:1004D0008091F2009817A0F08091F300891780F0C6
:1004E0002091EB008091F400281750F08091F500E6
:1004F000821730F081E00E94AD001092EE0018C02B
:100500008091F600981780F08091F700891760F0CD
:100510009091EB008091F800981730F08091F900ED
:10052000891710F080E0E7CF1092EF001092EB00F7
:1005300081E005C0222331F48091EC008F5F80932D
:10054000EC0005C081E08093EE008093EB00809189
:10055000EF00882309F478C09091F0008091FE00AC
:10056000981709F071C08091FF00882309F06CC0D2
:10057000609160007091610020910A0130910B013F
:100580006217730769F48091E9009091EA00805B3B
:10059000944030F48091E8008F5F8093E80002C0BF
:1005A0001092E80081E08093E4008091F100809354
:1005B00002014091080150910901509304014093B8
:1005C0000301873049F48091E70090E0822B932B60
:1005D00090930B0180930A0120910A0130910B0145
:1005E00030930601209305018091E400882311F1E6
:1005F0006217730799F480916200909163008417E9
:10060000950761F48091E9009091EA008A5C984036
:1006100028F4809107018160809307015093630063
:100620004093620030936100209360001092EA00D2
:100630001092E9001092EF0010920B0110920A0143
:100640001092EC001092EB008091E400089580E19C
:1006500080B98FEF83B984E086BF089516BE0895F0
:1006600086B78170089506B600FCFDCF80916400C6
:100670000895FC0106B600FCFDCF60932C0180813B
:1006800080930E0180FD0DC04E2FAFE0B1E0CF0191
:10069000FC0102C080818D9331968E2F841B8617BA
:1006A000C8F310920C0188EF8093640085EA86BF3E
:1006B000089506B600FCFDCF10920C0188EF8093E0
:1006C000640085EA86BF0895AC0106B600FCFDCF44
:1006D00080910C0180FF0FC020E030E00AC0FA01D9
:1006E000E20FF31FD901A25FBE4F8C9180832F5F71
:1006F0003F4F2617A0F380910C01817008951F923F
:100700000F920FB60F9211242F933F938F939F93C5
:10071000EF93FF9381B18832C9F0893240F4803180
:1007200099F0883199F0883009F049C00DC08034C3
:1007300041F1813420F4883309F041C03EC0803556
:10074000A9F08835E1F52BC010920D0190910D01B3
:1007500080912C01981750F5E92FF0E0E25FFE4FF1
:10076000808183B99F5F90930D0117C080910D0127
:1007700093B1E82FF0E0E25FFE4F90838F5F8093AC
:100780000D0120910D0130E080912C0190E0019746
:100790002817390714F485EC16C085E814C083B116
:1007A000E0910D01F0E0E25FFE4F808380910C014B
:1007B000816080930C0184E906C085EA04C081B1A0
:1007C0008093640084E086BFFF91EF919F918F91A9
:1007D0003F912F910F900FBE0F901F901895EF92A1
:1007E000FF920F931F9383B320913B0140918E00A2
:1007F00050918F0090E030E082279327880F892F57
:10080000881F990B91959C01249FC001259F900DF5
:10081000349F900D11247C0100E010E0809145018F
:10082000E114F1040105110549F4813079F41092C5
:100830004401109243011092450111C0882321F414
:1008400081E0809345010BC0813049F080914301E4
:1008500090914401019690934401809343016091EB
:100860003D0170913E0180913F019091400127E44C
:1008700030E040E050E00E945632E60EF71E081FBE
:10088000191FC801B70128E430E040E050E00E94A1
:10089000A832C901DA0180933D0190933E01A093F3
:1008A0003F01B0934001E091520120913D01309110
:1008B0003E0140913F015091400180918E00909106
:1008C0008F0070E0E11171E060E096958795A0E0FF
:1008D000B0E0281739074A075B0708F061E0761790
:1008E000C9F081E08E1B80935201882329F480E0B7
:1008F00090E0A0E0B0E006C080918E0090918F0063
:10090000A0E0B0E080933D0190933E01A0933F01B1
:10091000B09340018091520180933C011F910F914F
:10092000FF90EF900895AF92BF92CF92DF92FF9227
:100930000F931F93CF93DF93182F80913A018F5F0E
:1009400080933A0180913A018F3009F07AC21130D8
:1009500009F077C210923A010E94EF0380913C01A6
:1009600020914E0130914F018823E1F4232B49F06F
:1009700010924B0110924A0110924F0110924E01B9
:1009800089C080914A0190914B012BE0893B9207ED
:1009900008F072C010933901019690934B01809337
:1009A0004A0178C0232B09F05FC080914A019091E1
:1009B0004B01855A96408B52914090F580914301AE
:1009C00090914401895E934058F1809146018330B3
:1009D000F9F480919000809331018091910080938F
:1009E00030018091940080938100809193008093E6
:1009F0008300809192008093820080919500809383
:100A0000330110923201809134018160809334016E
:100A1000109249011092480181E0809346010CC078
:100A2000809146018330A9F4109249011092480147
:100A300010924601109239018FEF809390008093BD
:100A4000910080939500809393008093920080930F
:100A5000940010924D0110924C0181E090E090932F
:100A60004F0180934E0116C080914C0190914D0131
:100A700021E08D32920738F0109246011092390130
:100A80001092500107C010933901019690934D01C7
:100A900080934C0180914801909149010196909377
:100AA000490180934801885E934021F410924901E6
:100AB0001092480190914601923069F0933009F408
:100AC000BDC1913009F0C6C11092470182E0809308
:100AD00046019093390182E0809339018091480169
:100AE00090914901845F914009F0B4C100914701A0
:100AF000802F8551863208F08BC120914C013091B6
:100B00004D01C901CC978135910510F420E00DC04D
:100B1000205A30402135310508F07AC180915101C9
:100B200091E089278093510121E0802F90E0FC0122
:100B30007597E632F10508F06BC1E65DFF4FEE0FE9
:100B4000FF1F0590F491E02D0994209390001CC0A4
:100B5000822F90E0202F30E02551304002C0880FD6
:100B6000991F2A95E2F720919000282B209390005E
:100B70004FC180915101882309F44AC18FEF8093BE
:100B8000900046C1209391002093510141C1822FD2
:100B900090E0202F30E02D51304002C0880F991F87
:100BA0002A95E2F720919100282B2093910030C1E3
:100BB00080915101882309F42BC18FEF809391001C
:100BC00027C120939400E0CF822F90E0202F30E0C7
:100BD0002452304002C0880F991F2A95E2F72091D5
:100BE0009400282B2093940013C1822F90E0202F93
:100BF00030E02A52304002C0880F991F2A95E2F750
:100C000020919300282B2093930002C1822F90E023
:100C1000202F30E02D52304002C0880F991F2A95B6
:100C2000E2F720919200282B20939200F1C0822FAE
:100C300090E0202F30E02253304002C0880F991FEF
:100C40002A95E2F720919500282B20939500E0C08B
:100C500080915101882349F08FEF80939400809315
:100C60009300809392008093950040919000842F90
:100C700082958F709AE0890250011124842F8F7021
:100C8000B501680F711D6C33710508F0A6C0E091C5
:100C900091008E2F82958F708902600111248E2F12
:100CA0008F70E601C80FD11DC831D1050CF095C079
:100CB000F09094008F2D82958F70890290011124FD
:100CC0008F2D8F70280F311D2115310509F485C036
:100CD000203231050CF081C010919200812F829555
:100CE0008F70890290011124812F8F70280F311D80
:100CF0002115310509F471C02D3031050CF06DC09E
:100D0000F09195008F2F82958F708902C001112478
:100D10002F2F2F70820F911D843691050CF05DC02E
:100D20003091930013160CF058C038300CF055C0B9
:100D300080919900381709F03FC080919A00F81609
:100D4000D9F5809198001817B9F580919B00F81794
:100D500099F520919600822F992787FD909501960D
:100D60006817790741F480919700992787FD90953E
:100D7000C817D90789F04423E9F42B33D9F48091BB
:100D80009700992787FD9095019668E170E00E9491
:100D90009532C817D90771F4809150018F5F809305
:100DA0005001882349F081E08093500183E08093D3
:100DB000460102C0109250014F704A0D40939600B8
:100DC000EF70EC0DE093970030939900F0929A0049
:100DD00010939800F0939B001BC08FEF80939000BE
:100DE000809391008093950080939300809392006C
:100DF0008093940010925001809396008093970006
:100E000080939B00809399008093980080939A0030
:100E1000802F8F5F809347018C33E1F4109247015C
:100E20008FEF809390008093910080939500809342
:100E3000930080939200809394000CC090933901AA
:100E400009C080913A018F3029F480913A01815094
:100E500080933A01DF91CF911F910F91FF90DF9026
:100E6000CF90BF90AF900895F89420918800309172
:100E700089007894C9010895F8941092890010921D
:100E8000880078940895F8948FEF9FEF90938900ED
:100E90008093880078940895F894809188009091C8
:100EA000890090938B0080938A008FEF9FEF90933F
:100EB00089008093880078940895F89480918A003E
:100EC00090918B0090938900809388007894089586
:100ED0008091370180937D038091360180937A035E
:100EE0008091350180937C038091840080937B0303
:100EF00080918500809379038091380180938C00E4
:100F00008091860080938D000895A79889EF8CBF0B
:100F10008CE083BF89B7826089BF80917303882387
:100F200011F00E94972B0895809184006AE00E943E
:100F30007532805D0E945529809184006AE00E948C
:100F40007532892F805D0E945529809185006AE065
:100F50000E947532805D0E945529809185006AE06B
:100F60000E947532892F805D0E9455298091380139
:100F70006AE00E947532805D0E9455298091380197
:100F80006AE00E947532892F805D0E945529809108
:100F900086006AE00E947532892F805D0E94552983
:100FA000809135016AE00E947532805D0E9455296A
:100FB000809135016AE00E947532892F805D0E9420
:100FC0005529809136016AE00E947532805D0E9449
:100FD0005529809136016AE00E947532892F805D23
:100FE0000E945529809137016AE00E947532805D28
:100FF0000E945529809137016AE00E947532892F3D
:10100000805D0E9455298DE20E94552980918700BC
:101010000E9455298DE00E9455298AE00E94552999
:1010200008951F920F920FB60F9211242F933F93A2
:101030004F935F936F937F938F939F93AF93BF93E0
:10104000EF93FF938091340180FF7CC010923401B4
:1010500010926800109267008091410190914201C6
:1010600090932F0180932E012091320180913201C3
:1010700082958F703AE0839FC00111242F70280F52
:1010800020933701209131018091310182958F7039
:10109000839FC00111242F70280F209336012091C7
:1010A00030018091300182958F70839FC00111249F
:1010B0002F70280F209335012091830080918300A9
:1010C00082958F70839FC00111242F70280F209369
:1010D0008600209181008091810082958F70839F8E
:1010E000C00111242F70280F2093840020918200CA
:1010F0008091820082958F70839FC00111242F7090
:10110000280F20938500209133018091330182952F
:101110008F70839FC00111242F70280F20933801F6
:1011200080916A01816080936A01809173038823B2
:1011300011F00E94B02B10924201109241010E94C6
:10114000940709C0809141019091420101969093CA
:10115000420180934101809188009091890097FD20
:1011600009C0809188009091890001969093890030
:101170008093880080914101909142018A3F9105BE
:1011800009F0AEC0109242011092410180916700B7
:1011900090916800805C984AA8F4809167009091D3
:1011A00068000196909368008093670080916700C3
:1011B00090916800805C984A29F480916A0181606E
:1011C00080936A0180912D018F5F80932D01909112
:1011D0002D0180916500981789F410922D012091BE
:1011E00041013091420180916600992787FD9095D9
:1011F000820F931F909342018093410180913701A8
:101200008F5F80933701809137018C3308F45CC085
:1012100010923701809136018F5F80933601809163
:1012200036018C3308F45AC0109236018091350192
:101230008F5F8093350180913501883108F44EC06D
:1012400010923501809184008F5F8093840080919B
:1012500086008F5F8093860080918600883018F02A
:1012600081E0809386008091380190E083709070D7
:10127000892B39F4E0918500F0E0E859FF4FE081D7
:1012800006C0E0918500F0E0E759FF4FE3858091CB
:101290008400E81718F591E0909384008091850010
:1012A0008F5F80938500809185008D30B8F090939A
:1012B00085008091380190E0019664E670E00E941C
:1012C0009532809338010AC0809137018E3131F414
:1012D00080917303882311F00E94972B0E9494073A
:1012E000FF91EF91BF91AF919F918F917F916F91FE
:1012F0005F914F913F912F910F900FBE0F901F90D4
:1013000018958091CD008111609568BB08959091EA
:10131000CD00482F50E0992371F422B34D5F5F4F09
:1013200081E090E002C0880F991F4A95E2F780950E
:10133000822382BB089522B34D5F5F4F81E090E02E
:1013400002C0880F991F4A95E2F7282B22BB089507
:101350008091CD00882319F482B3886702C082B3DC
:10136000877882BB08958091D600813009F442C00D
:10137000813020F0823009F044C03EC080915D0190
:1013800090915E01019690935E0180935D012FE044
:10139000813A920759F12FE0823A920798F421E0BE
:1013A000843F920729F121E0853F920718F40197C5
:1013B00041F51CC027E0813D9207C1F0845C994053
:1013C00001F516C027E18137920781F027E18237C6
:1013D000920720F484599141A1F40AC029E184368E
:1013E000920731F088599A4361F407C0AA9A09C05C
:1013F000AA9807C0AA9801C0AA9A10925E011092FA
:101400005D0180915601833009F423C2843038F4A1
:10141000813009F482C0823008F00AC10AC08530E8
:1014200009F482C1853008F420C2863009F046C331
:10143000A8C29091CD00992319F482B3886702C0A5
:1014400082B3877882BB979880915301843008F0EB
:101450005AC0E0915301F0E0E753FF4F808187FFCE
:1014600010C080915301E0915301F0E0E753FF4F2A
:10147000E081F0E0EF73F070E456FF4FE081E0614F
:101480000EC080915301E0915301F0E0E753FF4F0C
:10149000E081F0E0EF73F070E456FF4FE0819111CE
:1014A000E095E8BB80915301482F50E0992371F4F7
:1014B00022B34D5F5F4F81E090E002C0880F991F1B
:1014C0004A95E2F78095822382BB0CC022B34D5F20
:1014D0005F4F81E090E002C0880F991F4A95E2F7C4
:1014E000282B22BB80915301882329F48091D500B9
:1014F000882309F4979A809153018F5F8093530159
:10150000809155017BC0809154018F5F809354017D
:10151000909154018091550183C09091CD00992301
:1015200019F482B3886702C082B3877882BB979828
:1015300080915301843008F06AC0E0915301F0E0DB
:10154000E753FF4F808187FF10C080915301E091E6
:101550005301F0E0E753FF4FE081F0E0EF73F070EC
:10156000E456FF4FE081E0610EC080915301E091AD
:101570005301F0E0E753FF4FE081F0E0EF73F070CC
:10158000E456FF4FE0819111E095E8BB8091CE00D9
:101590008A3F00F580915301482F50E0992371F460
:1015A00022B34D5F5F4F81E090E002C0880F991F2A
:1015B0004A95E2F78095822382BB0CC022B34D5F2F
:1015C0005F4F81E090E002C0880F991F4A95E2F7D3
:1015D000282B22BB80915301882349F48091D500A8
:1015E000882329F48091CE008A3F08F4979A80914D
:1015F00053018F5F809353018091CE00882309F0BF
:101600005DC280915301843009F058C20CC08091B2
:1016100054018F5F80935401909154018091CE00CA
:10162000891708F04DC2109253011092540144C220
:1016300080915701909158018331910508F403C1BD
:101640009091CD00992319F482B3886702C082B3C8
:10165000877882BB979880915301843009F45AC0EF
:10166000E0915301F0E0E753FF4F808187FF10C006
:1016700080915301E0915301F0E0E753FF4FE08187
:10168000F0E0EF73F070E456FF4FE081E0610EC0D0
:1016900080915301E0915301F0E0E753FF4FE08167
:1016A000F0E0EF73F070E456FF4FE0819111E095A8
:1016B000E8BB80915301482F50E0992371F422B385
:1016C0004D5F5F4F81E090E002C0880F991F4A95FF
:1016D000E2F78095822382BB0CC022B34D5F5F4F3F
:1016E00081E090E002C0880F991F4A95E2F7282B0D
:1016F00022BB80915301882329F48091D50088234F
:1017000009F4979A809153018F5F809353018091E0
:1017100055017BC0809154018F5F8093540190915B
:1017200054018091550181C08091570190915801D9
:101730008331910508F487C09091CD00992319F465
:1017400082B3886702C082B3877882BB9798809102
:101750005301843009F460C0E0915301F0E0E75395
:10176000FF4F808187FF10C080915301E0915301AA
:10177000F0E0E753FF4FE081F0E0EF73F070E456E4
:10178000FF4FE081E0610EC080915301E091530171
:10179000F0E0E753FF4FE081F0E0EF73F070E456C4
:1017A000FF4FE0819111E095E8BB80915301482FF4
:1017B00050E0992371F422B34D5F5F4F81E090E0D8
:1017C00002C0880F991F4A95E2F78095822382BB59
:1017D0000CC022B34D5F5F4F81E090E002C0880FE4
:1017E000991F4A95E2F7282B22BB80915301882349
:1017F00029F48091D500882309F4979A80915301A8
:101800008F5F809353018091CE008823B1F4809143
:101810005301843091F40BC0809154018F5F809309
:101820005401909154018091CE00891720F41092B8
:1018300053011092540181E001C080E010925801E0
:101840001092570108950196909358018093570183
:1018500035C18091CD00882319F482B3886702C016
:1018600082B3877882BB979829C1609157017091A4
:1018700058019091CD0087E0603D780708F069C07D
:10188000992319F482B3886702C082B3877882BB38
:10189000979880915301843009F458C0E091530126
:1018A000F0E0E753FF4F808187FF10C08091530124
:1018B000E0915301F0E0E753FF4FE081F0E0EF7378
:1018C000F070E456FF4FE081E0610EC0809153015B
:1018D000E0915301F0E0E753FF4FE081F0E0EF7358
:1018E000F070E456FF4FE0819111E095E8BB8091E4
:1018F0005301482F50E0992371F422B34D5F5F4F9D
:1019000081E090E002C0880F991F4A95E2F7809528
:10191000822382BB0CC022B34D5F5F4F81E090E019
:1019200002C0880F991F4A95E2F7282B22BB8091AD
:101930005301882329F48091D500882309F4979ACC
:10194000809153018F5F809353010CC0109253011B
:1019500009C0992319F482B3886702C082B38778DB
:1019600082BB9798CB0101969093580180935701C1
:101970008958934108F4A4C010925801109257015D
:101980009BC09091CD00992319F482B3886702C05F
:1019900082B3877882BB979880915301843008F096
:1019A00058C0E0915301F0E0E753FF4F808187FF7B
:1019B00010C080915301E0915301F0E0E753FF4FD5
:1019C000E081F0E0EF73F070E456FF4FE081E061FA
:1019D0000EC080915301E0915301F0E0E753FF4FB7
:1019E000E081F0E0EF73F070E456FF4FE081911179
:1019F000E095E8BB80915301482F50E0992371F4A2
:101A000022B34D5F5F4F81E090E002C0880F991FC5
:101A10004A95E2F78095822382BB0CC022B34D5FCA
:101A20005F4F81E090E002C0880F991F4A95E2F76E
:101A3000282B22BB80915301882329F48091D50063
:101A4000882309F4979A809153018F5F8093530103
:101A500035C0809154018F5F80935401809154016F
:101A600090915901981720F410925301109254014B
:101A700080915B018F5F80935B01823308F110924C
:101A80005B0180915A01882319F08130C9F40AC0A2
:101A9000892F8F5F80935901803590F081E080938A
:101AA0005A010895892F815080935901882341F468
:101AB00010925B0110925A0181E0089580E0089530
:101AC00081E008958091D1008093C9008091D20077
:101AD0008093CA008091D3008093CB008091D40082
:101AE0008093CC0080915C01809356018091CF005F
:101AF0008093D5008091D0008093D600089588E728
:101B000081BB82BB8F9A9798AA98A29A87B38FEFCE
:101B100087BB88BB0895A698AE9A0895DF93CF93AC
:101B200000D000D000D0CDB7DEB71D821C821E824F
:101B30001982CE0101960E947B00882391F18E814B
:101B400080FD2FC08981823031F48C819D8182316A
:101B5000910549F41EC0873021F58C819D818C3020
:101B6000910529F416C08E31910529F414C08032F4
:101B7000910529F410C08330910529F40EC08132FB
:101B8000910521F40AC0019761F409C00D9749F449
:101B900006C082E107C08FE105C080E203C081E298
:101BA00001C08FEF26960FB6F894DEBF0FBECDBFF3
:101BB000CF91DF910895CF92DF92EF92FF920F9332
:101BC0001F93CF93DF93182FD62EEA01F22E809128
:101BD0005F01813039F1813038F0823009F44DC035
:101BE000833009F012C101C11092620110926101AB
:101BF000109260018FEF8093D700109264011092D1
:101C000063010E9443070E943C0781E080935F01CB
:101C1000F092D1000093D200E092D300C092D400A1
:101C200010925C010E943407880F991F880F991F3A
:101C30008D5D95400CF4E9C082E080935F018AE0FD
:101C40008093D1008093D2008093D3008093D400FE
:101C500080E023E030E092E107C0F901E81BF109E0
:101C6000EF52FF4F90838F5F8117B8F3109260019E
:101C70000E9443070E943C07C8C00E943407880F97
:101C8000991F880F991FC817D90738F40E94430776
:101C900010925F0122E030E0BAC00E948E0D8F31B9
:101CA00089F0803220F4823109F071C006C08032A0
:101CB00099F0813209F06BC02AC010925F0120E0D8
:101CC00030E0A5C08091D70087FD0AC08F5F809368
:101CD000D7008A3084F004C08091D70087FF03C00A
:101CE0001092D70008C081508093D7008F3F19F41D
:101CF00089E08093D700E0916001F0E03496E11B29
:101D0000F109EF52FF4F8091D70080833CC0409192
:101D1000D70047FD38C0E0916001812F90E0DD20C1
:101D200041F0F0E0E81BF90BEB52FF4F8CE08083B1
:101D300006C0F0E0E81BF90BEB52FF4F40836091C7
:101D400060016F5F60936001552747FD509580915A
:101D50006101909162019C01E3E0220F331FEA953B
:101D6000E1F7880F991F280F391F420F531F509317
:101D70006201409361018FEF8093D700611719F4DE
:101D800083E080935F010E9443070E943C070E940A
:101D90003407880F991F880F991F64EF71E00E9424
:101DA00095328B3F910554F0E0916001F0E034965C
:101DB000E11BF109EF52FF4F8AE00EC02091D700DE
:101DC000E0916001812F90E02F3F41F4F0E0E81BAB
:101DD000F90BEB52FF4F82E1808317C0F0E0E81B64
:101DE000F90BEB52FF4F208310C00E943407880F7D
:101DF000991F880F991F855F91403CF00E9443070F
:101E000010925F0125E030E002C021E030E0C9011E
:101E1000DF91CF911F910F91FF90EF90DF90CF90C6
:101E20000895CF92EF920F9384E061E048E95AE37E
:101E30002BE000E19FE0E92EB1E1CB2E0E94DB0D0B
:101E40008230910529F08530910529F0892B41F4E4
:101E500020E030E009C0209161013091620104C0AE
:101E600010925C0121E030E0C9010F91EF90CF901A
:101E70000895EF92FF920F931F93CF93DF93EC019E
:101E8000E62EF42E890180916501882321F08130AE
:101E900009F068C008C00E9443070E943C0781E027
:101EA0008093650160C00E9434070817190720F469
:101EB0001092650183E057C00E948E0D8F3181F032
:101EC000803220F4823109F04DC006C0803211F119
:101ED000813209F047C03EC01092650180E043C0E6
:101EE0000E94340728818536910524F02F1580F44F
:101EF0002F5F29C02F1560F4822F65E00E94753294
:101F0000822F8B5F9111891B88838881F816E0F4FA
:101F1000E8821AC00E94340728818536910524F092
:101F2000E21620F421500FC0E21610F0F8820CC027
:101F3000263050F0822F65E00E947532992311F40B
:101F4000255001C0291B28830E9443070E943C079B
:101F500082E009C00E9443070E943C07109265017D
:101F600084E001C081E0DF91CF911F910F91FF903C
:101F7000EF9008951F920F920FB60F9211242F9396
:101F80003F934F938F939F9387B190E087709070AA
:101F90008330910589F1843091054CF481309105AD
:101FA00011F1823091051CF5892B69F036C085301E
:101FB000910551F1853091051CF18630910541F173
:101FC000079759F529C087B1867F816087B924B109
:101FD00044B1942F80E030E0822B932B90936701E3
:101FE000809366011AC087B1857F826003C087B184
:101FF000847F836087B911C087B1837F8460FACF03
:1020000087B1827F8560F6CF87B1817F8660F2CF0E
:1020100087B1807F8760EECF3B98369A9F918F91F2
:102020004F913F912F910F900FBE0F901F901895D9
:1020300080E487B98FE986B9369A08958091D800EF
:10204000882371F180917303882341F480916700A4
:102050009091680080519E4040F413C080916700C9
:1020600090916800805C984A60F0809139018823E3
:1020700061F080913C01882341F08091D20080681A
:1020800007C080916801863031F48091D2008F774B
:102090008093D20008958091D20080688093D2000E
:1020A000089581E08093CF0020917B03822F6AE026
:1020B0000E9475328093D100822F0E947532906801
:1020C0009093D20020917903822F0E9475328093E1
:1020D000D300822F0E94753290689093D4001092A2
:1020E000D800089591E09093CF0090918D008823BF
:1020F000E1F09430B1F0953028F4923059F09330FB
:1021000058F41BC09630C9F1963090F1973009F021
:102110003FC009C08FE001C088E18093D10085E114
:1021200035C08FE015C085E013C09430E1F09530E4
:1021300038F4923089F0933088F4913049F507C033
:102140009630D9F09630A0F0973011F51BC088E199
:102150008093D10080E11AC086E115C08CE18093A4
:10216000D10081E113C086E18093D1008DE10EC0E2
:1021700083E18093D1008BE109C085E08093D10099
:1021800084E104C085E08093D1008EE18093D20089
:1021900020918C00822F6AE00E9475328093D300D8
:1021A000822F0E9475329093D4001092D800089527
:1021B0001092CF0020917C03822F6AE00E9475323A
:1021C0008093D100822F0E9475329093D20020918B
:1021D0007A03822F0E9475328093D300822F0E944F
:1021E00075329093D40081E08093D80008951F93B6
:1021F000109188011130B9F0113018F01230E1F56A
:1022000027C08FE18093D1001092D20081E08093AB
:10221000D3008093D4000E9443070E943C07809122
:1022200088018F5F12C00E943407880F991F880FA2
:10223000991F855C994004F10E9443070E943C0766
:1022400010936A0110935C0182E08093880114C0AE
:102250000E943407880F991F880F991F855C994049
:102260005CF00E94430781E080936A01109288012C
:1022700010925C0180E05FC00E948E0D803241F1BF
:10228000813221F0823109F03BC011C08091CD0034
:10229000882321F481E08093CD0002C01092CD000C
:1022A0002091CD00E199FECF80E190E021C08091A6
:1022B0006B01882321F481E080936B0102C01092AE
:1022C0006B0120916B01E199FECF81E190E010C09C
:1022D00080913B01882321F480E880933B0102C078
:1022E00010923B0120913B01E199FECF82E190E009
:1022F0009FBB8EBB2DBB0FB6F894E29AE19A0FBE3E
:1023000080916B01882321F48091D4008F7703C0E2
:102310008091D40080688093D40080913B01882311
:1023200021F48091D1008F7703C08091D100806823
:102330008093D10081E01F9108950F931F9301E0D6
:102340000093D90010917201113009F459C0113075
:1023500020F0123009F079C06AC030917D0380917D
:102360006901831721F480916A01882331F1109269
:102370005C0181E08093CF0010926A0120917C0380
:10238000822F6AE00E947532805E8093D100822F96
:102390000E947532905E9093D20020917A03822F32
:1023A0000E947532805E8093D300822F0E94753226
:1023B000905E9093D4003093690111E01093D8009F
:1023C0000E941E1080917C0387508D3010F0109376
:1023D0005C010E9451218823C1F50E948E0D82313B
:1023E00041F0813291F581E0809372011092D80022
:1023F0002CC080917603882341F10E94C72A25C012
:102400000E94110F9093740180937301009729F437
:102410001092720110936A0118C081309105A9F0E1
:102420008A51954091F482E0809372010EC00E941F
:1024300015269093740180937301009711F0029711
:1024400021F41092720100936A011F910F91089577
:10245000DF93CF9300D0CDB7DEB78091740388238C
:1024600071F11A821982CE0101960E94822B882373
:1024700079F129813A81C90164E670E00E948132D4
:10248000462F6093D100C90164E670E00E9481325A
:102490006AE070E00E94813260686093D200C901F6
:1024A0006AE070E00E9481328093D3008BE08093D9
:1024B000D400442369F48AE08093D10009C08CE001
:1024C0008093D1008093D2008093D3008093D40076
:1024D0000F900F90CF91DF9108950F931F9301E01C
:1024E0000093D90010918501113009F443C01130D7
:1024F00020F0123009F063C054C090917D038091A8
:102500006901891721F480916A018823C1F0109232
:102510006A0181E08093CF00892F6AE00E947532C2
:10252000992329F40E9428121092D80002C00E9418
:10253000D81010925C0180917D03809369010E9404
:102540001E100E9451218823D1F50E948E0D8231E8
:1025500051F08132A1F581E0809385018093CF0015
:102560001092D8002CC080917603882341F10E94FC
:10257000C72A25C00E94110F90938701809386017E
:10258000009729F41092850110936A0118C08130D8
:102590009105A9F08A51954091F482E080938501DC
:1025A0000EC00E94152690938701809386010097A4
:1025B00011F0029721F41092850100936A011F9196
:1025C0000F9108950F931F9301E00093D90010918C
:1025D0007E01123309F493C0133348F4113009F427
:1025E0006CC01130A0F0123009F0C1C07DC01C33A6
:1025F00009F490C01D3320F4133309F0B8C087C02C
:102600001D3309F48DC01E3309F0B1C09FC09091F5
:10261000690180917D03981721F480916A018823D4
:10262000D1F0F89480917C0388508E3020F081E0C6
:1026300080935C0102C010925C010E94D81081E07E
:102640008093CF00789410926A018093D800809193
:102650007D03809369010E941E100E9451218823EE
:1026600009F085C00E948E0D8F31A1F0803220F4D8
:10267000823109F07CC019C0803271F0813209F0DA
:1026800076C082E080937E011092D80081E0809332
:10269000CF006DC082E301C08CE380937E0181E0B6
:1026A0008093CF001092D80062C080917603882377
:1026B00009F45DC00E94C72A5AC00E94110F90936E
:1026C000800180937F01009729F410927E0110937E
:1026D0006A014DC08130910509F449C08A51954085
:1026E00009F045C082E010C00E9415269093800139
:1026F00080937F010097B9F10297C9F534C00E9419
:102700003C070E94281283E380937E0130C00E9420
:1027100028121CC00E943C070E9451108DE3F4CF88
:102720000E943407880F991F880F991F815D974079
:10273000F4F00E9443070E943C0700936A018EE375
:1027400080937E0180E00E94721011C00E943407C5
:10275000880F991F880F991F815D974044F00E9450
:10276000430700936A0110927E0100936A011F9152
:102770000F9108951F931092D90010917B01113091
:1027800009F457C0113020F0123009F078C068C049
:1027900020917D0380916901821721F480916A0163
:1027A000882361F1F89491E09093CF0080917C03AD
:1027B00088508E3018F090935C0102C010925C013A
:1027C000822F64E10E9475329A3018F40E94D8106A
:1027D0000EC0892F8A50853018F40E94511007C00E
:1027E0009F50963020F40E9428121092D8007894BE
:1027F00010926A0180917D03809369010E941E10EE
:102800000E9451218823D9F50E948E0D823151F00A
:102810008132A9F581E080937B011092D8008093EA
:10282000CF002DC080917603882349F10E94C72AEA
:1028300026C00E94110F90937D0180937C01009728
:1028400029F410927B0110936A0119C0813091051F
:10285000B1F08A51954099F482E080937B010FC0DA
:102860000E94152690937D0180937C01009711F0C2
:10287000029729F410927B0181E080936A011F91F5
:1028800008950F931F9301E00093D90010917801F0
:10289000123309F48AC0133348F4113009F463C0C9
:1028A0001130A0F0123009F0B8C074C01C3309F424
:1028B00085C01D3320F4133309F0AFC07CC01D3335
:1028C00009F484C01E3309F0A8C096C09091690134
:1028D00080917D03981721F480916A018823C1F0CB
:1028E0000E94D81091E090935C0180918D00863019
:1028F00048F480917A03882319F410925C0102C095
:1029000090935C0110926A0180917D03809369012C
:102910000E945121882309F080C00E948E0D8F31C2
:1029200079F0803220F4823109F077C014C080320F
:1029300081F0813209F071C081E08093780104C098
:1029400082E38093780181E08093CF001092D800D9
:1029500064C08CE3F6CF80917603882309F45DC0D0
:102960000E94C72A5AC00E94110F90937A01809347
:102970007901009729F41092780110936A014DC0F3
:102980008130910509F449C08A51954009F045C04C
:1029900082E019C00E94152690937A0180937901F4
:1029A0000097B9F10297C9F534C00E943C070E9414
:1029B000281283E308C00E9428121EC00E943C0710
:1029C0000E9451108DE38093780127C00E94340744
:1029D000880F991F880F991F815D9740F4F00E941E
:1029E00043070E943C0700936A018EE380937801BD
:1029F00081E00E94721011C00E943407880F991F55
:102A0000880F991F815D974044F00E94430700930F
:102A10006A011092780100936A011F910F91089545
:102A20000F931F9301E00093D900109175011233A9
:102A300009F45AC1133348F4113009F433C1113089
:102A4000A0F0123009F088C144C11C3309F455C10B
:102A50001D3320F4133309F07FC14CC11D3309F439
:102A600054C11E3309F078C166C19091690180910B
:102A70007D03981729F480916A01882309F4DDC049
:102A800010925C0181E08093CF0090917C038CE3F5
:102A9000989FA001112480917A03480F511D9091B5
:102AA0008D00892F8150843060F5CA01845A91408D
:102AB0008837910578F1CA018C519240449748F4C7
:102AC00087E18093D1008CE08093D20020E332E054
:102AD0004EC0CA0180539240803A9105A8F1CA01C4
:102AE000805D92408897D8F1CA01885F92408C3807
:102AF000910508F071C08CE08093D10024E833E0A8
:102B00004CC0953009F068C0CA01845A914088379A
:102B1000910530F48CE08093D1002CE132E03DC08F
:102B2000CA018C519240449748F487E18093D100C8
:102B30008CE08093D20029E432E019C0CA018053AE
:102B40009240803A910530F48CE08093D10020EDE2
:102B500032E023C0CA01805D9240889798F487E1F3
:102B60008093D1008CE08093D20028EF32E0241BC8
:102B7000350BC9016AE070E00E9481326093D30096
:102B8000C90121C0CA01885F92408134910520F5B6
:102B90008CE08093D10029E333E0241B350BC9017D
:102BA00064E670E00E9481326093D200C90164E65D
:102BB00070E00E9481329C016AE070E00E948132E4
:102BC0006093D300C9016AE070E00E948132809373
:102BD000D4001092D80004C00E94D81010925C015A
:102BE00010926A0120917D03822F6FE00E9475325E
:102BF0009923D1F030E0C90101966FE070E00E94A6
:102C00009532892B89F0C90102966FE070E00E942D
:102C10009532892B71F0C90103966FE070E00E9434
:102C20009532892B31F003C00E94511002C00E94DE
:102C3000D81080917D03809369010E941E108091BD
:102C40007C0386508D3018F081E080935C010E94F7
:102C50005121882309F080C00E948E0D8F3179F0B8
:102C6000803220F4823109F077C014C0803281F0C4
:102C7000813209F071C081E08093750104C082E364
:102C80008093750181E08093CF001092D80064C0DA
:102C90008CE3F6CF80917603882309F45DC00E940F
:102CA000C72A5AC00E94110F909377018093760132
:102CB000009729F41092750110936A014DC081307C
:102CC000910509F449C08A51954009F045C082E058
:102CD00019C00E9415269093770180937601009782
:102CE000B9F10297C9F534C00E943C070E9428122E
:102CF00083E308C00E9428121EC00E943C070E9465
:102D000051108DE38093750127C00E943407880F0E
:102D1000991F880F991F815D9740F4F00E94430727
:102D20000E943C0700936A018EE38093750181E065
:102D30000E94721011C00E943407880F991F880FDB
:102D4000991F815D974044F00E94430700936A01F8
:102D50001092750100936A011F910F9108950F93CE
:102D60001F93CF93DF9301E00093D90010916F017F
:102D7000123309F489C1133348F4113009F462C1E4
:102D80001130A0F0123009F0B7C173C11C3309F43F
:102D900084C11D3320F4133309F0AEC17BC11D3350
:102DA00009F483C11E3309F0A7C195C1909169014F
:102DB00080917D03981729F480916A01882309F492
:102DC0000CC190917C038CE3989FE00111248091C9
:102DD0007A03C80FD11D81E08093CF0090918D00C0
:102DE000892F8150843008F05FC00E94D8108091F4
:102DF0007A038B3329F480917C038730A1F40FC0D0
:102E00008C3229F480917C03893069F408C08D31BB
:102E100051F480917C038B3011F08D3021F486E0E9
:102E200080935C0102C010925C01CE01805E9140F3
:102E30008A35910508F45FC0CE018A5392400F97FE
:102E400008F467C0CE01895492408A35910508F490
:102E50006FC0CE01835A92400F9708F477C0CE011D
:102E6000825B92408A35910508F47FC0CE018C5078
:102E700093404E9748F487E18093D1008CE0809393
:102E8000D2002AE233E079C0CE018A5293408A35DB
:102E9000910508F089C085E08093D1008CE0809393
:102EA000D20024E833E069C0953009F079C00E946F
:102EB000D81080917A038B3329F480917C0387307A
:102EC00091F40DC08C3229F480917C03893059F43F
:102ED00006C08D3141F480917C038B3021F486E073
:102EE00080935C0102C010925C01CE01805E914033
:102EF0008A35910548F485E08093D1008CE0809379
:102F0000D2002AE332E039C0CE018A5392400F97B3
:102F100048F487E18093D1008CE08093D20029E4CB
:102F200032E02BC0CE01895492408A35910548F495
:102F300085E08093D1008CE08093D20023EA32E0D8
:102F40001CC0CE01835A92400F9748F487E18093CA
:102F5000D1008CE08093D20022EB32E00EC0CE0193
:102F6000825B92408A359105F8F485E08093D10028
:102F70008CE08093D2002CE033E02C1B3D0BC90188
:102F80006AE070E00E9481326093D300C9016AE078
:102F900070E00E9481328093D4001092D80004C067
:102FA0000E94D81010925C0110926A0120917D035A
:102FB000822F6AE00E947532992359F0822F90E0A7
:102FC00001966AE070E00E949532892B11F00E9410
:102FD000D81080917D03809369010E941E1080911A
:102FE0007C0387508D3018F081E080935C010E9453
:102FF0005121882309F080C00E948E0D8F3179F015
:10300000803220F4823109F077C014C0803281F020
:10301000813209F071C081E080936F0104C082E3C6
:1030200080936F0181E08093CF001092D80064C03C
:103030008CE3F6CF80917603882309F45DC00E946B
:10304000C72A5AC00E94110F90937101809370019A
:10305000009729F410926F0110936A014DC08130DE
:10306000910509F449C08A51954009F045C082E0B4
:1030700019C00E94152690937101809370010097EA
:10308000B9F10297C9F534C00E943C070E9428128A
:1030900083E308C00E9428121EC00E943C070E94C1
:1030A00051108DE380936F0127C00E943407880F71
:1030B000991F880F991F815D9740F4F00E94430784
:1030C0000E943C0700936A018EE380936F0181E0C8
:1030D0000E94721011C00E943407880F991F880F38
:1030E000991F815D974044F00E94430700936A0155
:1030F00010926F0100936A01DF91CF911F910F91A0
:1031000008950F931F93CF93DF9301E00093D900AD
:1031100010916C01123309F4B2C1133348F4113029
:1031200009F48BC11130A0F0123009F0E0C19CC14C
:103130001C3309F4ADC11D3320F4133309F0D7C19A
:10314000A4C11D3309F4ACC11E3309F0D0C1BEC106
:103150009091690180917D03981729F480916A010B
:10316000882309F435C181E08093CF0090917C03DE
:103170008CE3989FE001112480917A03C80FD11D40
:1031800090918D00892F8150843008F088C00E9472
:10319000D81080917A038B3329F480917C03873097
:1031A000A9F410C08C3229F480917C03893041F459
:1031B00009C08D3159F480917C038B3039F402C001
:1031C0008D3021F486E080935C0102C010925C0196
:1031D000CE01805E91408A35910548F48DE0809360
:1031E000D1008CE08093D2002AE332E087C0CE0188
:1031F0008A5392400F9748F48EE08093D1008CE080
:103200008093D20029E432E079C0CE018954924003
:103210008A35910548F48DE08093D1008CE080934D
:10322000D20023EA32E06AC0CE01835A92400F975F
:1032300048F48EE08093D1008CE08093D20022EBA2
:1032400032E05CC0CE01825B92408A35910548F441
:103250008DE08093D1008CE08093D2002CE033E0AD
:103260004DC0CE018C5093408D9748F48EE08093F2
:10327000D1008CE08093D20029E333E03FC0CE013F
:10328000895393408A35910508F089C08DE0809379
:10329000D1008CE08093D20023E933E02FC0953039
:1032A00009F079C00E94D81080917A038D3129F4F9
:1032B00080917C03873091F40DC08E3029F4809189
:1032C0007C03893059F406C08B3341F480917C0330
:1032D0008A3021F486E080935C0102C010925C0188
:1032E000CE01825C91408A359105D8F48DE08093BF
:1032F000D1008CE08093D2002CE132E02C1B3D0BFE
:10330000C9016AE070E00E9481326093D300C90174
:103310006AE070E00E9481328093D4001092D8005D
:103320003EC0CE018C5192400F9748F48EE08093BE
:10333000D1008CE08093D2002BE232E0DFCFCE01CF
:103340008B5292408A35910548F48DE08093D100EC
:103350008CE08093D20025E832E0D0CFCE018558B2
:1033600092400F9748F48EE08093D1008CE08093D8
:10337000D20024E932E0C2CFCE01845992408A358E
:10338000910568F48DE08093D1008CE08093D200A9
:103390002EEE32E0B3CF0E94D81010925C01109252
:1033A0006A0120917D03822F6AE00E947532992381
:1033B00059F0822F90E001966AE070E00E94953209
:1033C000892B11F00E94D81080917D0380936901B0
:1033D0000E941E1080917C0387508D3018F081E090
:1033E00080935C010E945121882309F080C00E94D3
:1033F0008E0D8F3179F0803220F4823109F077C060
:1034000014C0803281F0813209F071C081E0809374
:103410006C0104C082E380936C0181E08093CF0053
:103420001092D80064C08CE3F6CF80917603882395
:1034300009F45DC00E94C72A5AC00E94110F9093E0
:103440006E0180936D01009729F410926C01109326
:103450006A014DC08130910509F449C08A519540F7
:1034600009F045C082E019C00E94152690936E01B4
:1034700080936D010097B9F10297C9F534C00E949D
:103480003C070E94281283E308C00E9428121EC035
:103490000E943C070E9451108DE380936C0127C06D
:1034A0000E943407880F991F880F991F815D9740EC
:1034B000F4F00E9443070E943C0700936A018EE3E8
:1034C00080936C0180E00E94721011C00E9434074A
:1034D000880F991F880F991F815D974044F00E94C3
:1034E000430700936A0110926C0100936A01DF9117
:1034F000CF911F910F91089524E630E0E199FECF1E
:103500003FBB2EBBE09A8DB3F901E25CFE4F808396
:103510002F5F3F4F81E02E35380781F7E2EAF1E077
:1035200091E08081883148F481818C3330F482814C
:10353000853018F48381823028F010821182128243
:1035400013829483359682E0EC39F80751F7089599
:1035500090E09C01220F331F220F331F280F391FC9
:103560000196AC01440F551F440F551F480F591FBA
:10357000F901EE55FE4F12C0F8948081E199FECF1B
:103580002C593F4F3FBB2EBB8DBB0FB6F894E29A30
:10359000E19A0FBE789423563040319624173507B0
:1035A00058F3089580919201882321F0813009F029
:1035B000C6C00CC00E9443070E943C0781E0809374
:1035C00092018091680180939101B9C00E943407F3
:1035D000880F991F880F991F815197427CF40E9490
:1035E0008E0D8F31B1F0803220F4823109F038C075
:1035F00005C0803241F0813299F517C010929201D6
:1036000020E030E09EC080919101873048F48F5FC8
:1036100005C080919101882319F081508093910118
:103620000E9443070E943C071BC0109292018091A8
:103630009101809368010E9443070E943C072091FA
:103640006801E199FECF8AE090E09FBB8EBB2DBB65
:103650000FB6F894E29AE19A0FBE22E030E071C012
:1036600080919101833071F1843028F48130C1F070
:103670008230F0F40BC08530D1F1853070F18630A6
:1036800009F440C0873009F051C046C08AE08093F9
:10369000D1008093D2008BE08093D30081E04DC0B5
:1036A0008AE08093D10085E08093D20086E106C055
:1036B0008AE08093D1008093D20087E18093D30089
:1036C00084E13BC08AE08093D1008CE18093D200FA
:1036D0008EE08093D30085E030C08AE08093D100F3
:1036E0008093D20086E18093D30081E126C08AE0F6
:1036F0008093D1008EE08093D20085E18093D30047
:103700008AE11BC08AE08093D1008093D2008BE0D5
:103710008093D30082E011C08AE08093D10080932F
:10372000D2008BE08093D30083E007C082E18093D6
:10373000D1008093D2008093D3008093D40021E005
:1037400030E0C901089580918A01813019F18130FA
:1037500020F0823009F0ACC044C08091CE0080934C
:103760008B018091550180938C010E9443070E9438
:103770003C0781E080935C011092CF009091CE00D5
:103780008AEF891B80938D0180918A018F5F8093DE
:103790008A018EC08DE891E060E04AEF2CE43DE1C3
:1037A0000E94390F833061F1843019F0882369F465
:1037B00027C082E080938A01909155018AEF891B8E
:1037C00080938D0110925C0173C020918D018AEF6E
:1037D000821B8093CE00243610F08FE04BC08FE028
:1037E00057C08DE891E060E04AEF2CE43DE10E9493
:1037F000390F833029F0843071F0882309F031C00B
:1038000010928A0180918B018093CE0080918C016F
:10381000809355011EC010928A012091CE00E1993B
:10382000FECF8BE090E09FBB8EBB2DBB0FB6F89414
:10383000E29AE19A0FBE20915501E199FECF8CE00A
:1038400090E09FBB8EBB2DBB0FB6F894E29AE19A35
:103850000FBE10925C0181E08093CF0020E030E049
:1038600029C020918D018AEF821B80935501243657
:1038700070F08EE08093D100822F64E60E94753252
:103880008093D200822F0E947532892F07C08EE06C
:103890008093D1008AE08093D200822F6AE00E9458
:1038A00075328093D300822F0E9475329093D4009A
:1038B00021E030E0C9010895CF92EF920F931F935A
:1038C00010919301133009F474C0143030F41130A6
:1038D00081F1123008F04FC00AC0153009F4ACC0B5
:1038E000153008F48CC0163009F032C1C6C082E031
:1038F00060E040E157E22FE004E1E9E1EE2E7AE0FA
:10390000C72E0E94DB0D8230910509F41CC1853061
:10391000910509F0A4C02091610130916201C901B3
:1039200001974F9718F42093940161C0109293016E
:103930000FC182E060E040E157E228E100E13AE1B6
:10394000E32E9AE0C92E0E94DB0D8230910509F426
:10395000FAC08530910509F082C020916101309153
:103960006201C90101970C9718F4209395013FC09B
:1039700010939301EDC082E060E040E157E229E15D
:1039800001E114E1E12EBBE1CB2E0E94DB0D823080
:10399000910509F4D8C08530910509F060C0809187
:1039A0006101909162018436910528F5809396011A
:1039B0001EC081E060E040E157E22FE000E1ACE1B1
:1039C000EA2EFAE0CF2E0E94DB0D8230910509F439
:1039D000BAC08530910509F042C020916101309153
:1039E0006201C9010197079730F4209397018091F4
:1039F00093018F5F01C081E080939301A9C082E0B1
:103A000060E040E157E22DE100E1EEE1EE2E7BE1E6
:103A1000C72E0E94DB0D8230910509F494C08530D9
:103A20009105E9F4809161019091620188319105DD
:103A300010F780939801DBCF82E060E040E157E22D
:103A400028E105E13AE1E32E9AE0C92E0E94DB0D60
:103A50008230910509F477C08530910521F0892BDA
:103A600009F076C070C080916101909162018C3341
:103A7000910508F680939901BACFF89481E080937C
:103A800034011092320140919801842F6AE00E9423
:103A90007532282F30E004E0220F331F0A95E1F73A
:103AA000842F0E947532922B90933001409199019E
:103AB000842F0E947532282F30E014E0220F331F2C
:103AC0001A95E1F7842F0E947532922B9093310161
:103AD00040919401842F0E947532282F30E0B4E089
:103AE000220F331FBA95E1F7842F0E947532922B73
:103AF0009093810040919501842F0E947532282F68
:103B000030E0A4E0220F331FAA95E1F7842F0E9432
:103B10007532922B9093820040919601842F0E94DF
:103B20007532282F30E0F4E0220F331FFA95E1F7C9
:103B3000842F0E947532922B9093330180919701CC
:103B40008093830078941092930120E030E002C0CB
:103B500021E030E0C9011F910F91EF90CF900895BF
:103B6000CF92EF920F931F9380919D02863009F4BC
:103B700039C2873090F4823009F491C0833030F438
:103B8000882309F1813009F084C329C0843009F405
:103B9000D9C0853008F0D2C1A6C08F3109F489C2DE
:103BA000803238F48A3009F43CC28E3109F071C396
:103BB00052C2813209F40EC3813208F4D7C288326E
:103BC00009F067C376C111E010939D020E9443077C
:103BD0000E943C071093DD001093CF005AC38DED77
:103BE00090E061E042E32CE43DE10E94390F833034
:103BF00021F0843051F0882301F510929D0281E07C
:103C000080936A0120E030E046C38091DD0090E0BF
:103C1000FC01EE0FFF1FEE0FFF1FE80FF91FE1562B
:103C2000FE4F8081882311F08EE101C081E28093F4
:103C30009D020E9443070E943C072091DD00822FD5
:103C40006AE00E9475328093D100822F0E94753203
:103C50009093D2008AE08093D30030E0F901EE0F18
:103C6000FF1FEE0FFF1FE20FF31FE156FE4FE08133
:103C7000E23009F408C1E33030F4EE2351F0E130D2
:103C800009F007C3ADC1E33031F0E43009F001C3FE
:103C900004C08CE0FCC288E1FAC28BE1F8C282E089
:103CA00060E040E157E22DE100E11EE1E12EBBE1E1
:103CB000CB2E0E94DB0D8230910561F1853091059C
:103CC00021F580916101909162018831910540F464
:103CD00080939E0280919D028F5F80939D02D9C246
:103CE00010929D02D6C282E060E040E157E228E1F6
:103CF00005E1AAE1EA2EFAE0CF2E0E94DB0D823028
:103D0000910541F08530910569F0892B09F0C1C218
:103D10008AE001C081E080939D020E9443070E94D7
:103D20003C07B7C280916101909162018C3391058B
:103D300030F480939F0280919D028F5FECCF1092B0
:103D40009D02EBCF0E943407880F991F880F991F9F
:103D5000815197423CF081E080939D020E9443078D
:103D60000E943C070E948E0D8F3171F0803220F44A
:103D7000823109F05FC006C0803209F1813209F05A
:103D800059C03FC08AE050C08091A0028230A9F1A2
:103D9000833030F4882389F1813009F047C006C0B0
:103DA0008330E9F0843009F041C004C0809175038C
:103DB000882309F580917603882389F016C08091C5
:103DC000A002823071F0833028F48823B1F0813072
:103DD00069F505C0833059F0843041F50EC082E0AA
:103DE0000DC080917603882311F083E007C0809195
:103DF0007503882311F084E001C081E08093A00264
:103E000015C08091A002833061F488E280939D0206
:103E100080917603882351F08091A2020E942E2B7C
:103E200005C080919D028F5F80939D020E94430791
:103E30000E943C079091A0029230F1F0933030F450
:103E4000992351F0913009F024C210C09330E9F069
:103E5000943009F01EC223C08AE08093D10080E133
:103E60008093D20083E18093D30011C28AE08093D3
:103E7000D1008093D200B2C08AE08093D1008093B9
:103E8000D2008093D3008DE002C28AE08093D100FB
:103E900088E18093D20087E18093D3004CC08AE010
:103EA0008093D1008093D2008BE18093D30084E192
:103EB000EEC182EA92E060E043E62CE43DE10E943C
:103EC000390F8230B1F0833018F4882331F023C0E9
:103ED000833019F08430F9F415C08091760388237B
:103EE00011F00E94F92A10929D0281E080936A01EC
:103EF00012C080917603882371F08091A2020E9403
:103F00002E2B09C080917603882311F00E94F92A94
:103F100085E080939D028AE08093D1008093D20057
:103F20002091A202822F6AE00E9475328093D30012
:103F3000822F0E9475329093D400ABC10E94340747
:103F4000880F991F880F991F815197423CF081E09B
:103F500080939D020E9443070E943C070E948E0DA1
:103F60008F3161F0803218F48231F9F405C080326B
:103F700059F08132D1F410C08AE011C08091A102C1
:103F8000882379F0815005C08091A102882349F4EB
:103F900081E08093A10205C080919D028F5F809394
:103FA0009D020E9443070E943C079091A102992321
:103FB00021F0913009F06DC10BC08AE08093D100EF
:103FC00081E08093D2008CE08093D30087E05FC1D2
:103FD0008AE08093D1009093D2008CE08093D3004C
:103FE00085E055C181E080939D028091DD00E5E090
:103FF0008E9FF0011124EE55FE4F359790919E0251
:10400000919390919F0291939091A002919390919E
:10401000A10291939091A202908381500E94A81ACC
:104020007CCE81E080939D028091DD0090E0FC01D8
:10403000EE0FFF1FEE0FFF1FE80FF91FE156FE4FB7
:1040400010820E9443070E943C078091DD0081504E
:104050000E94A81A1EC11092CF00E091DD0085E0F9
:10406000E89FF0011124EE55FE4F35972191822FE4
:104070006AE00E9475328093D100822F0E947532CF
:104080009093D2002081822F0E9475328093D300BA
:10409000822F0E9475329093D4000E943407880FBB
:1040A000991F880F991F815D97400CF4F2C08FE132
:1040B00032CE81E08093CF008091DD0090E0FC0162
:1040C000EE0FFF1FEE0FFF1FE80FF91FE156FE4F27
:1040D000E081E230F9F0E33028F4EE2341F0E13002
:1040E000C9F50FC0E330F9F0E430A1F528C08AE04B
:1040F0008093D10080E18093D20083E18093D3004C
:1041000027C08AE08093D1008093D2008093D300AF
:1041100085E01EC08AE08093D1008093D200809316
:10412000D3008DE015C08AE08093D10088E18093B0
:10413000D20087E18093D300E093D4000BC08AE0E3
:104140008093D1008093D2008BE18093D30084E1EF
:104150008093D4000E943407880F991F880F991FFD
:10416000895E93400CF495C080E2D5CD8091DD004E
:1041700090E0FC01EE0FFF1FEE0FFF1FE80FF91F8D
:10418000E056FE4FE081EE2319F0E130B9F40BC0A8
:104190008AE08093D10081E08093D2008CE080930C
:1041A000D30087E009C08AE08093D100E093D20079
:1041B0008CE08093D30085E08093D4000E94340784
:1041C000880F991F880F991F895E93400CF461C076
:1041D00081E2A1CD0E943407880F991F880F991F93
:1041E000895B9B401CF081E080939D020E948E0DB4
:1041F000823121F0813209F040C004C081E0809317
:104200009D023BC082E080939D020E9443070E9472
:104210003C078091DD0090E0FC01EE0FFF1FEE0FE8
:10422000FF1FE80FF91FEE55FE4F359781918093E0
:104230009E02819180939F0280818093A0028823B7
:1042400019F481E08093A0028091DD0090E0FC01F0
:10425000EE0FFF1FEE0FFF1FE80FF91FEE55FE4F89
:10426000329781918093A10280818093A202815034
:10427000833618F081E08093A20285E08093D1001C
:1042800081E18093D20086E18093D3008AE080931D
:10429000D40021E030E0C9011F910F91EF90CF9041
:1042A0000895CF93DF9380919C02843109F460C01C
:1042B000853148F48A3009F457C08B3009F463C063
:1042C000882359F09DC08E3109F46AC0843609F400
:1042D00087C0853109F094C056C040917C0320917D
:1042E0007A0330918D00E2EAF1E0C0E0D0E0928103
:1042F0009923A1F18081841789F58181821771F555
:104300008381882321F0813049F5363038F59130AA
:1043100011F48AE003C0923031F484E180939C026E
:104320002093DC006FC09330C9F48091760388231A
:1043300069F00E9443070E943C078EE180939C0233
:10434000CE55DE4F8C810E942E2B03C08AE08093D5
:104350009C0280917A038093DC0054C025963596A8
:10436000CA3FD10521F64CC01092D0008BE004C0AA
:1043700082E08093D00085E180939C020E944307F5
:104380000E943C073FC00E943407880F991F880F86
:10439000991F895B9B40B4F181E08093D0001AC0E3
:1043A0000E943407855D90435CF0809176038823FA
:1043B00011F00E94F92A0E94430784E680939C0230
:1043C0000E948E0D8132F1F480917603882311F0E2
:1043D0000E94F92A0E94430784E680939C0212C03F
:1043E00020917A0330E08091DC00992787FD909539
:1043F0002817390729F010929C028FEF8093DC0078
:1044000080E001C081E0DF91CF910895CF92EF92DB
:104410000F9300919E01033009F473C0043030F40F
:104420000130A9F1023008F046C00DC0053009F492
:1044300055C1053008F4A8C0063009F4A0C1073002
:1044400009F006C2BEC181E080939E010E9443072D
:104450000E943C0720919C01822F6AE00E947532E5
:104460008093D100822F0E94753290689093D20081
:1044700020919D01822F0E9475328093D300822F5C
:104480000E9475329093D4001092CF00E1C10E9437
:104490003407880F991F880F991F895E93400CF489
:1044A000D7C180919E018F5F80939E010E94430738
:1044B0000093CF00CDC182E060E040E157E22DE102
:1044C00000E1AEE1EA2EFBE1CF2E0E94DB0D82304F
:1044D000910521F08530910531F508C086E0809383
:1044E0009E010E9443070E943C07B2C18091610176
:1044F000909162018831910508F043C080939F013B
:104500003AC082E060E040E157E228E105E1EAE1FB
:10451000EE2E7AE0C72E0E94DB0D82309105F1F27B
:104520008530910549F0892B09F092C186E080938E
:104530009E0110929A01D5CF2091610130916201C4
:104540002C333105F0F42093A00180919F018093DA
:104550009C0120939D018091DA008093DB008823E9
:1045600019F481E08093DB0080919A01882309F49B
:1045700081E08093A10180919E018F5F80939E01D5
:1045800067C110929E0164C10E943407880F991F71
:10459000880F991F815197423CF086E080939E01DD
:1045A0000E9443070E943C0780917603882329F4E8
:1045B00080917503882309F491CF0E948E0D8F316D
:1045C00091F0803220F4823109F060C006C0803260
:1045D00019F1813209F05AC045C086E080939E01EE
:1045E00010929A013AC09091A101913039F0913026
:1045F00088F1923079F1933081F509C0809175038B
:10460000882331F5809176038823D9F014C08091F6
:1046100076038823F9F00FC09091A101913039F011
:104620009130C0F0923081F09330B9F413C0809192
:104630007603882311F082E00EC0809175038823F1
:1046400039F49093A10109C080917503882311F07A
:1046500083E001C081E08093A1010E9443070E9492
:104660003C0714C08091A101823011F0833011F415
:1046700085E003C080939A0186E080939E010E94AA
:1046800043070E943C0781E080936A018091A10169
:10469000823079F08330C1F0813009F0D9C08EE0EA
:1046A0008093D10081E18093D2008093D30087E191
:1046B00085C08AE08093D10088E18093D20087E1B1
:1046C0008093D30083E07AC08AE08093D100809306
:1046D000D2008BE18093D30084E170C08BED90E039
:1046E00060E043E62CE43DE10E94390F8230B1F0F6
:1046F000833018F4882331F02FC0833019F08430D0
:1047000059F516C080917603882311F00E94F92A8A
:1047100086E080939E0110929A011BC080917603DF
:104720008823D1F08091DB0080680E94122B14C096
:1047300080917603882311F00E94F92A8091DB0092
:104740008093DA008091A10180939A0186E08093A2
:104750009E0181E080936A018AE08093D10080937A
:10476000D2002091DB00822F6AE00E947532809394
:10477000D300822F0E9475329093D40069C087E0E5
:1047800080939E010E9443070E943C0780919A01FA
:104790008150833050F480E18093D1008AE180938E
:1047A000D2008AE08093D30009C080E18093D100D9
:1047B00083E18093D2008093D3008AE08093D40079
:1047C00047C00E943407880F991F880F991F855C86
:1047D00099400CF43DC020919A01E199FECF8DE003
:1047E00090E09FBB8EBB2DBB0FB6F894E29AE19A86
:1047F0000FBE20919C01E199FECF8EE090E09FBB1F
:104800008EBB2DBB0FB6F894E29AE19A0FBE2091B1
:104810009D01E199FECF8FE090E09FBB8EBB2DBB49
:104820000FB6F894E29AE19A0FBE2091DA00E1996E
:10483000FECF83E190E09FBB8EBB2DBB0FB6F894FB
:10484000E29AE19A0FBE10929E0120E030E002C091
:1048500021E030E0C9010F91EF90CF9008952091B1
:104860009A01243009F446C0253020F4213008F4A0
:10487000B1C004C0253009F0ADC098C090919C0132
:1048800080917C03981709F0A5C090919D018091BB
:104890007A03981709F09EC020939B0184E08093CF
:1048A0009A018091D10080937E038091D200809301
:1048B0007F038091D300809380038091D400809304
:1048C000810380917603882341F0223031F4809176
:1048D000DA0080680E94122B7BC0809175038823C8
:1048E00019F0233009F474C01092D00086E0809350
:1048F0005C016EC084E18093D1008DE08093D20092
:1049000088E18093D3008AE08093D4000E948E0DCA
:104910008F3F01F185E080939A0181E08093D00080
:1049200080917603882331F080919B01823011F4CD
:104930000E94F92A80917E038093D10080917F03A9
:104940008093D200809180038093D3008091810373
:104950008093D40090919C0180917C03981731F44E
:1049600090919D0180917A03981791F190919B010C
:1049700090939A0181E08093D00080917603882300
:1049800021F0923011F40E94F92A80917E038093E5
:10499000D10080917F038093D20080918003809327
:1049A000D300809181038093D40012C090919C0128
:1049B00080917C03981731F490919D0180917A0346
:1049C000981741F080919B0180939A0180E00895AF
:1049D00081E0089580E008951F9380918E018130D9
:1049E00059F1813038F0823009F446C0833009F043
:1049F00017C1E6C08AE580938F010E9443070E9499
:104A00003C078CE08093D1008AE08093D200209113
:104A10008F01822F6AE00E9475328093D300822F2B
:104A20000E9475329093D40080918E018F5F8093A5
:104A30008E0110929001F4C08FE891E061E040EFA8
:104A400020E335E70E94390F833021F0843029F0CC
:104A5000882331F410928E01B0C082E080938E01E1
:104A600020918F01243620F48CE08093D100BFC0C8
:104A70008CE08093D100C0C00E948E0D823119F06D
:104A8000813281F404C081E0809390010BC0809159
:104A90009001882309F08AC00E944C0783E080932C
:104AA0008E01BEC00E94340788599A434CF0809111
:104AB0008F01815080938F010E9443070E943C0721
:104AC0000E9434076AEF70E00E94953220919001B5
:104AD0008E37910574F48CE08093D10020FF13C0D1
:104AE000822F8F5F80939001863068F01092900142
:104AF0000AC08CE88093D100222329F020FD03C056
:104B00002F5F209390018091D900813099F410910A
:104B10008F011130D9F40E9434078A3F910514F4B3
:104B200082E012C00E9434078B5A97434CF41093D2
:104B3000D0000CC0882351F480918F01813019F48A
:104B40001092D00003C081E08093D00020918F01AB
:104B5000263020F486E080935C0102C010925C0154
:104B6000243628F48AE08093D200822F0AC0822F54
:104B700064E60E9475328093D200822F0E947532C3
:104B8000892F6AE00E9475328093D300822F0E94A1
:104B900075329093D40080919001882329F0809100
:104BA000D40080688093D4002223D1F510928E0126
:104BB00010925C0181E08093D00020E030E032C0B0
:104BC0000E948E0D823111F0813239F482E080939F
:104BD0008E0110925C010E945D0786E080935C016B
:104BE00087E18093D10020918F01243628F48AE058
:104BF0008093D200822F0AC0822F64E60E94753211
:104C00008093D200822F0E947532892F6AE00E9421
:104C100075328093D300822F0E9475329093D40016
:104C200021E030E0C9011F9108951F931091A30264
:104C30001A3009F4D9C11B30F0F4143009F4D8C08B
:104C4000153060F4113009F445C01130C8F112304C
:104C500009F478C0133009F01BC39FC0163009F463
:104C600034C1163008F4F2C0173009F45EC11830B0
:104C700009F00EC388C1103509F41AC2113580F449
:104C8000123309F4ECC1133320F4183209F000C3D5
:104C9000DFC11C3309F4EAC1163409F0F9C201C2BC
:104CA000143609F413C2153620F41A3509F0F0C28F
:104CB00006C21E3609F477C2183709F0E9C2A2C24B
:104CC0000E9443070E943C0781E08093A302109258
:104CD0005C01E6C20E943407880F991F880F991F54
:104CE0008151974274F40E948E0D8F3179F0803299
:104CF00018F48231E1F405C0803251F08132B9F408
:104D00000FC01092A30210936A01C7C282E009C0CB
:104D100080916B01882311F085E003C08AE001C017
:104D200088E28093A3020E9443070E943C0785E02B
:104D30008093D10086E18093D20080E18093D300FC
:104D400087E1F0C00E943407880F991F880F991FD0
:104D5000815197420CF09CC20E948E0D8F3151F010
:104D6000803218F4823189F493C2803229F0813282
:104D700061F404C083E003C081E001C080E580935A
:104D8000A3020E9443070E943C0784E18093D10064
:104D90008DE08093D20088E1F2C00E943407880F32
:104DA000991F880F991F815197420CF071C20E9480
:104DB0008E0D8F3151F0803218F4823189F468C23F
:104DC000803229F0813261F404C084E003C082E0C3
:104DD00001C082E38093A3020E9443070E943C0724
:104DE00086E18093D10085E18093D20088E12CC1D7
:104DF0000E943407880F991F880F991F815197428D
:104E00000CF046C20E948E0D8F3151F0803218F4A2
:104E1000823189F43DC2803229F0813261F404C0CC
:104E200085E003C083E001C08AE58093A3020E946D
:104E300043070E943C0785E08093D1008BE080937C
:104E4000D2008DE18093D3008FE06CC00E943407C4
:104E5000880F991F880F991F815197420CF018C233
:104E60000E948E0D8F3151F0803218F4823119F585
:104E70000FC28032B9F08132F1F416C00E944307AC
:104E80000E943C0780917603882311F086E007C0DA
:104E900080916B01882311F081E001C08AE080934A
:104EA000A30209C084E001C086E48093A3020E94AB
:104EB00043070E943C0785E18093D1008DE08093F9
:104EC000D2008093D3008EE12DC00E943407880F5A
:104ED000991F880F991F815197420CF0D9C10E94E8
:104EE0008E0D8F3151F0803218F4823189F4D0C1A7
:104EF000803229F0813261F404C087E003C085E08C
:104F000001C084E68093A3020E9443070E943C07ED
:104F10008BE08093D10080E18093D2008AE180937E
:104F2000D30086E18093D400BBC10E943407880F70
:104F3000991F880F991F815197420CF0A9C10E94B7
:104F40008E0D8F3151F0803218F4823189F4A0C176
:104F5000803229F0813261F404C088E003C086E029
:104F600001C08EE68093A3020E9443070E943C0783
:104F700084E18093D10088E18093D2008EE0809319
:104F8000D3008AE0CFCF0E943407880F991F880F83
:104F9000991F815197420CF07BC10E948E0D8F3179
:104FA00051F0803218F48231B9F472C1803259F074
:104FB000813291F40AC080916B01882311F081E065
:104FC00005C08AE003C087E001C088E78093A302A0
:104FD0000E9443070E943C0785E08093D1008DE04A
:104FE0008093D20087E1CBCF0E943407880F991FAE
:104FF000880F991F815197420CF04AC10E948E0D73
:105000008F3151F0803218F48231B9F441C18032CD
:1050100029F0813291F40AC081E009C080917603C1
:10502000882311F088E003C085E001C08CE3809301
:10503000A3020E9443070E943C0788E18093D100AD
:1050400080E18093D2008FE08093D30081E16ACF2A
:105050000E94EC24892B09F023C181E00CC00E943E
:105060005C1C892B09F01CC183E005C00E94D21A88
:10507000882341F48AE08093A3020E9443070E94A0
:105080003C070EC1823009F00BC11092A3020E94AE
:1050900043070E943C0781E080936A0122E030E0F0
:1050A00001C10E94A31B892B09F0FAC085E0E3CF60
:1050B0000E940622892B09F0F3C082E0DCCF0E9417
:1050C000B01D892B09F0ECC084E0D5CF0E943407D5
:1050D000880F991F880F991F81519742C4F086E06D
:1050E0008093A3020E9443070E943C0720918901FC
:1050F000E199FECF84E190E09FBB8EBB2DBB0FB644
:10510000F894E29AE19A0FBE81E080936A010E94CE
:105110008E0D813228F48F3168F4823159F503C045
:10512000813241F512C086E08093A30281E0809332
:105130006A0120C080918901882321F481E0809355
:10514000890114C01092890111C086E08093A302E6
:1051500020918901E199FECF84E190E09FBB8EBB55
:105160002DBB0FB6F894E29AE19A0FBE0E94430756
:105170000E943C0780918901882321F0813009F049
:105180008FC00AC080E18093D1008AE18093D20071
:105190008AE08093D300C6CE80E18093D10083E182
:1051A0008093D200ECCE8EED90E060E043E62CE4FC
:1051B0003DE10E94390F823099F0833018F4882342
:1051C00039F053C0833021F0843009F04EC011C053
:1051D00080917603882311F00E94F92A87E02DC080
:1051E00080917603882309F440C08091DE008068B6
:1051F00030C080917603882309F44AC08091DE0094
:10520000806830C08EED90E060E043E62CE43DE144
:105210000E94390F8230B9F0833018F4882331F0BE
:1052200024C0833019F0843001F516C080917603D4
:10523000882311F00E94F92A88E08093A30281E07C
:1052400080936A0112C080917603882371F0809167
:10525000DE000E94662B09C0809176038823C1F08E
:105260008091DE000E94662B13C08AE08093D100FB
:105270008093D2002091DE00822F6AE00E94753276
:105280008093D300822F0E9475329093D40008C07F
:105290001092A30281E080936A0120E030E002C016
:1052A00021E030E0C9011F9108959091A402983C3B
:1052B00010F080E00895E92FF0E0EA55FD4F80837B
:1052C000E92FEF5FE093A4025D9B0DC09091A502D2
:1052D000E91759F0E92FF0E0EA55FD4F80818CB9CC
:1052E0009F5F9093A50281E008951092A50210920D
:1052F000A40281E008959091A5028091A4028917EB
:1053000051F0E92FF0E0EA55FD4F80818CB99F5FA5
:105310009093A50208951092A5021092A4020895F8
:10532000089580918303882319F485E08093830393
:10533000809183038D3C21F41092830381E00895D2
:1053400080918303873E10F480E0089510928303D8
:1053500081E0089580918303882319F488E0809385
:10536000830380918303803D21F41092830381E0C5
:10537000089580918303873E10F480E00895109291
:10538000830381E00895982F80918303882329F473
:1053900090936F0381E08093830380918303893C22
:1053A00021F41092830381E0089580918303873E66
:1053B00010F480E008951092830381E00895982FFF
:1053C00080918303882329F490936F0383E0809373
:1053D0008303809183038B3C21F41092830381E04B
:1053E000089580918303873E10F480E00895109221
:1053F000830381E00895982F80918303882329F403
:1054000090936F0382E080938303809183038A3CAF
:1054100021F41092830381E0089580918303873EF5
:1054200010F480E008951092830381E00895982F8E
:1054300080918303882329F490936F0384E0809301
:105440008303809183038C3C21F41092830381E0D9
:10545000089580918303873E10F480E008951092B0
:10546000830381E0089580918303882319F486E003
:1054700080938303809183038E3C21F410928303F5
:1054800081E0089580918303873E10F480E00895C1
:105490001092830381E00895FC0180919D03909117
:1054A0009E039183808381E0089580918203882305
:1054B00019F481E08093820380918203893C21F476
:1054C0001092820381E0089580918203873E10F458
:1054D00080E008951092820380E008958091820315
:1054E000882319F482E080938203809182038A3CAE
:1054F00021F41092820381E0089580918203873E17
:1055000010F480E008951092820380E00895FC0179
:1055100080917103882319F481E080937103809155
:105520007103893C51F5109271038091E0009091D4
:10553000E1009C0153E0220F331F5A95E1F7880FD9
:10554000991F280F391F318320834091E200509129
:10555000E30089E391E0BC01469FC001479F900DA5
:10556000569F900D112468EE73E00E949532260F2D
:10557000371F3183208381E0089580917103873E36
:1055800010F480E008951092710381E008958091F5
:105590008303882319F485E0809383038091830338
:1055A0008D3C21F41092830381E008958091830360
:1055B000873E10F480E008951092830381E00895FF
:1055C00080918303882319F486E08093830380917C
:1055D00083038E3C21F41092830381E0089580912F
:1055E0008303873E10F480E008951092830381E0E6
:1055F000089580918303882319F488E080938303BE
:1056000080918303803D21F41092830381E008950B
:1056100080918303873E10F480E008951092830305
:1056200081E00895982F80918303882329F4909333
:105630006F0381E08093830380918303893C21F48D
:105640001092830381E0089580918303873E10F4D4
:1056500080E008951092830381E00895982F80914F
:105660008303882329F490936F0383E0809383035B
:10567000809183038B3C21F41092830381E0089591
:1056800080918303873E10F480E008951092830395
:1056900081E00895982F80918303882329F49093C3
:1056A0006F0382E080938303809183038A3C21F41B
:1056B0001092830381E0089580918303873E10F464
:1056C00080E008951092830381E00895982F8091DF
:1056D0008303882329F490936F0384E080938303EA
:1056E000809183038C3C21F41092830381E0089520
:1056F00080918303873E10F480E008951092830325
:1057000081E00895FC0180917403813021F4CF0180
:105710000E94872A0895823011F080E008958091D8
:105720009D0390919E039183808381E008958091F1
:105730008203882319F481E080938203809182039D
:10574000893C21F41092820381E0089580918203C4
:10575000873E10F480E008951092820380E008955F
:1057600080918203882319F482E0809382038091E0
:1057700082038A3C21F41092820381E00895809193
:105780008203873E10F480E008951092820380E047
:10579000089580916E038F3109F4DCC0803278F473
:1057A0008A3009F425C18B3018F48823A9F028C168
:1057B000843109F41DC18E3109F022C1AFC081329C
:1057C00009F416C1813208F4DFC0883209F4F5C04B
:1057D000893209F015C10CC180918303883089F4A6
:1057E00084E48093840387E08093850381E0809341
:1057F000860384E893E063E00E9439038AE08093A3
:105800006E0380918303813091F484E48093840358
:1058100082E08093850380916F038093860384E800
:1058200093E063E00E94390384E180936E038091EA
:1058300083038630E1F484E4809384038AE08093D8
:10584000850380918D0090E0019765E0880F991F96
:105850006A95E1F720917C03282B2093860384E846
:1058600093E063E00E9439038EE180936E038091A0
:105870008303853091F484E48093840388E08093EB
:10588000850380917C038093860384E893E063E042
:105890000E94390388E280936E03809183038230F3
:1058A00091F484E48093840384E080938503809161
:1058B0006F038093860384E893E063E00E943903DA
:1058C00084E180936E0390918303933089F484E4A0
:1058D000809384039093850380916F038093860364
:1058E00084E893E063E00E94390384E180936E03CF
:1058F00080918303843009F083C084E4809384031F
:1059000085E08093850380916F038093860384E80C
:1059100093E063E00E94390384E119C00E943003E0
:10592000882309F06DC080910C0180FF65C084E47C
:10593000809384038BE08093850380917B03809325
:10594000860384E893E063E00E9439038FE180934B
:105950006E0356C00E943003882309F051C0809125
:105960000C0180FF49C084E4809384038CE0809321
:105970008503809179038093860384E893E063E054
:105980000E94390380E2E3CF0E9430038823C1F5EF
:1059900080910C0180FF30C084E4809384038DE00B
:1059A0008093850380917A038093860384E893E053
:1059B00063E00E94390381E2CACF0E94300388234A
:1059C000F9F480910C0180FF17C084E48093840374
:1059D00089E08093850380917A038093860384E82D
:1059E00093E063E00E9439031092830389E2AFCF12
:1059F0000E943003882321F41092830310926E03D7
:105A000080916E030895809172038431B1F08531E5
:105A100079F1882309F06AC080917103813009F01F
:105A200065C080E98093B8031092B90388EB93E0D6
:105A300062E00E94390384E114C00E94300388238D
:105A400009F054C080910C0180FF0EC081E9809361
:105A5000B80388EB93E063E00E94390380917203FE
:105A60008F5F8093720342C0809171038A513AC064
:105A70000E9430038823D1F580910C0180FF2FC054
:105A800088EB93E063E00E946403F8949091B9037B
:105A900080E02091BA0330E0822B932BE3E09595D0
:105AA0008795EA95E1F79093E1008093E00080917B
:105AB000E0009091E1008F7190709093E3008093EB
:105AC000E2008091E0009091E10075E09595879566
:105AD0007A95E1F79093E1008093E00078948091CB
