:100000000C9459000C9476000C9476000C947600B5
:100010000C94563D0C9476000C9476000C9476006B
:100020000C9476000C9476000C94103D0C947600A1
:100030000C9476000C94143B0C9476000C94C83C01
:100040000C94EC3C0C9476000C9476000C943004E8
:100050000C947600CE06D106D106D106D106D10683
:10006000D106E206EB06F006F006F006F006F00612
:1000700001070A070D070D070D070D070D072C07D0
:100080001E071E073D072F072F072F072F074E07B5
:100090004007400740074007400740074007510717
:1000A00007070B070B000000000107070D0D0000FC
:1000B000010011241FBECFE5D8E0DEBFCDBF12E0A6
:1000C000A0E6B0E0E4E0FCE702C005900D92A831A4
:1000D000B107D9F714E0A8E1B2E001C01D92AE3932
:1000E000B107E1F70E94313B0C94003E0C940000F4
:1000F000E199FECF9FBB8EBB6DBB0FB6F894E29A21
:10010000E19A0FBE0895E199FECF9FBB8EBBE09AA6
:100110008DB30895F8948093610078940895809148
:10012000600090916100891711F0909360008091B8
:100130006000813009F442C0813020F0823009F043
:1001400048C042C080911802909119020196909384
:100150001902809318022BE0893B920759F12BE09A
:100160008A3B920798F421E08E35920729F121E02D
:100170008F35920718F4019761F51CC025E08D3D7D
:100180009207C1F08A53974021F516C021E18539C5
:10019000920781F021E18639920720F486519D4033
:1001A000C1F40AC022E1823F920731F080519742A8
:1001B00081F405C0AA9A0895AA980895AA98109261
:1001C0001902109218020895AA9A10921902109218
:1001D00018020895AA98A29A0895AE98A69808952C
:1001E000FC0180911A02882361F1809138028730E6
:1001F00049F48091390290913A028F7D90933A02AE
:1002000080933902809138028083809139029091E5
:100210003A029283818380913B0290913C029483C5
:10022000838380913D02858310923C0210923B02B1
:1002300010923A021092390210923D0210921A0264
:1002400081E00895982F609126027091300267171F
:1002500038F180913102681718F580913602292F04
:1002600030E040913E0250913F02882381F0862F7A
:1002700090E0871B910902C0220F331F8A95E2F795
:10028000422B532B50933F0240933E0233C0440F06
:10029000551F242B352B30933F0220933E022AC05A
:1002A00070913202671730F180913302681710F5B0
:1002B00080913602292F30E0409140025091410256
:1002C000882381F0862F90E0871B910902C0220FBE
:1002D000331F8A95E2F7422B532B509341024093F0
:1002E000400208C0440F551F242B352B3093410288
:1002F000209340026F5F60932602089593B380912C
:100300001A02882309F015C2292F20748091250232
:10031000882381F590912202222321F49F5F9093FC
:10032000220207C29923B9F091E09093250290939D
:100330002302109224021092410210924002109265
:100340003F0210923E028FEF80932602909321028B
:1003500010921D02EEC180911F02909120022FEF9A
:100360008F3F920709F4E5C1019690932002809394
:100370001F02DFC180912302882309F471C0222368
:1003800049F0809121028F5F809321028C3908F41B
:1003900053C1BFC020912202822F8750853018F0B0
:1003A00087508930E8F490912102892F8750853059
:1003B00018F087508930A0F460EA70E090931C0236
:1003C0002C502B3018F09C509B3030F410921B02B4
:1003D00080E480931D0208C081E080931B0204C06A
:1003E0001092250260E070E080912502882331F0B0
:1003F00087E292E041E150E00E94833D10922602A4
:1004000080913702482F50E080FF22C08091270260
:100410008731F1F08930E1F02091210280912902A9
:10042000821760F430E090E0880F991F82179307DD
:100430002CF056954795842F809507C080911B021C
:10044000882331F456954795842F81700E942201AC
:1004500081E0809322021092210210922302ECC0CC
:1004600080912402882309F4DAC0222309F458C0B9
:1004700050912602609134025617A9F480913502FA
:10048000813089F48091370280FD0AC09091220268
:1004900080912C029817E8F180912D028917C8F1FC
:1004A00010923502C9C0409121024F5F4093210252
:1004B0008091370280FF1AC0242F30E080912B02F8
:1004C00090E0880F991F2817390784F0252F30E016
:1004D000862F90E002972817390744F08091350263
:1004E000882321F481E0809335021AC04C3908F446
:1004F000A3C0252F30E0862F90E0019728173907F9
:1005000041F480913502882321F45F5F50932602E5
:1005100093C01092250210922202109221028CC0E8
:1005200080913702282F30E09091220280FF45C051
:10053000809129028917C0F436952795822F8095DE
:1005400081700E9422018091370290E096958795F4
:1005500081700E9422018091370290E096958795E4
:10056000817080931B0224C0809128029817E0F0CC
:1005700020911C0280912B02821780F430E090E0E1
:10058000880F991F821793074CF090E080911B020F
:10059000882309F491E090931B0202C090911B0202
:1005A000892F0E94220104C010922502109221027C
:1005B0008091210280931C0215C080912802981717
:1005C000A0F080912902891780F02091210280916A
:1005D0002A02281750F080912B02821730F081E018
:1005E0000E9422011092240218C080912C029817B8
:1005F00080F080912D02891760F090912102809106
:100600002E02981730F080912F02891710F080E0A9
:10061000E7CF109225021092210281E005C022232B
:1006200031F4809122028F5F8093220205C081E025
:10063000809324028093210280912502882309F46B
:1006400078C09091260280913402981709F071C009
:1006500080913502882309F06CC06091620070912E
:10066000630020914002309141026217730769F4E0
:1006700080911F02909120028052934030F480912B
:100680001E028F5F80931E0202C010921E0281E044
:1006900080931A02809127028093380240913E0293
:1006A00050913F0250933A0240933902873049F407
:1006B00080911D0290E0822B932B909341028093B6
:1006C0004002209140023091410230933C0220933D
:1006D0003B0280911A02882311F16217730799F483
:1006E00080916400909165008417950761F4809172
:1006F0001F02909120028C5D954028F480913D026C
:10070000816080933D025093650040936400309374
:100710006300209362001092200210921F02109238
:100720002502109241021092400210922202109271
:10073000210280911A02089581E08093430280E1B2
:1007400080B98FEF83B982E382B985EC86BF0895C3
:1007500016BE109245020895809145020895809139
:1007600045028823E1F7809166000895FC0180919D
:1007700045028823E1F7109243026093650280816D
:100780008093470280FD0DC04E2FA8E4B2E0CF0158
:10079000FC0102C080818D9331968E2F841B8617B9
:1007A000C8F31092440288EF8093660081E0809342
:1007B000450285EA86BF0895809145028823E1F7C6
:1007C000109243021092440288EF8093660081E009
:1007D0008093450285EA86BF0895AC018091450269
:1007E0008823E1F78091440280FF0FC020E030E0D1
:1007F0000AC0FA01E20FF31FD901A95BBD4F8C912A
:1008000080832F5F3F4F2617A0F3809144028170B1
:100810000895AC01F894809145028823F1F4809109
:1008200043028130D1F4809142028823B1F020E06C
:100830000AC0E22FF0E0DA01AE0FBF1FE35CFB4F0E
:1008400080818C932F5F80914202281790F3109241
:1008500042027894822F81500895789480E0089520
:100860001F920F920FB60F9211242F933F935F9315
:100870006F937F938F939F93AF93BF93EF93FF9368
:1008800081B1883309F45DC0893370F48031E9F0B7
:10089000813120F4883009F06FC017C08831B9F079
:1008A000883209F069C013C08835C1F1893530F448
:1008B000803441F1803509F05FC019C0803609F4F9
:1008C00055C0803809F058C03EC010924602909141
:1008D000460280916502981740F5E92FF0E0E95B48
:1008E000FD4F808183B99F5F9093460215C0809130
:1008F000460293B1E82FF0E0E95BFD4F90838F5FF4
:10090000809346022091460230E08091650290E09B
:10091000019728173907C4F185E837C083B1E09102
:100920004602F0E0E95BFD4F8083809144028160E4
:10093000809344021092450281E08093430285ED4A
:1009400024C085EA22C081E0809345028091420262
:1009500090E023B1FC01E35CFB4F208301966AE049
:1009600070E00E94CB3D809342020EC081E08093F4
:1009700045021092420208C081B18093660081E076
:10098000809343021092450285EC86BFFF91EF9160
:10099000BF91AF919F918F917F916F915F913F91A7
:1009A0002F910F900FBE0F901F90189580916602A7
:1009B0000895809167020895EF92FF920F931F931D
:1009C00080916700882351F483B3209168003091AF
:1009D0006900881F8827881F90E00EC083B320918C
:1009E00068003091690090E08095909580789070D3
:1009F000880F892F881F990BAC01429FC001439F2C
:100A0000900D529F900D11247C0100E010E0809128
:100A10006E02E114F1040105110549F4813079F405
:100A200010926D0210926C0210926E0211C0882317
:100A300021F481E080936E020BC0813049F08091F7
:100A40006C0290916D02019690936D0280936C02FE
:100A5000609168027091690280916A0290916B02C4
:100A600027E430E040E050E00E948C3DE60EF71EA7
:100A7000081F191FC801B70128E430E040E050E02A
:100A80000E94DE3DC901DA018093680290936902F9
:100A9000A0936A02B0936B02E0917B0220916802FE
:100AA0003091690240916A0250916B028091680016
:100AB0009091690070E0E11171E060E09695879592
:100AC000A0E0B0E0281739074A075B0708F061E0AB
:100AD0007617C9F081E08E1B80937B02882329F46E
:100AE00080E090E0A0E0B0E006C0809168009091C6
:100AF0006900A0E0B0E08093680290936902A0933F
:100B00006A02B0936B0280917B02809367021F910F
:100B10000F91FF90EF900895282F22952F709AE063
:100B2000299F900111248F70820F0895882319F452
:100B300010926700089581E0809367000895809186
:100B400067000895A7980895AF92CF92EF920F9300
:100B50001F930E94DC0480916702209177023091FC
:100B600078028823F1F4232B49F01092740210923A
:100B700073021092780210927702B5C0209173022E
:100B8000309174028BE0293B380708F09CC081E06B
:100B9000809366022F5F3F4F30937402209373025D
:100BA000A2C0232B09F087C0809173029091740238
:100BB000855A96408B52914008F059C080916C0242
:100BC00090916D02895E934008F451C080916F024C
:100BD000833009F044C080916A0060916B002091DD
:100BE0006E0000916C0030916F0070916D00E82FE5
:100BF000E295EF709AE0E99FF00111248F70462F83
:100C000042954F70499FA00111246F70640F422FCD
:100C100042954F70499FA00111242F70240F402F3F
:100C200042954F70499FA00111240F70040F432F6C
:100C300042954F70499FA00111243F70340F472FF8
:100C400042954F70499FA00111247F70740F8E0F41
:100C500040E0E32EC72E12E0A12E0E948A081092D7
:100C600072021092710281E080936F020CC0809139
:100C70006F028330A9F410927202109271021092E6
:100C80006F02109266028FEF80936A0080936B0070
:100C900080936F0080936D0080936C0080936E0052
:100CA000109276021092750281E090E090937802A3
:100CB0008093770218C0209175023091760281E00E
:100CC0002D32380738F010926F021092660210929F
:100CD000790209C081E0809366022F5F3F4F309315
:100CE00076022093750280917102909172020196B2
:100CF0009093720280937102885E934021F4109267
:100D000072021092710290916F02923069F09330EA
:100D100009F4B2C1913009F0B1C11092700282E0C1
:100D200080936F029093660282E0809366028091C6
:100D3000710290917202845F914009F09FC1E0902E
:100D400070028E2D8551863208F080C12091750287
:100D500030917602C901CC978135910510F420E0DD
:100D60000DC0205A30402135310508F06FC1809107
:100D70007A0291E0892780937A0221E08E2D90E01B
:100D8000FC017597E632F10508F060C1E65DFF4FA2
:100D9000EE0FFF1F0590F491E02D099420936A0057
:100DA0001CC0822F90E02E2D30E02551304002C033
:100DB000880F991F2A95E2F720916A00282B20932B
:100DC0006A0044C180917A02882309F43FC18FEF01
:100DD00080936A003BC120936B0020937A0236C156
:100DE000822F90E02E2D30E02D51304002C0880F30
:100DF000991F2A95E2F720916B00282B20936B0016
:100E000025C180917A02882309F420C18FEF809355
:100E10006B001CC120936E00E0CF822F90E02E2D3E
:100E200030E02452304002C0880F991F2A95E2F723
:100E300020916E00282B20936E0008C1822F90E035
:100E40002E2D30E02A52304002C0880F991F2A957B
:100E5000E2F720916D00282B20936D00F7C0822FC0
:100E600090E02E2D30E02D52304002C0880F991FA7
:100E70002A95E2F720916C00282B20936C00E6C0A5
:100E8000822F90E02E2D30E02253304002C0880F98
:100E9000991F2A95E2F720916F00282B20936F006D
:100EA000D5C080917A02882349F08FEF80936E003D
:100EB00080936D0080936C0080936F0050916A0066
:100EC000852F82958F703AE0839FC0011124BFE087
:100ED000CB2EC522C80E8BE38C1508F49CC0209144
:100EE0006B00822F82958F70839FC0011124F22F97
:100EF000FF70F80FF83108F08EC0A0906E008A2DB8
:100F000082958F70839FC00111249A2D9F70980F36
:100F100009F481C0903208F07EC010916C00812FDE
:100F200082958F70839FC0011124912F9F70980F1D
:100F300009F471C09D3008F06EC000916F00802FE1
:100F400082958F70839FC0011124202F2F70280F4E
:100F5000243608F060C0E0916D001E160CF05BC0F6
:100F6000E8300CF058C080917300E81709F046C0D3
:100F700080917400A81609F041C080917200181782
:100F8000E9F5809175000817C9F5409170002C2D86
:100F900030E0842F992787FD90950196281739070F
:100FA00051F42F2F30E080917100992787FD9095A3
:100FB0002817390799F05523F9F44B33E9F42F2F0B
:100FC00030E080917100992787FD9095019668E146
:100FD00070E00E94CB3D2817390771F480917902A7
:100FE0008F5F80937902882349F081E080937902B2
:100FF00083E080936F0202C010927902C092700069
:10100000F0937100E0937300A0927400109372004B
:10101000009375001BC08FEF80936A0080936B0074
:1010200080936F0080936D0080936C0080936E00BE
:101030001092790280937000809371008093750004
:101040008093730080937200809374008E2D8F5F65
:10105000809370028C3391F4109270028FEF809322
:101060006A0080936B0080936F0080936D00809383
:101070006C0080936E0002C0909366021F910F91E6
:10108000EF90CF90AF900895833008F080E0809388
:101090007D02089580917D020895E82FF0E0EE0F23
:1010A000FF1FEA58FF4F808191810895F8942091A5
:1010B0009F003091A0007894C9010895F89410928F
:1010C000A00010929F0078940895F8948FEF9FEFFE
:1010D0009093A00080939F0078940895F894809155
:1010E0009F009091A0009093A2008093A1008FEFA9
:1010F0009FEF9093A00080939F0078940895F894B8
:101100008091A1009091A2009093A00080939F00F5
:1011100078940895AF92CF92EF920F9380937F02CD
:1011200060937E0220939800C0929A0000939900E9
:10113000E092810240938002A09282020F91EF9090
:10114000CF90AF900895CF92DF92EF92FF920F93DE
:101150001F93FC01DB01B8018701F89480918402A0
:101160008083809183028C9380918502FA01808331
:1011700080919B00F901808380919C00FB0180831A
:1011800080918602F801808380919D00F601808322
:1011900078941F910F91FF90EF90DF90CF9008957A
:1011A00080913304882311F00E94E03508958091E6
:1011B0009B006AE00E94AB3D805D0E9450338091AD
:1011C0009B006AE00E94AB3D892F805D0E945033F6
:1011D00080919C006AE00E94AB3D805D0E9450338C
:1011E00080919C006AE00E94AB3D892F805D0E9447
:1011F0005033809186026AE00E94AB3D805D0E9480
:101200005033809186026AE00E94AB3D892F805D59
:101210000E94503380919D006AE00E94AB3D892F6F
:10122000805D0E945033809183026AE00E94AB3D52
:10123000805D0E945033809183026AE00E94AB3D42
:10124000892F805D0E945033809184026AE00E9461
:10125000AB3D805D0E945033809184026AE00E9421
:10126000AB3D892F805D0E945033809185026AE0FA
:101270000E94AB3D805D0E945033809185026AE000
:101280000E94AB3D892F805D0E9450338DE20E9409
:10129000503380919E000E9450338DE00E94503365
:1012A0008AE00E945033089580918202882309F4D5
:1012B0007CC0E0918202F0E0EE0FFF1FEA58FF4F82
:1012C0001182108290917D029130F9F480919C00FE
:1012D0008A30E1F580919D008730C1F580919B00B7
:1012E0008931A0F1809184028F3180F180917E025A
:1012F000823061F580918302823041F580918202D3
:10130000813021F190937C0221C09230F9F48091D8
:101310009C008B30D9F480919D008730B9F4809186
:101320009B00883098F4809184028F3178F080910E
:101330007E02813059F480918302813039F48091AA
:101340008202813019F081E080937C0280918002DA
:101350008093850280917F028093840280917E0237
:101360008093830280919A0080939D0080919800E1
:1013700080939B008091990080939C0080918102D2
:101380008093860280913304882331F08091820219
:10139000813011F00E94023610928202109288026F
:1013A000109287020E94D70809C08091870290910D
:1013B00088020196909388028093870280919F0013
:1013C0009091A00097FD09C080919F009091A0008E
:1013D00001969093A00080939F0080918702909146
:1013E00088028A3F910509F016C110928802109276
:1013F0008702809185028F5F8093850280918502AC
:101400008C3308F4FCC010928502809184028F5FB7
:101410008093840280917A0090917B002FEF8F3F20
:10142000920729F0019690937B0080937A00809137
:101430007800909179002FEF8F3F920729F0019665
:10144000909379008093780080917C0090917D004A
:101450002FEF8F3F920729F0019690937D008093A4
:101460007C00809184028C3308F4D3C010928402F3
:10147000809183028F5F8093830280917D0281300F
:1014800089F590919C00933051F480919D008730B4
:1014900031F480919B00893108F468C036C0809196
:1014A0009C008A3009F060C080919D00873009F06F
:1014B0005BC080919B00893108F458C08091840200
:1014C000882309F053C080918302833009F04EC015
:1014D00080917C02882309F049C082E080938302D6
:1014E00081E039C0823009F041C090919C00933076
:1014F000B9F480919D00873099F480919B008830E9
:10150000A8F180919B008F3088F580918402882318
:1015100069F580918302823049F5909383021DC062
:1015200080919C008B3001F580919D008730E1F423
:1015300080919B008830D0F4809184028823B1F49C
:1015400080918302823091F480917C02882371F42F
:1015500081E08093830280937C028091330488230E
:1015600029F00E94023602C010927C028091830210
:10157000883108F44EC01092830280919B008F5FE7
:1015800080939B0080919D008F5F80939D00809150
:101590009D00883018F081E080939D008091860244
:1015A00090E083709070892B39F4E0919C00F0E01A
:1015B000E158FF4FE08106C0E0919C00F0E0E05868
:1015C000FF4FE38580919B00E81718F591E0909319
:1015D0009B0080919C008F5F80939C0080919C0079
:1015E0008D30B8F090939C008091860290E0019637
:1015F00064E670E00E94CB3D809386020AC0809131
:1016000085028E3131F480913304882311F00E94D9
:10161000E0350E94D708089581E0809395020895EF
:10162000823008F080E080939602089580919602BF
:101630000895F894823008F081E08093F000789467
:1016400008958B3F08F080E0F89480939802789496
:1016500008958B3F08F088E2F8948093F100789425
:1016600008958091980208958091F10008958093E3
:101670009F020895823008F080E08093A1020895CF
:101680008091F0008111609568BB08959091F00001
:10169000482F50E0992371F422B34D5F5F4F81E0F2
:1016A00090E002C0880F991F4A95E2F78095822347
:1016B00082BB089522B34D5F5F4F81E090E002C08E
:1016C000880F991F4A95E2F7282B22BB0895809135
:1016D000F000882319F482B3886702C082B3877848
:1016E00082BB0895982F81568A3110F4905203C01E
:1016F0009A3008F49A5E892F0895FC019081892F11
:1017000081568A3110F4905203C09A3008F49A5EE0
:10171000392F36513093F2009281892F81568A31C8
:1017200010F4905203C09A3008F49A5E292F265183
:101730002093F3009481892F81568A3110F49052BE
:1017400003C09A3008F49A5E492F46514093F40042
:101750009681892F81568A3110F4905203C09A30B5
:1017600008F49A5E96519093F50081818E3219F4B7
:1017700030683093F20083818E3221F42068209308
:10178000F3000DC08A3329F08C3739F42068209398
:10179000F30081E08093A10204C0803211F4109222
:1017A000A10285818E3219F440684093F40087814C
:1017B0008E3219F490689093F500F89481E080934C
:1017C000A20278940895FC019081892F81568A3174
:1017D00010F4905203C09A3008F49A5E9651909398
:1017E000F2009181892F81568A3110F4905203C002
:1017F0009A3008F49A5E96519093F3009281892F63
:1018000081568A3110F4905203C09A3008F49A5EDF
:1018100096519093F4009381892F81568A3110F468
:10182000905203C09A3008F49A5E96519093F50056
:101830001092A102F89481E08093A2027894089516
:10184000DF92EF92FF920F931F93DF93CF93CDB769
:10185000DEB72A970FB6F894DEBF0FBECDBFDE010C
:101860001196E6EFF0E085E001900D928150E1F7EE
:10187000FE01369685E0DF011D928A95E9F7809199
:10188000A2028823C9F0809192028823A9F4809152
:10189000F20080938E028091F30080938F028091FA
:1018A000F400809390028091F5008093910281E092
:1018B000809392021092A20260919202643009F425
:1018C000CDC0653050F4623009F467C0633008F071
:1018D00099C0613009F070C10AC0663009F409C1CD
:1018E000663008F4DAC0673009F066C137C180910C
:1018F0009602882321F0809195028823D9F4809163
:10190000F20080938A028091F30080938B02809191
:10191000F40080938C028091F50080938D021092E8
:10192000920283E090E09093EF008093EE0010929B
:10193000950242C14091EE005091EF00FA01E2574A
:10194000FD4FE0812E2F30E0DA01A657BD4F8C917C
:1019500090E0282739272F773070232BC1F4EC93A0
:101960004115510549F0415050405093EF004093CC
:10197000EE006093920220C11092950210929202A2
:1019800083E090E09093EF008093EE0015C11092F9
:1019900094021092930282E00DC1A091EE00B091EA
:1019A000EF00FE01EA0FFB1F1182FD01E657FD4F1C
:1019B000E081F0E0ED55FF4F8081282F30E0C90134
:1019C0009695879596958795817021FD806823FD72
:1019D000806220FD8064AC0FBD1F16968C938091B1
:1019E00093029091940201969093940280939302B3
:1019F0008F5E924008F4E0C010929402109293021D
:101A000083E0D8C0A091EE00B091EF00FE01EA0F94
:101A1000FB1F1182FD01E657FD4FE081F0E0ED551F
:101A2000FF4F808182FF02C080E401C080E0AC0FE4
:101A3000BD1F16968C93809193029091940201960B
:101A400090939402809393028F5E924008F4B4C006
:101A5000109294021092930284E0ACC0E091EE00E8
:101A6000F091EF00DE01AE0FBF1F11961C9211978F
:101A7000FD011682809193029091940201969093B9
:101A8000940280939302895B9B4008F495C0109266
:101A900094021092930285E08DC0A091EE00B09167
:101AA000EF00FE01EA0FFB1F1182FD01E257FD4F1F
:101AB000E081F0E0ED55FF4F808186FF02C084E0B9
:101AC00001C080E0AC0FBD1F16968C9380919302ED
:101AD00090919402019690939402809393028F5E6A
:101AE000924008F469C0109294021092930286E02A
:101AF00061C0A091EE00B091EF00FE01EA0FFB1F64
:101B00001182FD01E257FD4FE081F0E0ED55FF4FFE
:101B10002081422F50E0CA0136E0969587953A958C
:101B2000E1F7817027FD826045FD886040FD84609B
:101B3000AC0FBD1F16968C938091930290919402E6
:101B4000019690939402809393028F5E9240A0F14D
:101B5000109294021092930287E02CC02091EE0024
:101B60003091EF00FE01E20FF31F80EF8183F90156
:101B7000E257FD4F4081DE01A20FB31FE42FF0E0DA
:101B8000ED55FF4F80818F7016968C938091930254
:101B900090919402019690939402809393020297FD
:101BA00058F0109294021092930226573D4FF9017B
:101BB000408381E08093920280919F0280939E02F5
:101BC000D090A102D092A002833009F40CC28430DC
:101BD00038F4813009F483C0823008F0FFC00AC0B5
:101BE000853009F472C1853008F409C2863009F0E5
:101BF00025C38EC26091F000662319F482B3886712
:101C000002C082B3877882BB979870918902743042
:101C100008F05DC0472F50E0FA01E657FD4F808184
:101C2000DE0111969E012A5F3F4FE82FF0E08A0106
:101C30000D5F1F4F87FF0FC0EF77F070ED55FF4F1F
:101C400090819061A40FB51F8C919823240F351FAC
:101C5000D9018C910DC0EF77F070ED55FF4FA40FB7
:101C6000B51F90818C919823240F351FF901808135
:101C7000982B662369F498BB22B381E090E002C000
:101C8000880F991F0A95E2F78095822382BB0CC0CA
:101C9000909598BB22B381E090E002C0880F991F15
:101CA0000A95E2F7282B22BB772321F4F1E0DF1617
:101CB00009F4979A972F9F5F9093890280919802D9
:101CC000882309F0BBC2943009F0B8C282C0809169
:101CD00097028F5F809397029091980277C06091EE
:101CE000F000662319F482B3886702C082B3877854
:101CF00082BB979870918902743008F060C0472FBA
:101D000050E0FA01E657FD4F8081DE0111969E01F9
:101D10002A5F3F4FE82FF0E087FF0FC0EF77F070AA
:101D2000ED55FF4F90819061A40FB51F8C919823C2
:101D3000240F351FD9018C910DC0EF77F070ED5550
:101D4000FF4FA40FB51F90818C919823240F351F4E
:101D5000F9018081982B6111909598BB3091F10029
:101D60003A3FD0F4FA013396662361F422B381E05E
:101D700090E002C0880F991FEA95E2F780958223D0
:101D800082BB0AC022B381E090E002C0880F991F95
:101D9000EA95E2F7282B22BB772331F4F1E0DF1636
:101DA00019F43A3F08F4979A872F8F5F809389023E
:101DB000332309F043C2843009F040C20AC0809145
:101DC00097028F5F809397029091F100981708F027
:101DD00037C2109289021092970232C28091990202
:101DE00090919A028331910508F4F7C06091F00058
:101DF000662319F482B3886702C082B3877882BBF6
:101E0000979870918902743009F457C0472F50E0B9
:101E1000FA01E657FD4F8081DE0111969E012A5F8F
:101E20003F4FE82FF0E08A010D5F1F4F87FF0FC083
:101E3000EF77F070ED55FF4F90819061A40FB51FC3
:101E40008C919823240F351FD9018C910DC0EF7709
:101E5000F070ED55FF4FA40FB51F90818C91982322
:101E6000240F351FF9018081982B662369F498BBF4
:101E700022B381E090E002C0880F991F0A95E2F733
:101E80008095822382BB0CC0909598BB22B381E0E1
:101E900090E002C0880F991F0A95E2F7282B22BB19
:101EA000772321F4F1E0DF1609F4979A972F9F5FCB
:101EB000909389028091980276C0809197028F5FFB
:101EC00080939702909198027AC0809199029091A4
:101ED0009A028331910508F480C06091F000662376
:101EE00019F482B3886702C082B3877882BB97985F
:101EF00070918902743009F45BC0472F50E0FA01F9
:101F0000E657FD4F8081DE0111969E012A5F3F4F0B
:101F1000E82FF0E08A010D5F1F4F87FF0FC0EF77BA
:101F2000F070ED55FF4F90819061A40FB51F8C911B
:101F30009823240F351FD9018C910DC0EF77F070D5
:101F4000ED55FF4FA40FB51F90818C919823240F5E
:101F5000351FF9018081982B662369F498BB22B361
:101F600081E090E002C0880F991F0A95E2F7809502
:101F7000822382BB0CC0909598BB22B381E090E095
:101F800002C0880F991F0A95E2F7282B22BB7723FE
:101F900021F4F1E0DF1609F4979A972F9F5F909351
:101FA00089028091F100882391F4943081F409C072
:101FB000809197028F5F809397029091F10098171C
:101FC00020F4109289021092970281E001C080E013
:101FD00010929A021092990234C1019690939A023B
:101FE000809399022BC18091F000882319F482B369
:101FF000886702C082B3877882BB97981FC1E09040
:102000009902F0909A027091F00020EDE21627E01C
:10201000F20608F065C0772319F482B3886702C01E
:1020200082B3877882BB979860918902643009F403
:1020300054C0462F50E0FA01E657FD4F8081DE0183
:1020400011969E012A5F3F4FE82FF0E08A010D5F55
:102050001F4F87FF0FC0EF77F070ED55FF4F908156
:102060009061A40FB51F8C919823240F351FD901BF
:102070008C910DC0EF77F070ED55FF4FA40FB51F99
:1020800090818C919823240F351FF9018081982B22
:10209000772369F498BB22B381E090E002C0880FF7
:1020A000991F0A95E2F78095822382BB0CC0909518
:1020B00098BB22B381E090E002C0880F991F0A9577
:1020C000E2F7282B22BB662321F4F1E0DF1609F4A6
:1020D000979A6F5F609389020CC01092890209C0C1
:1020E000772319F482B3886702C082B3877882BBF2
:1020F0009798C701019690939A0280939902895804
:10210000934108F49DC010929A021092990298C0CF
:102110007091F000772319F482B3886702C082B30C
:10212000877882BB979860918902643008F054C028
:10213000462F50E0FA01E657FD4F8081DE011196EF
:102140009E012A5F3F4FE82FF0E08A010D5F1F4F8D
:1021500087FF0FC0EF77F070ED55FF4F90819061D2
:10216000A40FB51F8C919823240F351FD9018C9192
:102170000DC0EF77F070ED55FF4FA40FB51F9081A4
:102180008C919823240F351FF9018081982B772398
:1021900069F498BB22B381E090E002C0880F991FD8
:1021A0000A95E2F78095822382BB0CC0909598BB7C
:1021B00022B381E090E002C0880F991F0A95E2F7F0
:1021C000282B22BB662321F4F1E0DF1609F4979A4D
:1021D0006F5F6093890232C0809197028F5F809316
:1021E000970290919B02981720F410928902109206
:1021F000970280919D028F5F80939D02823300F150
:1022000010929D0280919C02882319F08130C1F4C4
:102210000AC0892F8F5F80939B02803588F081E010
:1022200080939C020EC0892F815080939B0288234B
:1022300039F410929D0210929C0202C080E001C00D
:1022400081E02A960FB6F894DEBF0FBECDBFCF91C6
:10225000DF911F910F91FF90EF90DF90089588E735
:1022600081BB82BB8F9A979887B38FEF87BB88BB60
:102270000895F8948091A9021092A9027894089583
:102280008093AA020895A698AE9A8AB38F708ABBEB
:102290008BB3806F8BBB1092B30208950E947E01B6
:1022A0008091B3028130B1F0813038F0823009F48E
:1022B00045C0833009F061C04FC089B3807F803F43
:1022C00009F45BC084EF91E09093B2028093B10275
:1022D00081E03FC08091B1029091B202019790934A
:1022E000B2028093B102892B09F047C089B3807F85
:1022F000803F09F1CE9906C0F89481E08093A9024D
:10230000789417C0CC9906C0F89482E08093A90213
:1023100078940FC0CF9906C0F89484E08093A90206
:10232000789407C0CD9905C0F89483E08093A90202
:10233000789482E00EC01092B302089589B3807F32
:10234000803FD9F484EF91E09093B2028093B10280
:1023500083E08093B30208958091B1029091B2021C
:1023600001979093B2028093B102892B31F41092BD
:10237000B2021092B1021092B3020895DF93CF938C
:1023800000D000D000D0CDB7DEB71D821C821E82E7
:102390001982CE0101960E94F000882391F18E816E
:1023A00080FD2FC08981823031F48C819D81823102
:1023B000910549F41EC0873021F58C819D818C30B8
:1023C000910529F416C08E31910529F414C080328C
:1023D000910529F410C08330910529F40EC0813293
:1023E000910521F40AC0019761F409C00D9749F4E1
:1023F00006C082E107C08FE105C080E203C081E230
:1024000001C08FEF26960FB6F894DEBF0FBECDBF8A
:10241000CF91DF9108951F931091AA020E94BE11DF
:102420008F3119F1803218F4823129F424C08032BE
:10243000F1F08132F1F0F8948091A9021092A90292
:1024400078948230C1F0833018F4813029F411C0BF
:10245000833069F0843049F08091AA02882311F416
:1024600010E00AC01092AA0207C013E005C014E0F1
:1024700003C011E001C012E0812F1F9108958091E7
:10248000AC02813019F1813020F0823009F0CBC0EC
:1024900038C00E9465080E945E081092AD0210923A
:1024A000AE0281E08093AC021092B0021092AF02B3
:1024B0008FEF8093FC0083E4809347048FE6809342
:1024C000480484E68093490485E618C00E945608B3
:1024D000880F991F880F991F815D97400CF4A3C046
:1024E0000E9465080E945E0882E08093AC028DE243
:1024F00080934704809348048093490480934A045E
:102500008EC00E945608880F991F880F991F835EFE
:1025100094400CF440C00E9465080E945E084091FF
:10252000AD028091FC00992787FD9095242F30E023
:102530008217930749F58091AE026AE00E94AB3D95
:10254000993011F51092AE02842F8F5F8093AD0207
:10255000843039F41092AC022091AF023091B00275
:1025600064C08091AF029091B0029C0173E0220F91
:10257000331F7A95E1F7880F991F280F391F309381
:10258000B0022093AF0207C08091AE028F5F8093AC
:10259000AE02883230F40E940B12813039F0823062
:1025A00049F51092AC022FEF3FEF3FC08091AE0291
:1025B0006AE00E94AB3DE92FF0E08091AF0290917C
:1025C000B0026AE070E00E94B73DCB019B0153E08E
:1025D000220F331F5A95E1F7880F991F280F391FD3
:1025E000E20FF31FF093B002E093AF028091AD02CF
:1025F0008093FC008DE2809347048093480480938D
:10260000490480934A04E091AD02F0E0E95BFB4F9E
:102610008091AE026AE00E94AB3D905D908387E4BA
:1026200094E00E94E30B2EEF3FEFC9010895CF9293
:10263000DF92EF92FF920F931F93CF93DF93D82EE9
:10264000C62EEA0179018091A302813019F181300F
:1026500038F0823009F449C0833009F01BC104C14D
:102660001092A6021092A5021092A4028FEF8093FE
:10267000FB001092A8021092A7020E9465080E9417
:102680005E0881E08093A30280E00E94370BC701BF
:102690000E94E30B0E945608880F991F880F991F0C
:1026A0008D5D95400CF4F6C082E08093A30280E239
:1026B00080934704809348048093490480934A049C
:1026C00080E023E030E09FE507C0F901E81BF10955
:1026D000E95BFB4F90838F5F8D15B8F31092A402D6
:1026E0000E9465080E945E08BAC00E945608880FC2
:1026F000991F880F991FC817D90730F40E946508E1
:102700001092A30282E0C7C00E940B12823061F0D7
:10271000833020F4813009F074C030C0833041F040
:10272000843009F06EC00EC01092A30280E0B3C0E6
:102730008091FB0087FD0AC08F5F8093FB008A3089
:1027400084F004C08091FB0087FF03C01092FB005F
:1027500008C081508093FB008F3F19F489E080937B
:10276000FB00E091A402F0E03496ED19F109E95B79
:10277000FB4F8091FB00805D80833FC04091FB0058
:1027800047FD3BC0E091A4028D2D90E0CC2041F0AC
:10279000F0E0E81BF90BE55BFB4F8DE2808308C09E
:1027A000F0E0E81BF90BE55BFB4F405D40834053D5
:1027B0006091A4026F5F6093A402552747FD509576
:1027C0008091A5029091A6029C0103E0220F331F85
:1027D0000A95E1F7880F991F280F391F420F531FE1
:1027E0005093A6024093A5028FEF8093FB006D15D6
:1027F00021F483E08093A3024DC00E9465080E94EB
:102800005E080E945608880F991F880F991F64EF71
:1028100071E00E94CB3D8B3F910554F0E091A40202
:10282000F0E03496ED19F109E95BFB4F80E20EC050
:102830002091FB00E091A4028D2D90E02F3F41F408
:10284000F0E0E81BF90BE55BFB4F8FE5808307C0E9
:10285000F0E0E81BF90BE55BFB4F205D208387E48C
:1028600094E00E94E30B16C00E945608880F991F3F
:10287000880F991F855F91406CF00E946508109247
:10288000A3028091A5029091A602F8019183808312
:1028900085E001C081E0DF91CF911F910F91FF9002
:1028A000EF90DF90CF900895EF92FF920F931F93D8
:1028B000CF93DF93EC01E62EF42E89018091AB02D9
:1028C000882321F0813009F068C008C00E946508A3
:1028D0000E945E0881E08093AB0260C00E945608AF
:1028E0000817190720F41092AB0283E057C00E942A
:1028F0000B12823061F0833020F4813009F04DC03A
:1029000044C0833041F0843009F047C01EC01092AB
:10291000AB0280E043C00E945608288185369105AD
:1029200024F02F1580F42F5F29C02F1560F4822F1B
:1029300065E00E94AB3D822F8B5F9111891B8883DC
:102940008881F816E0F4E8821AC00E9456082881AF
:102950008536910524F0E21620F421500FC0E216CE
:1029600010F0F8820CC0263050F0822F65E00E94F3
:10297000AB3D992311F4255001C0291B28830E94E7
:1029800065080E945E0882E009C00E9465080E94F6
:102990005E081092AB0284E001C081E0DF91CF912C
:1029A0001F910F91FF90EF90089587B190E087708D
:1029B00090708330910589F1843091054CF4813019
:1029C000910511F1823091051CF5892B69F036C013
:1029D0008530910551F1853091051CF186309105C6
:1029E00041F1079759F529C087B1867F816087B982
:1029F00024B144B1942F80E030E0822B932B90934C
:102A0000B5028093B4021AC087B1857F826003C08B
:102A100087B1847F836087B911C087B1837F846069
:102A2000FACF87B1827F8560F6CF87B1817F8660DC
:102A3000F2CF87B1807F8760EECF3B98369A0895BA
:102A400080E487B98FE986B9369A0895853008F011
:102A500081E08093020108958091020108958091A0
:102A6000B6020895F8948A3008F082E08093B602A6
:102A700078940895F894883008F082E08093B70243
:102A8000789408958091B7020895BF92CF92DF9213
:102A9000EF92FF920F931F93DF93CF93CDB7DEB7E3
:102AA0002B970FB6F894DEBF0FBECDBFB82ECE0168
:102AB0000196BE016E5F7F4FAE014D5F5F4F9E017D
:102AC0002C5F3F4F8E010B5F1F4FF6E0EF2EF12C76
:102AD000EC0EFD1EE7E0CE2ED12CCC0EDD1E0E94AA
:102AE000A3088F8191E0B916D1F48430A1F085302C
:102AF00028F4823051F0833050F419C0863099F1B7
:102B0000863068F18730B9F508C084E401C08DE4EF
:102B1000888789E62FC084E415C083E513C084301C
:102B2000D1F0853038F4823081F0833080F4813008
:102B300011F507C08630B9F0863088F08730D9F4B7
:102B400016C08DE488878FE615C084E511C087E53F
:102B5000888785E60FC084E5888788E60BC086E411
:102B6000888782E707C083E5888781E603C083E51D
:102B7000888785E789872E81822F6AE00E94AB3D96
:102B8000805D8A87822F0E94AB3D905D9B87CE013E
:102B900008960E94E30B2B960FB6F894DEBF0FBE8B
:102BA000CDBFCF91DF911F910F91FF90EF90DF90FC
:102BB000CF90BF9008950F931F93DF93CF9300D0D2
:102BC00000D0CDB7DEB780E190E00E948300082FEF
:102BD0008091D002813091F0813020F0823009F074
:102BE00052C020C08DEF90E00E94E30B0E94650868
:102BF0000E945E088091D0028F5F11C00E9456082B
:102C0000880F991F880F991F855C9940E4F10E94F5
:102C100065080E945E0881E00E94370B82E0809385
:102C2000D00231C00E945608880F991F880F991F43
:102C3000855C99404CF00E9465081092D00280E0BB
:102C40000E94370B80E074C080E289838A838B8383
:102C50008C830E945D2297FD02C080E58B8380916A
:102C6000B702882311F480E201C086E48C830E94BD
:102C70009F05882311F48EE401C089E48983CE0185
:102C800001960E94E30B0E940B128230B9F0833050
:102C900020F4813009F04BC006C0833099F18430B4
:102CA00009F045C01AC010E0002309F411E0812F9B
:102CB0000E94190B80E190E0612F1DC08091B70246
:102CC000882321F481E08093B70202C01092B702FA
:102CD00081E190E06091B7020EC00E949F058823B9
:102CE00011F481E001C080E00E9496050E949F05DA
:102CF000682F82E190E00E9478000E9465080E949F
:102D00005E0815C08FEF9FEF0E9462220E945D2235
:102D1000692F772767FD7A9589E190E00E94780016
:102D20000E945D22682F88E190E00E94780081E097
:102D30000F900F900F900F90CF91DF911F910F91F7
:102D40000895CF92DF92EF92FF920F931F93DF933C
:102D5000CF93CDB7DEB72F970FB6F894DEBF0FBE77
:102D6000CDBF80E289878B878D878F87CE010196C3
:102D7000BE016E5F7F4FAE014D5F5F4F9E012C5FC6
:102D80003F4F8E010B5F1F4FF6E0EF2EF12CEC0E44
:102D9000FD1EE7E0CE2ED12CCC0EDD1E0E94A30836
:102DA0002C81822F6AE00E94AB3D805D8887822F54
:102DB0000E94AB3D905D9A873EE23B872D81822F3A
:102DC0000E94AB3D805D8C87822F0E94AB3D905D61
:102DD0009E873F87CE0108960E947D0B2F960FB6E7
:102DE000F894DEBF0FBECDBFCF91DF911F910F9141
:102DF000FF90EF90DF90CF9008951F93DF93CF93D4
:102E0000CDB7DEB72A970FB6F894DEBF0FBECDBFA1
:102E10001A82198210E21C831E8318871A878091F8
:102E20003404882309F45BC0CE0101960E94CB359F
:102E3000882309F45DC0E981FA81F7FD22C0CF0142
:102E400064E670E00E94CB3D605D6B83CF0164E679
:102E500070E00E94CB3D6AE070E00E94CB3D605D77
:102E60006D838EE28E83CF016AE070E00E94CB3DDD
:102E7000805D8F8383E48987E436F105ACF51B839D
:102E800033C0222733272E1B3F0B3A8329838DE241
:102E90008B83C90164E670E00E94CB3D605D6D8369
:102EA000C90164E670E00E94CB3D6AE070E00E94D8
:102EB000CB3D462F405D4F83EEE2E887C9016AE0D3
:102EC00070E00E94CB3D805D89872436310564F433
:102ED0004D838F8383E489871887EE8305C08DE255
:102EE0008B838D838F838987CE0103960E947D0B10
:102EF0002A960FB6F894DEBF0FBECDBFCF91DF91FB
:102F00001F91089580913304882331F482E00E9458
:102F10004D08805A954050F480913304882391F0F5
:102F200082E00E944D088056974260F00E94D604CD
:102F3000882311F490E00CC00E94D904811181E033
:102F4000982F06C090E08091B602863009F091E09B
:102F5000892F0895CF92DF92EF92FF920F931F93E4
:102F6000DF93CF93CDB7DEB72F970FB6F894DEBFC0
:102F70000FBECDBF81E00E9473228091BE028823E4
:102F800021F0823009F068C05BC0CE010196BE011D
:102F90006E5F7F4FAE014D5F5F4F9E012C5F3F4FD5
:102FA0008E010B5F1F4FB6E0EB2EF12CEC0EFD1ED9
:102FB000A7E0CA2ED12CCC0EDD1E0E94A3082A81C8
:102FC000822F6AE00E94AB3D888730E23987822FEA
:102FD0000E94AB3D9A873B872981822F0E94AB3D9F
:102FE0008C873D87822F0E94AB3D9E873F870E9442
:102FF0008217882311F08EE28B878A8188508E3069
:1030000010F081E001C080E00E94370BCE010896ED
:103010000E947D0B0E94A6268823F1F40E940B12C9
:10302000813019F08230C1F404C082E08093BE0286
:1030300013C080913604882379F00E9456350CC065
:103040000E94DC2E9093C0028093BF02009711F083
:10305000029711F41092BE022F960FB6F894DEBFBD
:103060000FBECDBFCF91DF911F910F91FF90EF90D9
:10307000DF90CF900895CF92DF92EF92FF920F935F
:103080001F93DF93CF93CDB7DEB72F970FB6F8948A
:10309000DEBF0FBECDBF80E289878B878D878F878C
:1030A000CE010196BE016E5F7F4FAE014D5F5F4F57
:1030B0009E012C5F3F4F8E010B5F1F4FF6E0EF2EFE
:1030C000F12CEC0EFD1EE7E0CE2ED12CCC0EDD1E39
:1030D0000E94A3082A81822F6AE00E94AB3D805D96
:1030E0008887822F0E94AB3D905D9A872981822F2D
:1030F0000E94AB3D805D8C87822F0E94AB3D905D2E
:103100009E8780910201813051F0833061F00E94EE
:103110008217882351F080910201823011F48EE2EF
:1031200003C0843011F48AE38B870E940C0BCE011C
:1031300008960E947D0B2F960FB6F894DEBF0FBE47
:10314000CDBFCF91DF911F910F91FF90EF90DF9056
:10315000CF900895CF92DF92EF92FF920F931F933B
:10316000DF93CF93CDB7DEB727970FB6F894DEBFC6
:103170000FBECDBF80E00E9473228091D4028823CD
:1031800021F0823009F05BC04EC0CE010196BE0135
:103190006E5F7F4FAE014D5F5F4F9E012C5F3F4FD3
:1031A0008E010B5F1F4FB6E0EB2EF12CEC0EFD1ED7
:1031B000A7E0CA2ED12CCC0EDD1E0E94A3088B8165
:1031C00064E10E94AB3D913130F09151943018F49C
:1031D0000E94FD1602C00E943B188F81833071F45B
:1031E00089818D3121F48A81833141F405C08B338B
:1031F00029F48A81843111F486E007C08A818850DD
:103200008E3010F081E001C080E00E94370B0E94F8
:10321000A6268823A1F40E940B12813081F482E05B
:103220008093D4020CC00E94DC2E9093D60280932F
:10323000D502009711F0029711F41092D40227964C
:103240000FB6F894DEBF0FBECDBFCF91DF911F91B7
:103250000F91FF90EF90DF90CF900895CF92DF9283
:10326000EF92FF920F931F93DF93CF93CDB7DEB70B
:103270002B970FB6F894DEBF0FBECDBF81E00E9442
:1032800073228091D102833309F46BC1843348F4F3
:10329000823009F43BC1823309F443C1882359F0D9
:1032A0006DC18D3309F449C18E3309F45AC18C3391
:1032B00009F064C13CC1CE010196BE016E5F7F4F33
:1032C000AE014D5F5F4F9E012C5F3F4F8E010B5F44
:1032D0001F4FF6E0EF2EF12CEC0EFD1EE7E0CE2E98
:1032E000D12CCC0EDD1E0E94A30809811A818F818A
:1032F0008150853018F0FF24F394D4C00B3329F4A7
:10330000173089F0193041F40EC00E3041F41C30F2
:1033100051F01E3071F407C01F3059F404C00C3254
:1033200041F4113131F486E00E94370B82E0F82E2F
:1033300001C0FF242B81822F6AE00E94AB3D9923BC
:1033400051F0822F90E001966AE070E00E94CB3D40
:10335000892B09F0A5C08CE3189FA0011124400F10
:10336000511DCA01805E91408A35910538F48CE484
:1033700088878DE289872AE332E00BC0CA018A532D
:1033800092404E97C8F482E688878DE2898728E5C7
:1033900032E0241B350BC9016AE070E00E94B73DA2
:1033A0006A87C9016AE070E00E94B73D8B87CE0151
:1033B00008960E94E30B76C0CA01885592408A3570
:1033C000910538F48CE488878DE2898722EB32E01E
:1033D000E0CFCA01825B92408D9738F482E68887FD
:1033E0008DE289872FED32E0D4CFCA018F5D924004
:1033F0008A35910538F48CE488878DE2898729E342
:1034000033E0C7CFCA01895393404E9738F482E620
:1034100088878DE2898727E533E0BBCFCA018755CE
:1034200093408A35910538F48CE488878DE289874A
:1034300021EB33E0AECFCA01815B93400F9738F4A4
:1034400082E688878DE2898720EC33E0A2CFCA012B
:10345000805C93408A35910538F48CE488878DE24E
:1034600089872AE134E095CFCA018A5194400F97A9
:1034700038F482E688878DE2898729E234E089CFB3
:10348000CA01895294408A35910538F48CE48887C2
:103490008DE2898723E834E07CCF21E0F22A02C064
:1034A00081E0F82A1F2DF1FC09C08A8187508D30F8
:1034B00010F081E001C080E00E94370B10FF02C0D5
:1034C0000E943B180E94A626882309F057C00E943C
:1034D0000B128230A1F0833020F4813009F04EC00D
:1034E00006C0833031F0843009F048C006C082E065
:1034F00001C082E38093D10241C08CE3FBCF809175
:1035000036048823D9F10E94563538C00E94DC2E3B
:103510009093D3028093D202009771F1029771F5D4
:103520002BC00E945E080E94FD1683E3E3CF0E9439
:103530005E080E94A1168DE3DDCF0E945608880F19
:10354000991F880F991F815D9740C4F00E946508FC
:103550000E945E088EE38093D10280E00E944515B0
:103560000DC00E945608880F991F880F991F815D12
:10357000974024F00E9465081092D1022B960FB656
:10358000F894DEBF0FBECDBFCF91DF911F910F9199
:10359000FF90EF90DF90CF900895CF92DF92EF925F
:1035A000FF920F931F93DF93CF93CDB7DEB727978B
:1035B0000FB6F894DEBF0FBECDBF81E00E9473222C
:1035C0008091CD02882321F0823009F04BC03EC0AB
:1035D000CE010196BE016E5F7F4FAE014D5F5F4F22
:1035E0009E012C5F3F4F8E010B5F1F4FB6E0EB2E0D
:1035F000F12CEC0EFD1EA7E0CA2ED12CCC0EDD1E48
:103600000E94A30880E00E94370B8B816AE00E9431
:10361000AB3D992319F40E94FD1602C00E943B188D
:103620000E94A6268823F1F40E940B12813019F023
:103630008230C1F404C082E08093CD0213C0809137
:103640003604882379F00E9456350CC00E94DC2E87
:103650009093CF028093CE02009711F0029711F45D
:103660001092CD0227960FB6F894DEBF0FBECDBFE5
:10367000CF91DF911F910F91FF90EF90DF90CF904E
:103680000895CF92DF92EF92FF920F931F93DF93F3
:10369000CF93CDB7DEB727970FB6F894DEBF0FBE36
:1036A000CDBF81E00E9473228091CA02833309F466
:1036B00070C0843348F4823009F45AC0823309F46C
:1036C00062C0882359F08FC08D3309F46BC08E33EC
:1036D00009F47CC08C3309F086C05EC0CE0101962F
:1036E000BE016E5F7F4FAE014D5F5F4F9E012C5F4D
:1036F0003F4F8E010B5F1F4FF6E0EF2EF12CEC0ECB
:10370000FD1EE7E0CE2ED12CCC0EDD1E0E94A308BC
:103710008A8188508E3010F081E001C080E00E94E4
:10372000370B0E943B180E94A626882309F05BC035
:103730000E940B128230A1F0833020F4813009F016
:1037400052C006C0833031F0843009F04CC006C04E
:1037500082E001C082E38093CA0245C08CE3FBCFC4
:1037600080913604882309F43EC00E9456353BC040
:103770000E94DC2E9093CC028093CB02009789F1BB
:10378000029789F52EC00E945E080E94FD1683E311
:10379000E2CF0E94FD161AC00E945E080E94A11688
:1037A0008DE3D9CF0E945608880F991F880F991F63
:1037B000815D9740C4F00E9465080E945E088EE318
:1037C0008093CA0280E00E9445150DC00E945608F1
:1037D000880F991F880F991F815D974024F00E94E0
:1037E00065081092CA0227960FB6F894DEBF0FBE86
:1037F000CDBFCF91DF911F910F91FF90EF90DF90A0
:10380000CF900895CF92DF92EF92FF920F931F9384
:10381000DF93CF93CDB7DEB727970FB6F894DEBF0F
:103820000FBECDBF80E00E9473228091C702882323
:1038300021F0823009F05BC04EC0CE010196BE017E
:103840006E5F7F4FAE014D5F5F4F9E012C5F3F4F1C
:103850008E010B5F1F4FB6E0EB2EF12CEC0EFD1E20
:10386000A7E0CA2ED12CCC0EDD1E0E94A3088A81AF
:1038700088508E3010F081E001C080E00E94370B4C
:103880008B8164E10E94AB3D9A3018F40E943B1892
:103890000CC0892F8A50853018F40E94A11605C0EB
:1038A0009F50963010F40E94FD160E94A626882391
:1038B000F1F40E940B12813019F08230C1F404C07F
:1038C00082E08093C70213C080913604882379F088
:1038D0000E9456350CC00E94DC2E9093C902809342
:1038E000C802009711F0029711F41092C7022796B0
:1038F0000FB6F894DEBF0FBECDBFCF91DF911F9101
:103900000F91FF90EF90DF90CF900895CF92DF92CC
:10391000EF92FF920F931F93DF93CF93CDB7DEB754
:1039200027970FB6F894DEBF0FBECDBF81E00E948F
:1039300073228091C402833309F46FC0843348F446
:10394000823009F459C0823309F461C0882359F0E8
:103950008EC08D3309F46AC08E3309F47BC08C337A
:1039600009F085C05DC0CE010196BE016E5F7F4F3C
:10397000AE014D5F5F4F9E012C5F3F4F8E010B5F8D
:103980001F4FF6E0EF2EF12CEC0EFD1EE7E0CE2EE1
:10399000D12CCC0EDD1E0E94A3088F81853010F43F
:1039A0008981811181E00E94370B0E943B180E949F
:1039B000A626882309F05BC00E940B128230A1F07A
:1039C000833020F4813009F052C006C0833031F0DA
:1039D000843009F04CC006C082E001C082E38093CD
:1039E000C40245C08CE3FBCF80913604882309F4E0
:1039F0003EC00E9456353BC00E94DC2E9093C6020A
:103A00008093C502009789F1029789F52EC00E9424
:103A10005E080E94FD1683E3E2CF0E94FD161AC0E5
:103A20000E945E080E94A1168DE3D9CF0E9456081D
:103A3000880F991F880F991F815D9740C4F00E94DD
:103A400065080E945E088EE38093C40281E00E94B4
:103A500045150DC00E945608880F991F880F991FA1
:103A6000815D974024F00E9465081092C402279659
:103A70000FB6F894DEBF0FBECDBFCF91DF911F917F
:103A80000F91FF90EF90DF90CF900895CF92DF924B
:103A9000EF92FF920F931F93DF93CF93CDB7DEB7D3
:103AA0002B970FB6F894DEBF0FBECDBF81E00E940A
:103AB00073228091C102833309F433C1843348F403
:103AC000823009F41DC1823309F425C1882359F0DD
:103AD00052C18D3309F42EC18E3309F43FC18C33AA
:103AE00009F049C121C1CE010196BE016E5F7F4F31
:103AF000AE014D5F5F4F9E012C5F3F4F8E010B5F0C
:103B00001F4FF6E0EF2EF12CEC0EFD1EE7E0CE2E5F
:103B1000D12CCC0EDD1E0E94A3089A818CE3989FC5
:103B2000F00111248981E80FF11D9F81892F8150B7
:103B3000843008F057C02B81822F6FE00E94AB3D8C
:103B4000992351F0822F90E001966FE070E00E947F
:103B5000CB3D892B09F095C0CF01845A914088371D
:103B6000910508F458C0CF018C519240449708F455
:103B70005CC0CF0180539240803A910508F465C043
:103B8000CF01805D9240889708F469C0CF01885FBB
:103B900092408C38910508F074C08DE2888724E843
:103BA00033E02E1B3F0BC90164E670E00E94B73D75
:103BB000605D6987C90164E670E00E94B73D6AE014
:103BC00070E00E94B73D605D6A87C9016AE070E0FD
:103BD0000E94B73D805D8B87CE0108960E94E30B63
:103BE00010E050C0953009F04CC02B81822F6FE05F
:103BF0000E94AB3D992349F0822F90E001966FE03F
:103C000070E00E94CB3D892BE1F5CF01845A9140B1
:103C10008837910528F48DE288872CE132E0C1CF06
:103C2000CF018C519240449750F480E588878DE213
:103C3000898720E332E02E1B3F0BC901C0CFCF01A3
:103C400080539240803A910528F48DE2888720EDD8
:103C500032E0A7CFCF01805D9240889738F480E5AD
:103C600088878DE2898728EF32E0E5CFCF01885F32
:103C700092408134910528F48DE2888729E333E06E
:103C800090CF11E08A8186508D3010F081E001C024
:103C900080E00E94370B112371F08B8190E0039636
:103CA0006FE070E00E94CB3D892B19F40E94A116B1
:103CB00002C00E943B180E94A626882309F05BC020
:103CC0000E940B128230A1F0833020F4813009F081
:103CD00052C006C0833031F0843009F04CC006C0B9
:103CE00082E001C082E38093C10245C08CE3FBCF38
:103CF00080913604882309F43EC00E9456353BC0AB
:103D00000E94DC2E9093C3028093C202009789F137
:103D1000029789F52EC00E945E080E94FD1683E37B
:103D2000E2CF0E94FD161AC00E945E080E94A116F2
:103D30008DE3D9CF0E945608880F991F880F991FCD
:103D4000815D9740C4F00E9465080E945E088EE382
:103D50008093C10281E00E9445150DC00E94560863
:103D6000880F991F880F991F815D974024F00E944A
:103D700065081092C1022B960FB6F894DEBF0FBEF5
:103D8000CDBFCF91DF911F910F91FF90EF90DF900A
:103D9000CF900895CF92DF92EF92FF920F931F93EF
:103DA000DF93CF93CDB7DEB72B970FB6F894DEBF76
:103DB0000FBECDBF81E00E9473228091BB0283338E
:103DC00009F469C1843348F4823009F453C1823361
:103DD00009F45BC1882359F088C18D3309F464C1AB
:103DE0008E3309F475C18C3309F07FC157C1CE0100
:103DF0000196BE016E5F7F4FAE014D5F5F4F9E012A
:103E00002C5F3F4F8E010B5F1F4FF6E0EF2EF12C22
:103E1000EC0EFD1EE7E0CE2ED12CCC0EDD1E0E9456
:103E2000A30829813A818CE3389F80011124020F75
:103E3000111D9F81892F8150843008F063C02B337E
:103E400019F4373091F40BC02C3219F4393069F47D
:103E500006C02D3151F43B3011F03D3031F486E095
:103E60000E94370B92E0F92E01C0FF242B81822F94
:103E70006AE00E94AB3D992351F0822F90E00196B9
:103E80006AE070E00E94CB3D892B09F0BCC0C801FC
:103E9000805E91408A35910508F465C0C8018A5357
:103EA00092400F9708F46BC0C801895492408A353C
:103EB000910508F471C0C801835A92400F9708F425
:103EC00077C0C801825B92408A35910508F47DC0B5
:103ED000C8018C5093404E9738F480E588878DE276
:103EE00089872AE233E077C0C8018A5293408A3535
:103EF000910508F085C083E588878DE2898724E8ED
:103F000033E069C0953019F0FF24F3947EC02B3361
:103F100019F4373081F409C02C3219F4393059F4CE
:103F200004C02D3141F43B3031F486E00E94370B60
:103F300082E0F82E01C0FF242B81822F6AE00E94CC
:103F4000AB3D992351F0822F90E001966AE070E03A
:103F50000E94CB3D892B09F056C0C801805E91407C
:103F60008A35910538F483E588878DE289872AE3CD
:103F700032E031C0C8018A5392400F9738F480E58F
:103F800088878DE2898729E432E025C0C8018954F9
:103F900092408A35910538F483E588878DE28987D8
:103FA00023EA32E018C0C801835A92400F9738F4D0
:103FB00080E588878DE2898722EB32E00CC0C8015A
:103FC000825B92408A359105D8F483E588878DE23B
:103FD00089872CE033E0201B310BC9016AE070E0D7
:103FE0000E94B73D605D6A87C9016AE070E00E9487
:103FF000B73D805D8B87CE0108960E94E30B05C01C
:1040000021E0F22A02C081E0F82A1F2DF1FC09C04C
:104010008A8187508D3010F081E001C080E00E94DD
:10402000370B10FF02C00E943B180E94A62688236F
:1040300009F05BC00E940B128230A1F0833020F4A3
:10404000813009F052C006C0833031F0843009F06D
:104050004CC006C082E001C082E38093BB0245C031
:104060008CE3FBCF80913604882309F43EC00E9484
:1040700056353BC00E94DC2E9093BD028093BC025B
:10408000009789F1029789F52EC00E945E080E9470
:10409000FD1683E3E2CF0E94FD161AC00E945E085F
:1040A0000E94A1168DE3D9CF0E945608880F991F50
:1040B000880F991F815D9740C4F00E9465080E9497
:1040C0005E088EE38093BB0281E00E9445150DC01F
:1040D0000E945608880F991F880F991F815D97408D
:1040E00024F00E9465081092BB022B960FB6F8943C
:1040F000DEBF0FBECDBFCF91DF911F910F91FF901B
:10410000EF90DF90CF900895CF92DF92EF92FF92E1
:104110000F931F93DF93CF93CDB7DEB72B970FB6D7
:10412000F894DEBF0FBECDBF81E00E947322809164
:10413000B802833309F488C1843348F4823009F427
:1041400072C1823309F47AC1882359F0A7C18D3333
:1041500009F483C18E3309F494C18C3309F09EC1F4
:1041600076C1CE010196BE016E5F7F4FAE014D5FFD
:104170005F4F9E012C5F3F4F8E010B5F1F4FF6E09C
:10418000EF2EF12CEC0EFD1EE7E0CE2ED12CCC0E46
:10419000DD1E0E94A30829813A818CE3389F8001AB
:1041A0001124020F111D9F81892F8150843008F046
:1041B00082C02B3319F4373099F40CC02C3219F427
:1041C000393031F407C02D3159F43B3049F402C085
:1041D0003D3031F486E00E94370B92E0F92E01C0A9
:1041E000FF242B81822F6AE00E94AB3D992351F07E
:1041F000822F90E001966AE070E00E94CB3D892B0F
:1042000009F0DAC0C801805E91408A35910538F422
:104210008CE488878DE289872AE332E0B5C0C80143
:104220008A5392400F9738F482E688878DE2898717
:1042300029E432E0A9C0C801895492408A35910529
:1042400038F48CE488878DE2898723EA32E09CC0C9
:10425000C801835A92400F9738F482E688878DE22E
:10426000898722EB32E090C0C801825B92408A3598
:10427000910538F48CE488878DE289872CE033E05F
:1042800083C0C8018C5093408D9738F482E68887AC
:104290008DE2898729E333E077C0C80189539340D1
:1042A0008A35910508F085C08CE488878DE289877E
:1042B00023E933E069C0953019F0FF24F3947EC000
:1042C0002D3119F4373081F409C02E3019F439300A
:1042D00059F404C02B3341F43A3031F486E00E94A3
:1042E000370B82E0F82E01C0FF242B81822F6AE079
:1042F0000E94AB3D992351F0822F90E001966AE035
:1043000070E00E94CB3D892B09F056C0C801825C49
:1043100091408A35910538F48CE488878DE289874D
:104320002CE132E031C0C8018C5192400F9738F433
:1043300082E688878DE289872BE232E025C0C801BA
:104340008B5292408A35910538F48CE488878DE24F
:10435000898725E832E018C0C801855892400F9738
:1043600038F482E688878DE2898724E932E00CC040
:10437000C801845992408A359105D8F48CE4888725
:104380008DE289872EEE32E0201B310BC9016AE0F5
:1043900070E00E94B73D605D6A87C9016AE070E025
:1043A0000E94B73D805D8B87CE0108960E94E30B8B
:1043B00005C021E0F22A02C081E0F82A1F2DF1FC9D
:1043C00009C08A8187508D3010F081E001C080E003
:1043D0000E94370B10FF02C00E943B180E94A626C5
:1043E000882309F05BC00E940B128230A1F0833059
:1043F00020F4813009F052C006C0833031F084309F
:1044000009F04CC006C082E001C082E38093B8028C
:1044100045C08CE3FBCF80913604882309F43EC06D
:104420000E9456353BC00E94DC2E9093BA028093C6
:10443000B902009789F1029789F52EC00E945E08A3
:104440000E94FD1683E3E2CF0E94FD161AC00E946F
:104450005E080E94A1168DE3D9CF0E945608880FEE
:10446000991F880F991F815D9740C4F00E946508CD
:104470000E945E088EE38093B80280E00E9445159A
:104480000DC00E945608880F991F880F991F815DE3
:10449000974024F00E9465081092B8022B960FB640
:1044A000F894DEBF0FBECDBFCF91DF911F910F916A
:1044B000FF90EF90DF90CF90089580910802909147
:1044C00009020895009711F48FEF9FEF909309026E
:1044D000809308020895811181E08093D7020895A6
:1044E0008091D702089580930A020895833008F0DE
:1044F00080E08093EF020895883108F080E0809397
:10450000F10208958C3308F080E08093F202089560
:10451000843608F080E080930B020895EF92FF92BA
:104520000F931F93CF93DF9390E0EC01CC0FDD1F2F
:10453000CC0FDD1FC80FD91F01968C01000F111F72
:10454000000F111F080F191F87EFE82E82E0F82EC9
:10455000EC0EFD1E0CC0F894A895CE018C599F4F0F
:10456000F70161917F010E94780078942196C0172D
:10457000D10788F3DF91CF911F910F91FF90EF90BA
:1045800008958091D802823009F472C0833030F4EB
:10459000882359F0813009F095C01DC0833009F49B
:1045A00073C0843009F08EC07BC00E943F1290938C
:1045B000DA028093D9022FEF8F3F920709F479C076
:1045C0002FEF8E3F920709F47DC097FD7BC081E0FD
:1045D0008093D80277C00E943F129093DC028093B0
:1045E000DB022FEF8F3F920709F463C02FEF8E3F5E
:1045F000920709F467C097FD65C02091D9023091F8
:10460000DA022817390791F5232B31F48FEF9FEF4A
:104610009093DA028093D9026091D9027091DA0204
:104620006115710511F46FEF7FEF709309026093CC
:104630000802672F770F770B89E190E00E947800DE
:1046400088E190E0609108020E9478008091080261
:104650009091090297FF02C083E001C084E080933B
:10466000D8020E9465080E945E082CC082E0F7CF45
:104670000E945608880F991F880F991F815D9740E7
:10468000C4F483E091E01CC00E945608880F991F73
:10469000880F991F815D974064F488E091E010C015
:1046A0000E945608880F991F880F991F815D9740B7
:1046B0002CF01092D80220E030E006C08DE091E0AE
:1046C0000E94E30B21E030E0C90108950F931F938E
:1046D000DF93CF93CDB7DEB72A970FB6F894DEBF3E
:1046E0000FBECDBF8091F203863009F4FBC1873045
:1046F00090F4823009F48FC0833030F4882309F1BC
:10470000813009F015C327C0843009F4C7C0853053
:1047100008F0A3C19FC08F3109F453C2803238F42E
:104720008A3009F4FEC18E3109F002C314C281320D
:1047300009F4A9C2813208F47BC2883209F0F8C2B8
:104740004AC111E01093F2030E9465080E945E08BE
:1047500010930E02EDC28EE092E061E042E32CE4A1
:104760003DE10E945414833021F0843039F08823D5
:10477000E9F41092F20320E030E0DCC280910E02F6
:1047800090E0FC01EE0FFF1FEE0FFF1FE80FF91F77
:10479000EC50FD4F8081882311F08EE101C081E251
:1047A0008093F2030E9465080E945E0820910E0229
:1047B000822F6AE00E94AB3D805D8B83822F0E9436
:1047C000AB3D905D9C8380E28D8330E0F901EE0F7C
:1047D000FF1FEE0FFF1FE20FF31FEC50FD4FE081B4
:1047E000E23091F0E33030F4EE2351F0E13009F0A3
:1047F00031C108C0E33051F0E43009F02BC108C0EA
:104800008DE207C083E505C08CE403C08DE401C0E0
:1048100082E58E831FC182E060E040E157E222E141
:1048200031E08E010F5F1F4F0E941713823031F16C
:104830008530F9F489819A818831910540F480931B
:10484000F3038091F2038F5F8093F20371C21092A1
:10485000F2036EC282E060E040E157E227E131E01E
:104860008E010F5F1F4F0E941713823039F0853081
:1048700039F0882309F05CC28AE0FEC181E0FCC106
:1048800089819A818C33910530F48093F40380916F
:10489000F2038F5FF1C11092F203F0C10E9456083B
:1048A000880F991F880F991F815197423CF081E032
:1048B0008093F2030E9465080E945E080E940B121A
:1048C000982F823061F0833020F4813009F062C08B
:1048D00048C0833031F0843009F05CC01FC08AE0EA
:1048E00053C08091F5038230C1F1833030F48823C6
:1048F000A1F1813009F04AC006C08330F9F084305C
:1049000009F044C006C080913504882311F084E08A
:1049100025C080913604882389F01CC08091F5035E
:10492000823071F0833028F48823B9F0813071F53A
:1049300005C0833059F0843049F50FC082E00EC0C5
:1049400080913604882311F083E008C080913504FB
:10495000882319F09093F50319C081E08093F50343
:1049600015C08091F503833061F488E28093F203EF
:1049700080913604882351F08091F7030E94BF355F
:1049800005C08091F2038F5F8093F2030E94650857
:104990000E945E088091F5038230A1F0833030F4EC
:1049A000882351F0813009F0C3C109C0833069F018
:1049B000843009F0BDC10CC08CE191E0B7C181E247
:1049C00091E0B4C186E291E0B1C18BE291E0AEC169
:1049D00080E391E0ABC187EF93E060E043E62CE435
:1049E0003DE10E945414823099F0833018F48823FA
:1049F00031F020C0833019F08430E1F412C080918E
:104A00003604882311F00E949A351092F20312C0E6
:104A100080913604882371F08091F7030E94BF359E
:104A200009C080913604882311F00E949A3585E0F0
:104A30008093F20380E28B838C832091F703822F93
:104A40006AE00E94AB3D805D8D83822F0E94AB3D6A
:104A5000905D9E83CE01039669C10E945608880F1F
:104A6000991F880F991F815197423CF081E08093F4
:104A7000F2030E9465080E945E080E940B128230B9
:104A800051F0833018F48130F9F415C0833029F0E7
:104A90008430D1F408C08AE011C08091F6038823E5
:104AA00079F0815005C08091F603882349F481E0B4
:104AB0008093F60305C08091F2038F5F8093F20329
:104AC0000E9465080E945E088091F603882321F009
:104AD000813009F02DC103C085E391E027C18AE34D
:104AE00091E024C181E08093F20380910E02E5E021
:104AF0008E9FF0011124E950FD4F35979091F303FB
:104B000091939091F40391939091F50391939091E7
:104B1000F60391939091F703908381500E948E2227
:104B2000ADC081E08093F20380910E0290E0FC0121
:104B3000EE0FFF1FEE0FFF1FE80FF91FEC50FD4FA8
:104B400010820E9465080E945E0880910E028150CA
:104B50000E948E22EDC0E0910E0285E0E89FF001F8
:104B60001124E950FD4F35972191822F6AE00E9470
:104B7000AB3D805D8B8330E23C83822F0E94AB3D56
:104B8000905D9D838CE78E832081822F0E94AB3DB8
:104B9000805D8F833887822F0E94AB3D905D99871F
:104BA0003A87CE0103960E947D0B0E945608880F1B
:104BB000991F880F991F815D97400CF4B9C08FE150
:104BC0005BC080910E0290E0FC01EE0FFF1FEE0F24
:104BD000FF1FE80FF91FEC50FD4FE081E23091F02C
:104BE000E33028F4EE2341F0E130B1F408C0E330C3
:104BF00061F0E43089F40CC08CE191E00BC081E2FB
:104C000091E008C086E291E005C08BE291E002C02D
:104C100080E391E00E94E30B0E945608880F991FE1
:104C2000880F991F895E93400CF482C080E224C0F3
:104C300080910E0290E0FC01EE0FFF1FEE0FFF1FB0
:104C4000E80FF91FEB50FD4FE081EE2319F0E13042
:104C500041F403C085E391E002C08AE391E00E9441
:104C6000E30B0E945608880F991F880F991F895ED1
:104C700093400CF45DC081E28093F2030E946508CA
:104C80000E945E0855C00E945608880F991F880F21
:104C9000991F895B9B401CF081E08093F2030E9486
:104CA0000B12182F813031F08230F1F581E08093C2
:104CB000F2033AC082E08093F2030E9465080E94EA
:104CC0005E0880910E0290E0FC01EE0FFF1FEE0FD8
:104CD000FF1FE80FF91FE950FD4F35978191809331
:104CE000F30381918093F40380818093F5038823FB
:104CF00011F41093F50380910E0290E0FC01EE0F89
:104D0000FF1FEE0FFF1FE80FF91FE950FD4F32970D
:104D100081918093F60380818093F70381508336DD
:104D200018F081E08093F7038FE391E00E94E30B9A
:104D300021E030E0C9012A960FB6F894DEBF0FBE1D
:104D4000CDBFCF91DF911F910F910895CF92DF9248
:104D5000EF92FF920F931F93DF93CF93CDB7DEB700
:104D600027970FB6F894DEBF0FBECDBFCE010196D8
:104D7000BE016E5F7F4FAE014D5F5F4F9E012C5FA6
:104D80003F4F8E010B5F1F4FF6E0EF2EF12CEC0E24
:104D9000FD1EE7E0CE2ED12CCC0EDD1E0E94A30816
:104DA0008091F103843109F46AC0853148F48A3076
:104DB00009F455C08B3009F457C0882359F0A6C0B8
:104DC0008E3109F474C0843609F491C0853109F03C
:104DD0009DC060C04A8129813F81E7EFF2E000E099
:104DE00010E092819923A1F18081841789F5818156
:104DF000821771F58381882321F0813049F536309F
:104E000038F5913011F48AE003C0923031F484E136
:104E10008093F10320930D027BC09330C9F48091FD
:104E20003604882371F00E9465080E945E088EE1B6
:104E30008093F10309501D4FF80184810E94BF3512
:104E400003C08AE08093F103898180930D0260C0E2
:104E50000B5F1F4F35960A3F110519F657C080E0CA
:104E60000E948A008BE00FC00E945608880F991F8D
:104E7000880F991F895B9B400CF44AC014C082E0E4
:104E80000E948A0085E18093F1030E9465080E94D8
:104E90005E083EC00E945608880F991F880F991F10
:104EA000895B9B40ACF181E00E948A001AC00E949D
:104EB0005608855D90435CF080913604882311F09C
:104EC0000E949A350E94650884E68093F1030E944F
:104ED0000B128130E9F480913604882311F00E948E
:104EE0009A350E94650884E68093F10311C02981F8
:104EF00030E080910D02992787FD9095281739079A
:104F000029F01092F1038FEF80930D0280E001C031
:104F100081E027960FB6F894DEBF0FBECDBFCF91CC
:104F2000DF911F910F91FF90EF90DF90CF90089548
:104F3000CF93DF93C4E6D0E0CE010E948300FE0150
:104F4000ED56FD4F8083219681E0CE35D807A1F73D
:104F5000E7EFF2E091E08081883148F481818C3381
:104F600030F48281853018F48381823028F01082F9
:104F70001182128213829483359683E0E13FF80711
:104F800051F7DF91CF9108950F931F93DF93CF9344
:104F9000CDB7DEB72A970FB6F894DEBF0FBECDBFF0
:104FA0008091F302833009F472C0843030F4813090
:104FB000E1F1823008F04BC00DC0853009F436C1F4
:104FC000853008F4A2C0863009F47EC1873009F02C
:104FD000B5C18EC181E08093F3020E9465080E94F2
:104FE0005E082091F102822F6AE00E94AB3D805D55
:104FF0008B8330E23C83822F0E94AB3D905D9D838A
:105000008CE78E832091F202822F0E94AB3D805D5F
:105010008F833887822F0E94AB3D905D99873A87B6
:10502000CE0103960E947D0B89C10E945608880F0D
:10503000991F880F991F895E93400CF47FC180915E
:10504000F3028F5F8093F3020E94650877C182E0CC
:1050500060E040E157E222E131E08E010F5F1F4F37
:105060000E941713823019F0853001F508C086E0E0
:105070008093F3020E9465080E945E085FC18981E7
:105080009A8188319105F0F58093F40235C082E071
:1050900060E040E157E227E131E08E010F5F1F4FF2
:1050A0000E941713823019F3853049F0882309F0E4
:1050B00045C186E08093F3021092EF02DBCF298195
:1050C0003A812C333105F0F42093F5028091F402FB
:1050D0008093F1022093F20280910B0280930C02E4
:1050E000882319F481E080930C028091EF028823D9
:1050F00009F481E08093F6028091F3028F5F809340
:10510000F3021CC11092F30219C10E945608880FC5
:10511000991F880F991F815197423CF086E0809338
:10512000F3020E9465080E945E088091360488237D
:1051300029F480913504882309F499CF0E940B1239
:10514000982F823061F0833020F4813009F05CC008
:105150004AC0833051F0843009F056C022C086E046
:105160008093F3021092EF024BC02091F60221309F
:1051700041F02130A0F1223091F1233009F040C0FC
:105180000BC080913504882309F58091360488236B
:10519000B9F42093F60234C0809136048823F9F0E4
:1051A0000FC09091F602913039F09130C0F09230FA
:1051B00081F0933029F513C080913604882311F0D3
:1051C00082E00EC080913504882339F49093F60272
:1051D00017C080913504882311F083E001C081E07D
:1051E0008093F6020DC08091F602823011F0833078
:1051F00011F485E003C08093EF0286E08093F30210
:105200000E9465080E945E088091F602823041F09B
:10521000833049F0813009F091C084E491E065C0A9
:105220008BE291E062C089E491E05FC08CE092E0A3
:1052300060E043E62CE43DE10E9454148230B1F07A
:10524000833018F4882331F02CC0833019F0843077
:1052500041F516C080913604882311F00E949A35DA
:1052600086E08093F3021092EF021BC08091360417
:105270008823B9F080910C0280680E94BC3511C06F
:1052800080913604882311F00E949A3580910C0297
:1052900080930B028091F6028093EF0286E0809368
:1052A000F30280E28B838C8320910C02822F6AE0D0
:1052B0000E94AB3D805D8D83822F0E94AB3D905D4F
:1052C0009E83CE01039611C087E08093F3020E9473
:1052D00065080E945E088091EF028150833018F4C7
:1052E0008EE491E002C088E091E00E94E30B26C0CA
:1052F0000E945608880F991F880F991F855C994056
:10530000ECF08DE090E06091EF020E9478008EE07A
:1053100090E06091F1020E9478008FE090E060914F
:10532000F2020E94780083E190E060910B020E94FB
:1053300078001092F30220E030E002C021E030E07B
:10534000C9012A960FB6F894DEBF0FBECDBFCF912C
:10535000DF911F910F910895CF92DF92EF92FF920C
:105360000F931F93DF93CF93CDB7DEB727970FB679
:10537000F894DEBF0FBECDBFCE010196BE016E5FB9
:105380007F4FAE014D5F5F4F9E012C5F3F4F8E01FF
:105390000B5F1F4FF6E0EF2EF12CEC0EFD1EE7E049
:1053A000CE2ED12CCC0EDD1E0E94A3082091EF0240
:1053B0002430C1F1253020F4213008F478C004C035
:1053C000253009F074C062C09091F1028A8198176B
:1053D00009F06DC09091F2028981981709F067C0B9
:1053E0002093F00284E08093EF02809136048823BA
:1053F00059F0223049F486E00E94370B80910B026D
:1054000080680E94BC3551C080913504882319F012
:10541000233009F44AC080E00E948A0086E00E949E
:10542000370B43C083E591E00E94E30B0E940B120F
:10543000882381F085E08093EF0281E00E948A005A
:1054400080913604882331F08091F002823011F48B
:105450000E949A359091F1028A81981729F49091CF
:10546000F2028981981709F18091F0028093EF028E
:1054700081E00E948A00809136048823B1F08091F7
:10548000F002823091F40E949A350FC09091F1029F
:105490008A81981729F49091F2028981981739F03E
:1054A0008091F0028093EF0202C081E001C080E0B1
:1054B00027960FB6F894DEBF0FBECDBFCF91DF9118
:1054C0001F910F91FF90EF90DF90CF900895AF92D2
:1054D000CF92EF920F931F93DF93CF9300D0CDB76E
:1054E000DEB7E090E80224E0E21609F491C02E1540
:1054F00070F081E0E816C1F1E816C8F022E0E2168B
:1055000009F44FC083E0E81609F040C164C026E00A
:10551000E21609F4BEC0E21608F492C087E0E8166D
:1055200009F4D0C028E0E21609F030C10EC182E0D3
:1055300060E040E157E228E531E08E010F5F1F4F48
:105540000E941713823009F41CC1853009F088C00D
:1055500029813A81C90101974F9718F42093E902F4
:1055600053C01092E80212C182E060E040E157E2CD
:105570002DE531E08E010F5F1F4F0E94171382301F
:1055800009F4FFC0853009F06BC029813A81C90157
:1055900001970C9718F42093EA0236C0E092E802D3
:1055A000F5C082E060E040E157E222E631E08E01A2
:1055B0000F5F1F4F0E941713823009F4E2C085303D
:1055C00009F04EC089819A818436910508F05DC04A
:1055D0008093EB0219C081E060E040E157E227E6EA
:1055E00031E08E010F5F1F4F0E941713823009F4C4
:1055F000C8C08530A9F529813A81C901019707976B
:1056000008F043C02093EC028091E8028F5F3EC017
:1056100082E060E040E157E222E131E08E010F5F7D
:105620001F4F0E941713823009F4ABC08530C1F4BC
:1056300089819A818831910540F58093ED02E4CF0C
:1056400082E060E040E157E227E131E08E010F5F48
:105650001F4F0E941713823009F493C0853021F048
:10566000882309F093C08DC089819A818C3391057C
:1056700060F48093EE028091E8028F5F8093E802ED
:105680000E9465080E945E0881C081E08093E80264
:105690007DC00E945608880F991F880F991F815D51
:1056A00097406CF00E9465080E945E088091E802B5
:1056B0008F5F8093E8020E944A088093E7028CE69D
:1056C00091E040C00E945608880F991F880F991FCB
:1056D000815197420CF055C00E940B12823009F4A0
:1056E00050C0833018F48130E1F412C0833041F0AF
:1056F0008430B9F48091E702823078F48F5F05C07E
:105700008091E702882349F081508093E70205C029
:105710008091E8028F5F8093E8020E9465080E94F2
:105720005E088091E702813041F0813018F08230CC
:1057300069F506C08CE191E005C081E791E002C007
:1057400086E791E00E94E30B21C08091E7020E946E
:1057500044080E944A08682F85E190E00E94780082
:105760008091EE026091ED0240E02091E90200910B
:10577000EA02E090EB02C090EC02A3E0AA2E0E94A5
:105780008A081092E80220E030E002C021E030E018
:10579000C9010F900F90CF91DF911F910F91EF9062
:1057A000CF90AF9008958091E6028130A9F08130CA
:1057B00038F0823009F47BC0833009F0ECC08EC031
:1057C0000E9465080E945E0881E08093E6020E94C4
:1057D0002F158093E502DFC00E945608880F991F9D
:1057E000880F991F815197420CF08FC00E940B12B5
:1057F000823009F48AC0833018F48130D1F412C0A9
:10580000833041F08430A9F48091E502893068F456
:105810008F5F05C08091E502882339F08150809325
:10582000E50203C082E08093E6020E9465080E94C0
:105830005E088091E502843029F1853048F481309A
:10584000C1F0813098F08230B9F0833069F517C02B
:10585000873009F1883028F48530B9F0863021F599
:1058600017C08830D9F08930F9F41BC08BE791E07C
:1058700090C080E891E08DC085E891E08AC08AE818
:1058800091E087C08FE891E084C084E991E081C015
:1058900089E991E07EC08EE991E07BC083EA91E0E6
:1058A00078C088EA91E075C08DEA91E072C00E94EC
:1058B0005608880F991F880F991F815D97405CF0EB
:1058C0000E9465080E945E0883E08093E6020E94C1
:1058D000160B8093E40282EB91E05BC00E945608B5
:1058E000880F991F880F991F8151974274F40E9465
:1058F0000B12823051F0833018F48130F1F51CC066
:10590000833071F08430C9F505C01092E60220E0C2
:1059100030E043C08091E402882349F481E005C06F
:105920008091E402882319F081508093E4020E9460
:1059300065080E945E0821C01092E6028091E5028F
:105940000E9432150E942F15682F8AE090E00E9475
:1059500078008091E4020E94100B0E94160B682FC1
:1059600086E190E00E9478001092E6020E946508AD
:105970000E945E0822E030E010C08091E40288239B
:1059800019F0813041F403C08CE191E002C088EB52
:1059900091E00E94E30B21E030E0C9010895DF931C
:1059A000CF93CDB7DEB728970FB6F894DEBF0FBE02
:1059B000CDBF8091E102813089F1813038F08230B1
:1059C00009F448C0833009F026C1EAC08AE5809313
:1059D000E2020E9465080E945E088DE2898320E24F
:1059E0002A832B832C833091E202832F6AE00E946A
:1059F000AB3D805D8D832E83832F0E94AB3D905DF8
:105A00009F832887CE0101960E947D0B8091E10241
:105A10008F5F8093E1021092E302FDC082EE92E07C
:105A200061E040EF20E335E70E945414833021F019
:105A3000843029F0882331F41092E102AEC082E074
:105A40008093E1023091E202343610F48DE2BDC061
:105A50008DE2C3C00E940B12813031F0823079F4A4
:105A600081E08093E3020BC08091E302882309F078
:105A70008CC00E946E0883E08093E102CCC00E943B
:105A8000560888599A434CF08091E20281508093E5
:105A9000E2020E9465080E945E080E9456086AEFB2
:105AA00070E00E94CB3D2091E3028E3791056CF4AB
:105AB00080E28A8320FF12C0822F8F5F8093E302EF
:105AC000863060F01092E30209C08EE28A832223BE
:105AD00029F020FD03C02F5F2093E30280910A028A
